:100000000D308A00F12D00000A108A100A118207B3
:10001000F6346034D534F1346334B334B734E03477
:10002000F734F33401340834E734963497348734A2
:1000300067343734963475342534763417340434C1
:100040006434C33435340A108A100A1182070A3422
:1000500022343A3452346A3482349A34B234CA3450
:10006000FF340A108A100A1182072234003429341E
:100070000034303400343734003483160317290831
:10008000F8012802031847282808F7005328F70129
:100090000830AA00A80DF70D290877020318F70009
:1000A000F80DAA0B4A288312031308002030831688
:1000B0000317B200AE01AF01B001B1012908FA0087
:1000C0002808F9002708F8002608F7000310771C15
:1000D00077282A08AE072B0803182B0FAF072C0828
:1000E00003182C0FB0072D0803182D0FB107B10C02
:1000F000B00CAF0CAE0CFA0CF90CF80CF70CB20B00
:1001000066288312031308000130831603171207B1
:1001100084008313131883170008A301A201A1010F
:10012000A000A5010408A4002510831B25142308A2
:10013000A9002208A8002108A7002008A600AD01F8
:10014000AC010E30AB001030AA008312031356200E
:1001500083160317240884008313251883177A084D
:100160009700790896007808950077089400023087
:10017000120784008313131883170008A301A20138
:10018000A101A000A5010408A4002510831B2514CB
:100190002308A9002208A8002108A7002008A6001B
:1001A000AD01AC01AB013C30AA0083120313562011
:1001B00083160317240884008313251883177A08ED
:1001C0009B0079089A007808990077089800180829
:1001D0001407A0001508A10019080318190FA1079A
:1001E0001608A2001A0803181A0FA2071708A3007E
:1001F0001B0803181B0FA307033012078400831387
:1002000013188317000820079C0021089D00003068
:10021000031801309D0722089E00003003180130AA
:100220009E0723089F000030031801309F071C0819
:10023000F7001D08F8001E08F9001F08FA008312D5
:100240000313080083182729AA3084008317831614
:100250000317250829068039AF00A51F3A29A209EE
:10026000A309A409A509A20A0319A30A0319A40A48
:100270000319A50AA91F4729A609A709A809A909B9
:10028000A60A0319A70A0319A80A0319A90AF7015C
:10029000F801F901FA01AA01AB01AC01AD0129088D
:1002A000280427042604031985292030AE000310F2
:1002B000A20DA30DA40DA50DAA0DAB0DAC0DAD0D9A
:1002C00029082D02031D6E2928082C02031D6E2902
:1002D00027082B02031D6E2926082A02031C7F29EA
:1002E0002608AA022708031C270FAB022808031CB4
:1002F000280FAC022908031C290FAD020314F70DC7
:10030000F80DF90DFA0DAE0B5729AF1F9229F70919
:10031000F809F909FA09F70A0319F80A0319F90A99
:100320000319FA0A2A088000840A2B088000840A2C
:100330002C088000840A2D08800083120313080013
:10034000043003175607F8005708FA000318FA0A92
:100350007808831690007A089100930010089200A4
:100360008312031384207A080317DB007908DA006C
:100370007808D9007708D80008305607F8005708E1
:10038000FA000318FA0A7808831690007A08910098
:100390009300100892008312031384207A08031735
:1003A000DF007908DE007808DD007708DC005808F7
:1003B0005C02E0005D08E1005908031C590FE102EE
:1003C0005E08E2005A08031C5A0FE2025F08E300CD
:1003D0005B08031C5B0FE302E31FF329F701F8013D
:1003E000F901FA01FB296008F7006108F8006208CA
:1003F000F9006308FA007A08E3007908E200780857
:10040000E1007708E000831063088316A5008312DB
:1004100062088316A400831261088316A300831266
:1004200060088316A200A901A8010E30A7001030B1
:10043000A6008312031322217A080317E700790824
:10044000E6007808E5007708E40083149030840023
:10045000831763088316A500831262088316A4001D
:10046000831261088316A300831260088316A2001A
:10047000A901A8010E30A7001030A60083120313B3
:1004800022218316031713089700120896001108FB
:100490009500100894009901040898001910831B16
:1004A000191483101308A5001208A4001108A30052
:1004B0001008A200A901A801A7013C30A6008312E0
:1004C00003132221831603171808840083131918B5
:1004D00083177A088312EB007908EA007808E900AC
:1004E0007708E80003305607F8005708FA000318A9
:1004F000FA0A7808831690007A089100930104089C
:1005000092001310831B13148314943084008317F8
:10051000831263088316A500831262088316A40061
:10052000831261088316A300831260088316A20059
:10053000A901A8010E30A7001030A60083120313F2
:100540002221831603171408F7001508F80016086F
:10055000F9001708FA001208840083131318831790
:1005600017089B0016089A001508990014089800AF
:100570009D0104089C001D10831B1D1483149E30D4
:10058000840083171708A5001608A4001508A30007
:100590001408A200A901A801A7013C30A6008312FB
:1005A00003132221831603171C08840083131D18CC
:1005B0008317100884008313111883171E08800006
:1005C0000130831256078400831357188317640879
:1005D0008000023056078400831357188317680879
:1005E00080000313080003175C088316A8000A3074
:1005F000A900831203133D20780EF700F030F705B1
:100600007708F0390317DD005C088316A8000A306C
:10061000A900831203133D2077080F3903175D04E7
:10062000F800031308000830F80000008711A0113B
:10063000200883168700000083120317E20D0313BE
:100640000712031C292B20162008831687002D2B48
:100650008312201220088316870000008312A01541
:100660002008831687008312871D342BF80B152B67
:1006700000008711A0112008831687000000831254
:100680002016200883168700000000008312A015A2
:100690002008831687008312871D4C2BF801000069
:1006A000071A78148711A011200883168700831277
:1006B00007122012200883168700831208002016D4
:1006C00020088316870000008312A01520088316D7
:1006D000870000008312071220122008831687006B
:1006E000000083128711A011200883168700D030E4
:1006F00083120317E2000313132303175D08E200BC
:100700000313132303175E08E200031313232012BD
:1007100020088316870000008312A0152008831686
:1007200087008312871D922B0000962B0000201655
:10073000200883168700000083120800031755085D
:10074000DC000313F32278080317D9000330DD001F
:100750005908DE0003135F2303175608DC00031358
:10076000F32278080317D9000430DD005908DE00B1
:1007700003135F2303175708DC000313F3227808E1
:100780000317D9000530DD005908DE0003135F238D
:1007900003175808DC000313F32278080317D90065
:1007A0000630DD005908DE0003135F23080003173D
:1007B0005B08DC000313F32278080317DC00DD017B
:1007C0005C08DE0003135F2303175A08DC000313E1
:1007D000F32278080317DC000130DD005C08DE003E
:1007E00003135F2303175908DC000313F32278086F
:1007F0003F390317DC000230DD005C08DE00031324
:100800005F230800043003174E07840083134F183A
:1008100083170008F700840A0008F800840A00081B
:10082000F900840A0008FA007708D0007808D1009F
:100830007908D2007A08D30016304E07840083135B
:100840004F18831700080139031D442C510CF70081
:10085000F70C3F30F7057708013ED4000130D50092
:100860005408D6000130D700D80003139E23031785
:1008700051088316A8001830A900831203133D20E5
:1008800077080317D100652C16304E0784008313B8
:100890004F18831700080139013C031D652C5208CD
:1008A0008316A8003C30A900831203133D2078086A
:1008B0000317D10052088316A8003C30A900831208
:1008C00003133D2077080317D2000130D5005030C4
:1008D000D40001305407840083135518831700088F
:1008E0008316A8001830A900831203133D2077084F
:1008F0000317D6000230540784008313551883175A
:1009000000088316A8003C30A900831203133D2081
:1009100077080317D7000330540784008313551852
:10092000831700088316A8003C30A9008312031324
:100930003D2077080317D8005608D9005708DA0079
:100940005808DB000313D72308000317E101031342
:10095000201620088316870000008312A0152008A7
:1009600083168700000083120712201220088316C6
:100970008700000083128711A011200883168700CA
:10098000D03083120317E200031313230317600808
:10099000E2000313132320162008831687000000AB
:1009A0008312A01520088316870000008312871D7C
:1009B000D72C07122012200883168700000083120C
:1009C0008711A011200883168700D13083120317E6
:1009D000E20003131323F70108300317E30077083D
:1009E000E4000313201620088316870000008312FA
:1009F000A0152008831687008312871DFD2C071A77
:100A00000314071E0310F80D0000A0112008831620
:100A10008700831287110317E30BF12C03132016B1
:100A2000200883168700000083120712031764084A
:100A30000319212D03132012200883168700831227
:100A4000031700000313A0152008831687008312E4
:100A5000871D282D00008711A0112008831687000C
:100A600000008312071220122008831687007808DE
:100A700083120317E1000313201220088316870056
:100A800000008312A0152008831687008312871D9B
:100A9000472D00004B2D00002016200883168700EC
:100AA0000000831203176108F80003130800F70120
:100AB000F8010317640803106518F707F70CF80C22
:100AC000E518F707F70CF80C6519F707F70CF80CA1
:100AD000E519F707F70CF80C651AF707F70CF80C8F
:100AE000E51AF707F70CF80C651BF707F70CF80C7D
:100AF000E51BF707F70CF80C031308000317600851
:100B00000F39E1006008F039F700F70E0F30F705F4
:100B10007708E300E4000A30E5000313572578085E
:100B200003176107F800031308000317DA01DB015C
:100B3000DC01E0010313A52478080317DC005C083E
:100B4000E00003137E2578080317DC000130E00085
:100B50000313A52478080317DB005B08E0000313E8
:100B60007E2578080317DB000230E0000313A5247C
:100B700078083F390317DA005A08E00003137E258E
:100B800078080317DA005A08DD005B08DE005C080D
:100B9000DF005D08E1005E08E2005F08E300600836
:100BA000F7006108F8006208F9006308FA007A08A3
:100BB000D9007908D8007808D7007708D6005608F9
:100BC000F7005708F8005808F9005908FA0003130D
:100BD0000800043003174E07F8004F08FA00031806
:100BE000FA0A7808D4007A08D5000313952503176C
:100BF0005408840083135518831777088000840AEB
:100C000078088000840A79088000840A7A088000C5
:100C100016304E07840083134F18831700080139DC
:100C2000031D692E0630E0000313A524780803177E
:100C3000D2005208E00003137E2578080317D20083
:100C40000530E0000313A52478081F390317D100ED
:100C50005108E00003137E2578080317D100043003
:100C6000E0000313A52478083F390317D00050088B
:100C7000E00003137E2578080317D0000330E0005E
:100C80000313A524780807390317D3005308E0009D
:100C900003137E2578080317D30005304E07840020
:100CA00083134F18831701305002D8008316A80011
:100CB0000530A900831203133D2077080317E400D1
:100CC0001830E50003135725780800078000A02E90
:100CD000031716304E07840083134F18831700083C
:100CE0000139013C031D9F2E06304E07F8004F08C6
:100CF000FA000318FA0A7808D4007A08D5005408D4
:100D000084008313551883170008D60005304E075A
:100D1000840083134F18831700080139D800E400BA
:100D20003C30E50003135725780803175607D60013
:100D30005408840083135518831756088000031342
:100D400003174E08F8004F08FA004E08D4004F0869
:100D5000D500D7004E08D6000313A0210800F801E3
:100D6000F901F701FA0103174E08031DBA2E4D08C9
:100D70000319D42E1030CF000310CB0DCC0DF70D7E
:100D8000FA0D4E087A02031DC72E4D087702031C88
:100D9000D02E4D08F702031CFA034E08FA02031482
:100DA000F80DF90DCF0BBC2E0313080003174708ED
:100DB000CC004608CB004808CD00CE01CE014D083E
:100DC0004E020318EC2E4E084B07840083134C1878
:100DD00083178001CE0ADF2EC901C408031DF32E3C
:100DE000C5080319172F4508CC004408CB00CE01D5
:100DF0000A30CD000313AF2677080317CA0049084D
:100E0000460784008313471883174A088000C90ADD
:100E10004508CC004408CB00CE010A30CD000313B6
:100E2000AF2679080317C5007808C400ED2E031318
:100E30000800013003173907840083133A18831719
:100E40000008C200BB0803194E2F39088400831321
:100E50003A18831700080139013C031D4E2F013059
:100E60003907840083133A1883178008031D3B2F2A
:100E70000C30C2004E2F01303907840083133A181A
:100E8000831700080C3C03184E2F013039078400EB
:100E900083133A1883170C300002C200C5014208C0
:100EA000C4000130C7003C30C6000230C800031344
:100EB000D626023003173907840083133A188317A4
:100EC0000008C300C5014308C4000130C7003E301C
:100ED000C6000230C8000313D626033003173907B3
:100EE000840083133A1883170008C300C501430820
:100EF000C4000130C7004030C6000230C8000313F0
:100F0000D6263C30F8000130F90008000130031704
:100F1000BA00BB0183160313851183128511831652
:100F20008510831285100317BB0139083B02031893
:100F3000C32F3B0837078400831338188317000832
:100F4000BC000130BA003A08083C031CC12F3C1811
:100F5000AD2F03130510AF2F0317031305148316CA
:100F60000510031083120317BC0C8316031385119D
:100F70008312851583168511831285110317BA0A0A
:100F8000A32FBB0A952F8316031385108312851494
:100F9000831685108312851008001E308400831785
:100FA00000080319E02F0630F800F701F70BD62FE1
:100FB000F80BD52F7B30F700F70BDC2F800BD32FEE
:100FC000080003179D019E019F01A0010130B80098
:100FD0001D30B7000430B90003138627080003173B
:0C0FE000D901DA01DB010313D72308005C
:101000000317B60803193B283408B8003308B700A3
:101010003508B900BA01BA0139083A0203183A286A
:101020003A083707F8003808FA000318FA0A78086F
:10103000BB007A08BC003A083707840083133818CD
:10104000831700088A11031304208A15F800031778
:101050003B08840083133C188317780880003A0803
:101060003707840083133818831700080838800076
:10107000BA0A0C2868283408B8003308B7003508C5
:10108000B900BA01BA0139083A02031868283A08C7
:101090003707F8003808FA000318FA0A7808BB0086
:1010A0007A08BC003A08370784008313381883177E
:1010B00000088A11031304208A15F80003173B085F
:1010C000840083133C18831778088000BA0A4328E9
:1010D0003408B8003308B7003508B9008A11031383
:1010E00086278A150800163003171D07840083130E
:1010F0001E1883170008F700770C0139031DBD295E
:1011000016301D07840083131E1883170008013949
:10111000031D49291F08A000A101A201A301A401E8
:101120008A11031395258A157A080317AE007908EA
:10113000AD007808AC007708AB000630E0008A11FB
:101140000313A5248A1578080317B1003108E000BD
:101150008A1103137E258A1578080317B10005301C
:10116000E0008A110313A5248A1578081F39031794
:10117000B0003008E0008A1103137E258A15780834
:101180000317B0000430E0008A110313A5248A1568
:1011900078083F390317AF002F08E0008A110313C6
:1011A0007E258A1578080317AF000330E0008A1106
:1011B0000313A5248A15780807390317B2003208EB
:1011C000E0008A1103137E258A1578080317B20000
:1011D00001302F02B4008316A8000530A9008A113F
:1011E000831203133D208A1577080317E400183093
:1011F000E5008A11031357258A1578080317AC07F1
:101200000130BA002B30B900BB018A110313192732
:101210008A157908FA0078080317B3007A08B40031
:101220000130B6002530B5000630F80033088400E0
:101230008313341883170008F700350884008313DC
:101240003618831777088000B50A0319B60AB30A5F
:101250000319B40AF80B16292708A1002808A200D0
:101260002508A3002608A400A00803193B292E087E
:101270000139A0003D290130A0000130B400213027
:10128000B3000430B5002008B60003130020BB29CA
:10129000031716301D07840083131E1883170008D8
:1012A0000139013C031DBC29A001A101A201A30138
:1012B0008A11031395258A157A080317AD0079085A
:1012C000AC007808AB007708AA002B08E4003C309B
:1012D000E5008A11031357258A15780803172C0790
:1012E000AF008316A8006430A9008A11831203138B
:1012F0003D208A1577080317AC000130BA002A3068
:10130000B900BB018A11031319278A157908FA005D
:1013100078080317AE007A08AF000130B10024301E
:10132000B0000630F8002E08840083132F188317AE
:101330000008F700300884008313311883177708FA
:101340008000B00A0319B10AAE0A0319AF0AF80BFC
:1013500093292808A0002908A1002608A200270830
:10136000A3000130B4002030B3000430B5000130D8
:10137000B600031300200317C62A16301D07840089
:1013800083131E1883170008F700770C0139013CFE
:10139000031DC62A16301D07840083131E188317E9
:1013A00000080139031D3C2A1D08F8001E08FA0038
:1013B0007808A0007A08A1002108A3002008A20054
:1013C0001F08A400A501A601A701A8012208F80092
:1013D0002308FA007808AF007A08B000BA002F0896
:1013E000B900BB018A11031319278A157908FA007D
:1013F00078080317AF007A08B0000130B200293036
:10140000B1000630F8002F088400831330188317CA
:101410000008F70031088400831332188317770817
:101420008000B10A0319B20AAF0A0319B00AF80B17
:10143000032A2B08A5002C08A6002908A7002A08C3
:10144000A800A40803192E2A07302207840083135A
:101450002318831700080139A400302A0130A400A2
:101460000130B4002530B3000430B5002408B600C4
:1014700003130020C52A031716301D0784008313A9
:101480001E18831700080139013C031DC62A1D08D8
:10149000F8001E08FA007808A0007A08A1002108C8
:1014A000A3002008A200A401A501A601A70122080B
:1014B00084008313231883170008F700840A0008A8
:1014C000F800840A0008F900840A0008FA00770886
:1014D000AE007808AF007908B0007A08B1002F0894
:1014E000E4003C30E5008A11031357258A1578087B
:1014F00003173007B3008316A8006430A9008A11CF
:10150000831203133D208A1577080317B0000130BA
:10151000BA002E30B900BB018A11031319278A15AE
:101520007908FA0078080317B2007A08B30001308E
:10153000B5002830B4000630F80032088400831368
:10154000331883170008F700340884008313351814
:10155000831777088000B40A0319B50AB20A031981
:10156000B30AF80B9D2A2C08A4002D08A5002A0810
:10157000A6002B08A7000130B4002430B3000430CB
:10158000B5000130B6000313002003170313080051
:101590001A3003171D07840083131E1883170008D1
:1015A0009F0017301D07840083131E18831700083F
:1015B000A00003130B08F7008B1303171F088D00FF
:1015C00020088C0083168C130C1555308D00AA3022
:1015D0008D008C148C18EA2A0C11770883120313DF
:1015E0008B041B3003171D07840083131E188317F9
:1015F00000089F0018301D07840083131E188317EE
:101600000008A00003130B08F7008B1303171F0833
:101610008D0020088C0083168C130C1555308D001E
:10162000AA308D008C148C18132B0C1177088312A0
:1016300003138B04080003179E013F309D009F0198
:1016400003137320C83003179E008A110313CD279C
:101650008A158A11E1278A15C83003179E008A115E
:101660000313CD278A1503179E013F309D009F016C
:1016700003137320C83003179E008A110313CD276C
:101680008A158A11E1278A150800183003171D07EB
:10169000F8001E08FA000318FA0A7808A0007A0871
:1016A000A10017301D07840083131E18831700083C
:1016B000A2002008840083132118831722088000C9
:1016C00017301D07840083131E1883171F0880001E
:1016D00003130800183003171D07F8001E08FA004E
:1016E0000318FA0A78089F007A08A00017301D072F
:1016F000840083131E1883170008A1001F088400AC
:101700008313201883172108800017301D078400D9
:1017100083131E18831780010313080003171D0885
:10172000F8001E08FA0078089F007A08A000200838
:10173000A2001F08A1001030210784008313221883
:1017400083170008A30005302107840083132218A3
:1017500083170008A40003130B08F7008B1303176B
:1017600023088D0024088C0083168C130C1555302B
:101770008D00AA308D008C148C18BC2B0C117708AE
:10178000831203138B041130031721078400831382
:10179000221883170008A300063021078400831352
:1017A000221883170008A40003130B08F7008B13FB
:1017B000031723088D0024088C0083168C130C1546
:1017C00055308D00AA308D008C148C18E52B0C112F
:1017D0007708831203138B04123003172107840048
:1017E0008313221883170008A30007302107840001
:1017F0008313221883170008A40003130B08F700B3
:101800008B13031723088D0024088C0083168C1378
:101810000C1555308D00AA308D008C148C180E2CB0
:101820000C117708831203138B0408001E30031772
:101830001D07840083131E18831700089F001630AD
:101840001D07840083131E188317A0018018A00AA7
:1018500003130B08F7008B1303171F088D002008D4
:101860008C0083168C130C1555308D00AA308D001A
:101870008C148C18392C0C117708831203138B04E9
:101880000800163003171D07840083131E188317E2
:1018900000080139031DA22C1D089F001E08A0008E
:1018A0002008A2001F08A100A301A401A501A60110
:1018B00008302107F8002208FA000318FA0A78080D
:1018C000AD007A08AE00BA002D08B900BB018A113C
:1018D000031319278A157908FA0078080317AD0051
:1018E0007A08AE000130B0002730AF000630F800B3
:1018F0002D08840083132E1883170008F7002F0883
:10190000840083133018831777088000AF0A031907
:10191000B00AAD0A0319AE0AF80B782C2908A30007
:101920002A08A4002708A5002808A6000130B40052
:101930002330B3000430B5000130B600031300209B
:10194000012D031716301D07840083131E188317FB
:1019500000080139013C031D022D1D089F001E08CF
:10196000A0002008A2001F08A100A301A401A50156
:10197000A60108302107F8002208FA000318FA0A25
:101980007808AD007A08AE00BA002D08B900BB0196
:101990008A11031319278A157908FA0078080317A2
:1019A000AD007A08AE000130B0002730AF0006303D
:1019B000F8002D08840083132E1883170008F70001
:1019C0002F08840083133018831777088000AF0A2C
:1019D0000319B00AAD0A0319AE0AF80BD92C2B086B
:1019E000A3002C08A4002908A5002A08A60001309D
:1019F000B4002330B3000430B5000130B600031347
:101A000000200317031308000A3003172107F8000A
:101A10002208FA000318FA0A7808A3007A08A4003A
:101A20000A30210784008313221883170008A500B9
:101A3000143021078400831322188317000825021D
:101A4000031D242D00302C2D0A3021078400831320
:101A50002218831701300007A50023088400831390
:101A600024188317250880000313080003179F011B
:101A7000A001A101A20119301D07840083131E18C3
:101A8000831701300007A4008316A8000A30A900BC
:101A90008A11831203133D208A1577088A110420C6
:101AA0008A15F80003179F0019301D07840083135F
:101AB0001E18831701300007A4008316A8000A30FF
:101AC000A9008A11831203133D208A1578088A1110
:101AD00004208A1508380317A0003730A100013010
:101AE000B8001F30B7000430B9008A1103138627ED
:101AF0008A1508001D3003171D07840083131E1864
:101B0000831700089F0019301D07840083131E18D7
:101B100083170008A00003130B08F7008B130317AB
:101B20001F088D0020088C0083168C130C1555306F
:101B30008D00AA308D008C148C189C2D0C11770808
:101B4000831203138B0408008316861483128618ED
:101B5000AB2DE20AAD2DE201BE146208133C03185E
:101B6000B32DBE10E201BA30A7000D30A8008A15CF
:101B70000A12A52EA430A7000D30A8008A150A125B
:101B8000A52E08008316061483120618C92DE30A31
:101B9000CB2DE3013E1563080C3C0318D12D3E11FB
:101BA000E301D830AE000D30AF008A150A12A52E21
:101BB000C230AE000D30AF008A150A12A52E080003
:101BC0000130BE06E930BC000D30BD008A150A1296
:101BD000A52EE030BC000D30BD008A150A12A52EDE
:101BE000080003081F398300FF30A0003E14BE1414
:101BF0003E15BE153E16E101E201E301831603170F
:101C00000908C039890003131F129F1200300317FF
:101C10008800831287018801890183130030F8004E
:101C2000063803139200FF308316920083122011AE
:101C3000200883168700831207110E309700831641
:101C40009B019C0101309D0002308312E400FA30B8
:101C500003179E008A110313CD278A15E40B272E44
:101C6000FF30831695008113950003308312D60050
:101C7000A201A4010530A300A601A501A430A7007C
:101C80000D30A800A901AB010530AA00AD0101305B
:101C9000AC00C230AE000D30AF00B001B201013077
:101CA000B100B401B3010030B5001830B600B7017F
:101CB000B9010530B800BB010230BA00E030BC0009
:101CC0000D30BD00A10183160108C039073881001D
:101CD0003D30831281000B110310210DF7008A1192
:101CE00031208A15F900013077078A1131208A15D1
:101CF000FA007908840083137A1883170008F90022
:101D0000840A0008F700840A0008F800840A800AA0
:101D10000008FA00031D8F2E840A800A8403840AB7
:101D200000087802031DA72E77087A02031DA72E4C
:101D300084038001840A8001840AF91BA72E840A87
:101D400000088A0084030008820083120313A10A9A
:101D500004302102031D6C2EA10101080B1DB22EBF
:0C1D60008316682EAD2EFF30A10063003A
:102000005608F53E0318F22D0B3EF52D0317A301DC
:102010000130A4000230A5000330A6000430A70060
:102020000530A8000630A9000730AA000830AB0030
:102030000930AC002308C7002408C8002508C900DF
:102040002B08CA002C08CB002608CC002708CD009E
:1020500025088D0083168C130C1483120C0801398B
:10206000F80043107818431423088D0083168C134E
:102070000C1483120C08CF004F088316A8000330FD
:10208000A9000A12831203133D200A1677080317CA
:10209000C40024088D0083168C130C1483120C08C2
:1020A000CF004F088316A8000330A9000A1283123C
:1020B00003133D200A1677080317C5002B088D006F
:1020C00083168C130C1483120C08CF004F08831650
:1020D000A8000A30A9000A12831203133D200A1631
:1020E00077080317C6002C088D0083168C130C1478
:1020F00083120C080139F800C3107818C314C508FE
:10210000031D8728C408031D87280230C50000303E
:1021100043180130003A031303199228013A0319B6
:1021200050290A2A63300317D8003B30D900DB015D
:102130002608DA00DD012708DC00DF012808DE00C0
:10214000E1012908E000E3012A08E2005A088316A9
:102150009F0083125C0883169E0083125E0883161C
:10216000A000831260088316A10083126208831600
:10217000A20083125A088D0083168C130C1483124C
:102180000C08E40001305807E50064088316A80035
:10219000831265088316A9000A12831203133D20D7
:1021A0000A16770883160317990083125C088D00BE
:1021B00083168C130C1483120C08E40001305907A9
:1021C000E50064088316A800831265088316A90039
:1021D0000A12831203133D200A1677088316031789
:1021E0009A009B01831258088316A3008312590892
:1021F0008316A4003B30A5009030F8000130F900B0
:102200007908FA0078088312D2007A08D3000130E6
:10221000D5002D30D4001630F80052088400831306
:10222000531883170008F7005408840083135518C7
:10223000831777088000D40A0319D50AD20A031934
:10224000D30AF80B0D2926088D0083168C130C1465
:1022500083120C08CF004F088316A8006430A90031
:102260000A12831203133D200A1677080317B600DB
:1022700027088D0083168C130C1483120C08CF00D2
:102280004F088316A8003C30A9000A1283120313DA
:102290003D200A1677080317B700B80103130A2A6E
:1022A00063300317D800DA012608D900DC012708BB
:1022B000DB00DE012808DD00E0012908DF00E20183
:1022C0002A08E100590883169E0083125B088316D2
:1022D0009D0083125D088316A00083125F08831699
:1022E000A100831261088316A200A301831258087B
:1022F0008316A4003B30A5009901831259088D0074
:1023000083168C130C1483120C08E3000130580759
:10231000E40063088316A800831264088316A900EA
:102320000A12831203133D200A1677088316031737
:102330009A0083125B088D0083168C130C14831291
:102340000C08E3000130831625078312E4006308BC
:102350008316A800831264088316A9000A12831248
:1023600003133D200A167708831603179B0090304D
:10237000F8000130F9007908FA0078088312D200D9
:102380007A08D3000130D5002D30D4001630F80083
:10239000520884008313531883170008F700540869
:1023A000840083135518831777088000D40A031913
:1023B000D50AD20A0319D30AF80BC829B601260890
:1023C0008D0083168C130C1483120C08CF004F0859
:1023D0008316A8006430A9000A12831203133D205B
:1023E0000A1677080317B70027088D0083168C1389
:1023F0000C1483120C08CF004F088316A8003C3041
:10240000A9000A12831203133D200A167708031746
:10241000B80003130317C408031DDC2A0130CF00E2
:102420002D30CE0005304E07F8004F08FA00031893
:10243000FA0A7808D0007A08D10010304E078400DC
:1024400083134F1883170008D20052088D0083169B
:102450008C130C1483120C08D20013304E07840026
:1024600083134F18831701300007D30052088316D7
:10247000A800831253088316A9000A1283120313BB
:102480003D200A1677080317D200500884008313F2
:10249000511883175208800006304E07F8004F0885
:1024A000FA000318FA0A7808D0007A08D10011302F
:1024B0004E07840083134F1883170008D200520878
:1024C0008D0083168C130C1483120C08D200143068
:1024D0004E07840083134F18831701300007D30081
:1024E00052088316A800831253088316A9000A1203
:1024F000831203133D200A1677080317D2005008F1
:1025000084008313511883175208800007304E0748
:10251000F8004F08FA000318FA0A7808D0007A0881
:10252000D10012304E07840083134F188317000820
:10253000D20052088D0083168C130C1483120C08E1
:10254000D20015304E07840083134F1883170130D3
:102550000007D30052088316A8008312530883167D
:10256000A9000A12831203133D200A1677080317E5
:10257000D20050088400831351188317520880003A
:102580004F08D7004E08D6000A120313A0210A16DE
:1025900001300317CF002D30CE000A12031302249E
:1025A0000A1601300317D7002D30D6000A12031384
:1025B000A0210A16E42A03170130CF002D30CE00E7
:1025C0000A120313E9250A162D30F8000130F9002C
:1025D0007908FA00780803179D007A089E00A00188
:1025E0003F309F002130F8001D08840083131E181F
:1025F00083170008F7001F0884008313201883172F
:10260000770880009F0A0319A00A9D0A03199E0AF1
:10261000F80BF42A9E013F309D009F010A128A1593
:10262000031373200A168A11F22D8316861483125F
:10263000861C852BBE19852B03179E013F309D00FC
:1026400018301D07F8001E08FA000318FA0A780867
:102650009F007A08A00017301D07840083131E18FE
:1026600083170008A1001F08840083132018831714
:102670002108800016301D07840083131E1883175D
:102680000008F700770C0139031D4F2B17301D0789
:10269000840083131E18831701308000642B1630CA
:1026A0001D07840083131E1883170008F700770C9A
:1026B0000139013C031D642B17301D07840083136F
:1026C0001E188317023080009E013F309D000A12C1
:1026D0008A150313C8220A168A110317CF013F3047
:1026E000CE000A12031302240A160A128A151B23AB
:1026F0000A168A1103179E013F309D009F010A129E
:102700008A15031373200A168A11BE18942BBE145F
:1027100003179E013F309D0004309F000A128A1566
:10272000031345230A168A113E19A32B3E150317DE
:102730009E013F309D0009309F000A128A15031345
:1027400045230A168A11F22D0317CF013F30CE0020
:102750000A120313E9250A1603179E013F309D0054
:1027600001309F000A128A15031373200A168A117A
:10277000BE18C72BBE1403179E013F309D000430C6
:102780009F000A128A15031345230A168A1183161D
:1027900086148312861CFC2BBE19FC2B03179E018A
:1027A0003F309D000A128A1503136A230A168A1104
:1027B00003179E013F309D000A128A1503138E23D2
:1027C0000A168A1103179E013F309D000A128A15CE
:1027D0000313C8220A168A110A128A151B230A1625
:1027E0008A1103179E013F309D009F010A128A152E
:1027F000031373200A168A1103179E013F309D00B0
:102800001D08F8001E08FA0078089F007A08A0004A
:102810002008A2001F08A1002108F8002208FA00E1
:102820007808A3007A08A4002408A6002308A500BD
:102830000130250784008313261883178008031DA1
:10284000332C023025078400831326188317800851
:10285000031D332C033025078400831326188317A8
:1028600080080319352C0030362C0130F800780828
:102870007808F8080319A12C0313A0122008831666
:10288000870083128716C83003179E000A120313AD
:10289000CD270A16A01220088316870083128712FC
:1028A000643003179E000A120313CD270A16A012E4
:1028B00020088316870083128716C83003179E00EE
:1028C0000A120313CD270A16A012200883168700C8
:1028D0008312871203179E013F309D0001309F0035
:1028E0000A128A15031345230A168A1103179E013B
:1028F0003F309D000A128A150313C8220A168A1156
:10290000D51003179E013F309D000A128A1503134C
:1029100016240A168A110A12EF270A160130031725
:10292000D500D600D700D8000A1203139E230A163A
:102930000317CF013F30CE000A120313E9250A1610
:10294000031703133E19B12C3E1503179E013F30A8
:102950009D0009309F000A128A15031345230A16A9
:102960008A11F22D03179E013F309D0016301D077E
:10297000840083131E18831700080139031DE42CFB
:1029800005301D07840083131E1883170008633C5D
:10299000031DDE2C06301D07840083131E188317C9
:1029A00000083B3C031DDE2C07301D078400831309
:1029B0001E18831700083B3C0319E02C0030E12C63
:1029C0000130F800072D072D16301D0784008313F2
:1029D0001E18831700080139013C031D072D06301E
:1029E0001D07840083131E1883170008633C031D12
:1029F000032D07301D07840083131E18831700085A
:102A00003B3C0319052D0030062D0130F800F80875
:102A1000031D532DCF013F30CE000A120313E925C9
:102A20000A1603179E013F309D0001309F000A12D5
:102A30008A15031373200A168A11831686148312CB
:102A4000861C522DBE19522D03179E013F309D004A
:102A50000A128A1503136A230A168A1103179E01A4
:102A60003F309D000A128A1503138E230A168A111D
:102A700003179E013F309D000A128A150313C822D6
:102A80000A168A110A128A151B230A168A110317BD
:102A90009E013F309D009F010A128A150313732087
:102AA0000A168A1103170313BE18632DBE140317E9
:102AB0009E013F309D0004309F000A128A150313C7
:102AC00045230A168A113E19722D3E1503179E01E1
:102AD0003F309D0009309F000A128A1503134523D9
:102AE0000A168A11F22DD51403179E013F309D005E
:102AF0000A128A15031316240A168A110A12EF27DE
:102B00000A1601300317D500D600D700D8000A12E4
:102B100003139E230A1603179D019E019F01A00126
:102B200001309D0009309E0001309F00A000B800D8
:102B30001D30B7000430B9000A12031386270A16A5
:102B4000083003179D00FA309E000A120313CD27A8
:102B50000A1603179D0BA32D9E013F309D000A30DE
:102B60009F000A128A15031345230A168A1105309D
:102B7000E0000A12EF270A1601300317D500D6002D
:102B8000D700D8000A1203139E230A160317CF0199
:102B90003F30CE000A120313E9250A1603179E01DF
:102BA0003F309D009F010A128A15031373200A16F5
:102BB0008A11F22D831686148312861CF22D831639
:102BC00006148312061CF22D03179E013F309D0050
:102BD0000313600803179F000A128A150313452385
:102BE0000A168A118A150A1602280A148A100A156A
:102BF000FC3E03188A0A8200152BB22CA42B06284F
:0E2C0000732DF22DF22DF22DF22DF22DDA2D84
:103000008A1100288A1505305602FB3E0318242F2A
:10301000053E3F2F03179E013F309D009F010A127E
:10302000031373200A16831686148312861C402805
:10303000BE19402803179E013F309D0002309F00BB
:103040000A12031345230A1603179E013F309D0001
:103050000A120313C8220A160A121B230A160A129E
:103060008A11EF270A168A1501300317D500D600FA
:10307000D700D8000A128A1103139E230A168A1554
:103080003E194D283E1503179E013F309D00063026
:103090009F000A12031345230A16242F3E1C5928A9
:1030A00003179E013F309D000A12031341240A16A4
:1030B000442903179E013F309D0016301D078400F0
:1030C00083131E18831700080139031DD1281D081A
:1030D000F8001E08FA0078089F007A08A00020086F
:1030E000A2001F08A100A301A401A501A6010830A8
:1030F0002107F8002208FA000318FA0A7808AD0040
:103100007A08AE00BA002D08B900BB010A128A1174
:10311000031319270A168A157908FA007808031785
:10312000AD007A08AE000130B0002730AF000630A5
:10313000F8002D08840083132E1883170008F70069
:103140002F08840083133018831777088000AF0A94
:103150000319B00AAD0A0319AE0AF80B9928290819
:103160000A128A11031304200A168A15F80003179D
:10317000A3002A080A128A11031304200A168A15CA
:1031800008380317A4000130B8002330B70004301A
:10319000B9000A128A11031386270A168A154429D0
:1031A000031716301D07840083131E1883170008A9
:1031B0000139013C031D45291D08F8001E08FA00CD
:1031C00078089F007A08A0002008A2001F08A1002C
:1031D000A301A401A501A60108302107F8002208D7
:1031E000FA000318FA0A7808AD007A08AE00BA00AF
:1031F0002D08B900BB010A128A11031319270A16F8
:103200008A157908FA0078080317AD007A08AE002D
:103210000130B0002730AF000630F8002D088400E0
:1032200083132E1883170008F7002F0884008313D8
:103230003018831777088000AF0A0319B00AAD0A67
:103240000319AE0AF80B0E292B080A128A11031370
:1032500004200A168A15F8000317A3002C080A1286
:103260008A11031304200A168A1508380317A400CC
:103270000130B8002330B7000430B9000A128A11B7
:10328000031386270A168A15031783160313861459
:1032900083128618C6298316861483128618C629B7
:1032A00003179E013F309D0016301D0784008313D5
:1032B0001E18831700080139031D9A291D08F800FC
:1032C0001E08FA0078089F007A08A0002008A200D3
:1032D0001F08A10009302107F8002208FA0003188E
:1032E000FA0A7808A3007A08A400093021078400AC
:1032F0008313221883170008A500133021078400C8
:1033000083132218831700082502031D8929003022
:103310009129093021078400831322188317013073
:103320000007A500230884008313241883172508A9
:103330008000B52916301D07840083131E188317DB
:1033400000080139013C031DB5291D08F8001E08BD
:10335000FA001D089F001E08A000A2001D08A10081
:103360000A12031304250A1603179E013F309D001D
:103370000A12031341240A16C83003179E000A12CA
:103380008A110313CD270A168A154B293E1ADD2907
:10339000831606148312061CDD295708053C031DFD
:1033A000D329E10ADD2903179E013F309D00073034
:1033B0009F000A12031345230A166108013C0318F3
:1033C000EC29E10103179E013F309D0007309F006B
:1033D0000A12031345230A16242F3E1CF82903174B
:1033E0009E013F309D000A12031341240A16E72A6A
:1033F00003179E013F309D0016301D078400831384
:103400001E18831700080139031D722A1D08F800D1
:103410001E08FA0078089F007A08A0002008A20081
:103420001F08A100A301A401A501A60108302107DE
:10343000F8002208FA000318FA0A7808AD007A08A2
:10344000AE00BA002D08B900BB010A128A1103139D
:1034500019270A168A157908FA0078080317AD00AB
:103460007A08AE000130B0002730AF000630F80017
:103470002D08840083132E1883170008F7002F08E7
:10348000840083133018831777088000AF0A03196C
:10349000B00AAD0A0319AE0AF80B382A0830A400A6
:1034A00027080A128A11031304200A168A15F80045
:1034B0000317A50028080A128A11031304200A160C
:1034C0008A15F8000317A6000130B8002330B700B2
:1034D0000430B9000A128A11031386270A168A15C6
:1034E000E72A031716301D07840083131E1883175D
:1034F00000080139013C031DE82A1D08F8001E08D8
:10350000FA0078089F007A08A0002008A2001F088F
:10351000A100A301A401A501A60108302107F8001C
:103520002208FA000318FA0A7808AD007A08AE00FB
:10353000BA002D08B900BB010A128A11031319271A
:103540000A168A157908FA0078080317AD007A0878
:10355000AE000130B0002730AF000630F8002D0873
:10356000840083132E1883170008F7002F088400A7
:1035700083133018831777088000AF0A0319B00A45
:10358000AD0A0319AE0AF80BAF2A0830A4002908C7
:103590000A128A11031304200A168A15F800031769
:1035A000A5002A080A128A11031304200A168A1594
:1035B000F8000317A6000130B8002330B70004302C
:1035C000B9000A128A11031386270A168A150317EF
:1035D000831603138614831286186B2B83168614A6
:1035E000831286186B2B03179E013F309D00163007
:1035F0001D07840083131E18831700080139031D5B
:10360000122B1D08F8001E08FA0078089F001E08FB
:10361000A000A2001F08A1000A12031304250A1625
:10362000592B031716301D07840083131E188317A8
:1036300000080139013C031D582B1D08F8001E0825
:10364000FA0078089F007A08A0002008A2001F084E
:10365000A1000B302107F8002208FA000318FA0A2B
:103660007808A3007A08A4000B3021078400831394
:10367000221883170008A500153021078400831342
:103680002218831700082502031D482B0030502BF9
:103690000B302107840083132218831701300007A1
:1036A000A5002308840083132418831725088000AD
:1036B000031303179E013F309D000A120313412498
:1036C0000A16C83003179E000A128A110313CD2769
:1036D0000A168A15EE2A3E1AD02B83160614831278
:1036E000061CD02B03179E013F309D0016301D078E
:1036F000840083131E18831700080139031D982BBB
:1037000009301D07840083131E1883178008031DCA
:10371000942B0A301D07840083131E18831780081A
:10372000031D942B0030952B0130F800B92BB92BD9
:1037300016301D07840083131E18831700080139F3
:10374000013C031DB92B0A301D07840083131E188A
:1037500083178008031DB72B0B301D0784008313CC
:103760001E1883178008031DB72B0030B82B0130BB
:10377000F800F8080319C72B9E013F309D00083060
:103780009F000A12031345230A16D02B03179E012C
:103790003F309D0006309F000A12031345230A168E
:1037A000242F03179E013F309D009F01A001A1011E
:1037B000A20116301D07840083131E18831700080A
:1037C0000139031DEB2B25309F002D30A000673001
:1037D000A100A200FD2B16301D07840083131E18C4
:1037E000831700080139013C031DFD2BB3309F00F6
:1037F000BB30A0002530A100A2000130B8001F306E
:10380000B7000430B9000A128A11031386270A167A
:103810008A15831686148312861C542DBE19542DC6
:1038200003179E013F309D0016301D07F8001E084B
:10383000FA000318FA0A78089F007A08A0001630E8
:103840001D07840083131E188317001C2E2C1F08CD
:1038500084008313201883170010342C1F08840061
:10386000831320188317001416301D078400831358
:103870001E18831700080139031DBE2C09301D07CF
:10388000F8001E08FA000318FA0A78089F007A0860
:10389000A0000A301D07840083131E188317000838
:1038A000A1001F08840083132018831721088000BB
:1038B0000A301D07F8001E08FA000318FA0A7808F3
:1038C0009F007A08A0000B301D07840083131E1888
:1038D00083170008A1001F08840083132018831792
:1038E000210880000B301D07840083131E188317E6
:1038F000800113301D07840083131E188317633063
:10390000800014301D07840083131E1883173B307A
:1039100080000F301D07F8001E08FA000318FA0A8D
:1039200078089F007A08A0000E301D0784008313DA
:103930001E1883170008A1001F0884008313201895
:103940008317210880000E301D07F8001E08FA00BA
:103950000318FA0A78089F007A08A0000D301D07A6
:10396000840083131E1883170008A1001F08840019
:1039700083132018831721088000532D16301D074C
:10398000840083131E18831700080139013C031DAE
:10399000532D0130D500D600D700D8000A128A1165
:1039A00003139E230A168A150B3003171D07F80010
:1039B0001E08FA000318FA0A78089F007A08A00087
:1039C0000A301D07840083131E1883170008A10006
:1039D0001F088400831320188317210880000A30F1
:1039E0001D07F8001E08FA000318FA0A78089F005D
:1039F0007A08A00009301D07840083131E1883175E
:103A00000008A1001F0884008313201883172108D1
:103A1000800009301D07840083131E18831780015E
:103A200013301D07840083131E1883178001143080
:103A30001D07840083131E188317633080000D3028
:103A40001D07F8001E08FA000318FA0A78089F00FC
:103A50007A08A0000E301D07840083131E188317F8
:103A60000008A1001F088400831320188317210871
:103A700080000E301D07F8001E08FA000318FA0A2D
:103A800078089F007A08A0000F301D078400831378
:103A90001E1883170008A1001F0884008313201834
:103AA00083172108800003133E1A6A2E831606141A
:103AB0008312061C6A2E03179E013F309D001630AC
:103AC0001D07840083131E18831700080139031D86
:103AD000BC2D1F301D07840083131E188317000898
:103AE0009F0009301D07840083131E1883170008E8
:103AF000A00003130B08F7008B1303171F088D009A
:103B000020088C0083168C130C1555308D00AA30BC
:103B10008D008C148C188A2D0C11770883120313D6
:103B20008B04203003171D07840083131E1883178E
:103B300000089F000A301D07840083131E18831796
:103B40000008A00003130B08F7008B1303171F08CE
:103B50008D0020088C0083168C130C1555308D00B9
:103B6000AA308D008C148C18B32D0C117708831299
:103B700003138B04182E031716301D0784008313BC
:103B80001E18831700080139013C031D192E1F3030
:103B90001D07840083131E18831700089F000A3036
:103BA0001D07840083131E1883170008A000031349
:103BB0000B08F7008B1303171F088D0020088C00DB
:103BC00083168C130C1555308D00AA308D008C1483
:103BD0008C18E82D0C117708831203138B04203006
:103BE00003171D07840083131E18831700089F0006
:103BF0000B301D07840083131E1883170008A000D4
:103C000003130B08F7008B1303171F088D00200800
:103C10008C0083168C130C1555308D00AA308D0046
:103C20008C148C18112E0C117708831203138B043B
:103C300003179E013F309D001C301D078400831335
:103C40001E18831700089F0016301D078400831379
:103C50001E188317A0010018A00A03130B08F70011
:103C60008B1303171F088D0020088C0083168C13FC
:103C70000C1555308D00AA308D008C148C183E2EFA
:103C80000C117708831203138B0401300317D5003E
:103C9000D600D700D8000A128A1103139E230A16F1
:103CA0008A150A128A11EF270A168A150317CF01FF
:103CB0003F30CE000A128A110313E9250A168A152D
:103CC00003179E013F309D0009309F000A12031325
:103CD00045230A16242F3E1C762E03179E013F30E3
:103CE0009D000A12031336250A16892E03179D011B
:103CF0009E019F01A00137309F000130B8001D30A8
:103D0000B7000430B9000A128A11031386270A1675
:103D10008A158316861483128618E32E831686145A
:103D200083128618E32E03179E013F309D00193041
:103D30001D07F8001E08FA000318FA0A78089F0009
:103D40007A08A00019301D07840083131E188317FA
:103D500001300007A2008316A8000A30A9000A1249
:103D60008A11831203133D200A168A157708031758
:103D7000A1001F08840083132018831721088000E6
:103D800019301D07840083131E18831700080A12B8
:103D90008A11031323200A168A1503179F000313A1
:103DA000950003179E013F309D000A12031336252C
:103DB0000A16C83003179E000A128A110313CD2772
:103DC0000A168A158E2E3E1A022F831606148312A7
:103DD000061C022F5708083C031D012F03179E01E4
:103DE0003F309D000A1203137A250A1603179E011D
:103DF0003F309D0005309F000A12031345230A1629
:103E0000022FE10A6108013C0318242FE101031786
:103E10009E013F309D000313570803179F000A12AD
:103E2000031345230A1603179E013F309D009F018F
:103E30000A12031373200A1603179E013F309D00D8
:103E40000A1203137A250A16831686148312BE11EA
:103E50008618BE158316061483123E1206183E16E7
:103E60003730B5001F30B6008A150A12A52E003073
:103E7000B5001830B6008A150A12A52E08000A14DB
:103E80008A140A1582070A284E28ED29D12B6B2E99
:04400E00822FFF3FBF
:00000001FF
;PIC16F886
;CRC=BE21  CREATED="10-Nov-17 13:51"
