:100000000D308A00F12D00000A108A100A118207B3
:10001000F6346034D534F1346334B334B734E03477
:10002000F734F33401340834E734963497348734A2
:1000300067343734963475342534763417340434C1
:100040006434C33435340A108A100A1182070A3422
:1000500022343A3452346A3482349A34B234CA3450
:10006000FF340A108A100A1182072234003429341E
:100070000034303400343734003483160317290831
:10008000F8012802031847282808F7005328F70129
:100090000830AA00A80DF70D290877020318F70009
:1000A000F80DAA0B4A288312031308002030831688
:1000B0000317B200AE01AF01B001B1012908FA0087
:1000C0002808F9002708F8002608F7000310771C15
:1000D00077282A08AE072B0803182B0FAF072C0828
:1000E00003182C0FB0072D0803182D0FB107B10C02
:1000F000B00CAF0CAE0CFA0CF90CF80CF70CB20B00
:1001000066288312031308000130831603171207B1
:1001100084008313131883170008A301A201A1010F
:10012000A000A5010408A4002510831B25142308A2
:10013000A9002208A8002108A7002008A600AD01F8
:10014000AC010E30AB001030AA008312031356200E
:1001500083160317240884008313251883177A084D
:100160009700790896007808950077089400023087
:10017000120784008313131883170008A301A20138
:10018000A101A000A5010408A4002510831B2514CB
:100190002308A9002208A8002108A7002008A6001B
:1001A000AD01AC01AB013C30AA0083120313562011
:1001B00083160317240884008313251883177A08ED
:1001C0009B0079089A007808990077089800180829
:1001D0001407A0001508A10019080318190FA1079A
:1001E0001608A2001A0803181A0FA2071708A3007E
:1001F0001B0803181B0FA307033012078400831387
:1002000013188317000820079C0021089D00003068
:10021000031801309D0722089E00003003180130AA
:100220009E0723089F000030031801309F071C0819
:10023000F7001D08F8001E08F9001F08FA008312D5
:100240000313080083182729AA3084008317831614
:100250000317250829068039AF00A51F3A29A209EE
:10026000A309A409A509A20A0319A30A0319A40A48
:100270000319A50AA91F4729A609A709A809A909B9
:10028000A60A0319A70A0319A80A0319A90AF7015C
:10029000F801F901FA01AA01AB01AC01AD0129088D
:1002A000280427042604031985292030AE000310F2
:1002B000A20DA30DA40DA50DAA0DAB0DAC0DAD0D9A
:1002C00029082D02031D6E2928082C02031D6E2902
:1002D00027082B02031D6E2926082A02031C7F29EA
:1002E0002608AA022708031C270FAB022808031CB4
:1002F000280FAC022908031C290FAD020314F70DC7
:10030000F80DF90DFA0DAE0B5729AF1F9229F70919
:10031000F809F909FA09F70A0319F80A0319F90A99
:100320000319FA0A2A088000840A2B088000840A2C
:100330002C088000840A2D08800083120313080013
:10034000043003175507F8005608FA000318FA0A94
:100350007808831690007A089100930010089200A4
:100360008312031384207A080317DA007908D9006E
:100370007808D8007708D70008305507F8005608E5
:10038000FA000318FA0A7808831690007A08910098
:100390009300100892008312031384207A08031735
:1003A000DE007908DD007808DC007708DB005708FC
:1003B0005B02DF005C08E0005808031C580FE002F5
:1003C0005D08E1005908031C590FE1025E08E200D4
:1003D0005A08031C5A0FE202E21FF329F701F80141
:1003E000F901FA01FB295F08F7006008F8006108CD
:1003F000F9006208FA007A08E2007908E10078085A
:10040000E0007708DF00831062088316A5008312DE
:1004100061088316A400831260088316A300831268
:100420005F088316A200A901A8010E30A7001030B2
:10043000A6008312031322217A080317E600790825
:10044000E5007808E4007708E30083149030840026
:10045000831762088316A500831261088316A4001F
:10046000831260088316A30083125F088316A2001C
:10047000A901A8010E30A7001030A60083120313B3
:1004800022218316031713089700120896001108FB
:100490009500100894009901040898001910831B16
:1004A000191483101308A5001208A4001108A30052
:1004B0001008A200A901A801A7013C30A6008312E0
:1004C00003132221831603171808840083131918B5
:1004D00083177A088312EA007908E9007808E800AF
:1004E0007708E70003305507F8005608FA000318AC
:1004F000FA0A7808831690007A089100930104089C
:1005000092001310831B13148314943084008317F8
:10051000831262088316A500831261088316A40063
:10052000831260088316A30083125F088316A2005B
:10053000A901A8010E30A7001030A60083120313F2
:100540002221831603171408F7001508F80016086F
:10055000F9001708FA001208840083131318831790
:1005600017089B0016089A001508990014089800AF
:100570009D0104089C001D10831B1D1483149E30D4
:10058000840083171708A5001608A4001508A30007
:100590001408A200A901A801A7013C30A6008312FB
:1005A00003132221831603171C08840083131D18CC
:1005B0008317100884008313111883171E08800006
:1005C000013083125507840083135618831763087C
:1005D000800002305507840083135618831767087C
:1005E00080000313080003175B088316A8000A3075
:1005F000A900831203133D20780EF700F030F705B1
:100600007708F0390317DC005B088316A8000A306E
:10061000A900831203133D2077080F3903175C04E8
:10062000F800031308000830F80000008711A0113B
:10063000200883168700000083120317E10D0313BF
:100640000712031C292B20162008831687002D2B48
:100650008312201220088316870000008312A01541
:100660002008831687008312871D342BF80B152B67
:1006700000008711A0112008831687000000831254
:100680002016200883168700000000008312A015A2
:100690002008831687008312871D4C2BF801000069
:1006A000071A78148711A011200883168700831277
:1006B00007122012200883168700831208002016D4
:1006C00020088316870000008312A01520088316D7
:1006D000870000008312071220122008831687006B
:1006E000000083128711A011200883168700D030E4
:1006F00083120317E1000313132303175C08E100BF
:100700000313132303175D08E100031313232012BF
:1007100020088316870000008312A0152008831686
:1007200087008312871D922B0000962B0000201655
:10073000200883168700000083120800031754085E
:10074000DB000313F32278080317D8000330DC0022
:100750005808DD0003135F2303175508DB0003135C
:10076000F32278080317D8000430DC005808DD00B5
:1007700003135F2303175608DB000313F3227808E3
:100780000317D8000530DC005808DD0003135F2391
:1007900003175708DB000313F32278080317D80068
:1007A0000630DC005808DD0003135F230800031740
:1007B0005A08DB000313F32278080317DB00DC017F
:1007C0005B08DD0003135F2303175908DB000313E5
:1007D000F32278080317DB000130DC005B08DD0042
:1007E00003135F2303175808DB000313F322780871
:1007F0003F390317DB000230DC005B08DD00031328
:100800005F230800043003174D07840083134E183C
:1008100083170008F700840A0008F800840A00081B
:10082000F900840A0008FA007708CF007808D000A1
:100830007908D1007A08D20016304D07840083135E
:100840004E18831700080139031D442C500CF70083
:10085000F70C3F30F7057708013ED3000130D40094
:100860005308D5000130D600D70003139E23031789
:1008700050088316A8001830A900831203133D20E6
:1008800077080317D000652C16304D0784008313BA
:100890004E18831700080139013C031D652C5108CF
:1008A0008316A8003C30A900831203133D2078086A
:1008B0000317D00051088316A8003C30A90083120A
:1008C00003133D2077080317D1000130D4004F30C7
:1008D000D300013053078400831354188317000892
:1008E0008316A8001830A900831203133D2077084F
:1008F0000317D5000230530784008313541883175D
:1009000000088316A8003C30A900831203133D2081
:1009100077080317D6000330530784008313541855
:10092000831700088316A8003C30A9008312031324
:100930003D2077080317D7005508D8005608D9007E
:100940005708DA000313D72308000317E001031345
:10095000201620088316870000008312A0152008A7
:1009600083168700000083120712201220088316C6
:100970008700000083128711A011200883168700CA
:10098000D03083120317E1000313132303175F080A
:10099000E1000313132320162008831687000000AC
:1009A0008312A01520088316870000008312871D7C
:1009B000D72C07122012200883168700000083120C
:1009C0008711A011200883168700D13083120317E6
:1009D000E10003131323F70108300317E20077083F
:1009E000E3000313201620088316870000008312FB
:1009F000A0152008831687008312871DFD2C071A77
:100A00000314071E0310F80D0000A0112008831620
:100A10008700831287110317E20BF12C03132016B2
:100A2000200883168700000083120712031763084B
:100A30000319212D03132012200883168700831227
:100A4000031700000313A0152008831687008312E4
:100A5000871D282D00008711A0112008831687000C
:100A600000008312071220122008831687007808DE
:100A700083120317E0000313201220088316870057
:100A800000008312A0152008831687008312871D9B
:100A9000472D00004B2D00002016200883168700EC
:100AA0000000831203176008F80003130800F70121
:100AB000F8010317630803106418F707F70CF80C24
:100AC000E418F707F70CF80C6419F707F70CF80CA3
:100AD000E419F707F70CF80C641AF707F70CF80C91
:100AE000E41AF707F70CF80C641BF707F70CF80C7F
:100AF000E41BF707F70CF80C0313080003175F0853
:100B00000F39E0005F08F039F700F70E0F30F705F6
:100B10007708E200E3000A30E40003135725780861
:100B200003176007F800031308000317D901DA015F
:100B3000DB01DF010313A52478080317DB005B0842
:100B4000DF0003137E2578080317DB000130DF0088
:100B50000313A52478080317DA005A08DF000313EB
:100B60007E2578080317DA000230DF000313A5247E
:100B700078083F390317D9005908DF0003137E2591
:100B800078080317D9005908DC005A08DD005B0813
:100B9000DE005C08E0005D08E1005E08E2005F083E
:100BA000F7006008F8006108F9006208FA007A08A6
:100BB000D8007908D7007808D6007708D5005508FE
:100BC000F7005608F8005708F9005808FA00031310
:100BD0000800043003174D07F8004E08FA00031808
:100BE000FA0A7808D3007A08D4000313952503176E
:100BF0005308840083135418831777088000840AED
:100C000078088000840A79088000840A7A088000C5
:100C100016304D07840083134E18831700080139DE
:100C2000031D692E0630DF000313A524780803177F
:100C3000D1005108DF0003137E2578080317D10087
:100C40000530DF000313A52478081F390317D000EF
:100C50005008DF0003137E2578080317D000043006
:100C6000DF000313A52478083F390317CF004F088E
:100C7000DF0003137E2578080317CF000330DF0061
:100C80000313A524780807390317D2005208DF00A0
:100C900003137E2578080317D20005304D07840022
:100CA00083134E18831701304F02D7008316A80014
:100CB0000530A900831203133D2077080317E300D2
:100CC0001830E40003135725780800078000A02E91
:100CD000031716304D07840083134E18831700083E
:100CE0000139013C031D9F2E06304D07F8004E08C8
:100CF000FA000318FA0A7808D3007A08D4005308D7
:100D000084008313541883170008D50005304D075D
:100D1000840083134E18831700080139D700E300BD
:100D20003C30E40003135725780803175507D50016
:100D30005308840083135418831755088000031345
:100D400003174D08F8004E08FA004D08D3004E086E
:100D5000D400D6004D08D5000313A0210800F801E7
:100D6000F901F701FA0103174D08031DBA2E4C08CB
:100D70000319D42E1030CE000310CA0DCB0DF70D81
:100D8000FA0D4D087A02031DC72E4C087702031C8A
:100D9000D02E4C08F702031CFA034D08FA02031484
:100DA000F80DF90DCE0BBC2E0313080003174608EF
:100DB000CB004508CA004708CC00CD01CD014C0846
:100DC0004D020318EC2E4D084A07840083134B187C
:100DD00083178001CD0ADF2EC801C308031DF32E3F
:100DE000C4080319172F4408CB004308CA00CD01DB
:100DF0000A30CC000313AF2677080317C900480850
:100E00004507840083134618831749088000C80AE1
:100E10004408CB004308CA00CD010A30CC000313BC
:100E2000AF2679080317C4007808C300ED2E03131A
:100E3000080001300317380784008313391883171B
:100E40000008C100BA0803194E2F38088400831324
:100E50003918831700080139013C031D4E2F01305A
:100E6000380784008313391883178008031D3B2F2C
:100E70000C30C1004E2F013038078400831339181D
:100E8000831700080C3C03184E2F013038078400EC
:100E90008313391883170C300002C100C4014108C4
:100EA000C3000130C6003B30C5000230C700031349
:100EB000D6260230031738078400831339188317A6
:100EC0000008C200C4014208C3000130C6003D3022
:100ED000C5000230C7000313D626033003173807B6
:100EE00084008313391883170008C200C401420824
:100EF000C3000130C6003F30C5000230C7000313F5
:100F0000D6263B30F8000130F90008000130031705
:100F1000B900BA0183160313851183128511831654
:100F20008510831285100317BA0138083A02031896
:100F3000C32F3A0836078400831337188317000835
:100F4000BB000130B9003908083C031CC12F3B1815
:100F5000AD2F03130510AF2F0317031305148316CA
:100F60000510031083120317BB0C8316031385119E
:100F70008312851583168511831285110317B90A0B
:100F8000A32FBA0A952F8316031385108312851495
:100F9000831685108312851008001D308400831786
:100FA00000080319E02F0630F800F701F70BD62FE1
:100FB000F80BD52F7B30F700F70BDC2F800BD32FEE
:100FC000080003179C019D019E019F010130B7009D
:100FD0001C30B6000430B80003138627080003173E
:0C0FE000D801D901DA010313D72308005F
:101000000317B50803193B283308B7003208B600A8
:101010003408B800B901B9013808390203183A2870
:1010200039083607F8003708FA000318FA0A780872
:10103000BA007A08BB0039083607840083133718D2
:10104000831700088A11031304208A15F800031778
:101050003A08840083133B18831778088000390806
:101060003607840083133718831700080838800078
:10107000B90A0C2868283308B7003208B6003408CB
:10108000B800B901B90138083902031868283908CD
:101090003607F8003708FA000318FA0A7808BA0089
:1010A0007A08BB0039083607840083133718831782
:1010B00000088A11031304208A15F80003173A0860
:1010C000840083133B18831778088000B90A4328EB
:1010D0003308B7003208B6003408B8008A11031389
:1010E00086278A150800163003171C07840083130F
:1010F0001D1883170008F700770C0139031DBD295F
:1011000016301C07840083131D188317000801394B
:10111000031D49291E089F00A001A101A201A301EE
:101120008A11031395258A157A080317AD007908EB
:10113000AC007808AB007708AA000630DF008A11FF
:101140000313A5248A1578080317B0003008DF00C0
:101150008A1103137E258A1578080317B00005301D
:10116000DF008A110313A5248A1578081F39031795
:10117000AF002F08DF008A1103137E258A15780837
:101180000317AF000430DF008A110313A5248A156A
:1011900078083F390317AE002E08DF008A110313C9
:1011A0007E258A1578080317AE000330DF008A1108
:1011B0000313A5248A15780807390317B1003108ED
:1011C000DF008A1103137E258A1578080317B10002
:1011D00001302E02B3008316A8000530A9008A1141
:1011E000831203133D208A1577080317E300183094
:1011F000E4008A11031357258A1578080317AB07F3
:101200000130B9002A30B800BA018A110313192736
:101210008A157908FA0078080317B2007A08B30033
:101220000130B5002430B4000630F80032088400E4
:101230008313331883170008F700340884008313DE
:101240003518831777088000B40A0319B50AB20A63
:101250000319B30AF80B16292608A0002708A100D5
:101260002408A2002508A3009F0803193B292D0884
:1012700001399F003D2901309F000130B30020302B
:10128000B2000430B4001F08B50003130020BB29CE
:10129000031716301C07840083131D1883170008DA
:1012A0000139013C031DBC299F01A001A101A2013C
:1012B0008A11031395258A157A080317AC0079085B
:1012C000AB007808AA007708A9002A08E3003C30A0
:1012D000E4008A11031357258A15780803172B0792
:1012E000AE008316A8006430A9008A11831203138C
:1012F0003D208A1577080317AB000130B90029306B
:10130000B800BA018A11031319278A157908FA005F
:1013100078080317AD007A08AE000130B000233022
:10132000AF000630F8002D08840083132E188317B1
:101330000008F7002F0884008313301883177708FC
:101340008000AF0A0319B00AAD0A0319AE0AF80B00
:10135000932927089F002808A0002508A100260837
:10136000A2000130B3001F30B2000430B4000130DD
:10137000B500031300200317C62A16301C0784008B
:1013800083131D1883170008F700770C0139013CFF
:10139000031DC62A16301C07840083131D188317EB
:1013A00000080139031D3C2A1C08F8001D08FA003A
:1013B00078089F007A08A0002008A2001F08A1005A
:1013C0001E08A300A401A501A601A7012108F80099
:1013D0002208FA007808AE007A08AF00B9002E089B
:1013E000B800BA018A11031319278A157908FA007F
:1013F00078080317AE007A08AF000130B10028303A
:10140000B0000630F8002E08840083132F188317CD
:101410000008F70030088400831331188317770819
:101420008000B00A0319B10AAE0A0319AF0AF80B1B
:10143000032A2A08A4002B08A5002808A6002908CA
:10144000A700A30803192E2A07302107840083135D
:101450002218831700080139A300302A0130A300A5
:101460000130B3002430B2000430B4002308B500CA
:1014700003130020C52A031716301C0784008313AA
:101480001D18831700080139013C031DC62A1C08DA
:10149000F8001D08FA0078089F007A08A0002008CC
:1014A000A2001F08A100A301A401A501A601210813
:1014B00084008313221883170008F700840A0008A9
:1014C000F800840A0008F900840A0008FA00770886
:1014D000AD007808AE007908AF007A08B0002E0899
:1014E000E3003C30E4008A11031357258A1578087D
:1014F00003172F07B2008316A8006430A9008A11D1
:10150000831203133D208A1577080317AF000130BB
:10151000B9002D30B800BA018A11031319278A15B2
:101520007908FA0078080317B1007A08B200013090
:10153000B4002730B3000630F8003108840083136C
:10154000321883170008F700330884008313341817
:10155000831777088000B30A0319B40AB10A031984
:10156000B20AF80B9D2A2B08A3002C08A400290816
:10157000A5002A08A6000130B3002330B2000430D1
:10158000B4000130B5000313002003170313080053
:101590001A3003171C07840083131D1883170008D3
:1015A0009E0017301C07840083131D188317000842
:1015B0009F0003130B08F7008B1303171E088D0001
:1015C0001F088C0083168C130C1555308D00AA3023
:1015D0008D008C148C18EA2A0C11770883120313DF
:1015E0008B041B3003171C07840083131D188317FB
:1015F00000089E0018301C07840083131D188317F1
:1016000000089F0003130B08F7008B1303171E0835
:101610008D001F088C0083168C130C1555308D001F
:10162000AA308D008C148C18132B0C1177088312A0
:1016300003138B04080003179D013F309C009E019B
:1016400003137320C83003179D008A110313CD279D
:101650008A158A11E1278A15C83003179D008A115F
:101660000313CD278A1503179D013F309C009E016F
:1016700003137320C83003179D008A110313CD276D
:101680008A158A11E1278A150800183003171C07EC
:10169000F8001D08FA000318FA0A78089F007A0873
:1016A000A00017301C07840083131D18831700083F
:1016B000A1001F08840083132018831721088000CD
:1016C00017301C07840083131D1883171E08800021
:1016D00003130800183003171C07F8001D08FA0050
:1016E0000318FA0A78089E007A089F0017301C0732
:1016F000840083131D1883170008A0001E088400AF
:1017000083131F1883172008800017301C078400DC
:1017100083131D18831780010313080003171C0887
:10172000F8001D08FA0078089E007A089F001F083C
:10173000A1001E08A0001030200784008313211888
:1017400083170008A20005302007840083132118A6
:1017500083170008A30003130B08F7008B1303176C
:1017600022088D0023088C0083168C130C1555302D
:101770008D00AA308D008C148C18BC2B0C117708AE
:10178000831203138B041130031720078400831383
:10179000211883170008A200063020078400831355
:1017A000211883170008A30003130B08F7008B13FD
:1017B000031722088D0023088C0083168C130C1548
:1017C00055308D00AA308D008C148C18E52B0C112F
:1017D0007708831203138B04123003172007840049
:1017E0008313211883170008A20007302007840004
:1017F0008313211883170008A30003130B08F700B5
:101800008B13031722088D0023088C0083168C137A
:101810000C1555308D00AA308D008C148C180E2CB0
:101820000C117708831203138B0408001E30031772
:101830001C07840083131D18831700089E001630B0
:101840001C07840083131D1883179F0180189F0AAB
:1018500003130B08F7008B1303171E088D001F08D6
:101860008C0083168C130C1555308D00AA308D001A
:101870008C148C18392C0C117708831203138B04E9
:101880000800163003171C07840083131D188317E4
:1018900000080139031DA22C1C089E001D089F0092
:1018A0001F08A1001E08A000A201A301A401A50118
:1018B00008302007F8002108FA000318FA0A78080F
:1018C000AC007A08AD00B9002C08B800BA018A1142
:1018D000031319278A157908FA0078080317AC0052
:1018E0007A08AD000130AF002630AE000630F800B7
:1018F0002C08840083132D1883170008F7002E0886
:10190000840083132F18831777088000AE0A031909
:10191000AF0AAC0A0319AD0AF80B782C2808A2000C
:101920002908A3002608A4002708A5000130B30059
:101930002230B2000430B4000130B500031300209F
:10194000012D031716301C07840083131D188317FD
:1019500000080139013C031D022D1C089E001D08D2
:101960009F001F08A1001E08A000A201A301A4015E
:10197000A50108302007F8002108FA000318FA0A28
:101980007808AC007A08AD00B9002C08B800BA019C
:101990008A11031319278A157908FA0078080317A2
:1019A000AC007A08AD000130AF002630AE00063042
:1019B000F8002C08840083132D1883170008F70003
:1019C0002E08840083132F18831777088000AE0A2F
:1019D0000319AF0AAC0A0319AD0AF80BD92C2A086F
:1019E000A2002B08A3002808A4002908A5000130A4
:1019F000B3002230B2000430B4000130B50003134C
:101A000000200317031308000A3003172007F8000B
:101A10002108FA000318FA0A7808A2007A08A3003D
:101A20000A30200784008313211883170008A400BC
:101A30001430200784008313211883170008240220
:101A4000031D242D00302C2D0A3020078400831321
:101A50002118831701300007A40022088400831393
:101A600023188317240880000313080003179E011E
:101A70009F01A001A10119301C07840083131D18C8
:101A8000831701300007A3008316A8000A30A900BD
:101A90008A11831203133D208A1577088A110420C6
:101AA0008A15F80003179E0019301C078400831361
:101AB0001D18831701300007A3008316A8000A3001
:101AC000A9008A11831203133D208A1578088A1110
:101AD00004208A15083803179F003730A000013012
:101AE000B7001E30B6000430B8008A1103138627F1
:101AF0008A1508001D3003171C07840083131D1866
:101B0000831700089E0019301C07840083131D18DA
:101B1000831700089F0003130B08F7008B130317AC
:101B20001E088D001F088C0083168C130C15553071
:101B30008D00AA308D008C148C189C2D0C11770808
:101B4000831203138B0408008316861483128618ED
:101B5000AB2DE20AAD2DE201BE146208133C03185E
:101B6000B32DBE10E201BA30A7000D30A8008A15CF
:101B70000A12A12EA430A7000D30A8008A150A125F
:101B8000A12E08008316061483120618C92DE30A35
:101B9000CB2DE3013E1563080C3C0318D12D3E11FB
:101BA000E301D830AE000D30AF008A150A12A12E25
:101BB000C230AE000D30AF008A150A12A12E080007
:101BC0000130BE06E930BC000D30BD008A150A1296
:101BD000A12EE030BC000D30BD008A150A12A12EE6
:101BE000080003081F398300FF30A0003E14BE1414
:101BF0003E15BE153E16E101E201E301831603170F
:101C00000908C039890003131F129F1200300317FF
:101C10008800831287018801890183130030F8004E
:101C2000063803139200FF308316920083122011AE
:101C3000200883168700831207110E309700831641
:101C40009B019C0101309D00C830831203179D0049
:101C50008A110313CD278A15FF308316950081134F
:101C6000950003308312D600A201A4010A30A3001C
:101C7000A6010130A500A430A7000D30A800A901DD
:101C8000AB010A30AA00AD010230AC00C230AE0098
:101C90000D30AF00B001B2010130B100B401B301A9
:101CA0000030B5001830B600B701B9010530B800F2
:101CB000BB01BA01E030BC000D30BD00A1018316AC
:101CC0000108C039063881003D30831281000B11B4
:101CD0000310210DF7008A1131208A15F900013017
:101CE00077078A1131208A15FA0079088400831356
:101CF0007A1883170008F900840A0008F700840A9C
:101D00000008F800840A800A0008FA00031D8B2EE0
:101D1000840A800A8403840A00087802031DA32E23
:101D200077087A02031DA32E84038001840A8001B0
:101D3000840AF91BA32E840A00088A008403000881
:101D4000820083120313A10A04302102031D682EAE
:101D5000A10101080B1DAE2E8316642EA92EFF30A3
:041D6000A10063007B
:102000005608F53E0318F22D0B3EF52D0317A201DD
:102010000130A3000230A4000330A5000430A60064
:102020000530A7000630A8000730A9000830AA0034
:102030000930AB002208C6002308C7002408C800E6
:102040002A08C9002B08CA002508CB002608CC00A6
:1020500024088D0083168C130C1483120C0801398C
:10206000F80042107818421422088D0083168C1351
:102070000C1483120C08CE004E088316A8000330FF
:10208000A9000A12831203133D200A1677080317CA
:10209000C30023088D0083168C130C1483120C08C4
:1020A000CE004E088316A8000330A9000A1283123E
:1020B00003133D200A1677080317C4002A088D0071
:1020C00083168C130C1483120C08CE004E08831652
:1020D000A8000A30A9000A12831203133D200A1631
:1020E00077080317C5002B088D0083168C130C147A
:1020F00083120C080139F800C2107818C214C40801
:10210000031D8728C308031D87280230C400003040
:1021100042180130003A031303199228013A0319B7
:1021200050290A2A63300317D7003B30D800DA0160
:102130002508D900DC012608DB00DE012708DD00C8
:10214000E0012808DF00E2012908E10059088316B0
:102150009F0083125B0883169E0083125D0883161E
:10216000A00083125F088316A10083126108831602
:10217000A200831259088D0083168C130C1483124D
:102180000C08E30001305707E40063088316A80039
:10219000831264088316A9000A12831203133D20D8
:1021A0000A16770883160317990083125B088D00BF
:1021B00083168C130C1483120C08E30001305807AB
:1021C000E40063088316A800831264088316A9003C
:1021D0000A12831203133D200A1677088316031789
:1021E0009A009B01831257088316A3008312580894
:1021F0008316A4003B30A5009030F8000130F900B0
:102200007908FA0078088312D1007A08D2000130E8
:10221000D4002C30D3001630F8005108840083130A
:10222000521883170008F7005308840083135418CA
:10223000831777088000D30A0319D40AD10A031937
:10224000D20AF80B0D2925088D0083168C130C1467
:1022500083120C08CE004E088316A8006430A90033
:102260000A12831203133D200A1677080317B500DC
:1022700026088D0083168C130C1483120C08CE00D4
:102280004E088316A8003C30A9000A1283120313DB
:102290003D200A1677080317B600B70103130A2A70
:1022A00063300317D700D9012508D800DB012608C1
:1022B000DA00DD012708DC00DF012808DE00E1018B
:1022C0002908E000580883169E0083125A088316D6
:1022D0009D0083125C088316A00083125E0883169B
:1022E000A100831260088316A200A301831257087D
:1022F0008316A4003B30A5009901831258088D0075
:1023000083168C130C1483120C08E200013057075B
:10231000E30062088316A800831263088316A900ED
:102320000A12831203133D200A1677088316031737
:102330009A0083125A088D0083168C130C14831292
:102340000C08E2000130831625078312E3006208BF
:102350008316A800831263088316A9000A12831249
:1023600003133D200A167708831603179B0090304D
:10237000F8000130F9007908FA0078088312D100DA
:102380007A08D2000130D4002C30D3001630F80087
:10239000510884008313521883170008F70053086C
:1023A000840083135418831777088000D30A031915
:1023B000D40AD10A0319D20AF80BC829B501250895
:1023C0008D0083168C130C1483120C08CE004E085B
:1023D0008316A8006430A9000A12831203133D205B
:1023E0000A1677080317B60026088D0083168C138B
:1023F0000C1483120C08CE004E088316A8003C3043
:10240000A9000A12831203133D200A167708031746
:10241000B70003130317C308031DDC2A0130CE00E5
:102420002C30CD0005304D07F8004E08FA00031897
:10243000FA0A7808CF007A08D00010304D078400DF
:1024400083134E1883170008D10051088D0083169E
:102450008C130C1483120C08D10013304D07840028
:1024600083134E18831701300007D20051088316DA
:10247000A800831252088316A9000A1283120313BC
:102480003D200A1677080317D1004F0884008313F4
:10249000501883175108800006304D07F8004E0889
:1024A000FA000318FA0A7808CF007A08D000113031
:1024B0004D07840083134E1883170008D10051087C
:1024C0008D0083168C130C1483120C08D100143069
:1024D0004D07840083134E18831701300007D20084
:1024E00051088316A800831252088316A9000A1205
:1024F000831203133D200A1677080317D1004F08F3
:1025000084008313501883175108800007304D074B
:10251000F8004E08FA000318FA0A7808CF007A0883
:10252000D00012304D07840083134E188317000823
:10253000D10051088D0083168C130C1483120C08E3
:10254000D10015304D07840083134E1883170130D6
:102550000007D20051088316A80083125208831680
:10256000A9000A12831203133D200A1677080317E5
:10257000D1004F088400831350188317510880003E
:102580004E08D6004D08D5000A120313A0210A16E2
:1025900001300317CE002C30CD000A1203130224A1
:1025A0000A1601300317D6002C30D5000A12031387
:1025B000A0210A16E42A03170130CE002C30CD00EA
:1025C0000A120313E9250A162C30F8000130F9002D
:1025D0007908FA00780803179C007A089D009F018B
:1025E0003F309E002130F8001C08840083131D1822
:1025F00083170008F7001E08840083131F18831731
:10260000770880009E0A03199F0A9C0A03199D0AF5
:10261000F80BF42A9D013F309C009E010A128A1596
:10262000031373200A168A11F22D8316861483125F
:10263000861C852BBE19852B03179D013F309C00FE
:1026400018301C07F8001D08FA000318FA0A780869
:102650009E007A089F0017301C07840083131D1802
:1026600083170008A0001E08840083131F18831717
:102670002008800016301C07840083131D18831760
:102680000008F700770C0139031D4F2B17301C078A
:10269000840083131D18831701308000642B1630CB
:1026A0001C07840083131D1883170008F700770C9C
:1026B0000139013C031D642B17301C078400831370
:1026C0001D188317023080009D013F309C000A12C4
:1026D0008A150313C8220A168A110317CE013F3048
:1026E000CD000A12031302240A160A128A151B23AC
:1026F0000A168A1103179D013F309C009E010A12A1
:102700008A15031373200A168A11BE18942BBE145F
:1027100003179D013F309C0004309E000A128A1569
:10272000031345230A168A113E19A32B3E150317DE
:102730009D013F309C0009309E000A128A15031348
:1027400045230A168A11F22D0317CE013F30CD0022
:102750000A120313E9250A1603179D013F309C0056
:1027600001309E000A128A15031373200A168A117B
:10277000BE18C72BBE1403179D013F309C000430C8
:102780009E000A128A15031345230A168A1183161E
:1027900086148312861CFC2BBE19FC2B03179D018B
:1027A0003F309C000A128A1503136A230A168A1105
:1027B00003179D013F309C000A128A1503138E23D4
:1027C0000A168A1103179D013F309C000A128A15D0
:1027D0000313C8220A168A110A128A151B230A1625
:1027E0008A1103179D013F309C009E010A128A1531
:1027F000031373200A168A1103179D013F309C00B2
:102800001C08F8001D08FA0078089E007A089F004E
:102810001F08A1001E08A0002008F8002108FA00E7
:102820007808A2007A08A3002308A5002208A400C3
:102830000130240784008313251883178008031DA3
:10284000332C023024078400831325188317800853
:10285000031D332C033024078400831325188317AA
:1028600080080319352C0030362C0130F800780828
:102870007808F8080319A12C0313A0122008831666
:10288000870083128716C83003179D000A120313AE
:10289000CD270A16A01220088316870083128712FC
:1028A000643003179D000A120313CD270A16A012E5
:1028B00020088316870083128716C83003179D00EF
:1028C0000A120313CD270A16A012200883168700C8
:1028D0008312871203179D013F309C0001309E0038
:1028E0000A128A15031345230A168A1103179D013C
:1028F0003F309C000A128A150313C8220A168A1157
:10290000D51003179D013F309C000A128A1503134E
:1029100016240A168A110A12EF270A160130031725
:10292000D400D500D600D7000A1203139E230A163E
:102930000317CE013F30CD000A120313E9250A1612
:10294000031703133E19B12C3E1503179D013F30A9
:102950009C0009309E000A128A15031345230A16AB
:102960008A11F22D03179D013F309C0016301C0781
:10297000840083131D18831700080139031DE42CFC
:1029800005301C07840083131D1883170008633C5F
:10299000031DDE2C06301C07840083131D188317CB
:1029A00000083B3C031DDE2C07301C07840083130A
:1029B0001D18831700083B3C0319E02C0030E12C64
:1029C0000130F800072D072D16301C0784008313F3
:1029D0001D18831700080139013C031D072D06301F
:1029E0001C07840083131D1883170008633C031D14
:1029F000032D07301C07840083131D18831700085C
:102A00003B3C0319052D0030062D0130F800F80875
:102A1000031D532DCE013F30CD000A120313E925CB
:102A20000A1603179D013F309C0001309E000A12D8
:102A30008A15031373200A168A11831686148312CB
:102A4000861C522DBE19522D03179D013F309C004C
:102A50000A128A1503136A230A168A1103179D01A5
:102A60003F309C000A128A1503138E230A168A111E
:102A700003179D013F309C000A128A150313C822D8
:102A80000A168A110A128A151B230A168A110317BD
:102A90009D013F309C009E010A128A15031373208A
:102AA0000A168A1103170313BE18632DBE140317E9
:102AB0009D013F309C0004309E000A128A150313CA
:102AC00045230A168A113E19722D3E1503179D01E2
:102AD0003F309C0009309E000A128A1503134523DB
:102AE0000A168A11F22DD51403179D013F309C0060
:102AF0000A128A15031316240A168A110A12EF27DE
:102B00000A1601300317D400D500D600D7000A12E8
:102B100003139E230A1603179C019D019E019F012A
:102B200001309C0009309D0001309E009F00B700DD
:102B30001C30B6000430B8000A12031386270A16A8
:102B4000083003179C00FA309D000A120313CD27AA
:102B50000A1603179C0BA32D9D013F309C000A30E1
:102B60009E000A128A15031345230A168A1105309E
:102B7000E0000A12EF270A1601300317D400D5002F
:102B8000D600D7000A1203139E230A160317CE019C
:102B90003F30CD000A120313E9250A1603179D01E1
:102BA0003F309C009E010A128A15031373200A16F7
:102BB0008A11F22D831686148312861CF22D831639
:102BC00006148312061CF22D03179D013F309C0052
:102BD0000313600803179E000A128A150313452386
:102BE0000A168A118A150A1602280A148A100A156A
:102BF000FC3E03188A0A8200152BB22CA42B06284F
:0E2C0000732DF22DF22DF22DF22DF22DDA2D84
:103000008A1100288A1505305602FB3E0318242F2A
:10301000053E3F2F03179D013F309C009E010A1281
:10302000031373200A16831686148312861C402805
:10303000BE19402803179D013F309C0002309E00BE
:103040000A12031345230A1603179D013F309C0003
:103050000A120313C8220A160A121B230A160A129E
:103060008A11EF270A168A1501300317D400D500FC
:10307000D600D7000A128A1103139E230A168A1556
:103080003E194D283E1503179D013F309C00063028
:103090009E000A12031345230A16242F3E1C5928AA
:1030A00003179D013F309C000A12031341240A16A6
:1030B000442903179D013F309C0016301C078400F3
:1030C00083131D18831700080139031DD1281C081C
:1030D000F8001D08FA0078089E007A089F001F0873
:1030E000A1001E08A000A201A301A401A5010830AF
:1030F0002007F8002108FA000318FA0A7808AC0043
:103100007A08AD00B9002C08B800BA010A128A1179
:10311000031319270A168A157908FA007808031785
:10312000AC007A08AD000130AF002630AE000630AA
:10313000F8002C08840083132D1883170008F7006B
:103140002E08840083132F18831777088000AE0A97
:103150000319AF0AAC0A0319AD0AF80B992828081D
:103160000A128A11031304200A168A15F80003179D
:10317000A20029080A128A11031304200A168A15CC
:1031800008380317A3000130B7002230B60004301E
:10319000B8000A128A11031386270A168A154429D1
:1031A000031716301C07840083131D1883170008AB
:1031B0000139013C031D45291C08F8001D08FA00CF
:1031C00078089E007A089F001F08A1001E08A00032
:1031D000A201A301A401A50108302007F8002108DD
:1031E000FA000318FA0A7808AC007A08AD00B900B2
:1031F0002C08B800BA010A128A11031319270A16FB
:103200008A157908FA0078080317AC007A08AD002F
:103210000130AF002630AE000630F8002C088400E4
:1032200083132D1883170008F7002E0884008313DA
:103230002F18831777088000AE0A0319AF0AAC0A6B
:103240000319AD0AF80B0E292A080A128A11031372
:1032500004200A168A15F8000317A2002B080A1288
:103260008A11031304200A168A1508380317A300CD
:103270000130B7002230B6000430B8000A128A11BB
:10328000031386270A168A15031783160313861459
:1032900083128618C6298316861483128618C629B7
:1032A00003179D013F309C0016301C0784008313D8
:1032B0001D18831700080139031D9A291C08F800FE
:1032C0001D08FA0078089E007A089F001F08A100D8
:1032D0001E08A00009302007F8002108FA00031892
:1032E000FA0A7808A2007A08A300093020078400AF
:1032F0008313211883170008A400133020078400CB
:1033000083132118831700082402031D8929003024
:103310009129093020078400831321188317013075
:103320000007A400220884008313231883172408AD
:103330008000B52916301C07840083131D188317DD
:1033400000080139013C031DB5291C08F8001D08BF
:10335000FA001C089E001D089F00A1001C08A00088
:103360000A12031304250A1603179D013F309C001F
:103370000A12031341240A16C83003179D000A12CB
:103380008A110313CD270A168A154B293E1ADD2907
:10339000831606148312061CDD295708053C031DFD
:1033A000D329E10ADD2903179D013F309C00073036
:1033B0009E000A12031345230A166108013C0318F4
:1033C000EC29E10103179D013F309C0007309E006E
:1033D0000A12031345230A16242F3E1CF82903174B
:1033E0009D013F309C000A12031341240A16E72A6C
:1033F00003179D013F309C0016301C078400831387
:103400001D18831700080139031D722A1C08F800D3
:103410001D08FA0078089E007A089F001F08A10086
:103420001E08A000A201A301A401A50108302007E5
:10343000F8002108FA000318FA0A7808AC007A08A4
:10344000AD00B9002C08B800BA010A128A110313A2
:1034500019270A168A157908FA0078080317AC00AC
:103460007A08AD000130AF002630AE000630F8001B
:103470002C08840083132D1883170008F7002E08EA
:10348000840083132F18831777088000AE0A03196E
:10349000AF0AAC0A0319AD0AF80B382A0830A300AA
:1034A00026080A128A11031304200A168A15F80046
:1034B0000317A40027080A128A11031304200A160E
:1034C0008A15F8000317A5000130B7002230B600B6
:1034D0000430B8000A128A11031386270A168A15C7
:1034E000E72A031716301C07840083131D1883175F
:1034F00000080139013C031DE82A1C08F8001D08DA
:10350000FA0078089E007A089F001F08A1001E0894
:10351000A000A201A301A401A50108302007F80022
:103520002108FA000318FA0A7808AC007A08AD00FE
:10353000B9002C08B800BA010A128A11031319271E
:103540000A168A157908FA0078080317AC007A0879
:10355000AD000130AF002630AE000630F8002C0878
:10356000840083132D1883170008F7002E088400A9
:1035700083132F18831777088000AE0A0319AF0A48
:10358000AC0A0319AD0AF80BAF2A0830A3002808CB
:103590000A128A11031304200A168A15F800031769
:1035A000A40029080A128A11031304200A168A1596
:1035B000F8000317A5000130B7002230B600043030
:1035C000B8000A128A11031386270A168A150317F0
:1035D000831603138614831286186B2B83168614A6
:1035E000831286186B2B03179D013F309C00163009
:1035F0001C07840083131D18831700080139031D5D
:10360000122B1C08F8001D08FA0078089E001D08FF
:103610009F00A1001E08A0000A12031304250A1629
:10362000592B031716301C07840083131D188317AA
:1036300000080139013C031D582B1C08F8001D0827
:10364000FA0078089E007A089F001F08A1001E0853
:10365000A0000B302007F8002108FA000318FA0A2E
:103660007808A2007A08A3000B3020078400831397
:10367000211883170008A400153020078400831345
:103680002118831700082402031D482B0030502BFB
:103690000B302007840083132118831701300007A3
:1036A000A4002208840083132318831724088000B1
:1036B000031303179D013F309C000A12031341249A
:1036C0000A16C83003179D000A128A110313CD276A
:1036D0000A168A15EE2A3E1AD02B83160614831278
:1036E000061CD02B03179D013F309C0016301C0791
:1036F000840083131D18831700080139031D982BBC
:1037000009301C07840083131D1883178008031DCC
:10371000942B0A301C07840083131D18831780081C
:10372000031D942B0030952B0130F800B92BB92BD9
:1037300016301C07840083131D18831700080139F5
:10374000013C031DB92B0A301C07840083131D188C
:1037500083178008031DB72B0B301C0784008313CD
:103760001D1883178008031DB72B0030B82B0130BC
:10377000F800F8080319C72B9D013F309C00083062
:103780009E000A12031345230A16D02B03179D012E
:103790003F309C0006309E000A12031345230A1690
:1037A000242F03179D013F309C009E019F01A00123
:1037B000A10116301C07840083131D18831700080D
:1037C0000139031DEB2B25309E002D309F00673003
:1037D000A000A100FD2B16301C07840083131D18C8
:1037E000831700080139013C031DFD2BB3309E00F7
:1037F000BB309F002530A000A1000130B7001E3073
:10380000B6000430B8000A128A11031386270A167C
:103810008A15831686148312861C542DBE19542DC6
:1038200003179D013F309C0016301C07F8001D084F
:10383000FA000318FA0A78089E007A089F001630EA
:103840001C07840083131D188317001C2E2C1E08D0
:10385000840083131F1883170010342C1E08840063
:1038600083131F188317001416301C07840083135A
:103870001D18831700080139031DBE2C09301C07D1
:10388000F8001D08FA000318FA0A78089E007A0862
:103890009F000A301C07840083131D18831700083B
:1038A000A0001E08840083131F18831720088000BF
:1038B0000A301C07F8001D08FA000318FA0A7808F5
:1038C0009E007A089F000B301C07840083131D188C
:1038D00083170008A0001E08840083131F18831795
:1038E000200880000B301C07840083131D188317E9
:1038F000800113301C07840083131D188317633065
:10390000800014301C07840083131D1883173B307C
:1039100080000F301C07F8001D08FA000318FA0A8F
:1039200078089E007A089F000E301C0784008313DD
:103930001D1883170008A0001E08840083131F1899
:103940008317200880000E301C07F8001D08FA00BD
:103950000318FA0A78089E007A089F000D301C07A9
:10396000840083131D1883170008A0001E0884001C
:1039700083131F18831720088000532D16301C074F
:10398000840083131D18831700080139013C031DAF
:10399000532D0130D400D500D600D7000A128A1169
:1039A00003139E230A168A150B3003171C07F80011
:1039B0001D08FA000318FA0A78089E007A089F008A
:1039C0000A301C07840083131D1883170008A00009
:1039D0001E08840083131F188317200880000A30F4
:1039E0001C07F8001D08FA000318FA0A78089E0060
:1039F0007A089F0009301C07840083131D18831761
:103A00000008A0001E08840083131F1883172008D5
:103A1000800009301C07840083131D188317800160
:103A200013301C07840083131D1883178001143082
:103A30001C07840083131D188317633080000D302A
:103A40001C07F8001D08FA000318FA0A78089E00FF
:103A50007A089F000E301C07840083131D188317FB
:103A60000008A0001E08840083131F188317200875
:103A700080000E301C07F8001D08FA000318FA0A2F
:103A800078089E007A089F000F301C07840083137B
:103A90001D1883170008A0001E08840083131F1838
:103AA00083172008800003133E1A6A2E831606141B
:103AB0008312061C6A2E03179D013F309C001630AE
:103AC0001C07840083131D18831700080139031D88
:103AD000BC2D1F301C07840083131D18831700089A
:103AE0009E0009301C07840083131D1883170008EB
:103AF0009F0003130B08F7008B1303171E088D009C
:103B00001F088C0083168C130C1555308D00AA30BD
:103B10008D008C148C188A2D0C11770883120313D6
:103B20008B04203003171C07840083131D18831790
:103B300000089E000A301C07840083131D18831799
:103B400000089F0003130B08F7008B1303171E08D0
:103B50008D001F088C0083168C130C1555308D00BA
:103B6000AA308D008C148C18B32D0C117708831299
:103B700003138B04182E031716301C0784008313BD
:103B80001D18831700080139013C031D192E1F3031
:103B90001C07840083131D18831700089E000A3039
:103BA0001C07840083131D18831700089F0003134C
:103BB0000B08F7008B1303171E088D001F088C00DD
:103BC00083168C130C1555308D00AA308D008C1483
:103BD0008C18E82D0C117708831203138B04203006
:103BE00003171C07840083131D18831700089E0009
:103BF0000B301C07840083131D18831700089F00D7
:103C000003130B08F7008B1303171E088D001F0802
:103C10008C0083168C130C1555308D00AA308D0046
:103C20008C148C18112E0C117708831203138B043B
:103C300003179D013F309C001C301C078400831338
:103C40001D18831700089E0016301C07840083137C
:103C50001D1883179F0100189F0A03130B08F70014
:103C60008B1303171E088D001F088C0083168C13FE
:103C70000C1555308D00AA308D008C148C183E2EFA
:103C80000C117708831203138B0401300317D4003F
:103C9000D500D600D7000A128A1103139E230A16F4
:103CA0008A150A128A11EF270A168A150317CE0100
:103CB0003F30CD000A128A110313E9250A168A152E
:103CC00003179D013F309C0009309E000A12031328
:103CD00045230A16242F3E1C762E03179D013F30E4
:103CE0009C000A12031336250A16892E03179C011D
:103CF0009D019E019F0137309E000130B7001C30AE
:103D0000B6000430B8000A128A11031386270A1677
:103D10008A158316861483128618E32E831686145A
:103D200083128618E32E03179D013F309C00193043
:103D30001C07F8001D08FA000318FA0A78089E000C
:103D40007A089F0019301C07840083131D188317FD
:103D500001300007A1008316A8000A30A9000A124A
:103D60008A11831203133D200A168A157708031758
:103D7000A0001E08840083131F18831720088000EA
:103D800019301C07840083131D18831700080A12BA
:103D90008A11031323200A168A1503179E000313A2
:103DA000950003179D013F309C000A12031336252E
:103DB0000A16C83003179D000A128A110313CD2773
:103DC0000A168A158E2E3E1A022F831606148312A7
:103DD000061C022F5708083C031D012F03179D01E5
:103DE0003F309C000A1203137A250A1603179D011F
:103DF0003F309C0005309E000A12031345230A162B
:103E0000022FE10A6108013C0318242FE101031786
:103E10009D013F309C000313570803179E000A12B0
:103E2000031345230A1603179D013F309C009E0192
:103E30000A12031373200A1603179D013F309C00DA
:103E40000A1203137A250A16831686148312BE11EA
:103E50008618BE158316061483123E1206183E16E7
:103E60003730B5001F30B6008A150A12A12E003077
:103E7000B5001830B6008A150A12A12E08000A14DF
:103E80008A140A1582070A284E28ED29D12B6B2E99
:04400E00822FFF3FBF
:00000001FF
;PIC16F886
;CRC=9D47  CREATED="10-Nov-17 14:57"
