:100000000C308A00CA2C00000A108A100A118207DC
:10001000F6346034D534F1346334B334B734E03477
:10002000F734F33401340834E734963497348734A2
:1000300067343734963475342534763417340434C1
:100040006434C33435340A108A100A1182070A3422
:1000500022343A3452346A3482349A34B234CA3450
:10006000FF340A108A100A1182072234003429341E
:100070000034303400343734003483160317290831
:10008000F8012802031847282808F7005328F70129
:100090000830AA00A80DF70D290877020318F70009
:1000A000F80DAA0B4A2883120313080003176208ED
:1000B0008316A8000A30A900831203133D20780E8E
:1000C000F700F030F7057708F0390317E30062080E
:1000D0008316A8000A30A900831203133D20770875
:1000E0000F3903176304F800031308000830F80001
:1000F00000008711A01120088316870000008312DA
:100100000317E50D03130712031C8C282016200883
:1001100083168700902883122012200883168700F8
:1001200000008312A0152008831687008312871D04
:100130009728F80B782800008711A0112008831653
:100140008700000083122016200883168700000015
:1001500000008312A0152008831687008312871DD4
:10016000AF28F8010000071A78148711A0112008A1
:100170008316870083120712201220088316870037
:1001800083120800201620088316870000008312BF
:10019000A015200883168700000083120712201282
:1001A000200883168700000083128711A011200801
:1001B00083168700D03083120317E50003137620DF
:1001C00003176308E5000313762003176408E500AE
:1001D0000313762020122008831687000000831264
:1001E000A0152008831687008312871DF5280000BC
:1001F000F9280000201620088316870000008312CB
:100200000800203083160317B200AE01AF01B00121
:10021000B1012908FA002808F9002708F800260883
:10022000F7000310771C22292A08AE072B080318B1
:100230002B0FAF072C0803182C0FB0072D0803183D
:100240002D0FB107B10CB00CAF0CAE0CFA0CF90CC1
:10025000F80CF70CB20B11298312031308000130BC
:1002600083160317120784008313131883170008DB
:10027000A301A201A101A000A5010408A40025106A
:10028000831B25142308A9002208A8002108A70021
:100290002008A600AD01AC010E30AB001030AA0062
:1002A0008312031301218316031724088400831388
:1002B000251883177A089700790896007808950022
:1002C00077089400023012078400831313188317F1
:1002D0000008A301A201A101A000A5010408A40037
:1002E0002510831B25142308A9002208A800210833
:1002F000A7002008A600AD01AC01AB013C30AA006C
:100300008312031301218316031724088400831327
:10031000251883177A089B0079089A0078089900B5
:100320007708980018081407A0001508A1001908FC
:100330000318190FA1071608A2001A0803181A0FAC
:10034000A2071708A3001B0803181B0FA3070330FD
:1003500012078400831313188317000820079C00DA
:1003600021089D000030031801309D0722089E00DF
:100370000030031801309E0723089F000030031847
:1003800001309F071C08F7001D08F8001E08F9003F
:100390001F08FA008312031308008318D229AA3019
:1003A0008400831783160317250829068039AF00B8
:1003B000A51FE529A209A309A409A509A20A0319F1
:1003C000A30A0319A40A0319A50AA91FF229A60959
:1003D000A709A809A909A60A0319A70A0319A80ABF
:1003E0000319A90AF701F801F901FA01AA01AB0101
:1003F000AC01AD0129082804270426040319302A7A
:100400002030AE000310A20DA30DA40DA50DAA0D62
:10041000AB0DAC0DAD0D29082D02031D192A2808BE
:100420002C02031D192A27082B02031D192A26084E
:100430002A02031C2A2A2608AA022708031C270FBF
:10044000AB022808031C280FAC022908031C290F43
:10045000AD020314F70DF80DF90DFA0DAE0B022ADB
:10046000AF1F3D2AF709F809F909FA09F70A031934
:10047000F80A0319F90A0319FA0A2A088000840AFB
:100480002B088000840A2C088000840A2D08800034
:10049000831203130800043003175207F8005308AF
:1004A000FA000318FA0A7808831690007A08910077
:1004B000930010089200831203132F217A08031768
:1004C000D7007908D6007808D5007708D40008301E
:1004D0005207F8005308FA000318FA0A780883163E
:1004E00090007A0891009300100892008312031381
:1004F0002F217A080317DB007908DA007808D90081
:100500007708D80054085802DC005908DD00550867
:10051000031C550FDD025A08DE005608031C560F57
:10052000DE025B08DF005708031C570FDF02DF1FE6
:100530009E2AF701F801F901FA01A62A5C08F700E2
:100540005D08F8005E08F9005F08FA007A08DF002D
:100550007908DE007808DD007708DC0083105F088A
:100560008316A50083125E088316A40083125D081B
:100570008316A30083125C088316A200A901A801B8
:100580000E30A7001030A60083120313CD217A0885
:100590000317E3007908E2007808E1007708E0003B
:1005A00083149030840083175F088316A50083129C
:1005B0005E088316A40083125D088316A3008312CD
:1005C0005C088316A200A901A8010E30A700103014
:1005D000A60083120313CD21831603171308970077
:1005E000120896001108950010089400990104085B
:1005F00098001910831B191483101308A500120802
:10060000A4001108A3001008A200A901A801A701D5
:100610003C30A60083120313CD218316031718085C
:1006200084008313191883177A088312E700790866
:10063000E6007808E5007708E40003305207F80088
:100640005308FA000318FA0A7808831690007A080B
:1006500091009301040892001310831B1314831458
:1006600094308400831783125F088316A5008312D9
:100670005E088316A40083125D088316A30083120C
:100680005C088316A200A901A8010E30A700103053
:10069000A60083120313CD21831603171408F70055
:1006A0001508F8001608F9001708FA001208840067
:1006B00083131318831717089B0016089A00150850
:1006C0009900140898009D0104089C001D10831BCC
:1006D0001D1483149E30840083171708A500160884
:1006E000A4001508A3001408A200A901A801A701ED
:1006F0003C30A60083120313CD21831603171C0878
:10070000840083131D1883171008840083131118A5
:1007100083171E0880000130831252078400831360
:100720005318831760088000023052078400831337
:100730005318831764088000031308000317610827
:10074000E2000313562078080317E200E301620871
:10075000E4000313C22003176008E20003135620CD
:1007600078080317E2000130E3006208E400031395
:10077000C22003175F08E2000313562078083F39B0
:100780000317E2000230E3006208E4000313C22012
:100790000800013003175A07840083135B1883177E
:1007A00000088316A8001830A900831203133D2007
:1007B00077080317DC0002305A07840083135B18A4
:1007C000831700088316A8003C30A9008312031386
:1007D0003D2077080317DD0003305A078400831398
:1007E0005B18831700088316A8003C30A900831209
:1007F00003133D2077080317DE005C08DF005D0867
:10080000E0005E08E10003139E2308001630031782
:100810004E07840083134F18831700080139031D06
:100820003D2C04304E07840083134F1883170008B3
:10083000F700840A0008F800840A0008F900840A16
:100840000008FA007708D0007808D1007908D200B3
:100850007A08D30051088316A8001830A900831223
:1008600003133D2077080317D1000130DB0050301F
:10087000DA000313C923642C031716304E078400D3
:1008800083134F18831700080139013C031D652CA1
:100890004E08F8004F08FA007808D4007A08D5000E
:1008A0005508D7005408D60004305607F8005708FA
:1008B000FA000318FA0A7808D8007A08D900DB0091
:1008C0005808DA000313C92303170313080003179A
:1008D000DD01031320162008831687000000831211
:1008E000A01520088316870000008312071220122B
:1008F000200883168700000083128711A0112008AA
:1009000083168700D03083120317E5000313762087
:1009100003175C08E50003137620201620088316D1
:10092000870000008312A0152008831687000000AE
:100930008312871D992C0712201220088316870026
:10094000000083128711A011200883168700D13080
:1009500083120317E50003137620F701083003170D
:10096000DF007708E00003132016200883168700B5
:1009700000008312A0152008831687008312871DAC
:10098000BF2C071A0314071E0310F80D0000A01156
:10099000200883168700831287110317DF0BB32CFF
:1009A0000313201620088316870000008312071205
:1009B000031760080319E32C031320122008831681
:1009C00087008312031700000313A0152008831665
:1009D00087008312871DEA2C00008711A0112008D0
:1009E0008316870000008312071220122008831646
:1009F0008700780883120317DD00031320122008F4
:100A00008316870000008312A01520088316870034
:100A10008312871D092D00000D2D000020162008CF
:100A2000831687000000831203175D08F800031384
:100A30000800F701F8010317600803106118F707B1
:100A4000F70CF80CE118F707F70CF80C6119F70729
:100A5000F70CF80CE119F707F70CF80C611AF70717
:100A6000F70CF80CE11AF707F70CF80C611BF70705
:100A7000F70CF80CE11BF707F70CF80C0313080050
:100A800003175C080F39DD005C08F039F700F70E3A
:100A90000F30F7057708DF00E0000A30E1000313AC
:100AA0001925780803175D07F800031308000317DA
:100AB000D601D701D801DC01031367247808031796
:100AC000D8005808DC000313402578080317D80025
:100AD0000130DC000313672478080317D700570898
:100AE000DC000313402578080317D7000230DC0030
:100AF0000313672478083F390317D6005608DC0033
:100B00000313402578080317D6005608D900570864
:100B1000DA005808DB005908DD005A08DE005B08DF
:100B2000DF005C08F7005D08F8005E08F9005F0868
:100B3000FA007A08D5007908D4007808D30077083D
:100B4000D2005208F7005308F8005408F90055087D
:100B5000FA0003130800043003174E07F8004F088B
:100B6000FA000318FA0A7808D0007A08D1000313B3
:100B700057250317500884008313511883177708EB
:100B80008000840A78088000840A79088000840A3A
:100B90007A08800005304E07F8004F08FA00031865
:100BA000FA0A7808D0007A08D1005008840083132C
:100BB000511883170008D2001A304E07840083139F
:100BC0004F1883170008E0001830E10003131925BF
:100BD000780803175207D200500884008313511875
:100BE0008317520880004E08F8004F08FA004E089C
:100BF000D0004F08D100D3004E08D20003134B227F
:100C00000800F801F901F701FA0103174B08031D69
:100C10000C2E4A080319262E1030CC000310C80DE4
:100C2000C90DF70DFA0D4B087A02031D192E4A085B
:100C30007702031C222E4A08F702031CFA034B0812
:100C4000FA020314F80DF90DCC0B0E2E0313080055
:100C500003174408C9004308C8004508CA00CB016F
:100C6000CB014A084B0203183E2E4B08480784006C
:100C70008313491883178001CB0A312EC601C1089E
:100C8000031D452EC2080319692E4208C9004108F8
:100C9000C800CB010A30CA000313012677080317E6
:100CA000C700460843078400831344188317470886
:100CB0008000C60A4208C9004108C800CB010A30BA
:100CC000CA000313012679080317C2007808C1007F
:100CD0003F2E0313080001300317360784008313E7
:100CE000371883170008BF00B8080319A02E36086C
:100CF000840083133718831700080139013C031D52
:100D0000A02E01303607840083133718831780081C
:100D1000031D8D2E0C30BF00A02E0130360784003D
:100D200083133718831700080C3C0318A02E0130DA
:100D3000360784008313371883170C300002BF0076
:100D4000C2013F08C1000130C4003930C300023085
:100D5000C5000313282602300317360784008313C7
:100D6000371883170008C000C2014008C1000130D5
:100D7000C4003B30C3000230C500031328260330F3
:100D80000317360784008313371883170008C00041
:100D9000C2014008C1000130C4003D30C300023030
:100DA000C500031328263930F8000130F900080087
:100DB00001300317B700B80183160313851183129E
:100DC000851183168510831285100317B801360824
:100DD00038020318152F3808340784008313351898
:100DE00083170008B9000130B7003708083C031C1E
:100DF000132F3918FF2E03130510012F03170313A8
:100E0000051483160510031083120317B90C8316FB
:100E1000031385118312851583168511831285119D
:100E20000317B70AF52EB80AE72E831603138510A9
:100E3000831285148316851083128510080003170A
:100E4000B3080319582F3108B5003008B400320830
:100E5000B600B701B701360837020318572F370815
:100E60003407F8003508FA000318FA0A7808B800C1
:100E70007A08B900370834078400831335188317BC
:100E8000000803130420F8000317380884008313B4
:100E900039188317780880003708340784008313D3
:100EA00035188317000808388000B70A2B2F832FC6
:100EB0003108B5003008B4003208B600B701B701F8
:100EC000360837020318832F37083407F80035082F
:100ED000FA000318FA0A7808B8007A08B900370847
:100EE0003407840083133518831700080313042084
:100EF000F80003173808840083133918831778081B
:100F00008000B70A602F3108B5003008B4003208FD
:100F1000B6000313D82608001B3003171B078400F4
:100F200083131C18831700089D0017301B078400CB
:100F300083131C18831700089E0003130B08F70087
:100F40008B1303171D088D001E088C0083168C134D
:100F50000C1555308D00AA308D008C148C18AE2FD6
:100F60000C117708831203138B041C3003171B0723
:100F7000840083131C18831700089D0018301B077A
:100F8000840083131C18831700089E0003130B08AA
:100F9000F7008B1303171D088D001E088C008316A5
:100FA0008C130C1555308D00AA308D008C148C18C4
:100FB000D72F0C117708831203138B040800183005
:100FC00003171B079E001C089F0003189F0A173079
:100FD0001B07840083131C1883170008A0001E0839
:100FE000840083131F1883172008800017301B0705
:100FF000840083131C1883171D0880000313080046
:10100000163003171B07840083131C18831700086E
:10101000F700770C0139013C031DEC2816301B0743
:10102000840083131C18831700080139031D7628D8
:101030001D089E009F01A001A101A2018A110313B6
:1010400057258A157A080317AC007908AB00780891
:10105000AA007708A9000130B7002930B600B8010E
:101060008A1103136B268A157908FA00780803178A
:10107000AD007A08AE000130B0002330AF0006307A
:10108000F8002D08840083132E1883170008F7003A
:101090002F08840083133018831777088000AF0A65
:1010A0000319B00AAD0A0319AE0AF80B4128250846
:1010B0009F002608A0002308A1002408A2009E0883
:1010C000031966282C0801399E00682801309E000B
:1010D0000130B1001F30B0000430B2001E08B30070
:1010E0008A1103131F278A15EA28031716301B07D6
:1010F000840083131C18831700080139013C031D69
:10110000EB289E019F01A001A1018A11031357251D
:101110008A157A080317AB007908AA007808A90095
:101120007708A8002908E0003C30E1008A11031389
:1011300019258A15780803172A07AD008316A80019
:101140006430A9008A11831203133D208A157708A1
:101150000317AA000130B7002830B600B8018A1181
:1011600003136B268A157908FA0078080317AC0078
:101170007A08AD000130AF002230AE000630F80032
:101180002C08840083132D1883170008F7002E08FD
:10119000840083132F18831777088000AE0A031981
:1011A000AF0AAC0A0319AD0AF80BC02826089E0046
:1011B00027089F002408A0002508A1000130B100E5
:1011C0001E30B0000430B2000130B3008A110313A6
:1011D0001F278A150317F02916301B078400831375
:1011E0001C1883170008F700770C0139031DF0293C
:1011F00016301B07840083131C188317000801395D
:10120000031D68291B089E001C089F001F08A100E1
:101210001E08A0001D08A200A301A401A501A601AB
:101220002008F8002108FA007808AD007A08AE001E
:10123000B7002D08B600B8018A1103136B268A1572
:101240007908FA0078080317AD007A08AE0001307B
:10125000B0002730AF000630F8002D08840083135B
:101260002E1883170008F7002F0884008313301806
:10127000831777088000AF0A0319B00AAD0A031973
:10128000AE0AF80B2D292908A3002A08A400270874
:10129000A5002808A600A20803195829073020072E
:1012A000840083132118831700080139A2005A29EA
:1012B0000130A2000130B1002330B0000430B20090
:1012C0002208B3008A1103131F278A15EF29031779
:1012D00016301B07840083131C188317000801397C
:1012E000013C031DF0291B089E001C089F001F08DD
:1012F000A1001E08A000A201A301A401A5012008CD
:1013000084008313211883170008F700840A00085B
:10131000F800840A0008F900840A0008FA00770837
:10132000AC007808AD007908AE007A08AF002D084F
:10133000E0003C30E1008A11031319258A15780872
:1013400003172E07B1008316A8006430A9008A1184
:10135000831203133D208A1577080317AE0001306E
:10136000B7002C30B600B8018A1103136B268A151A
:101370007908FA0078080317B0007A08B100013044
:10138000B3002630B2000630F80030088400831322
:10139000311883170008F7003208840083133318CC
:1013A000831777088000B20A0319B30AB00A031939
:1013B000B10AF80BC5292A08A2002B08A3002808A7
:1013C000A4002908A5000130B1002230B00004308B
:1013D000B2000130B3008A1103131F278A150317C7
:1013E00003130800183003171B079D001C089E00FC
:1013F00003189E0A17301B07840083131C188317D9
:1014000000089F001D08840083131E1883171F08FF
:10141000800017301B07840083131C18831780017A
:101420000313080003171B08F8001C08FA007808CB
:101430009D007A089E001E08A0001D089F00103025
:101440001F0784008313201883170008A1000530AC
:101450001F0784008313201883170008A2000313BA
:101460000B08F7008B13031721088D0022088C004E
:1014700083168C130C1555308D00AA308D008C14FA
:101480008C18402A0C117708831203138B04113037
:1014900003171F0784008313201883170008A10077
:1014A00006301F0784008313201883170008A2004A
:1014B00003130B08F7008B13031721088D00220874
:1014C0008C0083168C130C1555308D00AA308D00BE
:1014D0008C148C18692A0C117708831203138B045F
:1014E000123003171F078400831320188317000886
:1014F000A10007301F0784008313201883170008FA
:10150000A20003130B08F7008B13031721088D00AB
:1015100022088C0083168C130C1555308D00AA30D0
:101520008D008C148C18922A0C11770883120313E7
:101530008B04203003171B07840083131C188317A8
:1015400000089D0005301B07840083131C188317B7
:1015500000088316A8001830A9008A11831203130B
:101560003D208A15780803179E0003130B08F70027
:101570008B1303171D088D001E088C0083168C1317
:101580000C1555308D00AA308D008C148C18C62A8D
:101590000C117708831203138B0408001C3084009D
:1015A000831700080319E12A0630F800F701F70B4A
:1015B000D72AF80BD62A7B30F700F70BDD2A800BF1
:1015C000D42A08001F3003171B07840083131C183C
:1015D000831700089D0016301B07840083131C1816
:1015E00083179E0180189E0A03130B08F7008B13C4
:1015F00003171D088D001E088C0083168C130C1514
:1016000055308D00AA308D008C148C18052B0C11D0
:101610007708831203138B0408000317DF01E0012E
:10162000E1018A1103139E238A150800163003175F
:101630001B07840083131C18831700080139031D3E
:10164000792B1B089D001C089E001E08A0001D0889
:101650009F00A101A201A301A40108301F07F80007
:101660002008FA000318FA0A7808AB007A08AC00E0
:10167000B7002B08B600B8018A1103136B268A1530
:101680007908FA0078080317AB007A08AC0001303B
:10169000AE002530AD000630F8002B08840083131F
:1016A0002C1883170008F7002D08840083132E18C8
:1016B000831777088000AD0A0319AE0AAB0A031935
:1016C000AC0AF80B4D2B2708A1002808A20025081A
:1016D000A3002608A4000130B1002130B00004307E
:1016E000B2000130B3008A1103131F278A15DA2BC9
:1016F000031716301B07840083131C188317000878
:101700000139013C031DDB2B1B089D001C089E00BA
:101710001E08A0001D089F00A101A201A301A401B1
:1017200008301F07F8002008FA000318FA0A7808A2
:10173000AB007A08AC00B7002B08B600B8018A11DC
:1017400003136B268A157908FA0078080317AB0093
:101750007A08AC000130AE002530AD000630F8004C
:101760002B08840083132C1883170008F7002D081A
:10177000840083132E18831777088000AD0A03199D
:10178000AE0AAB0A0319AC0AF80BB02B2908A1006A
:101790002A08A2002708A3002808A4000130B100ED
:1017A0002130B0000430B2000130B3008A110313BD
:1017B0001F278A150317031308000A3003171F0792
:1017C000F8002008FA000318FA0A7808A1007A083D
:1017D000A2000A301F078400831320188317000813
:1017E000A30014301F0784008313201883170008F8
:1017F0002302031DFD2B0030052C0A301F07840037
:1018000083132018831701300007A30021088400E8
:10181000831322188317230880000313080003177B
:101820009D019E019F01A00119301B0784008313B5
:101830001C18831701300007A2008316A8000A3085
:10184000A9008A11831203133D208A1577088A1193
:1018500004208A15F80003179D0019301B07840027
:1018600083131C18831701300007A2008316A800F9
:101870000A30A9008A11831203133D208A157808C3
:101880008A1104208A15083803179E0037309F00FC
:101890000130B5001D30B4000430B6008A110313C6
:1018A000D8268A1508001E3003171B0784008313EF
:1018B0001C18831700089D0019301B078400831330
:1018C0001C18831700089E0003130B08F7008B13E6
:1018D00003171D088D001E088C0083168C130C1531
:1018E00055308D00AA308D008C148C18752C0C117D
:1018F0007708831203138B0408008316861483125F
:101900008618842CE20A862CE201BE146208133C7D
:1019100003188C2CBE10E2019330A7000C30A800F5
:101920008A150A127C2D7D30A7000C30A8008A157C
:101930000A127C2D08008316061483120618A22CA6
:10194000E30AA42CE3013E1563080C3C0318AA2CFF
:101950003E11E301B130AE000C30AF008A150A121F
:101960007C2D9B30AE000C30AF008A150A127C2D06
:1019700008000130BE06C230BC000C30BD008A1524
:101980000A127C2DB930BC000C30BD008A150A1239
:101990007C2D080003081F398300FF30A0003E148F
:1019A000BE143E15BE153E16E101E201E3018316A9
:1019B00003170908C039890003131F129F12003052
:1019C000031788008312870188018901831300307F
:1019D000F800063803139200FF308316920083123A
:1019E0002011200883168700831207110E309700FC
:1019F00083169B019C0101309D0002308312E4009C
:101A0000FA3003179C000313CE22E40B002DFF30A5
:101A1000831695008113950003308312D600A2012E
:101A2000A4010530A300A601A5017D30A7000C305C
:101A3000A800A901AB010530AA00AD010130AC003E
:101A40009B30AE000C30AF00B001B2010130B100EC
:101A5000B401B3010030B5001830B600B701B901C8
:101A60001430B800BB010230BA00B930BC000C30F1
:101A7000BD00A10183160108C039073881003D303F
:101A8000831281000B110310210DF7008A11312000
:101A90008A15F900013077078A1131208A15FA007A
:101AA0007908840083137A1883170008F900840AE0
:101AB0000008F700840A0008F800840A800A000879
:101AC000FA00031D662D840A800A8403840A000834
:101AD0007802031D7E2D77087A02031D7E2D840374
:101AE0008001840A8001840AF91B7E2D840A000883
:101AF0008A0084030008820083120313A10A0430C1
:101B00002102031D432DA10101080B1D892D831600
:0A1B10003F2D842DFF30A10063007B
:102000005608F53E0318612D0B3E642D0317A10100
:102010000130A2000230A3000330A4000430A50068
:102020000530A6000630A7000730A8000830A90038
:102030000930AA00AC010A30AB00CE01CF01D001BB
:10204000D1014E08E2000A12031356200A1678083E
:102050000317D2000330E3005208E4000A1203130E
:10206000C2200A1603174F08E2000A120313562073
:102070000A1678080317D2000430E3005208E4007F
:102080000A120313C2200A1603175008E2000A12AC
:10209000031356200A1678080317D2000530E30010
:1020A0005208E4000A120313C2200A16031751084B
:1020B000E2000A12031356200A1678080317D2000A
:1020C0000630E3005208E4000A120313C2200A1685
:1020D00003172108C8002208C9002308CA002908DC
:1020E000CB002A08CC002B08CD0023088D008316D6
:1020F0008C130C1483120C080139F8004310781863
:10210000431421088D0083168C130C1483120C08C1
:10211000CF004F088316A8000330A9000A128312CB
:1021200003133D200A1677080317C40022088D0008
:1021300083168C130C1483120C08CF004F088316DF
:10214000A8000330A9000A12831203133D200A16C7
:1021500077080317C50029088D0083168C130C140B
:1021600083120C08CF004F088316A8000A30A9007C
:102170000A12831203133D200A1677080317C600BC
:102180002A088D0083168C130C1483120C08013955
:10219000F800C3107818C3142B088D0083168C1315
:1021A0000C1483120C08CF004F088316A8000530CA
:1021B000A9000A12831203133D200A167708031799
:1021C000C700C508031DE928C408031DE92802301B
:1021D000C500003043180130003A03130319F428F6
:1021E000013A03198729162A63300317D8003B30B8
:1021F000D900DB012408DA00DD012508DC00DF015D
:102200002608DE00E1012708E000E3012808E200DB
:102210005A0883169F0083125C0883169E0083125F
:102220005E088316A000831260088316A100831243
:1022300062088316A20083125A088D0083168C133D
:102240000C1483120C08E40001305807E500640800
:102250008316A800831265088316A9000A12831248
:1022600003133D200A16770883160317990083127B
:102270005C088D0083168C130C1483120C08E40088
:1022800001305907E50064088316A8008312650829
:102290008316A9000A12831203133D200A16770839
:1022A000831603179A009B01831258088316A30014
:1022B000831259088316A4003B30A5009030F80023
:1022C0000130F9007908FA0078088312D2007A0800
:1022D000D3000130D5002D30D4001630F80052085C
:1022E00084008313531883170008F70054088400F0
:1022F00083135518831777088000D40A0319D50A69
:10230000D20A0319D30AF80B6F290313162A633074
:102310000317D800DA012408D900DC012508DB0006
:10232000DE012608DD00E0012708DF00E2012808C1
:10233000E100590883169E0083125B0883169D00F6
:1023400083125D088316A00083125F088316A10024
:10235000831261088316A200A30183125808831612
:10236000A4003B30A5009901831259088D00831603
:102370008C130C1483120C08E30001305807E4009E
:1023800063088316A800831264088316A9000A1242
:10239000831203133D200A167708831603179A0049
:1023A00083125B088D0083168C130C1483120C08A7
:1023B000E3000130831625078312E40063088316C7
:1023C000A800831264088316A9000A12831203135B
:1023D0003D200A167708831603179B009030F800FB
:1023E0000130F9007908FA0078088312D2007A08DF
:1023F000D3000130D5002D30D4001630F80052083B
:1024000084008313531883170008F70054088400CE
:1024100083135518831777088000D40A0319D50A47
:10242000D20A0319D30AF80BFF2903130317C408B0
:10243000031DE82A0130CF002D30CE0005304E07B5
:10244000F8004F08FA000318FA0A7808D0007A0852
:10245000D10010304E07840083134F1883170008F3
:10246000D20052088D0083168C130C1483120C08B2
:10247000D20013304E07840083134F1883170130A6
:102480000007D30052088316A8008312530883164E
:10249000A9000A12831203133D200A1677080317B6
:1024A000D20050088400831351188317520880000B
:1024B00006304E07F8004F08FA000318FA0A7808A9
:1024C000D0007A08D10011304E07840083134F18D2
:1024D00083170008D20052088D0083168C130C1449
:1024E00083120C08D20014304E07840083134F1857
:1024F000831701300007D30052088316A800831207
:1025000053088316A9000A12831203133D200A16EA
:1025100077080317D20050088400831351188317DB
:102520005208800007304E07F8004F08FA000318E1
:10253000FA0A7808D0007A08D10012304E078400D9
:1025400083134F1883170008D20052088D0083169A
:102550008C130C1483120C08D20015304E07840023
:1025600083134F18831701300007D30052088316D6
:10257000A800831253088316A9000A1283120313BA
:102580003D200A1677080317D200500884008313F1
:1025900051188317520880004F08D3004E08D2000C
:1025A0000A1203134B220A1601300317CF002D30F5
:1025B000CE000A12031306240A1601300317D300B3
:1025C0002D30D2000A1203134B220A16F02A0317E9
:1025D0000130CF002D30CE000A120313AB250A16AE
:1025E0002D30F8000130F9007908FA007808031757
:1025F0009B007A089C009E013F309D002130F8002E
:102600001B08840083131C1883170008F7001D089B
:10261000840083131E188317770880009D0A03190E
:102620009E0A9B0A03199C0AF80B002B9C013F3061
:102630009B009D010A128A15031300200A168A11B5
:10264000612D831686148312861C7F2BBE197F2B67
:1026500003179C013F309B0018301B07F8001C0833
:10266000FA000318FA0A78089D007A089E001730CD
:102670001B07840083131C18831700089F001D0884
:10268000840083131E1883171F08800016301B0751
:10269000840083131C1883170008F700770C013996
:1026A000013C031D5C2B17301B07840083131C188F
:1026B000831701308000702B16301B0784008313B2
:1026C0001C1883170008F700770C0139031D702BC5
:1026D00017301B07840083131C18831702308000F7
:1026E0009C013F309B000A1203138C270A16031724
:1026F000CF013F30CE000A12031306240A16BE187B
:102700008C2BBE1403179C013F309B0004309D00AE
:102710000A120313DF270A163E19992B3E150317D9
:102720009C013F309B0009309D000A120313DF27F4
:102730000A16612D0317CF013F30CE000A12031392
:10274000AB250A1603179C013F309B0001309D000A
:102750000A128A15031300200A168A11BE18BB2B11
:10276000BE1403179C013F309B0004309D000A12E9
:102770000313DF270A16831686148312861CE92B9F
:10278000BE19E92B03179C013F309B000A128A15E2
:102790000313F2210A168A1103179C013F309B0094
:1027A0000A128A15031312220A168A1103179C01B2
:1027B0003F309B000A1203138C270A1603179C0153
:1027C0003F309B009D010A128A15031300200A1650
:1027D0008A1103179C013F309B001B08F8001C085E
:1027E000FA0078089D007A089E001E08A0001D08C7
:1027F0009F001F08F8002008FA007808A1007A0856
:10280000A2002208A4002108A300013023078400AD
:102810008313241883178008031D202C02302307FC
:1028200084008313241883178008031D202C033091
:102830002307840083132418831780080319222C8C
:102840000030232C0130F80078087808F8080319C4
:10285000882C0313A0122008831687008312871682
:10286000C83003179C000A128A150313CE220A16D9
:102870008A11A01220088316870083128712643001
:1028800003179C000A128A150313CE220A168A1116
:10289000A01220088316870083128716C8300317FA
:1028A0009C000A128A150313CE220A168A11A0125E
:1028B0002008831687008312871203179C013F307C
:1028C0009B0001309D000A120313DF270A1603172D
:1028D0009C013F309B000A1203138C270A16D51463
:1028E00003179C013F309B000A128A150313E22252
:1028F0000A168A110A128A150D230A168A1103175D
:10290000CF013F30CE000A120313AB250A1603177E
:1029100003133E19962C3E1503179C013F309B0074
:1029200009309D000A120313DF270A16612D0317D1
:10293000CF013F30CE000A120313AB250A1603174E
:102940009C013F309B0001309D000A128A15031341
:1029500000200A168A11831686148312861CD92C2D
:10296000BE19D92C03179C013F309B000A128A150F
:102970000313F2210A168A1103179C013F309B00B2
:102980000A128A15031312220A168A1103179C01D0
:102990003F309B000A1203138C270A1603179C0171
:1029A0003F309B009D010A128A15031300200A166E
:1029B0008A11BE18E62CBE1403179C013F309B0001
:1029C00004309D000A120313DF270A163E19F32C68
:1029D0003E1503179C013F309B0009309D000A12F1
:1029E0000313DF270A16612DD51003179C013F3012
:1029F0009B000A128A150313E2220A168A110A1290
:102A00008A150D230A168A1103179B019C019D014B
:102A10009E0101309B0009309C0001309D009E000A
:102A2000B5001B30B4000430B6000A120313D826D8
:102A30000A16083003179B00FA309C000A128A1508
:102A40000313CE220A168A1103179B0B1C2D9C011F
:102A50003F309B000A309D000A120313DF270A163D
:102A60000530E0000A128A150D230A168A11031791
:102A7000CF013F30CE000A120313AB250A1603170D
:102A80009C013F309B009D010A128A150313002010
:102A90000A168A11612D831686148312861C612DF5
:102AA000831606148312061C612D03179C013F3008
:102AB0009B000313600803179D000A120313DF270E
:102AC0000A168A150A1602280A148A100A1582079D
:102AD000212B972C9A2B0628F42C612D612D612D2A
:062AE000612D612D4B2D5C
:103000008A1100288A1505305602FB3E0318AF2EA0
:10301000053ECA2E03179C013F309B009D010A12FA
:10302000031300200A16831686148312861C332885
:10303000BE19332803179C013F309B0002309D00CE
:103040000A128A110313DF270A168A1503179C0137
:103050003F309B000A128A1103138C270A168A1527
:103060000A120D230A163E1942283E1503179C0129
:103070003F309B0006309D000A128A110313DF27A0
:103080000A168A15AF2E3E1C4E2803179C013F30AE
:103090009B000A12031316230A16392903179C01F1
:1030A0003F309B0016301B07840083131C188317C6
:1030B00000080139031DC6281B08F8001C08FA0087
:1030C00078089D007A089E001E08A0001D089F0039
:1030D000A101A201A301A40108301F07F8002008E4
:1030E000FA000318FA0A7808AB007A08AC00B700B7
:1030F0002B08B600B8010A128A1103136B260A16B0
:103100008A157908FA0078080317AB007A08AC0032
:103110000130AE002530AD000630F8002B088400E9
:1031200083132C1883170008F7002D0884008313DD
:103130002E18831777088000AD0A0319AE0AAB0A70
:103140000319AC0AF80B8E2827080A128A110313F8
:1031500004200A168A15F8000317A10028080A128D
:103160008A11031304200A168A1508380317A200CF
:103170000130B5002130B4000430B6000A128A11C3
:103180000313D8260A168A153929031716301B0788
:10319000840083131C18831700080139013C031DA8
:1031A0003A291B08F8001C08FA0078089D007A08E4
:1031B0009E001E08A0001D089F00A101A201A301FE
:1031C000A40108301F07F8002008FA000318FA0AC3
:1031D0007808AB007A08AC00B7002B08B600B8013D
:1031E0000A128A1103136B260A168A157908FA0047
:1031F00078080317AB007A08AC000130AE00253028
:10320000AD000630F8002B08840083132C188317B8
:103210000008F7002D08840083132E188317770801
:103220008000AD0A0319AE0AAB0A0319AC0AF80B09
:10323000032929080A128A11031304200A168A1581
:10324000F8000317A1002A080A128A1103130420A8
:103250000A168A1508380317A2000130B50021307C
:10326000B4000430B6000A128A110313D8260A16D5
:103270008A15031783160313861483128618B92937
:103280008316861483128618B92903179C013F30D0
:103290009B0016301B07840083131C18831700083B
:1032A0000139031D8F291B08F8001C08FA00780853
:1032B0009D007A089E001E08A0001D089F0009308E
:1032C0001F07F8002008FA000318FA0A7808A1007E
:1032D0007A08A20009301F0784008313201883177F
:1032E0000008A30013301F078400831320188317DE
:1032F00000082302031D7E290030862909301F079C
:10330000840083132018831701300007A3002108CD
:10331000840083132218831723088000AA291630FB
:103320001B07840083131C18831700080139013C14
:10333000031DAA291B08F8001C08FA001B089D00A1
:103340001C089E00A0001B089F000A120313DD2327
:103350000A1603179C013F309B000A120313162321
:103360000A16643003179C000A120313CE220A16B1
:1033700040293E1AD229831606148312061CD2292C
:103380005708053C031DC629E10AD22903179C01F1
:103390003F309B0007309D000A128A110313DF277C
:1033A0000A168A156108013C0318E329E101031795
:1033B0009C013F309B0007309D000A128A110313C5
:1033C000DF270A168A15AF2E3E1CEF2903179C0132
:1033D0003F309B000A12031316230A16DE2A031736
:1033E0009C013F309B0016301B07840083131C1880
:1033F000831700080139031D692A1B08F8001C08FF
:10340000FA0078089D007A089E001E08A0001D089A
:103410009F00A101A201A301A40108301F07F80029
:103420002008FA000318FA0A7808AB007A08AC0002
:10343000B7002B08B600B8010A128A1103136B26D5
:103440000A168A157908FA0078080317AB007A087B
:10345000AC000130AE002530AD000630F8002B087E
:10346000840083132C1883170008F7002D088400AC
:1034700083132E18831777088000AD0A0319AE0A4C
:10348000AB0A0319AC0AF80B2F2A0830A200250852
:103490000A128A11031304200A168A15F80003176A
:1034A000A30026080A128A11031304200A168A159B
:1034B000F8000317A4000130B5002130B400043037
:1034C000B6000A128A110313D8260A168A15DE2AB4
:1034D000031716301B07840083131C18831700087A
:1034E0000139013C031DDF2A1B08F8001C08FA0003
:1034F00078089D007A089E001E08A0001D089F0005
:10350000A101A201A301A40108301F07F8002008AF
:10351000FA000318FA0A7808AB007A08AC00B70082
:103520002B08B600B8010A128A1103136B260A167B
:103530008A157908FA0078080317AB007A08AC00FE
:103540000130AE002530AD000630F8002B088400B5
:1035500083132C1883170008F7002D0884008313A9
:103560002E18831777088000AD0A0319AE0AAB0A3C
:103570000319AC0AF80BA62A0830A20027080A1281
:103580008A11031304200A168A15F8000317A300F2
:1035900028080A128A11031304200A168A15F80053
:1035A0000317A4000130B5002130B4000430B60088
:1035B0000A128A110313D8260A168A1503178316CE
:1035C0000313861483128618602B831686148312C5
:1035D0008618602B03179C013F309B0016301B0799
:1035E000840083131C18831700080139031D092B5D
:1035F0001B08F8001C08FA0078089D001C089E00B3
:10360000A0001D089F000A120313DD230A16502B89
:10361000031716301B07840083131C188317000838
:103620000139013C031D4F2B1B08F8001C08FA0050
:1036300078089D007A089E001E08A0001D089F00C3
:103640000B301F07F8002008FA000318FA0A780860
:10365000A1007A08A2000B301F07840083132018F2
:1036600083170008A30015301F0784008313201858
:10367000831700082302031D3F2B0030472B0B301C
:103680001F07840083132018831701300007A3004D
:103690002108840083132218831723088000031352
:1036A00003179C013F309B000A12031316230A16CE
:1036B000643003179C000A120313CE220A16E52A6F
:1036C0003E1AC92B831606148312061CC92B031736
:1036D0009C013F309B0016301B07840083131C188D
:1036E000831700080139031D8D2B09301B07840047
:1036F00083131C1883178008031D892B0A301B07AE
:10370000840083131C1883178008031D892B003045
:103710008A2B0130F800AE2BAE2B16301B0784002D
:1037200083131C18831700080139013C031DAE2BBD
:103730000A301B07840083131C1883178008031D9D
:10374000AC2B0B301B07840083131C1883178008D5
:10375000031DAC2B0030AD2B0130F800F808031925
:10376000BE2B9C013F309B0008309D000A128A113D
:103770000313DF270A168A15C92B03179C013F3054
:103780009B0006309D000A128A110313DF270A16D8
:103790008A15AF2E03179C013F309B009D019E01AF
:1037A0009F01A00116301B07840083131C18831788
:1037B00000080139031DE42B25309D002D309E00AB
:1037C00067309F00A000F62B16301B078400831380
:1037D0001C18831700080139013C031DF62BB33078
:1037E0009D00BB309E0025309F00A0000130B50039
:1037F0001D30B4000430B6000A128A110313D82613
:103800000A168A15831686148312861CD92CBE19B3
:10381000D92C03179C013F309B0016301B07F80082
:103820001C08FA000318FA0A78089D007A089E001E
:1038300016301B07840083131C188317001C272CC9
:103840001D08840083131E18831700102D2C1D08DB
:10385000840083131E188317001416301B0784007E
:1038600083131C18831700080139031D832C0930AA
:103870001B07F8001C08FA000318FA0A78089D00D4
:103880007A089E000A301B07840083131C188317D4
:1038900000089F001D08840083131E1883171F084B
:1038A00080000A301B07F8001C08FA000318FA0A07
:1038B00078089D007A089E000B301B078400831354
:1038C0001C18831700089F001D08840083131E180E
:1038D00083171F0880000B301B07840083131C18FC
:1038E0008317800113301B07840083131C18831770
:1038F0006330800014301B07840083131C18831767
:103900003B308000D82C16301B07840083131C1812
:10391000831700080139013C031DD82C0B301B070D
:10392000F8001C08FA000318FA0A78089D007A08C3
:103930009E000A301B07840083131C18831700089D
:103940009F001D08840083131E1883171F08800022
:103950000A301B07F8001C08FA000318FA0A780856
:103960009D007A089E0009301B07840083131C18F1
:10397000831700089F001D08840083131E188317F7
:103980001F08800009301B07840083131C1883174D
:10399000800113301B07840083131C1883178001D8
:1039A00014301B07840083131C18831763308000B6
:1039B00003133E1AF32D831606148312061CF32DEF
:1039C00003179C013F309B0016301B0784008313B4
:1039D0001C18831700080139031D452D01309E0076
:1039E0001B309D000F301D07840083131E188317A2
:1039F00000089F0009301D07840083131E188317D9
:103A00000008A00003130B08F7008B1303171F080F
:103A10008D0020088C0083168C130C1555308D00FA
:103A2000AA308D008C148C18132D0C11770883127A
:103A300003138B040E3003171D07840083131E1815
:103A4000831700089F000A301D07840083131E1887
:103A500083170008A00003130B08F7008B1303174C
:103A60001F088D0020088C0083168C130C15553010
:103A70008D00AA308D008C148C183C2D0C11770809
:103A8000831203138B04AD2D031716301B0784001C
:103A900083131C18831700080139013C031DAE2D48
:103AA0001B08F8001C08FA0078089D007A089E00A0
:103AB0001E08A0001D089F000E301F0784008313FE
:103AC000201883170008A1000A301F078400831301
:103AD000201883170008A20003130B08F7008B13AC
:103AE000031721088D0022088C0083168C130C15F7
:103AF00055308D00AA308D008C148C187D2D0C1142
:103B00007708831203138B040D3003171F078400FB
:103B10008313201883170008A1000B301F078400AF
:103B20008313201883170008A20003130B08F70063
:103B30008B13031721088D0022088C0083168C1329
:103B40000C1555308D00AA308D008C148C18A62DC4
:103B50000C117708831203138B0403179C013F3069
:103B60009B001D301B07840083131C18831700085B
:103B70009D0016301B07840083131C1883179E01B9
:103B800000189E0A03130B08F7008B1303171D0878
:103B90008D001E088C0083168C130C1555308D007B
:103BA000AA308D008C148C18D32D0C117708831239
:103BB00003138B040A120D230A160317CF013F309B
:103BC000CE000A128A110313AB250A168A150317B1
:103BD0009C013F309B0009309D000A128A1103139B
:103BE000DF270A168A15AF2E3E1CFF2D03179C01F6
:103BF0003F309B000A1203130F240A16122E0317DC
:103C00009B019C019D019E0137309D000130B50054
:103C10001B30B4000430B6000A128A110313D826F0
:103C20000A168A1583168614831286186A2E83163E
:103C30008614831286186A2E03179C013F309B005E
:103C400019301B07F8001C08FA000318FA0A780854
:103C50009D007A089E0019301B07840083131C18EE
:103C6000831701300007A0008316A8000A30A900BE
:103C70000A128A11831203133D200A168A15770847
:103C800003179F001D08840083131E1883171F0845
:103C9000800019301B07840083131C188317000849
:103CA0000A128A11031323200A168A1503179D008E
:103CB0000313950003179C013F309B000A12031366
:103CC0000F240A16643003179C000A120313CE2235
:103CD0000A16172E3E1A8B2E831606148312061C04
:103CE0008B2E5708083C031D8A2E03179C013F307A
:103CF0009B000A12031353240A1603179C013F303A
:103D00009B0005309D000A128A110313DF270A1653
:103D10008A158B2EE10A6108013C0318AF2EE101E0
:103D200003179C013F309B000313570803179D00A6
:103D30000A128A110313DF270A168A1503179C013A
:103D40003F309B009D010A12031300200A1603173F
:103D50009C013F309B000A12031353240A1683165A
:103D600086148312BE118618BE158316061483129C
:103D70003E1206183E16C230B5001E30B6008A1537
:103D80000A127C2D0030B5001830B6008A150A12D0
:103D90007C2D08000A108A140A1582070A28432875
:063DA000E429CA2BF42DFA
:04400E00822FFF3FBF
:00000001FF
;PIC16F886
;CRC=69A9  CREATED="09-Nov-17 18:52"
