:100000000D308A00CA2D00000A108A100A118207DA
:10001000F6346034D534F1346334B334B734E03477
:10002000F734F33401340834E734963497348734A2
:1000300067343734963475342534763417340434C1
:100040006434C33435340A108A100A11820722340A
:10005000003429340034303400343734003483160B
:1000600003172C08F8012B02031839282B08F70076
:100070004528F7010830AD00AB0DF70D2C087702CD
:100080000318F700F80DAD0B3C288312031308008A
:100090000830F80000008711A0112008831687009F
:1000A000000083120317ED0D03130712031C5E28D3
:1000B0002016200883168700622883122012200849
:1000C0008316870000008312A0152008831687007E
:1000D0008312871D6928F80B4A2800008711A01198
:1000E000200883168700000083122016200883163C
:1000F0008700000000008312A015200883168700E7
:100100008312871D8128F8010000071A78148711CF
:10011000A0112008831687008312071220122008DE
:1001200083168700831208000317EC0103132016BF
:1001300020088316870000008312A015200883166C
:100140008700000083120712201220088316870000
:10015000000083128711A011200883168700D03079
:1001600083120317ED000313482003176B08ED00FB
:1001700003134820201620088316870000008312EE
:10018000A01520088316870000008312871DC6284B
:10019000071220122008831687000000831287119F
:1001A000A011200883168700D13083120317ED00B9
:1001B00003134820F70108300317EE007708EF001B
:1001C0000313201620088316870000008312A01551
:1001D0002008831687008312871DEC28071A031452
:1001E000071E0310F80D0000A011200883168700D9
:1001F000831287110317EE0BE02803132016200843
:100200008316870000008312071203176F08031973
:100210001029031320122008831687008312031766
:1002200000000313A0152008831687008312871D82
:10023000172900008711A0112008831687000000ED
:100240008312071220122008831687007808831271
:100250000317EC0003132012200883168700000008
:100260008312A0152008831687008312871D362964
:1002700000003A290000201620088316870000009D
:10028000831203176C08F80003130800F701F80144
:1002900003176F08031083161018F707F70CF80CF4
:1002A0009018F707F70CF80C1019F707F70CF80C73
:1002B0009019F707F70CF80C101AF707F70CF80C61
:1002C000901AF707F70CF80C101BF707F70CF80C4F
:1002D000901BF707F70CF80C8312031308000317A1
:1002E0006B080F39EC006B08F039F700F70E0F3090
:1002F000F7057708EE00EF000A30831690008312AE
:1003000003134621780803176C07F800031308004D
:10031000203083160317B200AE01AF01B001B10166
:100320002908FA002808F9002708F8002608F7002D
:100330000310771CA9292A08AE072B0803182B0FD6
:10034000AF072C0803182C0FB0072D0803182D0F2A
:10035000B107B10CB00CAF0CAE0CFA0CF90CF80CE8
:10036000F70CB20B982983120313080083160317A6
:10037000120884008313131883170008A301A20135
:10038000A101A000A5010408A4002510831B2514C9
:100390002308A9002208A8002108A7002008A60019
:1003A000AD01AC010E30AB001030AA008312031374
:1003B00088218316031724088400831325188317C4
:1003C0007A089700790896007808950077089400D5
:1003D0000130120784008313131883170008A30148
:1003E000A201A101A000A5010408A4002510831BFF
:1003F00025142308A9002208A8002108A700200826
:10040000A600AD01AC01AB013C30AA00831203137E
:100410008821831603172408840083132518831763
:100420007A089B0079089A00780899007708980064
:1004300018081407A0001508A10019080318190FBF
:10044000A1071608A2001A0803181A0FA207170816
:10045000A3001B0803181B0FA30702301207840018
:10046000831313188317000820079C0021089D00A0
:100470000030031801309D0722089E000030031849
:1004800001309E0723089F000030031801309F07AA
:100490001C08F7001D08F8001E08F9001F08FA00E4
:1004A0008312031308008318582AAA308400831784
:1004B00083160317250829068039AF00A51F6B2A6C
:1004C000A209A309A409A509A20A0319A30A0319E9
:1004D000A40A0319A50AA91F782AA609A709A80929
:1004E000A909A60A0319A70A0319A80A0319A90A40
:1004F000F701F801F901FA01AA01AB01AC01AD0164
:1005000029082804270426040319B62A2030AE003F
:100510000310A20DA30DA40DA50DAA0DAB0DAC0DDE
:10052000AD0D29082D02031D9F2A28082C02031D4A
:100530009F2A27082B02031D9F2A26082A02031C34
:10054000B02A2608AA022708031C270FAB02280896
:10055000031C280FAC022908031C290FAD02031449
:10056000F70DF80DF90DFA0DAE0B882AAF1FC32A4F
:10057000F709F809F909FA09F70A0319F80A03193A
:10058000F90A0319FA0A2A088000840A2B08800055
:10059000840A2C088000840A2D088000831203132B
:1005A000080003175208F8005308FA007808D4002E
:1005B0007A08D5005508D7005408D60005305607EC
:1005C000F8005708FA000318FA0A7808D8007A08E1
:1005D000D900E501E601E701EB0103139420780857
:1005E0000317E7006708EB0003136F217808031770
:1005F000E7000130EB000313942078080317E600AE
:100600006608EB0003136F2178080317E600023039
:10061000EB000313942078083F390317E5006508C1
:10062000EB0003136F2178080317E5006508EE005F
:100630006608EF0067088316900083126E08831621
:10064000910083126F088316920010089300913076
:10065000F8000130F90078088400831379188317B3
:1006600000088312E000840A0008E100840A000800
:10067000E200840A0008E300840A0008E400603015
:10068000F8000130F9007908FA007808DA007A08F1
:10069000DB000530F8005A08840083135B188317C9
:1006A0000008F70058088400831359188317770847
:1006B0008000D80A0319D90ADA0A0319DB0AF80BF1
:1006C0004B2B5708D9005608D80005305807F800BA
:1006D0005908FA000318FA0A7808831690007A0875
:1006E000910093001008920083120313B6217A0838
:1006F0000317DD007908DC007808DB007708DA00F2
:100700000A305807F8005908FA000318FA0A78085E
:10071000831690007A0891009300100892008312CB
:100720000313B6217A080317E1007908E00078087E
:10073000DF007708DE005A085E02E2005F08E3008F
:100740005B08031C5B0FE3026008E4005C08031C09
:100750005C0FE4026108E5005D08031C5D0FE50223
:10076000E51FB72BF701F801F901FA01BF2B620869
:10077000F7006308F8006408F9006508FA007A08D1
:10078000E5007908E4007808E3007708E2008310C8
:1007900065088316A500831264088316A4008312DB
:1007A00063088316A300831262088316A200A901BE
:1007B000A8010E30A7001030A600831203135322A5
:1007C0007A080317E9007908E8007808E700770855
:1007D000E600831490308400831765088316A50013
:1007E000831264088316A400831263088316A3008F
:1007F000831262088316A200A901A8010E30A70087
:100800001030A60083120313532283160317130814
:10081000970012089600110895001008940099019D
:10082000040898001910831B191483101308A500DD
:100830001208A4001108A3001008A200A901A80131
:10084000A7013C30A600831203135322831603171B
:10085000180884008313191883177A088312ED008F
:100860007908EC007808EB007708EA0002305807B6
:10087000F8005908FA000318FA0A7808831690005D
:100880007A0891009301040892001310831B13143B
:100890008314943084008317831265088316A5009F
:1008A000831264088316A400831263088316A300CE
:1008B000831262088316A200A901A8010E30A700C6
:1008C0001030A60083120313532283160317140853
:1008D000F7001508F8001608F9001708FA001208C2
:1008E000840083131318831717089B0016089A00B7
:1008F00015089900140898009D0104089C001D101B
:10090000831B1D1483149E30840083171708A500D1
:100910001608A4001508A3001408A200A901A80144
:10092000A7013C30A600831203135322831603173A
:100930001C08840083131D18831710088400831378
:10094000111883171E08800083125808840083132F
:1009500059188317660880000130580784008313F4
:10096000591883176A0880000313080003176208E8
:100970008316AB000A30AC00831203132F20780ECD
:10098000F700F030F7057708F0390317E300620845
:100990008316AB000A30AC00831203132F207708B4
:1009A0000F3903176304F80003130800201620080A
:1009B0008316870000008312A01520088316870085
:1009C00000008312071220122008831687000000FF
:1009D00083128711A011200883168700D03083125C
:1009E0000317ED000313482003176308ED000313FA
:1009F000482003176408ED00031348202012200844
:100A00008316870000008312A01520088316870034
:100A10008312871D092D00000D2D000020162008CF
:100A20008316870000008312080003176108E200A4
:100A30000313B62478080317E200E3016208E40018
:100A40000313D62403176008E2000313B6247808C2
:100A50000317E2000130E3006208E4000313D62428
:100A600003175F08E2000313B62478083F39031721
:100A7000E2000230E3006208E4000313D624080019
:100A800003175208F8005308FA007808D4007A08CF
:100A9000D5005508D7005408D60005305607F80091
:100AA0005708FA000318FA0A7808D8007A08D9001B
:100AB0005908DB005808DA005A08840083135B18D1
:100AC00083170008DC0001305A07840083135B1889
:100AD00083170008DD0002305A07840083135B1877
:100AE00083170008DE005C08DF005D08E0005E0898
:100AF000E100031315250800F801F901F701FA01D7
:100B000003174E08031D872D4D080319A12D103022
:100B1000CF000310CB0DCC0DF70DFA0D4E087A0265
:100B2000031D942D4D087702031C9D2D4D08F702DF
:100B3000031CFA034E08FA020314F80DF90DCF0B4B
:100B4000892D0313080003174708CC004608CB0083
:100B50004808CD00CE01CE014D084E020318B92D34
:100B60004E084B07840083134C1883178001CE0A6C
:100B7000AC2DC901C408031DC02DC5080319E42DFF
:100B80004508CC004408CB00CE010A30CD00031349
:100B90007C2577080317CA00490846078400831399
:100BA000471883174A088000C90A4508CC00440842
:100BB000CB00CE010A30CD0003137C257908031742
:100BC000C5007808C400BA2D0313080003173908BC
:100BD000840083133A1883170008C200BB08031966
:100BE000182E03303907840083133A18831700083E
:100BF0000139013C031D182E3908840083133A186B
:100C000083178008031D072E0C30C200182E3908E8
:100C1000840083133A18831700080C3C0318182E1D
:100C20003908840083133A1883170C300002C2007D
:100C3000C5014208C4000130C7003C30C600023084
:100C4000C8000313A3250130031739078400831359
:100C50003A1883170008C300C5014308C4000130D7
:100C6000C7003E30C6000230C8000313A32502307F
:100C700003173907840083133A1883170008C30049
:100C8000C5014308C4000130C7004030C60002302F
:100C9000C8000313A3253C30F8000130F900080018
:100CA00001300317BA00BB018316031385118312A9
:100CB000851183168510831285100317BB0139082F
:100CC0003B0203188D2E3B08370784008313381826
:100CD00083170008BC000130BA003A08083C031C26
:100CE0008B2E3C18772E03130510792E0317031350
:100CF000051483160510031083120317BC0C83160A
:100D000003138511831285158316851183128511AE
:100D10000317BA0A6D2EBB0A5F2E831603138510C4
:100D2000831285148316851083128510080003171B
:100D3000B6080319D02E3408B8003308B7003508B8
:100D4000B900BA01BA0139083A020318CF2E3A089D
:100D50003707F8003808FA000318FA0A7808BB00C9
:100D60007A08BC003A0837078400831338188317C1
:100D7000000803130420F80003173B0884008313C2
:100D80003C188317780880003A08370784008313DB
:100D900038188317000808388000BA0AA32EFB2EE3
:100DA0003408B8003308B7003508B900BA01BA01F1
:100DB00039083A020318FB2E3A083707F8003808BA
:100DC000FA000318FA0A7808BB007A08BC003A084F
:100DD000370784008313381883170008031304208F
:100DE000F80003173B08840083133C188317780826
:100DF0008000BA0AD82E3408B8003308B700350886
:100E0000B900031350260800193003171D0784008A
:100E100083131E18831700080139013C031D762F28
:100E20001D08F8001E08FA007808A0007A08A10042
:100E30002108A3002008A2001F08A400A501A60104
:100E4000A701A8012208F8002308FA007808AF00DB
:100E50007A08B000BA002F08B900BB010313E625D9
:100E60007908FA0078080317AF007A08B00001305B
:100E7000B2002930B1000630F8002F088400831337
:100E8000301883170008F7003108840083133218E4
:100E9000831777088000B10A0319B20AAF0A031951
:100EA000B00AF80B3D2F2B08A5002C08A600290836
:100EB000A7002A08A800A4080319682F07302207F2
:100EC000840083132318831700080139A4006A2FB4
:100ED0000130A4000130B4002530B3000430B50067
:100EE0002408B60003139726EA2F031719301D07AD
:100EF000840083131E18831700080139031DEB2F8C
:100F00001D08F8001E08FA007808A0007A08A10061
:100F10002108A3002008A200A401A501A601A701A1
:100F2000220884008313231883170008AE00840A64
:100F30000008AF00840A0008B000840A0008B1006D
:100F4000840A0008B2002E08EF003C30831690009F
:100F500083120313462178080317AF070130BA0044
:100F60002E30B900BB010313E6257908FA00780892
:100F70000317B3007A08B4000130B6002830B5007A
:100F80000630F800330884008313341883170008F0
:100F9000F70035088400831336188317770880001C
:100FA000B50A0319B60AB30A0319B40AF80BC22F1B
:100FB0002C08A4002D08A5002A08A6002B08A700CD
:100FC0000130B4002430B3000430B5000130B60065
:100FD000031397260317031308000317DF01E0012B
:080FE000E101031315250800CF
:101000001C3003171D07840083131E188317000864
:101010009F001A301D07840083131E1883170008D1
:10102000A00003130B08F7008B1303171F088D0094
:1010300020088C0083168C130C1555308D00AA30B7
:101040008D008C148C1822280C117708831203133E
:101050008B041D3003171D07840083131E1883178C
:1010600000089F001B301D07840083131E18831780
:101070000008A00003130B08F7008B1303171F08C9
:101080008D0020088C0083168C130C1555308D00B4
:10109000AA308D008C148C184B280C117708831201
:1010A00003138B0408001B3003171D07F8001E08EC
:1010B000FA000318FA0A7808A0007A08A1001A308A
:1010C0001D07840083131E1883170008A200200840
:1010D0008400831321188317220880001A301D070B
:1010E000840083131E1883171F0880000313080051
:1010F0001E3084008317000803198B280630F8007F
:10110000F701F70B8128F80B80287B30F700F70BED
:101110008728800B7E2808005908F63E0318432CC8
:101120000A3E462C0317A401A301A6010130A50025
:10113000A8010230A700AA010330A900AC010430C5
:10114000AB00AE010530AD00B0010630AF00B2011A
:101150000730B1002308CF002508D0002708D100B0
:1011600027088D0083168C130C1483120C08013988
:10117000F8004C1078184C1423088D0083168C133B
:101180000C1483120C08D30053088316AB000330F1
:10119000AC008A11831203132F208A1577080317D6
:1011A000CD0025088D0083168C130C1483120C08B7
:1011B000D30053088316AB000330AC008A118312AE
:1011C00003132F208A1577080317CE00CE08031DBE
:1011D000EE28CD08031DEE280230CE0000304C185A
:1011E0000130013A03130319F928013A031991292F
:1011F000272A63300317E0003B30E1002A08E300B0
:101200002908E2002C08E5002B08E4002E08E7007E
:101210002D08E6003008E9002F08E8003208EB004E
:101220003108EA0062088D0083168C130C148312B7
:101230000C08EC0001306007ED006C088316AB0071
:1012400083126D088316AC008A11831203132F20BA
:101250008A157708831603179A00831264088D0095
:1012600083168C130C1483120C08EC0001306107F8
:10127000ED006C088316AB0083126D088316AC007A
:101280008A11831203132F208A15770883160317F8
:101290009B009C018312600883169F0083126108E3
:1012A0008316A0003B30A100831262088316A500BC
:1012B000831264088316A400831266088316A600AE
:1012C000831268088316A70083126A088316A80091
:1012D0009030F8000130F9007908FA00780883129C
:1012E000DA007A08DB000130DD003330DC00193031
:1012F000F8005A08840083135B1883170008F7006E
:101300005C08840083135D18831777088000DC0A6B
:101310000319DD0ADA0A0319DB0AF80B792903132A
:10132000272A63300317E0002A08E2002908E100B9
:101330002C08E4002B08E3002E08E6002D08E50049
:101340003008E8002F08E7003208EA003108E90019
:1013500083169F01831260088316A0003B30A10012
:101360009A01831261088D0083168C130C1483126A
:101370000C08EB0001306007EC006B088316AB0033
:1013800083126C088316AC008A11831203132F207A
:101390008A157708831603179B00831263088D0054
:1013A00083168C130C1483120C08EB000130831687
:1013B00021078312EC006B088316AB0083126C08C4
:1013C0008316AC008A11831203132F208A15770825
:1013D000831603179C00831261088316A4008312EE
:1013E00063088316A300831265088316A600831280
:1013F00067088316A700831269088316A800903037
:10140000F8000130F9007908FA0078088312DA0050
:101410007A08DB000130DD003330DC001930F800E1
:101420005A08840083135B1883170008F7005C08D0
:10143000840083135D18831777088000DC0A031982
:10144000DD0ADA0A0319DB0AF80B102A0313031763
:10145000CD08031D3E2A0130D3003330D2008A115B
:101460000313D1228A1501300317D3003330D20081
:101470008A11031340258A15462A03170130D30029
:101480003330D2008A110313D1228A153330F80089
:101490000130F9007908FA00780803179D007A08EE
:1014A0009E00A0013F309F001F30F8001D088400FF
:1014B00083131E1883170008F7001F088400831386
:1014C00020188317770880009F0A0319A00A9D0A35
:1014D00003199E0AF80B562A9E013F309D009F017A
:1014E0008A11031304278A15432C8316861483124A
:1014F000861CB72ABE19B72A03179E013F309D00EC
:101500001A301D07840083131E18831700089F00DC
:101510001A301D07F8001E08FA000318FA0A7808A6
:10152000A0007A08A1001B301D07840083131E1839
:1015300083170008A2002008840083132118831752
:10154000220880001B301D07840083131E18831798
:101550001F0880009E013F309D00031300200317E9
:10156000D3013F30D2008A11031340258A15BE18DB
:10157000C22ABE1403179E013F309D0004309F0015
:1015800003135320432C0317D3013F30D2008A1199
:101590000313D1228A1503179E013F309D000130AD
:1015A0009F008A11031304278A15BE18E02ABE146F
:1015B00003179E013F309D0004309F00031353200A
:1015C000831686148312861CA42BBE19A42B031722
:1015D0009E013F309D001B301D07F8001E08FA00D9
:1015E0000318FA0A78089F007A08A0001A301D072D
:1015F000840083131E1883170008A1001F088400AD
:10160000831320188317210880001A301D078400D7
:1016100083131E18831780019E013F309D001D0813
:10162000F8001E08FA0078089F007A08A000200839
:10163000A2001F08A100163021078400831322187E
:1016400083170008A30005302107840083132218A4
:1016500083170008A40003130B08F7008B1303176C
:1016600023088D0024088C0083168C130C1555302C
:101670008D00AA308D008C148C183C2B0C1177082F
:10168000831203138B04173003172107840083137D
:10169000221883170008A300063021078400831353
:1016A000221883170008A40003130B08F7008B13FC
:1016B000031723088D0024088C0083168C130C1547
:1016C00055308D00AA308D008C148C18652B0C11B0
:1016D0007708831203138B04183003172107840043
:1016E0008313221883170008A30007302107840002
:1016F0008313221883170008A40003130B08F700B4
:101700008B13031723088D0024088C0083168C1379
:101710000C1555308D00AA308D008C148C188E2B32
:101720000C117708831203138B0403179E013F30BB
:101730009D000313002003179E013F309D009F0171
:101740008A11031304278A1503179E013F309D0059
:101750001D08F8001E08FA0078089F007A08A0000B
:101760002008A2001F08A1002108F8002208FA00A2
:101770007808A3007A08A4002408A6002308A5007E
:10178000250884008313261883178008031DDA2B8D
:101790000130250784008313261883178008031D52
:1017A000DA2B02302507840083132618831780085C
:1017B0000319DC2B0030DD2B0130F80078087808A5
:1017C000F8080319EB2B9E013F309D0001309F006C
:1017D0000313532003170313432C432C8A11ED27C3
:1017E0008A1503179D019E019F01A00101309D00F4
:1017F00009309E0001309F00A000B8001D30B700E6
:101800000430B9008A11031350268A1508300317D3
:101810009D00FA309E000313782003179D0B092CBE
:101820009E013F309D0009309F0003135320053077
:10183000DE008A11ED278A150317D3013F30D2004D
:101840008A110313D1228A1503179E013F309D0090
:101850009F018A11031304278A15A913432C8316A9
:1018600086148312861C432C831606148312061CCE
:10187000432C03179E013F309D0003135E0803179E
:101880009F00031353208A110A1603280A108A1096
:101890000A158207752AED2BC32A9228EE2B432CBA
:1018A000432C432C432C2F2C193003171D07840085
:1018B00083131E18831700080139013C031DBC2C3B
:1018C0001D08F8001E08FA0078089F007A08A0009A
:1018D0002008A2001F08A100A301A401A501A601E0
:1018E0000A302107F8002208FA000318FA0A7808DB
:1018F000AD007A08AE00BA002D08B900BB018A110C
:101900000313E6258A157908FA0078080317AD0055
:101910007A08AE000130B0002730AF000630F80082
:101920002D08840083132E1883170008F7002F0852
:10193000840083133018831777088000AF0A0319D7
:10194000B00AAD0A0319AE0AF80B902C2908A300BF
:101950002A08A4002708A5002808A6000130B40022
:101960002330B3000430B5000130B6008A110313F0
:1019700097268A15202D031719301D07840083131D
:101980001E18831700080139031D212D1D08F800BA
:101990001E08FA0078089F007A08A0002008A2001C
:1019A0001F08A100A301A401A501A6010A30210777
:1019B000F8002208FA000318FA0A7808AD007A083D
:1019C000AE00BA002D08B900BB018A110313E62549
:1019D0008A157908FA0078080317AD007A08AE0076
:1019E0000130B0002730AF000630F8002D08840029
:1019F00083132E1883170008F7002F088400831321
:101A00003018831777088000AF0A0319B00AAD0AAF
:101A10000319AE0AF80BF62C2B08A3002C08A4001F
:101A20002908A5002A08A6000130B4002330B3001D
:101A30000430B5000130B6008A11031397268A15C9
:101A40000317031308000B3003172107F8002208BF
:101A5000FA000318FA0A7808A3007A08A4000B30E9
:101A6000210784008313221883170008A500103073
:101A70002107840083132218831700082502031D01
:101A8000432D00304B2D0B30210784008313221887
:101A9000831701300007A50023088400831324184E
:101AA0008317250880000313080083168614831209
:101AB00086185C2DE00A5E2DE001BE146008133C20
:101AC0000318642DBE10E0016B30A7000D30A80094
:101AD0008A150A12582E5530A7000D30A8008A1515
:101AE0000A12582E080083160614831206187A2D3F
:101AF000E10A7C2DE1013E1561080C3C0318822DA2
:101B00003E11E1018930AE000D30AF008A150A1296
:101B1000582E7330AE000D30AF008A150A12582EC1
:101B200008000130BE069A30BC000D30BD008A1599
:101B30000A12582E9130BC000D30BD008A150A12D1
:101B4000582E08000030F80006389200FF30831647
:101B50009200831220112008831687008312071138
:101B60000E30970083169B019C0101309D000230CE
:101B70008312E200FA3003179E0003137820E20B71
:101B8000BA2DFF30831695008113950083128A15B4
:101B90000A12E92D03081F398300FF30A0003E140C
:101BA000BE143E15BE153E16DF01E001E1018316AD
:101BB00003170908C039890003131F129F12003050
:101BC0000317880083128701880189018313031397
:101BD000A22D0330D900A201A4010530A300A60163
:101BE000A5015530A7000D30A800A901AB010530B3
:101BF000AA00AD010130AC007330AE000D30AF0073
:101C0000B001B2010130B100B401B3010030B50040
:101C10001030B600B701B9011430B800BB01023072
:101C2000BA009130BC000D30BD00A101831601083F
:101C3000C039073881003D30831281000B11031039
:101C4000210DF7008A1123208A15F900013077074A
:101C50008A1123208A15FA007908840083137A18E0
:101C600083170008F900840A0008F700840A0008B6
:101C7000F800840A800A0008FA00031D422E840A34
:101C8000800A8403840A00087802031D5A2E77080C
:101C90007A02031D5A2E84038001840A8001840A7B
:101CA000F91B5A2E840A00088A0084030008820067
:101CB00083120313A10A04302102031D1F2EA10168
:101CC00001080B1D652E83161B2E602EFF30A10010
:021CD0006300AF
:102000000A128A158C280A168A1105305902FC3EDC
:102010000318F72C043E122D03179E013F309D003C
:102020009F010A12031304270A16831686148312CB
:10203000861C3528BE19352803179E013F309D00A8
:1020400002309F000A128A15031353200A168A11C0
:1020500003179E013F309D000A128A1503130020CA
:102060000A168A110A12ED270A163E1946283E154D
:1020700003179E013F309D0006309F000A128A150B
:10208000031353200A168A11B713A917F72C3E1C05
:10209000542803179E013F309D000A128A1503132E
:1020A00054240A168A112F2903179E013F309D00E0
:1020B00019301D07840083131E1883170008013987
:1020C000013C031DC5281D08F8001E08FA00780809
:1020D0009F007A08A0002008A2001F08A100A30109
:1020E000A401A501A6010A302107F8002208FA0080
:1020F0000318FA0A7808AD007A08AE00BA002D0875
:10210000B900BB010A120313E6250A167908FA0082
:1021100078080317AD007A08AE000130B000273010
:10212000AF000630F8002D08840083132E188317A3
:102130000008F7002F0884008313301883177708EE
:102140008000AF0A0319B00AAD0A0319AE0AF80BF2
:10215000932829080A12031304200A16F80003170B
:10216000A3002A080A12031304200A1608380317CA
:10217000A4000130B8002330B7000430B9000A12BF
:10218000031350260A162F29031719301D07840040
:1021900083131E18831700080139031D30291D08F9
:1021A000F8001E08FA0078089F007A08A0002008AE
:1021B000A2001F08A100A301A401A501A6010A30E5
:1021C0002107F8002208FA000318FA0A7808AD007F
:1021D0007A08AE00BA002D08B900BB010A12031339
:1021E000E6250A167908FA0078080317AD007A0880
:1021F000AE000130B0002730AF000630F8002D08E7
:10220000840083132E1883170008F7002F0884001A
:1022100083133018831777088000AF0A0319B00AB8
:10222000AD0A0319AE0AF80BFF282B080A12031394
:1022300004200A16F8000317A3002C080A1203133F
:1022400004200A1608380317A4000130B800233010
:10225000B7000430B9000A12031350260A160317F8
:1022600083160313861483128618BB2983168614DB
:1022700083128618BB2903179E013F309D00193039
:102280001D07840083131E18831700080139013CC1
:10229000031D86291D08F8001E08FA0078089F0013
:1022A0007A08A0002008A2001F08A1000A30210718
:1022B000F8002208FA000318FA0A7808A3007A083E
:1022C000A4000A3021078400831322188317000812
:1022D000A5000F30210784008313221883170008FC
:1022E0002502031D752900307D290A30210784004D
:1022F00083132218831701300007A50023088400E8
:1023000083132418831725088000A22919301D077C
:10231000840083131E18831700080139031DA229A6
:102320001D08F8001E08FA0078089F001E08A0008B
:10233000A2001F08A1000A128A15031323250A16FA
:102340008A1103179E013F309D000A128A1503135C
:1023500054240A168A11023003179D0096309E00FD
:102360000A128A15031378200A168A1103179D0B87
:10237000AE29031336293E1AD42983160614831274
:10238000061CD4295A08053C031DC829DF0AD42994
:1023900003179E013F309D0007309F000A128A15E7
:1023A000031353200A168A115F08013C0318E5291C
:1023B000DF0103179E013F309D0007309F000A1286
:1023C0008A15031353200A168A11F72C3E1CF32991
:1023D00003179E013F309D000A128A1503135424EF
:1023E0000A168A11D22A03179E013F309D00193028
:1023F0001D07840083131E18831700080139013C50
:10240000031D662A1D08F8001E08FA0078089F00C0
:102410007A08A0002008A2001F08A100A301A401BF
:10242000A501A6010A302107F8002208FA000318C6
:10243000FA0A7808AD007A08AE00BA002D08B90093
:10244000BB010A120313E6250A167908FA00780878
:102450000317AD007A08AE000130B0002730AF009E
:102460000630F8002D08840083132E188317000807
:10247000F7002F0884008313301883177708800033
:10248000AF0A0319B00AAD0A0319AE0AF80B322AD3
:102490000830A40027080A12031304200A16F800C3
:1024A0000317A50028080A12031304200A16F800CF
:1024B0000317A6000130B8002330B7000430B9007C
:1024C0000A12031350260A16D22A031719301D07C1
:1024D000840083131E18831700080139031DD32AB3
:1024E0001D08F8001E08FA0078089F007A08A0006E
:1024F0002008A2001F08A100A301A401A501A601B4
:102500000A302107F8002208FA000318FA0A7808AE
:10251000AD007A08AE00BA002D08B900BB010A125E
:102520000313E6250A167908FA0078080317AD00A8
:102530007A08AE000130B0002730AF000630F80056
:102540002D08840083132E1883170008F7002F0826
:10255000840083133018831777088000AF0A0319AB
:10256000B00AAD0A0319AE0AF80BA02A0830A4007D
:1025700029080A12031304200A16F8000317A500FD
:102580002A080A12031304200A16F8000317A600EB
:102590000130B8002330B7000430B9000A12031329
:1025A00050260A16031783160313861483128618FF
:1025B000602B8316861483128618602B03179E01E6
:1025C0003F309D0019301D07840083131E188317A8
:1025D00000080139013C031D002B1D08F8001E08EE
:1025E000FA001D089F001E08A000A2001D08A100FF
:1025F0000A128A15031323250A168A11462B03177C
:1026000019301D07840083131E1883170008013931
:10261000031D452B1D08F8001E08FA0078089F00CE
:102620007A08A0002008A2001F08A1000C30210792
:10263000F8002208FA000318FA0A7808A3007A08BA
:10264000A4000C302107840083132218831700088C
:10265000A500113021078400831322188317000876
:102660002502031D352B00303D2B0C302107840043
:1026700083132218831701300007A5002308840064
:1026800083132418831725088000031303179E0162
:102690003F309D000A128A15031354240A168A112A
:1026A000023003179D0096309E000A128A1503130C
:1026B00078200A168A1103179D0B532B0313D92A6E
:1026C0003E1AC92B831606148312061CC92B031746
:1026D0009E013F309D0019301D07840083131E1892
:1026E000831700080139013C031D8E2B0A301D079A
:1026F000840083131E1883178008031D8A2B0B3058
:102700001D07840083131E1883178008031D8A2B5E
:1027100000308B2B0130F800AE2BAE2B19301D078B
:10272000840083131E18831700080139031DAE2B84
:102730000B301D07840083131E1883178008031DA8
:10274000AC2B0C301D07840083131E1883178008E0
:10275000031DAC2B0030AD2B0130F800F808031935
:10276000BE2B9E013F309D0008309F000A128A1543
:10277000031353200A168A11C92B03179E013F30F9
:102780009D0006309F000A128A15031353200A1673
:102790008A11F72C03179E013F309D009F01A00175
:1027A000A101A20119301D07840083131E1883178D
:1027B00000080139013C031DE52B25309F002D3019
:1027C000A0006730A100A200F62B19301D0784007D
:1027D00083131E18831700080139031DF62BB3302D
:1027E0009F00BB30A0002530A100A2000130B8003E
:1027F0001F30B7000430B9000A12031350260A161E
:10280000831686148312861CD72CBE19D72C031767
:102810009E013F309D0019301D07F8001E08FA0088
:102820000318FA0A78089F007A08A00019301D07DB
:10283000840083131E188317001C252C1F08840096
:1028400083132018831700102B2C1F088400831378
:1028500020188317001419301D07840083131E18D5
:10286000831700080139013C031D822C0A301D0723
:10287000F8001E08FA000318FA0A78089F007A0880
:10288000A0000B301D07840083131E188317000857
:10289000A1001F08840083132018831721088000DB
:1028A0000B301D07F8001E08FA000318FA0A780812
:1028B0009F007A08A0000C301D07840083131E18A7
:1028C00083170008A1001F088400831320188317B2
:1028D000210880000C301D07840083131E18831705
:1028E00080010F301D07840083131E188317633087
:1028F000800010301D07840083131E1883173B309F
:102900008000D62C19301D07840083131E188317EE
:1029100000080139031DD62C0C301D07F8001E08D5
:10292000FA000318FA0A78089F007A08A0000B3012
:102930001D07840083131E1883170008A1001F08B9
:102940008400831320188317210880000B301D0793
:10295000F8001E08FA000318FA0A78089F007A089F
:10296000A0000A301D07840083131E188317000877
:10297000A1001F08840083132018831721088000FA
:102980000A301D07840083131E18831780010F303F
:102990001D07840083131E188317800110301D0744
:1029A000840083131E1883176330800003133E1ABC
:1029B000F72C831606148312061CF72C0A12ED2737
:1029C0000A160317D3013F30D2000A120313D12293
:1029D0000A16A913B71703179E013F309D00053053
:1029E0009F000A128A15031353200A168A118316B0
:1029F00086148312BE118618BE1583160614831220
:102A00003E1206183E160A30B5001530B6008A157B
:102A10000A12582E0030B5001030B6008A150A127E
:102A2000582E08000A148A100A1582070C28472815
:042A3000E629CA2B9E
:04400E00822FFF3FBF
:00000001FF
;PIC16F886
;CRC=D74E  CREATED="08-Nov-17 17:24"
