:1000000010308A00002800000A108A100A118207A6
:10001000F6346034D534F1346334B334B734E03477
:10002000F734F33401340834E734753417340434C6
:10003000873464349634C3343534353497340A10F5
:100040008A100A11820722340034293400343034F3
:10005000003437340034831603173508F8013402AE
:10006000031835283408F7004128F7010830B60096
:10007000B40DF70D350877020318F700F80DB60B2D
:1000800038288312031308000830F8000000871195
:10009000A01120088316870000000317970D831214
:1000A00003130712031C5A28201620088316870002
:1000B0005E28831220122008831687000000831216
:1000C000A0152008831687008312871D6528F80B6A
:1000D000462800008711A011200883168700000021
:1000E0008312201620088316870000000000831268
:1000F000A0152008831687008312871D7D28F8012C
:100100000000071A78148711A011200883168700B1
:10011000831207122012200883168700831208001A
:1001200083160317960183120313201620088316E3
:10013000870000008312A0152008831687000000A6
:1001400083120712201220088316870000008312F2
:100150008711A011200883168700D030031797005D
:100160008312031344208316031715089700831284
:1001700003134420201620088316870000008312F2
:10018000A01520088316870000008312871DC6284B
:10019000071220122008831687000000831287119F
:1001A000A011200883168700D1300317970083120F
:1001B00003134420F70108308316031798007708CB
:1001C000990083120313201620088316870000006D
:1001D0008312A0152008831687008312871DEE283E
:1001E000071A0314071E0310F80D0000A0112008C1
:1001F000831687008312871183160317980BE12853
:100200008312031320162008831687000000831230
:1002100007128316031719080319152983120313EC
:10022000201220088316870003170000831203138F
:10023000A0152008831687008312871D1D29000042
:100240008711A0112008831687000000831207126F
:10025000201220088316870078080317960083125F
:100260000313201220088316870000008312A015B4
:100270002008831687008312871D3C29000040292F
:1002800000002016200883168700000003171608B8
:10029000F8008312031308008316031715080F399B
:1002A00096001508F039F700F70E0F30F7057708BC
:1002B0009800180899000A309A00F701F801190807
:1002C00003101A18F707F70CF80C9A18F707F70C31
:1002D000F80C1A19F707F70CF80C9A19F707F70C2E
:1002E000F80C1A1AF707F70CF80C9A1AF707F70C1C
:1002F000F80C1A1BF707F70CF80C9A1BF707F70C0A
:10030000F80C78081607F800831203130800203051
:1003100083160317BA00B601B701B801B901310855
:10032000FA003008F9002F08F8002E08F700031033
:10033000771CA8293208B60733080318330FB7070C
:1003400034080318340FB80735080318350FB907F8
:10035000B90CB80CB70CB60CFA0CF90CF80CF70C7D
:10036000BA0B9729831203130800831603171A0880
:10037000840083131B1883170008AB01AA01A9018D
:10038000A800AD010408AC002D10831B2D142B0810
:10039000B1002A08B0002908AF002808AE00B50156
:1003A000B4010E30B3001030B20083120313872162
:1003B000831603172C08840083132D1883177A08DB
:1003C0009F0079089E0078089D0077089C00013006
:1003D0001A07840083131B1883170008AB01AA01B6
:1003E000A901A800AD010408AC002D10831B2D1439
:1003F0002B08B1002A08B0002908AF002808AE0079
:10040000B501B401B3013C30B2008312031387215C
:10041000831603172C08840083132D1883177A087A
:10042000A3007908A2007808A1007708A00020089E
:100430001C07A8001D08A90021080318210FA907FF
:100440001E08AA0022080318220FAA071F08AB00E3
:1004500023080318230FAB0702301A078400831305
:100460001B18831700082807A4002908A5000030DE
:1004700003180130A5072A08A60000300318013030
:10048000A6072B08A700003003180130A70724088F
:10049000F7002508F8002608F9002708FA0083125B
:1004A000031308008318572AB23084008317831679
:1004B00003172D0831068039B700AD1F6A2AAA0933
:1004C000AB09AC09AD09AA0A0319AB0A0319AC0AB6
:1004D0000319AD0AB11F772AAE09AF09B009B109F6
:1004E000AE0A0319AF0A0319B00A0319B10AF701DA
:1004F000F801F901FA01B201B301B401B501310803
:1005000030042F042E040319B52A2030B60003103E
:10051000AA0DAB0DAC0DAD0DB20DB30DB40DB50DF7
:1005200031083502031D9E2A30083402031D9E2A1D
:100530002F083302031D9E2A2E083202031CAF2A05
:100540002E08B2022F08031C2F0FB3023008031C21
:10055000300FB4023108031C310FB5020314F70D3C
:10056000F80DF90DFA0DB60B872AB71FC22AF70945
:10057000F809F909FA09F70A0319F80A0319F90A37
:100580000319FA0A32088000840A33088000840ABA
:1005900034088000840A35088000831203130800A1
:1005A00003175B08F8005C08FA007808DD007A0899
:1005B000DE005E08E0005D08DF0006305F07F8003F
:1005C0006008FA000318FA0A7808E1007A08E200E5
:1005D000EF0183169001910195018312031390207E
:1005E00078088316031791001108950083120313EE
:1005F0004C2178088316031791000130950083126F
:1006000003139020780883160317900010089500B4
:10061000831203134C2178088316031790000230CD
:10062000950083120313902078083F390317EF00D9
:100630006F0883169500831203134C217808031763
:10064000EF006F08831698001008990011089A00AF
:1006500018089B0019089C001A089D009B30F800A0
:100660000130F9007908FA00780892007A089300BE
:1006700001309500693094000630F80012088400BB
:100680008313131883170008F700140884008313DA
:100690001518831777088000940A0319950A920A9F
:1006A0000319930AF80B3E2B6930F8000130F9006A
:1006B0007908FA0078088312E3007A08E40006302B
:1006C000F800630884008313641883170008F70098
:1006D0006108840083136218831777088000E10A99
:1006E0000319E20AE30A0319E40AF80B612B600814
:1006F000E2005F08E10006306107F8006208FA00D6
:100700000318FA0A7808831698007A0899009B0063
:1007100018089A0083120313B5217A080317E6001C
:100720007908E5007808E4007708E3000C306107F9
:10073000F8006208FA000318FA0A7808831698008D
:100740007A0899009B0018089A0083120313B521B8
:100750007A080317EA007908E9007808E8007708C2
:10076000E70063086702EB006808EC006408031CFC
:10077000640FEC026908ED006508031C650FED02CB
:100780006A08EE006608031C660FEE02EE1FCD2B12
:10079000F701F801F901FA01D52B6B08F7006C0895
:1007A000F8006D08F9006E08FA007A08EE00790882
:1007B000ED007808EC007708EB0083106E088316D4
:1007C000AD0083126D088316AC0083126C0883168B
:1007D000AB0083126B088316AA00B101B0010E3082
:1007E000AF001030AE008312031352227A08831632
:1007F0000317930079089200780891007708900019
:10080000831498308400831783126E088316AD001A
:1008100083126D088316AC0083126C088316AB003C
:1008200083126B088316AA00B101B0010E30AF002D
:100830001030AE00831203135222831603171B08D5
:100840009F001A089E0019089D0018089C00A1012D
:100850000408A0002110831B211483101B08AD0085
:100860001A08AC001908AB001808AA00B101B001C1
:10087000AF013C30AE0083120313522283160317DC
:10088000200884008313211883177A0897007908B9
:10089000960078089500770894000230831261076B
:1008A000F8006208FA000318FA0A7808831698001C
:1008B0007A0899009B0104089A001B10831B1B14E3
:1008C00083149C308400831783126E088316AD0056
:1008D00083126D088316AC0083126C088316AB007C
:1008E00083126B088316AA00B101B0010E30AF006D
:1008F0001030AE00831203135222831603171C0814
:10090000F7001D08F8001E08F9001F08FA001A0871
:10091000840083131B1883171F08A3001E08A2005E
:100920001D08A1001C08A000A5010408A4002510B2
:10093000831B25148314A630840083171F08AD0081
:100940001E08AC001D08AB001C08AA00B101B001D4
:10095000AF013C30AE0083120313522283160317FB
:100960002408840083132518831718088400831330
:1009700019188317260880008312610884008313E6
:1009800062188317831610088000013083126107F4
:10099000840083136218831783161408800083125F
:1009A0000313080003176B088316B4000A30B50060
:1009B000831203132B20780EF700F030F705770829
:1009C000F0390317EC006B088316B4000A30B50049
:1009D000831203132B2077080F3903176C04F800D8
:1009E00003130800201620088316870000008312D6
:1009F000A01520088316870000008312071220121A
:100A0000200883168700000083128711A011200898
:100A100083168700D03003179700831203134420F6
:100A200003176C08831697008312031344200317DF
:100A30006D088316970083120313442020122008A8
:100A40008316870000008312A015200883168700F4
:100A50008312871D292D00002D2D0000201620084F
:100A60008316870000008312080003176A08EB0052
:100A70000313D22478080317EB00EC016B08ED0098
:100A80000313F22403176908EB000313D224780838
:100A90000317EB000130EC006B08ED000313F224A8
:100AA00003176808EB000313D22478083F390317B3
:100AB000EB000230EC006B08ED000313F224080099
:100AC00003175B08F8005C08FA007808DD007A0874
:100AD000DE005E08E0005D08DF0006305F07F8001A
:100AE0006008FA000318FA0A7808E1007A08E200C0
:100AF0006208E4006108E30063088400831364185B
:100B000083170008E500013063078400831364182D
:100B100083170008E600023063078400831364181B
:100B200083170008E7006508E8006608E900670821
:100B3000EA00031335250800F801F901F701FA016D
:100B400003175208031DA72D51080319C12D10309A
:100B5000D3000310CF0DD00DF70DFA0D52087A0215
:100B6000031DB42D51087702031CBD2D5108F70257
:100B7000031CFA035208FA020314F80DF90DD30B03
:100B8000A92D0313080003174B08D0004A08CF0013
:100B90004C08D100D201D201510852020318D92DBC
:100BA00052084F0784008313501883178001D20A1C
:100BB000CC2DCD01C808031DE02DC9080319042E52
:100BC0004908D0004808CF00D2010A30D1000313F1
:100BD0009C2577080317CE004D084A07840083132D
:100BE0004B1883174E088000CD0A4908D0004808EA
:100BF000CF00D2010A30D10003139C2579080317D6
:100C0000C9007808C800DA2D0313080003173D084F
:100C1000840083133E1883170008C600BF08031919
:100C2000382E03303D07840083133E1883170008D5
:100C30000139013C031D382E3D08840083133E1802
:100C400083178008031D272E0C30C600382E3D0860
:100C5000840083133E18831700080C3C0318382EB9
:100C60003D08840083133E1883170C300002C60031
:100C7000C9014608C8000130CB004030CA0002302C
:100C8000CC000313C325013003173D0784008313F1
:100C90003E1883170008C700C9014708C800013083
:100CA000CB004230CA000230CC000313C32502300F
:100CB00003173D07840083133E1883170008C700FD
:100CC000C9014708C8000130CB004430CA000230D7
:100CD000CC000313C3254030F8000130F9000800B0
:100CE00001300317BC00BD01831603138511831265
:100CF000851183168510831285100317BD013B08EB
:100D00003D020318AD2E3D083907840083133A18BD
:100D100083170008BE000130BC003C08083C031CDF
:100D2000AB2E3E18972E03130510992E03170313AD
:100D3000051483160510031083120317BE0C8316C7
:100D4000031385118312851583168511831285116E
:100D50000317BC0A8D2EBD0A7F2E83160313851040
:100D600083128514831685108312851008000317DB
:100D7000B8080319F02E3608BA003508B90037084C
:100D8000BB00BC01BC013B083C020318EF2E3C0831
:100D90003907F8003A08FA000318FA0A7808BD0083
:100DA0007A08BE003C083907840083133A18831779
:100DB000000803130420F80003173D088400831380
:100DC0003E188317780880003C0839078400831395
:100DD0003A188317000808388000BC0AC32E1B2F5E
:100DE0003608BA003508B9003708BB00BC01BC01A1
:100DF0003B083C0203181B2F3C083907F8003A084F
:100E0000FA000318FA0A7808BD007A08BE003C0808
:100E10003907840083133A1883170008031304204A
:100E2000F80003173D08840083133E1883177808E1
:100E30008000BC0AF82E3608BA003508B900370819
:100E4000BB000313702608001C300317230784001F
:100E500083132418831700080139013C031D962FC2
:100E60002308F8002408FA007808A6007A08A700EA
:100E70002708A9002608A8002508AA00AB01AC0194
:100E8000AD01AE012808F8002908FA007808B5007D
:100E90007A08B600BE003508BD00BF010313062660
:100EA0007908FA0078080317B5007A08B60001300F
:100EB000B8002F30B7000630F800350884008313DF
:100EC000361883170008F700370884008313381892
:100ED000831777088000B70A0319B80AB50A0319FF
:100EE000B60AF80B5D2F3108AB003208AC002F08B2
:100EF000AD003008AE00AA080319882F0830280773
:100F0000840083132918831700080139AA008A2F47
:100F10000130AA000130B6002B30B5000430B70014
:100F20002A08B8000313B726F32F03171C30230732
:100F3000840083132418831700080139031DF42F3C
:100F40002308F8002408FA007808A6007A08A70009
:100F50002708A9002608A800AA01AB01AC01AD0131
:100F60002808F8002908FA007808B4007A08B500C3
:100F7000BE003408BD00BF01031306267908FA003D
:100F800078080317B4007A08B5000130B7002E3096
:100F9000B6000630F8003408840083133518831730
:100FA0000008F70036088400831337188317770882
:100FB0008000B60A0319B70AB40A0319B50AF80B78
:100FC000CB2F3208AA003308AB003008AC00310840
:100FD000AD000130B6002A30B5000430B700013052
:100FE000B8000313B7260317031308000317E8011B
:0A0FF000E901EA01031335250800AA
:101000001F30031723078400831324188317000855
:10101000A5001D30230784008313241883170008BC
:10102000A60003130B08F7008B13031725088D0088
:1010300026088C0083168C130C1555308D00AA30B1
:101040008D008C148C1822280C117708831203133E
:101050008B0420300317230784008313241883177D
:101060000008A5001E30230784008313241883176B
:101070000008A60003130B08F7008B1303172508BD
:101080008D0026088C0083168C130C1555308D00AE
:10109000AA308D008C148C184B280C117708831201
:1010A00003138B04080024308400831700080319FD
:1010B00066280630F800F701F70B5C28F80B5B2870
:1010C0007B30F700F70B6228800B592808001C3092
:1010D000031723078400831324188317000801399A
:1010E000013C031DCF282308F8002408FA007808E3
:1010F000A5007A08A6002608A8002508A700A901CF
:10110000AA01AB01AC010C302707F8002808FA004F
:101110000318FA0A7808B3007A08B400BE0033084E
:10112000BD00BF018A11031306268A157908FA004B
:1011300078080317B3007A08B4000130B6002D30E8
:10114000B5000630F8003308840083133418831781
:101150000008F700350884008313361883177708D2
:101160008000B50A0319B60AB30A0319B40AF80BCA
:10117000A3282F08A9003008AA002D08AB002E08CC
:10118000AC000130B6002930B5000430B7000130A2
:10119000B8008A110313B7268A15332903171C30A8
:1011A0002307840083132418831700080139031DC3
:1011B00034292308F8002408FA007808A5007A08E2
:1011C000A6002608A8002508A700A901AA01AB01CE
:1011D000AC010C302707F8002808FA000318FA0AB7
:1011E0007808B3007A08B400BE003308BD00BF0120
:1011F0008A11031306268A157908FA00780803175E
:10120000B3007A08B4000130B6002D30B5000630C6
:10121000F800330884008313341883170008F7009C
:101220003508840083133618831777088000B50AC1
:101230000319B60AB30A0319B40AF80B09293108CD
:10124000A9003208AA002F08AB003008AC0001301A
:10125000B6002930B5000430B7000130B8008A115B
:101260000313B7268A150317031308005C08F53E1D
:1012700003181F2F0B3E3A2F0317AA01A901AC0137
:101280000130AB00AE010230AD00B0010330AF0061
:10129000B2010430B100B4010530B300B60106302C
:1012A000B500B8010730B7002908D8002B08D900CD
:1012B0002D08DA002D088D0083168C130C14831270
:1012C0000C080139F80055107818551429088D00BC
:1012D00083168C130C1483120C08DC005C08831634
:1012E000B4000330B5008A11831203132B208A1532
:1012F00077080317D6002B088D0083168C130C1467
:1013000083120C08DC005C088316B4000330B500BF
:101310008A11831203132B208A1577080317D7002D
:10132000D708031D9829D608031D98290230D70035
:10133000003055180130013A03130319A329013A6B
:101340000319412AD52A63300317E9003B30EA002C
:101350003008EC002F08EB003208EE003108ED00F9
:101360003408831691008312330883169000831289
:101370003608831693008312350883169200831271
:101380003808831695008312370883169400831259
:101390006B088D0083168C130C1483120C088316B3
:1013A000B2000130831269078316B3003208B4001B
:1013B0003308B5008A11831203132B208A1577088E
:1013C00083160317A20083126D088D0083168C13F9
:1013D0000C1483120C088316B200013083126A07C2
:1013E0008316B3003208B4003308B5008A118312A3
:1013F00003132B208A15770883160317A300A40173
:10140000831269088316A80083126A088316A9004C
:101410003B30AA0083126B088316AE0083126D085E
:101420008316AD001008AF001208B0001408B10018
:101430009630F8000130F9007908FA007808831234
:10144000E3007A08E4000130E6003930E5001C30A2
:10145000F800630884008313641883170008F700FA
:101460006508840083136618831777088000E50AEF
:101470000319E60AE30A0319E40AF80B292A0313FD
:10148000D52A63300317E9003008EB002F08EA0083
:101490003208ED003108EC003408EF003308EE00AC
:1014A0003608831691008312350883169000831244
:1014B0003808831693008312370883169200A6011A
:1014C000831269088316A7003B30A800A00183128D
:1014D0006A088D0083168C130C1483120C08831673
:1014E000B0000130831269078316B1003008B400E0
:1014F0003108B5008A11831203132B208A1577084F
:1015000083160317A10083126C088D0083168C13B9
:101510000C1483120C088316B00001302807B100A8
:101520003008B4003108B5008A11831203132B2050
:101530008A15770883160317A20083126A08831698
:10154000AB0083126C088316AA0083126E08831600
:10155000AD001008AE001208AF009430F800013062
:10156000F9007908FA0078088312E3007A08E400A9
:101570000130E6003930E5001C30F80063088400D3
:101580008313641883170008F70065088400831329
:101590006618831777088000E50A0319E60AE30A4C
:1015A0000319E40AF80BBE2A03130317D608031D18
:1015B000EC2A0130DC003930DB008A110313D02221
:1015C0008A1501300317DC003930DB008A11031360
:1015D00060258A15F42A03170130DC003930DB005E
:1015E0008A110313D0228A153930F8000130F9002E
:1015F0007908FA0078080317A3007A08A400A60166
:101600003F30A5002230F8002308840083132418FB
:1016100083170008F7002508840083132618831712
:1016200077088000A50A0319A60AA30A0319A40AC9
:10163000F80B042BA4013F30A300A5018A1103136A
:1016400024278A151F2F8316861183128615831669
:1016500086148312861C692BBE19692B0317A401FB
:101660003F30A3001D302307840083132418831701
:101670000008A5001D302307F8002408FA0003180D
:10168000FA0A7808A6007A08A7001E30230784000B
:101690008313241883170008A800260884008313E6
:1016A00027188317280880001E302307840083131F
:1016B0002418831725088000A4013F30A3000313DA
:1016C00000200317DC013F30DB008A110313602583
:1016D0008A15BE186E2BBE140430DC001F2F0317B2
:1016E000DC013F30DB008A110313D0228A15031777
:1016F000A4013F30A3000130A5008A110313242761
:101700008A15BE18862BBE140430DC00831686149E
:101710008312861C4A2CBE194A2C0317A4013F30A1
:10172000A3001E302307F8002408FA000318FA0A61
:101730007808A5007A08A6001D30230784008313CB
:10174000241883170008A70025088400831326188F
:101750008317270880001D30230784008313241873
:1017600083178001A4013F30A3002308F800240858
:10177000FA007808A5007A08A6002608A80025081F
:10178000A70019302707840083132818831700083F
:10179000A900063027078400831328188317000840
:1017A000AA0003130B08F7008B13031729088D00F9
:1017B0002A088C0083168C130C1555308D00AA3026
:1017C0008D008C148C18E22B0C11770883120313F4
:1017D0008B041A30031727078400831328188317F4
:1017E0000008A900073027078400831328188317EF
:1017F0000008AA0003130B08F7008B13031729082E
:101800008D002A088C0083168C130C1555308D0022
:10181000AA308D008C148C180B2C0C1177088312B5
:1018200003138B041B300317270784008313281826
:1018300083170008A900083027078400831328189D
:1018400083170008AA0003130B08F7008B13031774
:1018500029088D002A088C0083168C130C1555302E
:101860008D00AA308D008C148C18342C0C11770844
:10187000831203138B040317A4013F30A300031347
:1018800000200317A4013F30A300A5018A11031310
:1018900024278A150317A4013F30A3002308F8006A
:1018A0002408FA007808A5007A08A6002608A800EF
:1018B0002508A7002708F8002808FA007808A900DA
:1018C0007A08AA002A08AC002908AB002B0884007B
:1018D00083132C1883178008031D802C01302B07DD
:1018E000840083132C1883178008031D802C02307A
:1018F0002B07840083132C18831780080319822C6C
:101900000030832C0130F80078087808F8080319B3
:101910008D2C01300313DC00031703131F2F1F2F1F
:101920008A11F6278A150317A301A401A501A601B0
:101930000130A3000930A4000130A500A600BA00C0
:101940002330B9000430BB008A11031370268A15B6
:1019500008300317A300FA30A40003135320031721
:10196000A30BAB2C0A300313DC000530E1008A1115
:10197000F6278A150317DC013F30DB008A110313B9
:10198000D0228A150317A4013F30A300A5018A11B4
:10199000031324278A15A9131F2F83168614831275
:1019A000861CD92C831606148312061CD92C6108B8
:1019B000DC001F2F0317A4013F30A300A5018A11EB
:1019C000031324278A15831686148312861C1A2D66
:1019D000BE191A2D0317A4013F30A3000230A50041
:1019E0001E302307F8002408FA000318FA0A7808C2
:1019F000A6007A08A7001D3023078400831324184B
:101A000083170008A800260884008313271883176B
:101A1000280880001D3023078400831324188317AF
:101A200025088000A4013F30A300031300208A1181
:101A3000F6278A153E19212D3E150730DC00B71315
:101A4000A9171F2F3E1C2B2D0317A4013F30A30005
:101A500003136720062E0317A4013F30A3001C3098
:101A60002307840083132418831700080139013CDD
:101A7000031D9C2D2308F8002408FA007808A5000F
:101A80007A08A6002608A8002508A700A901AA012F
:101A9000AB01AC010C302707F8002808FA00031846
:101AA000FA0A7808B3007A08B400BE003308BD0013
:101AB000BF018A11031306268A157908FA007808EF
:101AC0000317B3007A08B4000130B6002D30B5001A
:101AD0000630F80033088400831334188317000895
:101AE000F7003508840083133618831777088000C1
:101AF000B50A0319B60AB30A0319B40AF80B6A2D1A
:101B00002F088A11031304208A15F8000317A9006F
:101B100030088A11031304208A1508380317AA0015
:101B20000130BA002930B9000430BB008A11031318
:101B300070268A15062E03171C3023078400831392
:101B40002418831700080139031D072E2308F80005
:101B50002408FA007808A5007A08A6002608A8003C
:101B60002508A700A901AA01AB01AC010C30270789
:101B7000F8002808FA000318FA0A7808B3007A086F
:101B8000B400BE003308BD00BF018A11031306264E
:101B90008A157908FA0078080317B3007A08B400A8
:101BA0000130B6002D30B5000630F800330884004F
:101BB0008313341883170008F70035088400831353
:101BC0003618831777088000B50A0319B60AB30AD6
:101BD0000319B40AF80BD62D31088A110313042017
:101BE0008A15F8000317A90032088A11031304208C
:101BF0008A1508380317AA000130BA002930B90045
:101C00000430BB008A11031370268A15031783164C
:101C10000313861483128618122E831686148312D9
:101C2000861C0D2E3E1A192E8316061483120618D2
:101C3000E20A6208013C0318202EE2010830DC00B1
:101C40001F2F3E1C2A2E0317A4013F30A3000313AD
:101C50006720092F0317A4013F30A3001C3023077E
:101C6000840083132418831700080139013C031DE5
:101C70009D2E2308F8002408FA007808A5007A08A9
:101C8000A6002608A8002508A700A901AA01AB0103
:101C9000AC010C302707F8002808FA000318FA0AEC
:101CA0007808B3007A08B400BE003308BD00BF0155
:101CB0008A11031306268A157908FA007808031793
:101CC000B3007A08B4000130B6002D30B5000630FC
:101CD000F800330884008313341883170008F700D2
:101CE0003508840083133618831777088000B50AF7
:101CF0000319B60AB30A0319B40AF80B692E08309F
:101D0000AA002D088A11031304208A15F80003176E
:101D1000AB002E088A11031304208A15F80003175C
:101D2000AC000130BA002930B9000430BB008A1180
:101D3000031370268A15092F03171C30230784000C
:101D400083132418831700080139031D0A2F230861
:101D5000F8002408FA007808A5007A08A6002608EA
:101D6000A8002508A700A901AA01AB01AC010C300D
:101D70002707F8002808FA000318FA0A7808B300C1
:101D80007A08B400BE003308BD00BF018A110313F6
:101D900006268A157908FA0078080317B3007A082E
:101DA000B4000130B6002D30B5000630F80033081D
:101DB00084008313341883170008F7003508840063
:101DC00083133618831777088000B50A0319B60AFB
:101DD000B30A0319B40AF80BD72E0830AA002F084B
:101DE0008A11031304208A15F8000317AB0030088A
:101DF0008A11031304208A15F8000317AC00013080
:101E0000BA002930B9000430BB008A1103137026D0
:101E10008A15031783160313861483128618152F49
:101E2000831686148312861C102F3E1A1E2F8316CB
:101E300006148312061C1E2F0930DC001F2F831688
:101E400086148312BE118618BE15831606148312DB
:101E50003E1206183E163230B5000F30B6008A1119
:101E60000A1693283630B5000930B6008A110A16D2
:101E7000932808000A148A140A158207232B8F2C32
:101E80006F2B3C29902CDA2C1F2F222D212E1F2F57
:101E9000CD2C8316861483128618502FE30A522FF6
:101EA000E301BE146308133C0318582FBE10E3016E
:101EB0005F30A7000F30A8008A110A169328493016
:101EC000A7000F30A8008A110A169328080083166D
:101ED0000614831206186E2FE40A702FE4013E15D3
:101EE00064080C3C0318762F3E11E4017D30AE00EF
:101EF0000F30AF008A110A1693286730AE000F30FA
:101F0000AF008A110A16932808000130BE068E30F1
:101F1000BC000F30BD008A110A1693288530BC0022
:101F20000F30BD008A110A16932808000030F8000F
:101F300006389200FF308316920083122011200889
:101F400083168700831207110E30970083169B01BA
:101F50009C0101309D0002308312E500FA30031726
:101F6000A40003135320E50BAE2FFF30831695001A
:0C1F70008113950083128A110A162228A2
:1020000003081F398300FF30A0003E14BE143E15A4
:10201000BE153E16E201E301E40183160317090829
:10202000C039890003131F129F1200300317880064
:10203000831287018801890183130313E1010A12C6
:102040008A15962F0A168A110330DC00A201A4011A
:102050000530A300A601A5014930A7000F30A80054
:10206000A901AB010530AA00AD010130AC00673019
:10207000AE000F30AF00B001B2010130B100B401C9
:10208000B3013630B5000930B600B701B9011430DC
:10209000B800BB010230BA008530BC000F30BD0073
:1020A000A10183160108C039073881003D30831231
:1020B00081000B110310210DF7000A121F200A16D0
:1020C000F900013077070A121F200A16FA00790872
:1020D000840083137A1883170008F900840A000823
:1020E000F700840A0008F800840A800A0008FA0051
:1020F000031D7D28840A800A8403840A000878026C
:10210000031D952877087A02031D95288403800112
:10211000840A8001840AF91B9528840A00088A0031
:1021200084030008820083120313A10A04302102F1
:10213000031D5A28A10101080B1DA028831656284B
:082140009B28FF30A1006300A1
:04400E00822FFF3FBF
:00000001FF
;PIC16F886
;CRC=7402  CREATED="08-Nov-17 12:14"
