:100000000D308A00582D00000A108A100A1182074C
:10001000F6346034D534F1346334B334B734E03477
:10002000F734F33401340834E734963497348734A2
:1000300067343734963475342534763417340434C1
:100040006434C33435340A108A100A1182070A3422
:1000500022343A3452346A3482349A34B234CA3450
:10006000FF340A108A100A1182072234003429341E
:100070000034303400343734003483160317290831
:10008000F8012802031847282808F7005328F70129
:100090000830AA00A80DF70D290877020318F70009
:1000A000F80DAA0B4A288312031308002030831688
:1000B0000317B200AE01AF01B001B1012908FA0087
:1000C0002808F9002708F8002608F7000310771C15
:1000D00077282A08AE072B0803182B0FAF072C0828
:1000E00003182C0FB0072D0803182D0FB107B10C02
:1000F000B00CAF0CAE0CFA0CF90CF80CF70CB20B00
:1001000066288312031308000130831603171207B1
:1001100084008313131883170008A301A201A1010F
:10012000A000A5010408A4002510831B25142308A2
:10013000A9002208A8002108A7002008A600AD01F8
:10014000AC010E30AB001030AA008312031356200E
:1001500083160317240884008313251883177A084D
:100160009700790896007808950077089400023087
:10017000120784008313131883170008A301A20138
:10018000A101A000A5010408A4002510831B2514CB
:100190002308A9002208A8002108A7002008A6001B
:1001A000AD01AC01AB013C30AA0083120313562011
:1001B00083160317240884008313251883177A08ED
:1001C0009B0079089A007808990077089800180829
:1001D0001407A0001508A10019080318190FA1079A
:1001E0001608A2001A0803181A0FA2071708A3007E
:1001F0001B0803181B0FA307033012078400831387
:1002000013188317000820079C0021089D00003068
:10021000031801309D0722089E00003003180130AA
:100220009E0723089F000030031801309F071C0819
:10023000F7001D08F8001E08F9001F08FA008312D5
:100240000313080083182729AA3084008317831614
:100250000317250829068039AF00A51F3A29A209EE
:10026000A309A409A509A20A0319A30A0319A40A48
:100270000319A50AA91F4729A609A709A809A909B9
:10028000A60A0319A70A0319A80A0319A90AF7015C
:10029000F801F901FA01AA01AB01AC01AD0129088D
:1002A000280427042604031985292030AE000310F2
:1002B000A20DA30DA40DA50DAA0DAB0DAC0DAD0D9A
:1002C00029082D02031D6E2928082C02031D6E2902
:1002D00027082B02031D6E2926082A02031C7F29EA
:1002E0002608AA022708031C270FAB022808031CB4
:1002F000280FAC022908031C290FAD020314F70DC7
:10030000F80DF90DFA0DAE0B5729AF1F9229F70919
:10031000F809F909FA09F70A0319F80A0319F90A99
:100320000319FA0A2A088000840A2B088000840A2C
:100330002C088000840A2D08800083120313080013
:10034000043003175A07F8005B08FA000318FA0A8A
:100350007808831690007A089100930010089200A4
:100360008312031384207A080317DF007908DE0064
:100370007808DD007708DC0008305A07F8005B08D1
:10038000FA000318FA0A7808831690007A08910098
:100390009300100892008312031384207A08031735
:1003A000E3007908E2007808E1007708E0005C08E3
:1003B0006002E4006108E5005D08031C5D0FE502D2
:1003C0006208E6005E08031C5E0FE6026308E700B1
:1003D0005F08031C5F0FE702E71FF329F701F8012D
:1003E000F901FA01FB296408F7006508F8006608BE
:1003F000F9006708FA007A08E7007908E60078084B
:10040000E5007708E400831067088316A5008312CF
:1004100066088316A400831265088316A30083125E
:1004200064088316A200A901A8010E30A7001030AD
:10043000A6008312031322217A080317EB00790820
:10044000EA007808E9007708E80083149030840017
:10045000831767088316A500831266088316A40015
:10046000831265088316A300831264088316A20012
:10047000A901A8010E30A7001030A60083120313B3
:1004800022218316031713089700120896001108FB
:100490009500100894009901040898001910831B16
:1004A000191483101308A5001208A4001108A30052
:1004B0001008A200A901A801A7013C30A6008312E0
:1004C00003132221831603171808840083131918B5
:1004D00083177A088312EF007908EE007808ED00A0
:1004E0007708EC0003305A07F8005B08FA0003189D
:1004F000FA0A7808831690007A089100930104089C
:1005000092001310831B13148314943084008317F8
:10051000831267088316A500831266088316A40059
:10052000831265088316A300831264088316A20051
:10053000A901A8010E30A7001030A60083120313F2
:100540002221831603171408F7001508F80016086F
:10055000F9001708FA001208840083131318831790
:1005600017089B0016089A001508990014089800AF
:100570009D0104089C001D10831B1D1483149E30D4
:10058000840083171708A5001608A4001508A30007
:100590001408A200A901A801A7013C30A6008312FB
:1005A00003132221831603171C08840083131D18CC
:1005B0008317100884008313111883171E08800006
:1005C000013083125A07840083135B18831768086D
:1005D000800002305A07840083135B1883176C086D
:1005E000800003130800031760088316A8000A3070
:1005F000A900831203133D20780EF700F030F705B1
:100600007708F0390317E10060088316A8000A3064
:10061000A900831203133D2077080F3903176104E3
:10062000F800031308000830F80000008711A0113B
:10063000200883168700000083120317E60D0313BA
:100640000712031C292B20162008831687002D2B48
:100650008312201220088316870000008312A01541
:100660002008831687008312871D342BF80B152B67
:1006700000008711A0112008831687000000831254
:100680002016200883168700000000008312A015A2
:100690002008831687008312871D4C2BF801000069
:1006A000071A78148711A011200883168700831277
:1006B00007122012200883168700831208002016D4
:1006C00020088316870000008312A01520088316D7
:1006D000870000008312071220122008831687006B
:1006E000000083128711A011200883168700D030E4
:1006F00083120317E6000313132303176108E600B0
:100700000313132303176208E600031313232012B5
:1007100020088316870000008312A0152008831686
:1007200087008312871D922B0000962B0000201655
:1007300020088316870000008312080003175F0853
:10074000E0000313F32278080317E000E1016008DA
:10075000E20003135F2303175E08E0000313F32294
:1007600078080317E0000130E1006008E20003139D
:100770005F2303175D08E0000313F32278083F3975
:100780000317E0000230E1006008E20003135F237A
:100790000800013003175807840083135918831782
:1007A00000088316A8001830A900831203133D2007
:1007B00077080317DA0002305807840083135918AA
:1007C000831700088316A8003C30A9008312031386
:1007D0003D2077080317DB0003305807840083139C
:1007E0005918831700088316A8003C30A90083120B
:1007F00003133D2077080317DC005A08DD005B086F
:10080000DE005C08DF0003139E230800031759086D
:10081000E0000313F32278080317DD000330E10042
:100820005D08E20003135F2303175A08E000031377
:10083000F32278080317DD000430E1005D08E200D0
:1008400003135F2303175B08E0000313F322780808
:100850000317DD000530E1005D08E20003135F23AC
:1008600003175C08E0000313F32278080317DD0088
:100870000630E1005D08E20003135F230800043046
:100880000317520784008313531883170008F700D7
:10089000840A0008F800840A0008F900840A0008A5
:1008A000FA007708D4007808D5007908D6007A08CD
:1008B000D70016305207840083135318831700089B
:1008C0000139031D882C55088316A8001830A9008B
:1008D000831203133D2077080317D5000130D90098
:1008E0005430D8000313C9230317550CF700F70C35
:1008F0003F30F7057708013ED8000130D90058088D
:10090000DA000130DB00DC0003130624AF2C0317F0
:1009100016305207840083135318831700080139D7
:10092000013C031DB02C56088316A8003C30A900DA
:10093000831203133D2078080317D5005608831649
:10094000A8003C30A900831203133D207708031749
:10095000D6000130D9005430D8000313C92303173F
:10096000031308000317E50103132016200883165C
:10097000870000008312A01520088316870000005E
:1009800083120712201220088316870000008312AA
:100990008711A011200883168700D0308312031717
:1009A000E6000313132303176408E600031313235D
:1009B000201620088316870000008312A015200847
:1009C0008316870000008312871DE42C0712201273
:1009D000200883168700000083128711A0112008C9
:1009E00083168700D13083120317E6000313132305
:1009F000F70108300317E7007708E8000313201613
:100A000020088316870000008312A0152008831693
:100A100087008312871D0A2D071A0314071E03106F
:100A2000F80D0000A011200883168700831287119B
:100A30000317E70BFE2C03132016200883168700EC
:100A40000000831207120317680803192E2D0313E1
:100A50002012200883168700831203170000031357
:100A6000A0152008831687008312871D352D0000EE
:100A70008711A01120088316870000008312071237
:100A80002012200883168700780883120317E500D8
:100A90000313201220088316870000008312A0157C
:100AA0002008831687008312871D542D0000582DBF
:100AB0000000201620088316870000008312031709
:100AC0006508F80003130800F701F8010317680828
:100AD00003106918F707F70CF80CE918F707F70C7B
:100AE000F80C6919F707F70CF80CE919F707F70C78
:100AF000F80C691AF707F70CF80CE91AF707F70C66
:100B0000F80C691BF707F70CF80CE91BF707F70C53
:100B1000F80C03130800031764080F39E500640894
:100B2000F039F700F70E0F30F7057708E700E80017
:100B30000A30E90003136425780803176507F800F5
:100B4000031308000317DE01DF01E001E4010313D2
:100B5000B22478080317E0006008E40003138B2533
:100B600078080317E0000130E4000313B22478088A
:100B70000317DF005F08E40003138B2578080317D1
:100B8000DF000230E4000313B22478083F39031772
:100B9000DE005E08E40003138B2578080317DE00EF
:100BA0005E08E1005F08E2006008E3006108E5001C
:100BB0006208E6006308E7006408F7006508F800CB
:100BC0006608F9006708FA007A08DD007908DC0099
:100BD0007808DB007708DA005A08F7005B08F800AD
:100BE0005C08F9005D08FA000313080004300317DD
:100BF0005207F8005308FA000318FA0A7808D800D8
:100C00007A08D9000313A225031758088400831318
:100C10005918831777088000840A78088000840AAE
:100C200079088000840A7A08800016305207840010
:100C300083135318831700080139031D762E0630DD
:100C4000E4000313B22478080317D6005608E40022
:100C500003138B2578080317D6000530E40003132F
:100C6000B22478081F390317D5005508E400031390
:100C70008B2578080317D5000430E4000313B22451
:100C800078083F390317D4005408E40003138B2578
:100C900078080317D4000330E4000313B224780863
:100CA00007390317D7005708E40003138B2578088A
:100CB0000317D70005305207840083135318831796
:100CC00001305402DC008316A8000530A90083120D
:100CD00003133D2077080317E8001830E9000313D9
:100CE0006425780800078000AD2E031716305207E0
:100CF000840083135318831700080139013C031D36
:100D0000AC2E06305207F8005308FA000318FA0A0E
:100D10007808D8007A08D900580884008313591835
:100D200083170008DA000530520784008313531834
:100D3000831700080139DC00E8003C30E9000313A8
:100D40006425780803175A07DA00580884008313CB
:100D5000591883175A088000031303175208F80024
:100D60005308FA005208D8005308D900DB00520893
:100D7000DA000313A0210800F801F901F701FA01D4
:100D800003174F08031DC72E4E080319E12E10301C
:100D9000D0000310CC0DCD0DF70DFA0D4F087A02DF
:100DA000031DD42E4E087702031CDD2E4E08F702D9
:100DB000031CFA034F08FA020314F80DF90DD00BC7
:100DC000C92E0313080003174808CD004708CC00BC
:100DD0004908CE00CF01CF014E084F020318F92E6B
:100DE0004F084C07840083134D1883178001CF0AE6
:100DF000EC2ECA01C508031D002FC6080319242FB5
:100E00004608CD004508CC00CF010A30CE000313C0
:100E1000BC2677080317CB004A08470784008313D2
:100E2000481883174B088000CA0A4608CD004508B9
:100E3000CC00CF010A30CE000313BC26790803177B
:100E4000C6007808C500FA2E031308000130031706
:100E50003A07840083133B1883170008C300BC08BB
:100E600003195B2F3A08840083133B18831700088B
:100E70000139013C031D5B2F01303A0784008313C5
:100E80003B1883178008031D482F0C30C3005B2FCD
:100E900001303A07840083133B18831700080C3C89
:100EA00003185B2F01303A07840083133B18831724
:100EB0000C300002C300C6014308C5000130C80061
:100EC0003D30C7000230C9000313E3260230031788
:100ED0003A07840083133B1883170008C400C60137
:100EE0004408C5000130C8003F30C7000230C900C7
:100EF0000313E326033003173A07840083133B18D8
:100F000083170008C400C6014408C5000130C800AA
:100F10004130C7000230C9000313E3263D30F8001A
:100F20000130F900080001300317BB00BC01831633
:100F30000313851183128511831685108312851082
:100F40000317BC013A083C020318D02F3C083807AD
:100F500084008313391883170008BD000130BB00DB
:100F60003B08083C031CCE2F3D18BA2F0313051075
:100F7000BC2F0317031305148316051003108312E7
:100F80000317BD0C83160313851183128515831671
:100F90008511831285110317BB0AB02FBC0AA22F3B
:100FA000831603138510831285148316851083120C
:100FB00085100800183003171F07A2002008A3009F
:100FC0000318A30A17301F07840083132018831700
:100FD0000008A40022088400831323188317240820
:100FE000800017301F0784008313201883172108FF
:060FF0008000031308005D
:101000000317B70803193B283508B9003408B8009E
:101010003608BA00BB01BB013A083B0203183A2864
:101020003B083807F8003908FA000318FA0A78086C
:10103000BC007A08BD003B083807840083133918C8
:10104000831700088A11031304208A15F800031778
:101050003C08840083133D188317780880003B0800
:101060003807840083133918831700080838800074
:10107000BB0A0C2868283508B9003408B8003608BF
:10108000BA00BB01BB013A083B02031868283B08C1
:101090003807F8003908FA000318FA0A7808BC0083
:1010A0007A08BD003B08380784008313391883177A
:1010B00000088A11031304208A15F80003173C085E
:1010C000840083133D18831778088000BB0A4328E7
:1010D0003508B9003408B8003608BA008A1103137D
:1010E00093278A150800163003171F0784008313FF
:1010F000201883170008F700770C0139031D5A29BF
:1011000016301F0784008313201883170008013945
:10111000031DE6282108A200A301A401A501A60140
:101120008A110313A2258A157A080317B0007908DB
:10113000AF007808AE007708AD000130BB002D305D
:10114000BA00BC018A11031326278A157908FA0010
:1011500078080317B1007A08B2000130B4002730D4
:10116000B3000630F8003108840083133218831767
:101170000008F700330884008313341883177708B6
:101180008000B30A0319B40AB10A0319B20AF80BB2
:10119000B3282908A3002A08A4002708A5002808C6
:1011A000A600A2080319D82830080139A200DA28BD
:1011B0000130A2000130B5002330B4000430B60085
:1011C0002208B700031300205829031716301F0701
:1011D000840083132018831700080139013C031D84
:1011E0005929A201A301A401A5018A110313A22573
:1011F0008A157A080317AF007908AE007808AD00A9
:101200007708AC002D08E8003C30E9008A11031390
:1012100064258A15780803172E07B1008316A800E5
:101220006430A9008A11831203133D208A157708C0
:101230000317AE000130BB002C30BA00BC018A118C
:10124000031326278A157908FA0078080317B000D7
:101250007A08B1000130B3002630B2000630F80041
:10126000300884008313311883170008F700320810
:10127000840083133318831777088000B20A031998
:10128000B30AB00A0319B10AF80B30292A08A200E0
:101290002B08A3002808A4002908A5000130B500E8
:1012A0002230B4000430B6000130B7000313002030
:1012B0000317632A16301F0784008313201883172F
:1012C0000008F700770C0139013C031D632A163032
:1012D0001F07840083132018831700080139031D9A
:1012E000D9291F08F8002008FA007808A2007A0817
:1012F000A3002308A5002208A4002108A600A70136
:10130000A801A901AA012408F8002508FA00780814
:10131000B1007A08B200BB003108BA00BC018A11E2
:10132000031326278A157908FA0078080317B100F5
:101330007A08B2000130B4002B30B3000630F80058
:10134000310884008313321883170008F70033082C
:10135000840083133418831777088000B30A0319B5
:10136000B40AB10A0319B20AF80BA0292D08A70084
:101370002E08A8002B08A9002C08AA00A60803190B
:10138000CB2907302407840083132518831700080E
:101390000139A600CD290130A6000130B500273063
:1013A000B4000430B6002608B70003130020622AF8
:1013B000031716301F0784008313201883170008B3
:1013C0000139013C031D632A1F08F8002008FA00B8
:1013D0007808A2007A08A3002308A5002208A40028
:1013E000A601A701A801A9012408840083132518D8
:1013F00083170008F700840A0008F800840A000830
:10140000F900840A0008FA007708B0007808B100F3
:101410007908B2007A08B3003108E8003C30E900EE
:101420008A11031364258A15780803173207B5005B
:101430008316A8006430A9008A11831203133D208B
:101440008A1577080317B2000130BB003030BA00AC
:10145000BC018A11031326278A157908FA00780837
:101460000317B4007A08B5000130B7002A30B6007F
:101470000630F800340884008313351883170008F9
:10148000F700360884008313371883177708800025
:10149000B60A0319B70AB40A0319B50AF80B3A2AAF
:1014A0002E08A6002F08A7002C08A8002D08A900C8
:1014B0000130B5002630B4000430B6000130B7006A
:1014C000031300200317031308001B3003171F0723
:1014D00084008313201883170008A10017301F070A
:1014E00084008313201883170008A20003130B083D
:1014F000F7008B13031721088D0022088C00831638
:101500008C130C1555308D00AA308D008C148C185E
:10151000872A0C117708831203138B041C300317DE
:101520001F0784008313201883170008A1001830B8
:101530001F0784008313201883170008A2000313D9
:101540000B08F7008B13031721088D0022088C006D
:1015500083168C130C1555308D00AA308D008C1419
:101560008C18B02A0C117708831203138B0408001F
:10157000183003171F07A1002008A2000318A20AB1
:1015800017301F0784008313201883170008A30057
:101590002108840083132218831723088000173042
:1015A0001F0784008313201883178001031308008A
:1015B00003171F08F8002008FA007808A1007A082D
:1015C000A2002208A4002108A300103023078400F1
:1015D0008313241883170008A5000530230784000F
:1015E0008313241883170008A60003130B08F700C1
:1015F0008B13031725088D0026088C0083168C1387
:101600000C1555308D00AA308D008C148C18062BCB
:101610000C117708831203138B041130031723076F
:1016200084008313241883170008A50006302307BD
:1016300084008313241883170008A60003130B08E3
:10164000F7008B13031725088D0026088C008316DE
:101650008C130C1555308D00AA308D008C148C180D
:101660002F2B0C117708831203138B0412300317EE
:10167000230784008313241883170008A50007306C
:10168000230784008313241883170008A60003137C
:101690000B08F7008B13031725088D0026088C0014
:1016A00083168C130C1555308D00AA308D008C14C8
:1016B0008C18582B0C117708831203138B04080025
:1016C00020308400831700080319732B0630F800BC
:1016D000F701F70B692BF80B682B7B30F700F70B42
:1016E0006F2B800B662B08001F3003171F07840029
:1016F0008313201883170008A10016301F078400E9
:10170000831320188317A2018018A20A03130B0861
:10171000F7008B13031721088D0022088C00831615
:101720008C130C1555308D00AA308D008C148C183C
:10173000972B0C117708831203138B0408000317EF
:10174000DD01DE01DF018A1103139E238A150800E3
:10175000163003171F07840083132018831700080F
:101760000139031D092C1F08A1002008A20022082E
:10177000A4002108A300A501A601A701A801083023
:101780002307F8002408FA000318FA0A7808AF00C3
:101790007A08B000BB002F08BA00BC018A110313FD
:1017A00026278A157908FA0078080317AF007A0807
:1017B000B0000130B2002930B1000630F8002F0827
:1017C00084008313301883170008F7003108840061
:1017D00083133218831777088000B10A0319B20AFD
:1017E000AF0A0319B00AF80BDF2B2B08A5002C0851
:1017F000A6002908A7002A08A8000130B500253056
:10180000B4000430B6000130B70003130020682C88
:10181000031716301F07840083132018831700084E
:101820000139013C031D692C1F08A1002008A200FA
:101830002208A4002108A300A501A601A701A80170
:1018400008302307F8002408FA000318FA0A780879
:10185000AF007A08B000BB002F08BA00BC018A11A3
:10186000031326278A157908FA0078080317AF00B2
:101870007A08B0000130B2002930B1000630F8001B
:101880002F0884008313301883170008F7003108ED
:10189000840083133218831777088000B10A031974
:1018A000B20AAF0A0319B00AF80B402C2D08A500A4
:1018B0002E08A6002B08A7002C08A8000130B500B0
:1018C0002530B4000430B6000130B7000313002007
:1018D0000317031308000A3003172307F80024082E
:1018E000FA000318FA0A7808A5007A08A6000A3058
:1018F000230784008313241883170008A7001430DB
:101900002307840083132418831700082702031D6C
:101910008B2C0030932C0A30230784008313241867
:10192000831701300007A7002508840083132618B9
:10193000831727088000031308000317A101A201E1
:10194000A301A40119301F078400831320188317F3
:1019500001300007A6008316A8000A30A9008A11EA
:10196000831203133D208A1577088A1104208A15F3
:10197000F8000317A10019301F07840083132018F3
:10198000831701300007A6008316A8000A30A900BB
:101990008A11831203133D208A1578088A110420C6
:1019A0008A1508380317A2003730A3000130B900A8
:1019B0002130B8000430BA008A11031393278A1526
:1019C00008001E3003171F07840083132018831795
:1019D0000008A10019301F07840083132018831703
:1019E0000008A20003130B08F7008B13031721084C
:1019F0008D0022088C0083168C130C1555308D0039
:101A0000AA308D008C148C18032D0C1177088312CA
:101A100003138B0408008316861483128618122D74
:101A2000E20A142DE201BE146208133C03181A2DB9
:101A3000BE10E2012130A7000D30A8008A150A125D
:101A40000A2E0B30A7000D30A8008A150A120A2EA4
:101A500008008316061483120618302DE30A322D6F
:101A6000E3013E1563080C3C0318382D3E11E301D9
:101A70003F30AE000D30AF008A150A120A2E293011
:101A8000AE000D30AF008A150A120A2E0800013090
:101A9000BE065030BC000D30BD008A150A120A2E59
:101AA0004730BC000D30BD008A150A120A2E08000E
:101AB00003081F398300FF30A0003E14BE143E15FA
:101AC000BE153E16E101E201E30183160317090882
:101AD000C039890003131F129F12003003178800BA
:101AE000831287018801890183130030F8000638CA
:101AF00003139200FF3083169200831220112008F6
:101B000083168700831207110E30970083169B01FE
:101B10009C0101309D0002308312E400FA3003176B
:101B2000A00003136023E40B8E2DFF308316950075
:101B30008113950003308312D600A201A401053061
:101B4000A300A601A5010B30A7000D30A800A90134
:101B5000AB010530AA00AD010130AC002930AE0068
:101B60000D30AF00B001B2010130B100B401B301DA
:101B70000030B5001830B600B701B9011430B80014
:101B8000BB010230BA004730BC000D30BD00A101DE
:101B900083160108C039073881003D308312810067
:101BA0000B110310210DF7008A1131208A15F9005D
:101BB000013077078A1131208A15FA0079088400EC
:101BC00083137A1883170008F900840A0008F700C5
:101BD000840A0008F800840A800A0008FA00031D3D
:101BE000F42D840A800A8403840A00087802031D05
:101BF0000C2E77087A02031D0C2E84038001840AC0
:101C00008001840AF91B0C2E840A00088A008403D0
:101C10000008820083120313A10A04302102031D6D
:101C2000D12DA10101080B1D172E8316CD2D122ECB
:061C3000FF30A10063007B
:102000005608F53E03181C2D0B3E1F2D0317A50186
:102010000130A6000230A7000330A8000430A90058
:102020000530AA000630AB000730AC000830AD0028
:102030000930AE00B001AF012508CC002608CD0064
:102040002708CE002D08CF002E08D0002F08D10081
:1020500027088D0083168C130C1483120C08013989
:10206000F80047107818471425088D0083168C1344
:102070000C1483120C08D30053088316A8000330F5
:10208000A9000A12831203133D200A1677080317CA
:10209000C80026088D0083168C130C1483120C08BC
:1020A000D30053088316A8000330A9000A12831234
:1020B00003133D200A1677080317C9002D088D0069
:1020C00083168C130C1483120C08D3005308831648
:1020D000A8000A30A9000A12831203133D200A1631
:1020E00077080317CA002E088D0083168C130C1472
:1020F00083120C080139F800C7107818C7142F088C
:102100008D0083168C130C1483120C08D300530813
:102110008316A8000530A9000A12831203133D207C
:102120000A1677080317CB00C908031D9C28C808A6
:10213000031D9C280230C900003047180130003AC6
:1021400003130319A728013A03193A29C92963304F
:102150000317DC003B30DD00DF012808DE00E10171
:102160002908E000E3012A08E200E5012B08E40069
:10217000E7012C08E6005E0883169F0083126008C2
:1021800083169E00831262088316A00083126408DF
:102190008316A100831266088316A20083125E08CC
:1021A0008D0083168C130C1483120C08E800013088
:1021B0005C07E90068088316A80083126908831683
:1021C000A9000A12831203133D200A16770883160A
:1021D00003179900831260088D0083168C130C146A
:1021E00083120C08E80001305D07E90068088316D7
:1021F000A800831269088316A9000A128312031328
:102200003D200A167708831603179A009B01831254
:102210005C088316A30083125D088316A4003B307C
:10222000A5009030F8000130F9007908FA0078082C
:102230008312D6007A08D7000130D9003130D80097
:102240001630F800560884008313571883170008C7
:10225000F700580884008313591883177708800003
:10226000D80A0319D90AD60A0319D70AF80B222962
:102270000313C92963300317DC00DE012808DD00E1
:10228000E0012908DF00E2012A08E100E4012B084F
:10229000E300E6012C08E5005D0883169E0083122A
:1022A0005F0883169D00831261088316A0008312C5
:1022B00063088316A100831265088316A200A30198
:1022C00083125C088316A4003B30A5009901831299
:1022D0005D088D0083168C130C1483120C08E70024
:1022E00001305C07E80067088316A80083126808BD
:1022F0008316A9000A12831203133D200A167708D9
:10230000831603179A0083125F088D0083168C13BF
:102310000C1483120C08E700013083162507831282
:10232000E80067088316A800831268088316A900CE
:102330000A12831203133D200A1677088316031727
:102340009B009030F8000130F9007908FA00780815
:102350008312D6007A08D7000130D9003130D80076
:102360001630F800560884008313571883170008A6
:10237000F7005808840083135918831777088000E2
:10238000D80A0319D90AD60A0319D70AF80BB229B1
:1023900003130317C808031D9B2A0130D3003130F3
:1023A000D20005305207F8005308FA000318FA0A61
:1023B0007808D4007A08D5001030520784008313BF
:1023C000531883170008D60056088D0083168C1307
:1023D0000C1483120C08D6001330520784008313A8
:1023E0005318831701300007D70056088316A8003A
:1023F000831257088316A9000A12831203133D2083
:102400000A1677080317D60054088400831355185A
:1024100083175608800006305207F8005308FA0068
:102420000318FA0A7808D4007A08D5001130520748
:1024300084008313531883170008D60056088D00B4
:1024400083168C130C1483120C08D6001430520718
:10245000840083135318831701300007D7005608F0
:102460008316A800831257088316A9000A12831244
:1024700003133D200A1677080317D600540884007A
:102480008313551883175608800007305207F80049
:102490005308FA000318FA0A7808D4007A08D5001D
:1024A0001230520784008313531883170008D60094
:1024B00056088D0083168C130C1483120C08D6005A
:1024C0001530520784008313531883170130000717
:1024D000D70056088316A800831257088316A90050
:1024E0000A12831203133D200A1677080317D60039
:1024F0005408840083135518831756088000530826
:10250000DB005208DA000A120313A0210A16013078
:102510000317D3003130D2000A1203133F240A16E6
:1025200001300317DB003130DA000A120313A02157
:102530000A16A32A03170130D3003130D2000A1241
:102540000313F6250A163130F8000130F900790836
:10255000FA00780803179F007A08A000A2013F3014
:10256000A1002130F8001F0884008313201883176E
:102570000008F700210884008313221883177708C6
:102580008000A10A0319A20A9F0A0319A00AF80BE6
:10259000B32AA0013F309F00A1010A128A1503133C
:1025A00073200A168A111C2D831686148312861C2A
:1025B000342BBE19342B0317A0013F309F00183075
:1025C0001F07F8002008FA000318FA0A7808A1008B
:1025D0007A08A20017301F0784008313201883177E
:1025E0000008A300210884008313221883172308FE
:1025F000800016301F0784008313201883170008FB
:10260000F700770C0139031D0E2B17301F078400CC
:1026100083132018831701308000232B16301F07E7
:1026200084008313201883170008F700770C013902
:10263000013C031D232B17301F0784008313201830
:10264000831702308000A0013F309F000A128A15D4
:10265000031365220A168A110317D3013F30D200F3
:102660000A1203133F240A16BE18412BBE14031787
:10267000A0013F309F000430A1000A120313DA27A3
:102680000A163E194E2B3E150317A0013F309F003E
:102690000930A1000A120313DA270A161C2D0317AA
:1026A000D3013F30D2000A120313F6250A1603178E
:1026B000A0013F309F000130A1000A128A150313C8
:1026C00073200A168A11BE18702BBE140317A001BE
:1026D0003F309F000430A1000A120313DA270A16C4
:1026E000831686148312861CA02BBE19A02B0317F9
:1026F000A0013F309F000A128A150313B8220A1660
:102700008A110317A0013F309F000A128A15031394
:10271000D8220A168A110317A0013F309F000A121F
:102720008A15031365220A168A110317A0013F3088
:102730009F00A1010A128A15031373200A168A1139
:102740000317A0013F309F001F08F8002008FA007F
:102750007808A1007A08A2002208A4002108A3009A
:102760002308F8002408FA007808A5007A08A600D3
:102770002608A8002508A700013027078400831336
:10278000281883178008031DD72B023027078400E1
:102790008313281883178008031DD72B03302707BE
:1027A000840083132818831780080319D92B00305D
:1027B000DA2B0130F80078087808F8080319412C62
:1027C0000313A01220088316870083128716C830CF
:1027D0000317A0000A128A15031360230A168A1130
:1027E000A012200883168700831287126430031713
:1027F000A0000A128A15031360230A168A11A01278
:1028000020088316870083128716C8300317A0009C
:102810000A128A15031360230A168A11A0122008CF
:1028200083168700831287120317A0013F309F0091
:102830000130A1000A120313DA270A160317A001B8
:102840003F309F000A128A15031365220A168A1167
:10285000D5100317A0013F309F000A128A150313F9
:1028600074230A168A110A128A159F230A168A11DE
:102870000317D3013F30D2000A120313F6250A16BC
:10288000031703133E194F2C3E150317A0013F30C9
:102890009F000930A1000A120313DA270A161C2D23
:1028A0000317D3013F30D2000A120313F6250A168C
:1028B0000317A0013F309F000130A1000A128A15C2
:1028C000031373200A168A11831686148312861C3A
:1028D000942CBE19942C0317A0013F309F000A12BC
:1028E0008A150313B8220A168A110317A0013F3074
:1028F0009F000A128A150313D8220A168A11031799
:10290000A0013F309F000A128A15031365220A16A0
:102910008A110317A0013F309F00A1010A128A15F6
:10292000031373200A168A11BE18A12CBE140317B4
:10293000A0013F309F000430A1000A120313DA27E0
:102940000A163E19AE2C3E150317A0013F309F001A
:102950000930A1000A120313DA270A161C2DD51418
:102960000317A0013F309F000A128A150313742336
:102970000A168A110A128A159F230A168A1103174A
:102980009F01A001A101A20101309F000930A00018
:102990000130A100A200B9001F30B8000430BA0015
:1029A0000A12031393270A16083003179F00FA3000
:1029B000A0000A128A15031360230A168A1103174E
:1029C0009F0BD72CA0013F309F000A30A1000A12B4
:1029D0000313DA270A160530E0000A128A159F232E
:1029E0000A168A110317D3013F30D2000A120313CB
:1029F000F6250A160317A0013F309F00A1010A1215
:102A00008A15031373200A168A111C2D8316861447
:102A10008312861C1C2D831606148312061C1C2D83
:102A20000317A0013F309F00031360080317A100A4
:102A30000A120313DA270A168A150A1602280A143C
:102A40008A100A158207D42A502C4F2B0628AF2C47
:0C2A50001C2D1C2D1C2D1C2D1C2D062DDA
:103000008A1100288A1505305602FB3E0318B92E96
:10301000053ED42E0317A0013F309F00A1010A12E4
:10302000031373200A16831686148312861C312814
:10303000BE1931280317A0013F309F000230A100C4
:103040000A128A110313DA270A168A150317A00138
:103050003F309F000A12031365220A160A129F23AB
:103060000A163E1940283E150317A0013F309F0065
:103070000630A1000A128A110313DA270A168A15EC
:10308000B92E3E1C4C280317A0013F309F000A12A6
:103090000313A8230A1637290317A0013F309F0006
:1030A00016301F0784008313201883170008013986
:1030B000031DC4281F08F8002008FA007808A100A2
:1030C0007A08A2002208A4002108A300A501A601F5
:1030D000A701A80108302307F8002408FA00031804
:1030E000FA0A7808AF007A08B000BB002F08BA00CF
:1030F000BC010A128A11031326270A168A157908B9
:10310000FA0078080317AF007A08B0000130B20067
:103110002930B1000630F8002F08840083133018DE
:1031200083170008F70031088400831332188317CF
:1031300077088000B10A0319B20AAF0A0319B00A6E
:10314000F80B8C282B080A128A11031304200A1684
:103150008A15F8000317A5002C080A128A11031318
:1031600004200A168A1508380317A6000130B90092
:103170002530B8000430BA000A128A1103139327CD
:103180000A168A153729031716301F078400831380
:103190002018831700080139013C031D38291F0836
:1031A000F8002008FA007808A1007A08A200220896
:1031B000A4002108A300A501A601A701A8010830C9
:1031C0002307F8002408FA000318FA0A7808AF0069
:1031D0007A08B000BB002F08BA00BC010A128A119D
:1031E000031326270A168A157908FA0078080317A8
:1031F000AF007A08B0000130B2002930B1000630CB
:10320000F8002F0884008313301883170008F70094
:103210003108840083133218831777088000B10ABD
:103220000319B20AAF0A0319B00AF80B01292D08D5
:103230000A128A11031304200A168A15F8000317CC
:10324000A5002E080A128A11031304200A168A15F3
:1032500008380317A6000130B9002530B800043043
:10326000BA000A128A11031393270A168A15031744
:1032700083160313861483128618B72983168614BF
:1032800083128618B7290317A0013F309F0016301C
:103290001F07840083132018831700080139031DBA
:1032A0008D291F08F8002008FA007808A1007A0884
:1032B000A2002208A4002108A30009302307F80077
:1032C0002408FA000318FA0A7808A5007A08A6006C
:1032D0000930230784008313241883170008A700EC
:1032E0001330230784008313241883170008270250
:1032F000031D7C29003084290930230784008313AF
:103300002418831701300007A700250884008313C1
:103310002618831727088000A82916301F07840065
:1033200083132018831700080139013C031DA829C5
:103330001F08F8002008FA001F08A1002008A200BA
:10334000A4001F08A3000A1203136B240A16031714
:10335000A0013F309F000A120313A8230A1664300D
:103360000317A0000A12031360230A163E293E1A0F
:10337000D029831606148312061CD0295708053C51
:10338000031DC429E10AD0290317A0013F309F0083
:103390000730A1000A128A110313DA270A168A15C8
:1033A0006108013C0318E129E1010317A0013F3046
:1033B0009F000730A1000A128A110313DA270A16A8
:1033C0008A15B92E3E1CED290317A0013F309F003E
:1033D0000A120313A8230A16DC2A0317A0013F30A0
:1033E0009F0016301F0784008313201883170008DE
:1033F0000139031D672A1F08F8002008FA00780821
:10340000A1007A08A2002208A4002108A300A501B7
:10341000A601A701A80108302307F8002408FA0034
:103420000318FA0A7808AF007A08B000BB002F082A
:10343000BA00BC010A128A11031326270A168A153C
:103440007908FA0078080317AF007A08B000013055
:10345000B2002930B1000630F8002F088400831331
:10346000301883170008F7003108840083133218DE
:10347000831777088000B10A0319B20AAF0A03194B
:10348000B00AF80B2D2A0830A60029080A128A1162
:10349000031304200A168A15F8000317A7002A0848
:1034A0000A128A11031304200A168A15F80003175A
:1034B000A8000130B9002530B8000430BA000A1263
:1034C0008A11031393270A168A15DC2A031716306C
:1034D0001F07840083132018831700080139013C5B
:1034E000031DDD2A1F08F8002008FA007808A10053
:1034F0007A08A2002208A4002108A300A501A601C1
:10350000A701A80108302307F8002408FA000318CF
:10351000FA0A7808AF007A08B000BB002F08BA009A
:10352000BC010A128A11031326270A168A15790884
:10353000FA0078080317AF007A08B0000130B20033
:103540002930B1000630F8002F08840083133018AA
:1035500083170008F700310884008313321883179B
:1035600077088000B10A0319B20AAF0A0319B00A3A
:10357000F80BA42A0830A6002B080A128A1103139C
:1035800004200A168A15F8000317A7002C080A124F
:103590008A11031304200A168A15F8000317A800DD
:1035A0000130B9002530B8000430BA000A128A117F
:1035B000031393270A168A15031783160313861419
:1035C000831286185E2B83168614831286185E2B50
:1035D0000317A0013F309F0016301F07840083139C
:1035E0002018831700080139031D072B1F08F80056
:1035F0002008FA007808A1002008A200A4002108F1
:10360000A3000A1203136B240A164E2B031716305D
:103610001F07840083132018831700080139013C19
:10362000031D4D2B1F08F8002008FA007808A100A0
:103630007A08A2002208A4002108A3000B30230767
:10364000F8002408FA000318FA0A7808A5007A0896
:10365000A6000B3023078400831324188317000867
:10366000A70015302307840083132418831700084C
:103670002702031D3D2B0030452B0B302307840010
:1036800083132418831701300007A700250884003E
:103690008313261883172708800003130317A0013C
:1036A0003F309F000A120313A8230A166430031741
:1036B000A0000A12031360230A16E32A3E1AC72B3E
:1036C000831606148312061CC72B0317A0013F3074
:1036D0009F0016301F0784008313201883170008EB
:1036E0000139031D8B2B09301F0784008313201819
:1036F00083178008031D872B0A301F07840083135C
:10370000201883178008031D872B0030882B013079
:10371000F800AC2BAC2B16301F0784008313201845
:10372000831700080139013C031DAC2B0A301F0729
:1037300084008313201883178008031DAA2B0B30E5
:103740001F0784008313201883178008031DAA2BEA
:103750000030AB2B0130F800F8080319BC2BA00196
:103760003F309F000830A1000A128A110313DA27A4
:103770000A168A15C72B0317A0013F309F00063099
:10378000A1000A128A110313DA270A168A15B92E24
:103790000317A0013F309F00A101A201A301A401D2
:1037A00016301F078400831320188317000801397F
:1037B000031DE22B2530A1002D30A2006730A300AD
:1037C000A400F42B16301F078400831320188317DE
:1037D00000080139013C031DF42BB330A100BB30BC
:1037E000A2002530A300A4000130B9002130B800A8
:1037F0000430BA000A128A11031393270A168A1595
:10380000831686148312861CE32CBE19E32C03173F
:10381000A0013F309F0016301F07F8002008FA0073
:103820000318FA0A7808A1007A08A20016301F07C8
:103830008400831320188317001C252C2108840082
:1038400083132218831700102B2C21088400831364
:1038500022188317001416301F07840083132018C2
:10386000831700080139031D812C09301F07F80058
:103870002008FA000318FA0A7808A1007A08A200C2
:103880000A301F0784008313201883170008A30041
:1038900021088400831322188317230880000A302C
:1038A0001F07F8002008FA000318FA0A7808A10098
:1038B0007A08A2000B301F07840083132018831797
:1038C0000008A3002108840083132218831723080B
:1038D00080000B301F07840083132018831780019A
:1038E00013301F0784008313201883176330800070
:1038F00014301F0784008313201883173B30800087
:10390000E22C16301F078400831320188317000849
:103910000139013C031DE22C0130D900DA00DB0043
:10392000DC000A128A11031306240A168A150B30CA
:1039300003171F07F8002008FA000318FA0A78088E
:10394000A1007A08A2000A301F0784008313201800
:1039500083170008A300210884008313221883170B
:10396000230880000A301F07F8002008FA00031817
:10397000FA0A7808A1007A08A20009301F0784001B
:103980008313201883170008A300210884008313E1
:10399000221883172308800009301F07840083132F
:1039A00020188317800113301F0784008313201809
:1039B0008317800114301F07840083132018831796
:1039C0006330800003133E1AFD2D83160614831204
:1039D000061CFD2D0317A0013F309F0016301F0766
:1039E000840083132018831700080139031D4F2D0D
:1039F0000130A2001F30A1000F3021078400831383
:103A0000221883170008A3000930210784008313BC
:103A1000221883170008A40003130B08F7008B1368
:103A2000031723088D0024088C0083168C130C15B3
:103A300055308D00AA308D008C148C181D2D0C1162
:103A40007708831203138B040E30031721078400B9
:103A50008313221883170008A3000A30210784006B
:103A60008313221883170008A40003130B08F70020
:103A70008B13031723088D0024088C0083168C13E6
:103A80000C1555308D00AA308D008C148C18462DE5
:103A90000C117708831203138B04B72D031716300C
:103AA0001F07840083132018831700080139013C85
:103AB000031DB82D1F08F8002008FA007808A1009F
:103AC0007A08A2002208A4002108A3000E302307D0
:103AD00084008313241883170008A5000A302307E5
:103AE00084008313241883170008A60003130B080F
:103AF000F7008B13031725088D0026088C0083160A
:103B00008C130C1555308D00AA308D008C148C1838
:103B1000872D0C117708831203138B040D300317C4
:103B2000230784008313241883170008A5000B3093
:103B3000230784008313241883170008A6000313A7
:103B40000B08F7008B13031725088D0026088C003F
:103B500083168C130C1555308D00AA308D008C14F3
:103B60008C18B02D0C117708831203138B040317E4
:103B7000A0013F309F001D301F07840083132018D1
:103B800083170008A10016301F0784008313201834
:103B90008317A2010018A20A03130B08F7008B1366
:103BA000031721088D0022088C0083168C130C1536
:103BB00055308D00AA308D008C148C18DD2D0C1121
:103BC0007708831203138B040A129F230A16031724
:103BD000D3013F30D2000A128A110313F6250A16C8
:103BE0008A150317A0013F309F000930A1000A1277
:103BF0008A110313DA270A168A15B92E3E1C092EDC
:103C00000317A0013F309F000A1203139D240A16D8
:103C10001C2E03179F01A001A101A2013730A100B2
:103C20000130B9001F30B8000430BA000A128A11FE
:103C3000031393270A168A1583168614831286188F
:103C4000742E8316861483128618742E0317A0010F
:103C50003F309F0019301F07F8002008FA000318B2
:103C6000FA0A7808A1007A08A20019301F07840018
:103C700083132018831701300007A4008316A800BF
:103C80000A30A9000A128A11831203133D200A1672
:103C90008A1577080317A3002108840083132218CC
:103CA00083172308800019301F078400831320180E
:103CB000831700080A128A11031323200A168A1593
:103CC0000317A100031395000317A0013F309F00C5
:103CD0000A1203139D240A1664300317A0000A1267
:103CE000031360230A16212E3E1A952E83160614FE
:103CF0008312061C952E5708083C031D942E0317AB
:103D0000A0013F309F000A120313E1240A16031793
:103D1000A0013F309F000530A1000A128A11031351
:103D2000DA270A168A15952EE10A6108013C031864
:103D3000B92EE1010317A0013F309F00031357087C
:103D40000317A1000A128A110313DA270A168A152B
:103D50000317A0013F309F00A1010A120313732033
:103D60000A160317A0013F309F000A120313E12433
:103D70000A16831686148312BE118618BE15831682
:103D8000061483123E1206183E16CC30B5001E30C3
:103D9000B6008A150A120A2E0030B5001830B60097
:103DA0008A150A120A2E08000A108A140A158207B8
:0A3DB0000A284128E229C82BFE2D45
:04400E00822FFF3FBF
:00000001FF
;PIC16F886
;CRC=69BC  CREATED="10-Nov-17 09:51"
