:100000000D308A00772D00000A108A100A1182072D
:10001000F6346034D534F1346334B334B734E03477
:10002000F734F33401340834E734963497348734A2
:1000300067343734963475342534763417340434C1
:100040006434C33435340A108A100A1182070A3422
:1000500022343A3452346A3482349A34B234CA3450
:10006000FF340A108A100A1182072234003429341E
:100070000034303400343734003483160317290831
:10008000F8012802031847282808F7005328F70129
:100090000830AA00A80DF70D290877020318F70009
:1000A000F80DAA0B4A288312031308002030831688
:1000B0000317B200AE01AF01B001B1012908FA0087
:1000C0002808F9002708F8002608F7000310771C15
:1000D00077282A08AE072B0803182B0FAF072C0828
:1000E00003182C0FB0072D0803182D0FB107B10C02
:1000F000B00CAF0CAE0CFA0CF90CF80CF70CB20B00
:1001000066288312031308000130831603171207B1
:1001100084008313131883170008A301A201A1010F
:10012000A000A5010408A4002510831B25142308A2
:10013000A9002208A8002108A7002008A600AD01F8
:10014000AC010E30AB001030AA008312031356200E
:1001500083160317240884008313251883177A084D
:100160009700790896007808950077089400023087
:10017000120784008313131883170008A301A20138
:10018000A101A000A5010408A4002510831B2514CB
:100190002308A9002208A8002108A7002008A6001B
:1001A000AD01AC01AB013C30AA0083120313562011
:1001B00083160317240884008313251883177A08ED
:1001C0009B0079089A007808990077089800180829
:1001D0001407A0001508A10019080318190FA1079A
:1001E0001608A2001A0803181A0FA2071708A3007E
:1001F0001B0803181B0FA307033012078400831387
:1002000013188317000820079C0021089D00003068
:10021000031801309D0722089E00003003180130AA
:100220009E0723089F000030031801309F071C0819
:10023000F7001D08F8001E08F9001F08FA008312D5
:100240000313080083182729AA3084008317831614
:100250000317250829068039AF00A51F3A29A209EE
:10026000A309A409A509A20A0319A30A0319A40A48
:100270000319A50AA91F4729A609A709A809A909B9
:10028000A60A0319A70A0319A80A0319A90AF7015C
:10029000F801F901FA01AA01AB01AC01AD0129088D
:1002A000280427042604031985292030AE000310F2
:1002B000A20DA30DA40DA50DAA0DAB0DAC0DAD0D9A
:1002C00029082D02031D6E2928082C02031D6E2902
:1002D00027082B02031D6E2926082A02031C7F29EA
:1002E0002608AA022708031C270FAB022808031CB4
:1002F000280FAC022908031C290FAD020314F70DC7
:10030000F80DF90DFA0DAE0B5729AF1F9229F70919
:10031000F809F909FA09F70A0319F80A0319F90A99
:100320000319FA0A2A088000840A2B088000840A2C
:100330002C088000840A2D08800083120313080013
:10034000043003175607F8005708FA000318FA0A92
:100350007808831690007A089100930010089200A4
:100360008312031384207A080317DB007908DA006C
:100370007808D9007708D80008305607F8005708E1
:10038000FA000318FA0A7808831690007A08910098
:100390009300100892008312031384207A08031735
:1003A000DF007908DE007808DD007708DC005808F7
:1003B0005C02E0005D08E1005908031C590FE102EE
:1003C0005E08E2005A08031C5A0FE2025F08E300CD
:1003D0005B08031C5B0FE302E31FF329F701F8013D
:1003E000F901FA01FB296008F7006108F8006208CA
:1003F000F9006308FA007A08E3007908E200780857
:10040000E1007708E000831063088316A5008312DB
:1004100062088316A400831261088316A300831266
:1004200060088316A200A901A8010E30A7001030B1
:10043000A6008312031322217A080317E700790824
:10044000E6007808E5007708E40083149030840023
:10045000831763088316A500831262088316A4001D
:10046000831261088316A300831260088316A2001A
:10047000A901A8010E30A7001030A60083120313B3
:1004800022218316031713089700120896001108FB
:100490009500100894009901040898001910831B16
:1004A000191483101308A5001208A4001108A30052
:1004B0001008A200A901A801A7013C30A6008312E0
:1004C00003132221831603171808840083131918B5
:1004D00083177A088312EB007908EA007808E900AC
:1004E0007708E80003305607F8005708FA000318A9
:1004F000FA0A7808831690007A089100930104089C
:1005000092001310831B13148314943084008317F8
:10051000831263088316A500831262088316A40061
:10052000831261088316A300831260088316A20059
:10053000A901A8010E30A7001030A60083120313F2
:100540002221831603171408F7001508F80016086F
:10055000F9001708FA001208840083131318831790
:1005600017089B0016089A001508990014089800AF
:100570009D0104089C001D10831B1D1483149E30D4
:10058000840083171708A5001608A4001508A30007
:100590001408A200A901A801A7013C30A6008312FB
:1005A00003132221831603171C08840083131D18CC
:1005B0008317100884008313111883171E08800006
:1005C0000130831256078400831357188317640879
:1005D0008000023056078400831357188317680879
:1005E00080000313080003175C088316A8000A3074
:1005F000A900831203133D20780EF700F030F705B1
:100600007708F0390317DD005C088316A8000A306C
:10061000A900831203133D2077080F3903175D04E7
:10062000F800031308000830F80000008711A0113B
:10063000200883168700000083120317E20D0313BE
:100640000712031C292B20162008831687002D2B48
:100650008312201220088316870000008312A01541
:100660002008831687008312871D342BF80B152B67
:1006700000008711A0112008831687000000831254
:100680002016200883168700000000008312A015A2
:100690002008831687008312871D4C2BF801000069
:1006A000071A78148711A011200883168700831277
:1006B00007122012200883168700831208002016D4
:1006C00020088316870000008312A01520088316D7
:1006D000870000008312071220122008831687006B
:1006E000000083128711A011200883168700D030E4
:1006F00083120317E2000313132303175D08E200BC
:100700000313132303175E08E200031313232012BD
:1007100020088316870000008312A0152008831686
:1007200087008312871D922B0000962B0000201655
:10073000200883168700000083120800031755085D
:10074000DC000313F32278080317D9000330DD001F
:100750005908DE0003135F2303175608DC00031358
:10076000F32278080317D9000430DD005908DE00B1
:1007700003135F2303175708DC000313F3227808E1
:100780000317D9000530DD005908DE0003135F238D
:1007900003175808DC000313F32278080317D90065
:1007A0000630DD005908DE0003135F23080003173D
:1007B0005B08DC000313F32278080317DC00DD017B
:1007C0005C08DE0003135F2303175A08DC000313E1
:1007D000F32278080317DC000130DD005C08DE003E
:1007E00003135F2303175908DC000313F32278086F
:1007F0003F390317DC000230DD005C08DE00031324
:100800005F230800043003174E07840083134F183A
:1008100083170008F700840A0008F800840A00081B
:10082000F900840A0008FA007708D0007808D1009F
:100830007908D2007A08D30016304E07840083135B
:100840004F18831700080139031D442C510CF70081
:10085000F70C3F30F7057708013ED4000130D50092
:100860005408D6000130D700D80003139E23031785
:1008700051088316A8001830A900831203133D20E5
:1008800077080317D100652C16304E0784008313B8
:100890004F18831700080139013C031D652C5208CD
:1008A0008316A8003C30A900831203133D2078086A
:1008B0000317D10052088316A8003C30A900831208
:1008C00003133D2077080317D2000130D5005030C4
:1008D000D40001305407840083135518831700088F
:1008E0008316A8001830A900831203133D2077084F
:1008F0000317D6000230540784008313551883175A
:1009000000088316A8003C30A900831203133D2081
:1009100077080317D7000330540784008313551852
:10092000831700088316A8003C30A9008312031324
:100930003D2077080317D8005608D9005708DA0079
:100940005808DB000313D72308000317E101031342
:10095000201620088316870000008312A0152008A7
:1009600083168700000083120712201220088316C6
:100970008700000083128711A011200883168700CA
:10098000D03083120317E200031313230317600808
:10099000E2000313132320162008831687000000AB
:1009A0008312A01520088316870000008312871D7C
:1009B000D72C07122012200883168700000083120C
:1009C0008711A011200883168700D13083120317E6
:1009D000E20003131323F70108300317E30077083D
:1009E000E4000313201620088316870000008312FA
:1009F000A0152008831687008312871DFD2C071A77
:100A00000314071E0310F80D0000A0112008831620
:100A10008700831287110317E30BF12C03132016B1
:100A2000200883168700000083120712031764084A
:100A30000319212D03132012200883168700831227
:100A4000031700000313A0152008831687008312E4
:100A5000871D282D00008711A0112008831687000C
:100A600000008312071220122008831687007808DE
:100A700083120317E1000313201220088316870056
:100A800000008312A0152008831687008312871D9B
:100A9000472D00004B2D00002016200883168700EC
:100AA0000000831203176108F80003130800F70120
:100AB000F8010317640803106518F707F70CF80C22
:100AC000E518F707F70CF80C6519F707F70CF80CA1
:100AD000E519F707F70CF80C651AF707F70CF80C8F
:100AE000E51AF707F70CF80C651BF707F70CF80C7D
:100AF000E51BF707F70CF80C031308000317600851
:100B00000F39E1006008F039F700F70E0F30F705F4
:100B10007708E300E4000A30E5000313572578085E
:100B200003176107F800031308000317DA01DB015C
:100B3000DC01E0010313A52478080317DC005C083E
:100B4000E00003137E2578080317DC000130E00085
:100B50000313A52478080317DB005B08E0000313E8
:100B60007E2578080317DB000230E0000313A5247C
:100B700078083F390317DA005A08E00003137E258E
:100B800078080317DA005A08DD005B08DE005C080D
:100B9000DF005D08E1005E08E2005F08E300600836
:100BA000F7006108F8006208F9006308FA007A08A3
:100BB000D9007908D8007808D7007708D6005608F9
:100BC000F7005708F8005808F9005908FA0003130D
:100BD0000800043003174E07F8004F08FA00031806
:100BE000FA0A7808D4007A08D5000313952503176C
:100BF0005408840083135518831777088000840AEB
:100C000078088000840A79088000840A7A088000C5
:100C100016304E07840083134F18831700080139DC
:100C2000031D692E0630E0000313A524780803177E
:100C3000D2005208E00003137E2578080317D20083
:100C40000530E0000313A52478081F390317D100ED
:100C50005108E00003137E2578080317D100043003
:100C6000E0000313A52478083F390317D00050088B
:100C7000E00003137E2578080317D0000330E0005E
:100C80000313A524780807390317D3005308E0009D
:100C900003137E2578080317D30005304E07840020
:100CA00083134F18831701305002D8008316A80011
:100CB0000530A900831203133D2077080317E400D1
:100CC0001830E50003135725780800078000A02E90
:100CD000031716304E07840083134F18831700083C
:100CE0000139013C031D9F2E06304E07F8004F08C6
:100CF000FA000318FA0A7808D4007A08D5005408D4
:100D000084008313551883170008D60005304E075A
:100D1000840083134F18831700080139D800E400BA
:100D20003C30E50003135725780803175607D60013
:100D30005408840083135518831756088000031342
:100D400003174E08F8004F08FA004E08D4004F0869
:100D5000D500D7004E08D6000313A0210800F801E3
:100D6000F901F701FA0103174D08031DBA2E4C08CB
:100D70000319D42E1030CE000310CA0DCB0DF70D81
:100D8000FA0D4D087A02031DC72E4C087702031C8A
:100D9000D02E4C08F702031CFA034D08FA02031484
:100DA000F80DF90DCE0BBC2E0313080003174608EF
:100DB000CB004508CA004708CC00CD01CD014C0846
:100DC0004D020318EC2E4D084A07840083134B187C
:100DD00083178001CD0ADF2EC801C308031DF32E3F
:100DE000C4080319172F4408CB004308CA00CD01DB
:100DF0000A30CC000313AF2677080317C900480850
:100E00004507840083134618831749088000C80AE1
:100E10004408CB004308CA00CD010A30CC000313BC
:100E2000AF2679080317C4007808C300ED2E03131A
:100E3000080001300317380784008313391883171B
:100E40000008C100BA0803194E2F38088400831324
:100E50003918831700080139013C031D4E2F01305A
:100E6000380784008313391883178008031D3B2F2C
:100E70000C30C1004E2F013038078400831339181D
:100E8000831700080C3C03184E2F013038078400EC
:100E90008313391883170C300002C100C4014108C4
:100EA000C3000130C6003B30C5000230C700031349
:100EB000D6260230031738078400831339188317A6
:100EC0000008C200C4014208C3000130C6003D3022
:100ED000C5000230C7000313D626033003173807B6
:100EE00084008313391883170008C200C401420824
:100EF000C3000130C6003F30C5000230C7000313F5
:100F0000D6263B30F8000130F90008000130031705
:100F1000B900BA0183160313851183128511831654
:100F20008510831285100317BA0138083A02031896
:100F3000C32F3A0836078400831337188317000835
:100F4000BB000130B9003908083C031CC12F3B1815
:100F5000AD2F03130510AF2F0317031305148316CA
:100F60000510031083120317BB0C8316031385119E
:100F70008312851583168511831285110317B90A0B
:100F8000A32FBA0A952F8316031385108312851495
:100F900083168510831285100800183003171D076B
:100FA000A0001E08A1000318A10A17301D07840025
:100FB00083131E1883170008A200200884008313DF
:100FC000211883172208800017301D07840083131F
:100FD0001E1883171F088000031308000317D90188
:0A0FE000DA01DB010313D723080038
:101000000317B50803193B283308B7003208B600A8
:101010003408B800B901B9013808390203183A2870
:1010200039083607F8003708FA000318FA0A780872
:10103000BA007A08BB0039083607840083133718D2
:10104000831700088A11031304208A15F800031778
:101050003A08840083133B18831778088000390806
:101060003607840083133718831700080838800078
:10107000B90A0C2868283308B7003208B6003408CB
:10108000B800B901B90138083902031868283908CD
:101090003607F8003708FA000318FA0A7808BA0089
:1010A0007A08BB0039083607840083133718831782
:1010B00000088A11031304208A15F80003173A0860
:1010C000840083133B18831778088000B90A4328EB
:1010D0003308B7003208B6003408B8008A11031389
:1010E00086278A150800163003171D07840083130E
:1010F0001E1883170008F700770C0139031D5A29C1
:1011000016301D07840083131E1883170008013949
:10111000031DE6281F08A000A101A201A301A4014C
:101120008A11031395258A157A080317AE007908EA
:10113000AD007808AC007708AB000130B9002B3067
:10114000B800BA018A11031319278A157908FA0021
:1011500078080317AF007A08B0000130B2002530DC
:10116000B1000630F8002F0884008313301883176D
:101170000008F700310884008313321883177708BA
:101180008000B10A0319B20AAF0A0319B00AF80BBA
:10119000B3282708A1002808A2002508A3002608D4
:1011A000A400A0080319D8282E080139A000DA28C5
:1011B0000130A0000130B3002130B2000430B4008F
:1011C0002008B500031300205829031716301D0707
:1011D000840083131E18831700080139013C031D86
:1011E0005929A001A101A201A3018A110313952588
:1011F0008A157A080317AD007908AC007808AB00AF
:101200007708AA002B08E4003C30E5008A1103139C
:1012100057258A15780803172C07AF008316A800F6
:101220006430A9008A11831203133D208A157708C0
:101230000317AC000130B9002A30B800BA018A1196
:10124000031319278A157908FA0078080317AE00E6
:101250007A08AF000130B1002430B0000630F80049
:101260002E08840083132F1883170008F700300816
:10127000840083133118831777088000B00A03199C
:10128000B10AAE0A0319AF0AF80B30292808A000EA
:101290002908A1002608A2002708A3000130B300F6
:1012A0002030B2000430B4000130B5000313002038
:1012B0000317632A16301D07840083131E18831733
:1012C0000008F700770C0139013C031D632A163032
:1012D0001D07840083131E18831700080139031D9E
:1012E000D9291D08F8001E08FA007808A0007A081D
:1012F000A1002108A3002008A2001F08A400A50146
:10130000A601A701A8012208F8002308FA0078081E
:10131000AF007A08B000B9002F08B800BA018A11EE
:10132000031319278A157908FA0078080317AF0004
:101330007A08B0000130B2002930B1000630F80060
:101340002F0884008313301883170008F700310832
:10135000840083133218831777088000B10A0319B9
:10136000B20AAF0A0319B00AF80BA0292B08A5008E
:101370002C08A6002908A7002A08A800A408031919
:10138000CB29073022078400831323188317000812
:101390000139A400CD290130A4000130B30025306B
:1013A000B2000430B4002408B50003130020622A00
:1013B000031716301D07840083131E1883170008B7
:1013C0000139013C031D632A1D08F8001E08FA00BC
:1013D0007808A0007A08A1002108A3002008A20034
:1013E000A401A501A601A7012208840083132318E4
:1013F00083170008F700840A0008F800840A000830
:10140000F900840A0008FA007708AE007808AF00F7
:101410007908B0007A08B1002F08E4003C30E500FC
:101420008A11031357258A15780803173007B3006C
:101430008316A8006430A9008A11831203133D208B
:101440008A1577080317B0000130B9002E30B800B4
:10145000BA018A11031319278A157908FA00780846
:101460000317B2007A08B3000130B5002830B40089
:101470000630F800320884008313331883170008FD
:10148000F700340884008313351883177708800029
:10149000B40A0319B50AB20A0319B30AF80B3A2AB7
:1014A0002C08A4002D08A5002A08A6002B08A700D8
:1014B0000130B3002430B2000430B4000130B50074
:1014C000031300200317031308001A3003171D0726
:1014D000840083131E18831700089F0017301D0710
:1014E000840083131E1883170008A00003130B0841
:1014F000F7008B1303171F088D0020088C0083163C
:101500008C130C1555308D00AA308D008C148C185E
:10151000872A0C117708831203138B041B300317DF
:101520001D07840083131E18831700089F001830BE
:101530001D07840083131E1883170008A0000313DF
:101540000B08F7008B1303171F088D0020088C0071
:1015500083168C130C1555308D00AA308D008C1419
:101560008C18B02A0C117708831203138B0408001F
:10157000183003171D079F001E08A0000318A00ABB
:1015800017301D07840083131E1883170008A1005D
:101590001F08840083132018831721088000173048
:1015A0001D07840083131E1883178001031308008E
:1015B00003171D08F8001E08FA0078089F007A0833
:1015C000A0002008A2001F08A100103021078400FD
:1015D0008313221883170008A30005302107840015
:1015E0008313221883170008A40003130B08F700C5
:1015F0008B13031723088D0024088C0083168C138B
:101600000C1555308D00AA308D008C148C18062BCB
:101610000C117708831203138B0411300317210771
:1016200084008313221883170008A30006302107C3
:1016300084008313221883170008A40003130B08E7
:10164000F7008B13031723088D0024088C008316E2
:101650008C130C1555308D00AA308D008C148C180D
:101660002F2B0C117708831203138B0412300317EE
:10167000210784008313221883170008A300073072
:10168000210784008313221883170008A400031382
:101690000B08F7008B13031723088D0024088C0018
:1016A00083168C130C1555308D00AA308D008C14C8
:1016B0008C18582B0C117708831203138B04080025
:1016C0001E308400831700080319732B0630F800BE
:1016D000F701F70B692BF80B682B7B30F700F70B42
:1016E0006F2B800B662B08001E3003171D0784002C
:1016F00083131E18831700089F0016301D078400EF
:1017000083131E188317A0018018A00A03130B0867
:10171000F7008B1303171F088D0020088C00831619
:101720008C130C1555308D00AA308D008C148C183C
:10173000972B0C117708831203138B0408001630C3
:1017400003171D07840083131E188317000801392F
:10175000031D002C1D089F001E08A0002008A200E9
:101760001F08A100A301A401A501A60108302107BB
:10177000F8002208FA000318FA0A7808AD007A087F
:10178000AE00B9002D08B800BA018A110313192759
:101790008A157908FA0078080317AD007A08AE00B8
:1017A0000130B0002730AF000630F8002D0884006B
:1017B00083132E1883170008F7002F088400831363
:1017C0003018831777088000AF0A0319B00AAD0AF2
:1017D0000319AE0AF80BD62B2908A3002A08A40087
:1017E0002708A5002808A6000130B3002330B20066
:1017F0000430B4000130B500031300205F2C031740
:1018000016301D07840083131E1883170008013942
:10181000013C031D602C1D089F001E08A00020082D
:10182000A2001F08A100A301A401A501A601083080
:101830002107F8002208FA000318FA0A7808AD0018
:101840007A08AE00B9002D08B800BA018A11031356
:1018500019278A157908FA0078080317AD007A0865
:10186000AE000130B0002730AF000630F8002D0880
:10187000840083132E1883170008F7002F088400B4
:1018800083133018831777088000AF0A0319B00A52
:10189000AD0A0319AE0AF80B372C2B08A3002C084D
:1018A000A4002908A5002A08A6000130B3002330AF
:1018B000B2000430B4000130B50003130020031758
:1018C000031308000A3003172107F8002208FA0062
:1018D0000318FA0A7808A3007A08A4000A3021073E
:1018E00084008313221883170008A50014302107F1
:1018F000840083132218831700082502031D822CFD
:1019000000308A2C0A3021078400831322188317A1
:1019100001300007A50023088400831324188317CF
:10192000250880000313080003179F01A001A101EF
:10193000A20119301D07840083131E18831701307C
:101940000007A4008316A8000A30A9008A11831298
:1019500003133D208A1577088A1104208A15F800A0
:1019600003179F0019301D07840083131E18831767
:1019700001300007A4008316A8000A30A9008A11CC
:10198000831203133D208A1578088A1104208A15D2
:1019900008380317A0003730A1000130B7001F300E
:1019A000B6000430B8008A11031386278A15080090
:1019B0001D3003171D07840083131E1883170008AA
:1019C0009F0019301D07840083131E188317000819
:1019D000A00003130B08F7008B1303171F088D00DB
:1019E00020088C0083168C130C1555308D00AA30FE
:1019F0008D008C148C18FA2C0C11770883120313A9
:101A00008B0408008316861483128618092DE20AB7
:101A10000B2DE201BE146208133C0318112DBE10F9
:101A2000E2011830A7000D30A8008A150A12052E11
:101A30000230A7000D30A8008A150A12052E0800F2
:101A40008316061483120618272DE30A292DE301B5
:101A50003E1563080C3C03182F2D3E11E301363070
:101A6000AE000D30AF008A150A12052E2030AE00F0
:101A70000D30AF008A150A12052E08000130BE068F
:101A80004730BC000D30BD008A150A12052E3E30CD
:101A9000BC000D30BD008A150A12052E080000306A
:101AA000F80006389200FF3083169200831220114E
:101AB000200883168700831207110E3097008316C3
:101AC0009B019C0101309D0002308312E400FA303A
:101AD00003179E0003136023E40B672DFF3083166A
:101AE00095008113950083128A150A12962D03081A
:101AF0001F398300FF30A0003E14BE143E15BE15F2
:101B00003E16E101E201E301831603170908C0391B
:101B1000890003131F129F120030031788008312DD
:101B2000870188018901831303134F2D0330D600E9
:101B3000A201A4010530A300A601A5010230A7005F
:101B40000D30A800A901AB010530AA00AD0101309C
:101B5000AC002030AE000D30AF00B001B20101305A
:101B6000B100B401B3010030B5001830B600B701C0
:101B7000B9011430B800BB010230BA003E30BC00DD
:101B80000D30BD00A10183160108C039073881005E
:101B90003D30831281000B110310210DF7008A11D3
:101BA00031208A15F900013077078A1131208A1512
:101BB000FA007908840083137A1883170008F90063
:101BC000840A0008F700840A0008F800840A800AE2
:101BD0000008FA00031DEF2D840A800A8403840A9A
:101BE00000087802031D072E77087A02031D072ECE
:101BF00084038001840A8001840AF91B072E840A69
:101C000000088A0084030008820083120313A10ADB
:101C100004302102031DCC2DA10101080B1D122E41
:0C1C20008316C82D0D2EFF30A1006300BC
:102000005608F53E0318752D0B3E782D0317A301D6
:102010000130A4000230A5000330A6000430A70060
:102020000530A8000630A9000730AA000830AB0030
:102030000930AC002308C7002408C8002508C900DF
:102040002B08CA002C08CB002608CC002708CD009E
:1020500025088D0083168C130C1483120C0801398B
:10206000F80043107818431423088D0083168C134E
:102070000C1483120C08CF004F088316A8000330FD
:10208000A9000A12831203133D200A1677080317CA
:10209000C40024088D0083168C130C1483120C08C2
:1020A000CF004F088316A8000330A9000A1283123C
:1020B00003133D200A1677080317C5002B088D006F
:1020C00083168C130C1483120C08CF004F08831650
:1020D000A8000A30A9000A12831203133D200A1631
:1020E00077080317C6002C088D0083168C130C1478
:1020F00083120C080139F800C3107818C314C508FE
:10210000031D8728C408031D87280230C50000303E
:1021100043180130003A031303199228013A0319B6
:1021200050290A2A63300317D8003B30D900DB015D
:102130002608DA00DD012708DC00DF012808DE00C0
:10214000E1012908E000E3012A08E2005A088316A9
:102150009F0083125C0883169E0083125E0883161C
:10216000A000831260088316A10083126208831600
:10217000A20083125A088D0083168C130C1483124C
:102180000C08E40001305807E50064088316A80035
:10219000831265088316A9000A12831203133D20D7
:1021A0000A16770883160317990083125C088D00BE
:1021B00083168C130C1483120C08E40001305907A9
:1021C000E50064088316A800831265088316A90039
:1021D0000A12831203133D200A1677088316031789
:1021E0009A009B01831258088316A3008312590892
:1021F0008316A4003B30A5009030F8000130F900B0
:102200007908FA0078088312D2007A08D3000130E6
:10221000D5002D30D4001630F80052088400831306
:10222000531883170008F7005408840083135518C7
:10223000831777088000D40A0319D50AD20A031934
:10224000D30AF80B0D2926088D0083168C130C1465
:1022500083120C08CF004F088316A8006430A90031
:102260000A12831203133D200A1677080317B600DB
:1022700027088D0083168C130C1483120C08CF00D2
:102280004F088316A8003C30A9000A1283120313DA
:102290003D200A1677080317B700B80103130A2A6E
:1022A00063300317D800DA012608D900DC012708BB
:1022B000DB00DE012808DD00E0012908DF00E20183
:1022C0002A08E100590883169E0083125B088316D2
:1022D0009D0083125D088316A00083125F08831699
:1022E000A100831261088316A200A301831258087B
:1022F0008316A4003B30A5009901831259088D0074
:1023000083168C130C1483120C08E3000130580759
:10231000E40063088316A800831264088316A900EA
:102320000A12831203133D200A1677088316031737
:102330009A0083125B088D0083168C130C14831291
:102340000C08E3000130831625078312E4006308BC
:102350008316A800831264088316A9000A12831248
:1023600003133D200A167708831603179B0090304D
:10237000F8000130F9007908FA0078088312D200D9
:102380007A08D3000130D5002D30D4001630F80083
:10239000520884008313531883170008F700540869
:1023A000840083135518831777088000D40A031913
:1023B000D50AD20A0319D30AF80BC829B601260890
:1023C0008D0083168C130C1483120C08CF004F0859
:1023D0008316A8006430A9000A12831203133D205B
:1023E0000A1677080317B70027088D0083168C1389
:1023F0000C1483120C08CF004F088316A8003C3041
:10240000A9000A12831203133D200A167708031746
:10241000B80003130317C408031DDC2A0130CF00E2
:102420002D30CE0005304E07F8004F08FA00031893
:10243000FA0A7808D0007A08D10010304E078400DC
:1024400083134F1883170008D20052088D0083169B
:102450008C130C1483120C08D20013304E07840026
:1024600083134F18831701300007D30052088316D7
:10247000A800831253088316A9000A1283120313BB
:102480003D200A1677080317D200500884008313F2
:10249000511883175208800006304E07F8004F0885
:1024A000FA000318FA0A7808D0007A08D10011302F
:1024B0004E07840083134F1883170008D200520878
:1024C0008D0083168C130C1483120C08D200143068
:1024D0004E07840083134F18831701300007D30081
:1024E00052088316A800831253088316A9000A1203
:1024F000831203133D200A1677080317D2005008F1
:1025000084008313511883175208800007304E0748
:10251000F8004F08FA000318FA0A7808D0007A0881
:10252000D10012304E07840083134F188317000820
:10253000D20052088D0083168C130C1483120C08E1
:10254000D20015304E07840083134F1883170130D3
:102550000007D30052088316A8008312530883167D
:10256000A9000A12831203133D200A1677080317E5
:10257000D20050088400831351188317520880003A
:102580004F08D7004E08D6000A120313A0210A16DE
:1025900001300317CF002D30CE000A12031302249E
:1025A0000A1601300317D7002D30D6000A12031384
:1025B000A0210A16E42A03170130CF002D30CE00E7
:1025C0000A120313E9250A162D30F8000130F9002C
:1025D0007908FA00780803179D007A089E00A00188
:1025E0003F309F002130F8001D08840083131E181F
:1025F00083170008F7001F0884008313201883172F
:10260000770880009F0A0319A00A9D0A03199E0AF1
:10261000F80BF42A9E013F309D009F010A128A1593
:10262000031373200A168A11752D831686148312DC
:10263000861C752BBE19752B03179E013F309D001C
:1026400018301D07F8001E08FA000318FA0A780867
:102650009F007A08A00017301D07840083131E18FE
:1026600083170008A1001F08840083132018831714
:102670002108800016301D07840083131E1883175D
:102680000008F700770C0139031D4F2B17301D0789
:10269000840083131E18831701308000642B1630CA
:1026A0001D07840083131E1883170008F700770C9A
:1026B0000139013C031D642B17301D07840083136F
:1026C0001E188317023080009E013F309D000A12C1
:1026D0008A15031365220A168A110317CF013F30AA
:1026E000CE000A12031302240A16BE18822BBE144F
:1026F00003179E013F309D0004309F000A12031310
:10270000CD270A163E198F2B3E1503179E013F3029
:102710009D0009309F000A120313CD270A16752D5C
:102720000317CF013F30CE000A120313E9250A1622
:1027300003179E013F309D0001309F000A128A1549
:10274000031373200A168A11BE18B12BBE14031787
:102750009E013F309D0004309F000A120313CD27D5
:102760000A16831686148312861CE12BBE19E12BF0
:1027700003179E013F309D000A128A150313B822E9
:102780000A168A1103179E013F309D000A128A150E
:102790000313D8220A168A1103179E013F309D00A9
:1027A0000A128A15031365220A168A1103179E015D
:1027B0003F309D009F010A128A15031373200A16E9
:1027C0008A1103179E013F309D001D08F8001E0866
:1027D000FA0078089F007A08A0002008A2001F08CD
:1027E000A1002108F8002208FA007808A3007A085E
:1027F000A4002408A6002308A500013025078400B2
:102800008313261883178008031D182C0230250710
:1028100084008313261883178008031D182C0330A7
:1028200025078400831326188317800803191A2CA0
:1028300000301B2C0130F80078087808F8080319DC
:102840008A2C0313A0122008831687008312871690
:10285000C83003179E000A128A15031360230A1654
:102860008A11A01220088316870083128712643011
:1028700003179E000A128A15031360230A168A1191
:10288000A01220088316870083128716C83003170A
:102890009E000A128A15031360230A168A11A012D9
:1028A0002008831687008312871203179E013F308A
:1028B0009D0001309F000A120313CD270A1603174B
:1028C0009E013F309D000A128A15031365220A16E5
:1028D0008A11D51003179E013F309D000A128A15F8
:1028E000031374230A168A110A12EE270A160130FE
:1028F0000317D500D600D700D8000A1203139E2371
:102900000A160317CF013F30CE000A120313E92540
:102910000A16031703133E19982C3E1503179E0140
:102920003F309D0009309F000A120313CD270A167D
:10293000752D0317CF013F30CE000A120313E9258E
:102940000A1603179E013F309D0001309F000A12B6
:102950008A15031373200A168A11831686148312AC
:10296000861CDD2CBE19DD2C03179E013F309D0017
:102970000A128A150313B8220A168A1103179E0138
:102980003F309D000A128A150313D8220A168A11B5
:1029900003179E013F309D000A128A15031365221A
:1029A0000A168A1103179E013F309D009F010A12EB
:1029B0008A15031373200A168A11BE18EA2CBE1456
:1029C00003179E013F309D0004309F000A1203133D
:1029D000CD270A163E19F72C3E1503179E013F30EE
:1029E0009D0009309F000A120313CD270A16752D8A
:1029F000D51403179E013F309D000A128A15031358
:102A000074230A168A110A12EE270A1601300317D8
:102A1000D500D600D700D8000A1203139E230A1649
:102A200003179D019E019F01A00101309D00093007
:102A30009E0001309F00A000B7001D30B60004309A
:102A4000B8000A12031386270A16083003179D00E0
:102A5000FA309E000A128A15031360230A168A119F
:102A600003179D0B282D9E013F309D000A309F00CB
:102A70000A120313CD270A160530E0000A12EE27CA
:102A80000A1601300317D500D600D700D8000A1265
:102A900003139E230A160317CF013F30CE000A12FC
:102AA0000313E9250A1603179E013F309D009F017D
:102AB0000A128A15031373200A168A11752D8316BC
:102AC00086148312861C752D831606148312061C29
:102AD000752D03179E013F309D00031360080317F7
:102AE0009F000A120313CD270A168A150A16022818
:102AF0000A148A100A158207152B992C902B062888
:0E2B0000F82C752D752D752D752D752D5F2DED
:103000008A1100288A1505305602FB3E03182D2F21
:10301000053E482F03179E013F309D009F010A1275
:10302000031373200A16831686148312861C3F2806
:10303000BE193F2803179E013F309D0002309F00BC
:103040000A128A110313CD270A168A1503179E0147
:103050003F309D000A12031365220A160A128A11D4
:10306000EE270A168A1501300317D500D600D700BF
:10307000D8000A128A1103139E230A168A153E19D4
:103080004E283E1503179E013F309D0006309F00DD
:103090000A128A110313CD270A168A152D2F3E1CFA
:1030A0005A2803179E013F309D000A1203139F23E5
:1030B0000A16452903179E013F309D0016301D0753
:1030C000840083131E18831700080139031DD228BA
:1030D0001D08F8001E08FA0078089F007A08A00072
:1030E0002008A2001F08A100A301A401A501A601B8
:1030F00008302107F8002208FA000318FA0A7808B5
:10310000AD007A08AE00B9002D08B800BA010A1265
:103110008A11031319270A168A157908FA00780804
:103120000317AD007A08AE000130B0002730AF00C1
:103130000630F8002D08840083132E18831700082A
:10314000F7002F0884008313301883177708800056
:10315000AF0A0319B00AAD0A0319AE0AF80B9A2890
:1031600029080A128A11031304200A168A15F80086
:103170000317A3002A080A128A11031304200A164F
:103180008A1508380317A4000130B7002330B600B1
:103190000430B8000A128A11031386270A168A150A
:1031A0004529031716301D07840083131E18831743
:1031B00000080139013C031D46291D08F8001E08BE
:1031C000FA0078089F007A08A0002008A2001F08D3
:1031D000A100A301A401A501A60108302107F80060
:1031E0002208FA000318FA0A7808AD007A08AE003F
:1031F000B9002D08B800BA010A128A110313192761
:103200000A168A157908FA0078080317AD007A08BB
:10321000AE000130B0002730AF000630F8002D08B6
:10322000840083132E1883170008F7002F088400EA
:1032300083133018831777088000AF0A0319B00A88
:10324000AD0A0319AE0AF80B0F292B080A128A11CE
:10325000031304200A168A15F8000317A3002C088C
:103260000A128A11031304200A168A150838031754
:10327000A4000130B7002330B6000430B8000A12B1
:103280008A11031386270A168A1503178316031358
:10329000861483128618C52983168614831286180D
:1032A000C52903179E013F309D0016301D0784007D
:1032B00083131E18831700080139031D9B291D085D
:1032C000F8001E08FA0078089F007A08A00020087D
:1032D000A2001F08A10009302107F8002208FA0007
:1032E0000318FA0A7808A3007A08A4000930210715
:1032F00084008313221883170008A50013302107C8
:10330000840083132218831700082502031D8A29CD
:103310000030922909302107840083132218831773
:1033200001300007A50023088400831324188317A5
:1033300025088000B62916301D07840083131E1847
:10334000831700080139013C031DB6291D08F80048
:103350001E08FA001D089F001E08A000A2001D08FC
:10336000A1000A12031362240A1603179E013F30BC
:103370009D000A1203139F230A16643003179E0050
:103380000A12031360230A164C293E1ADE298316FB
:1033900006148312061CDE295708053C031DD2299A
:1033A000E10ADE2903179E013F309D0007309F0090
:1033B0000A128A110313CD270A168A156108013CE7
:1033C0000318EF29E10103179E013F309D000730EC
:1033D0009F000A128A110313CD270A168A152D2F72
:1033E0003E1CFB2903179E013F309D000A12031368
:1033F0009F230A16EA2A03179E013F309D001630CC
:103400001D07840083131E18831700080139031D4C
:10341000752A1D08F8001E08FA0078089F007A082F
:10342000A0002008A2001F08A100A301A401A5017B
:10343000A60108302107F8002208FA000318FA0A4A
:103440007808AD007A08AE00B9002D08B800BA01BE
:103450000A128A11031319270A168A157908FA0025
:1034600078080317AD007A08AE000130B0002730AD
:10347000AF000630F8002D08840083132E18831740
:103480000008F7002F08840083133018831777088B
:103490008000AF0A0319B00AAD0A0319AE0AF80B8F
:1034A0003B2A0830A40027080A128A1103130420BB
:1034B0000A168A15F8000317A50028080A128A11AF
:1034C000031304200A168A15F8000317A60001301A
:1034D000B7002330B6000430B8000A128A11031373
:1034E00086270A168A15EA2A031716301D07840054
:1034F00083131E18831700080139013C031DEB2AB2
:103500001D08F8001E08FA0078089F007A08A0003D
:103510002008A2001F08A100A301A401A501A60183
:1035200008302107F8002208FA000318FA0A780880
:10353000AD007A08AE00B9002D08B800BA010A1231
:103540008A11031319270A168A157908FA007808D0
:103550000317AD007A08AE000130B0002730AF008D
:103560000630F8002D08840083132E1883170008F6
:10357000F7002F0884008313301883177708800022
:10358000AF0A0319B00AAD0A0319AE0AF80BB22A42
:103590000830A40029080A128A11031304200A160D
:1035A0008A15F8000317A5002A080A128A110313C6
:1035B00004200A168A15F8000317A6000130B70088
:1035C0002330B6000430B8000A128A11031386278C
:1035D0000A168A1503178316031386148312861896
:1035E0006C2B83168614831286186C2B03179E018E
:1035F0003F309D0016301D07840083131E1883176B
:1036000000080139031D152B1D08F8001E08FA00DB
:1036100078089F001E08A000A2001F08A1000A123F
:10362000031362240A165C2B031716301D0784004F
:1036300083131E18831700080139013C031D5B2BFF
:103640001D08F8001E08FA0078089F007A08A000FC
:103650002008A2001F08A1000B302107F800220853
:10366000FA000318FA0A7808A3007A08A4000B30BD
:10367000210784008313221883170008A500153042
:103680002107840083132218831700082502031DD5
:103690004B2B0030532B0B3021078400831322184F
:1036A000831701300007A500230884008313241822
:1036B000831725088000031303179E013F309D00E8
:1036C0000A1203139F230A16643003179E000A127E
:1036D000031360230A16F12A3E1AD52B831606140B
:1036E0008312061CD52B03179E013F309D00163018
:1036F0001D07840083131E18831700080139031D5A
:10370000992B09301D07840083131E188317800826
:10371000031D952B0A301D07840083131E18831781
:103720008008031D952B0030962B0130F800BA2B32
:10373000BA2B16301D07840083131E188317000848
:103740000139013C031DBA2B0A301D078400831385
:103750001E1883178008031DB82B0B301D0784002B
:1037600083131E1883178008031DB82B0030B92B54
:103770000130F800F8080319CA2B9E013F309D0064
:1037800008309F000A128A110313CD270A168A15E2
:10379000D52B03179E013F309D0006309F000A1273
:1037A0008A110313CD270A168A152D2F03179E01A0
:1037B0003F309D009F01A001A101A20116301D070D
:1037C000840083131E18831700080139031DF02B92
:1037D00025309F002D30A0006730A100A200022CF0
:1037E00016301D07840083131E1883170008013943
:1037F000013C031D022CB3309F00BB30A0002530DC
:10380000A100A2000130B7001F30B6000430B8009C
:103810000A128A11031386270A168A15831686143C
:103820008312861C592DBE19592D03179E013F3056
:103830009D0016301D07F8001E08FA000318FA0A4A
:1038400078089F007A08A00016301D0784008313B3
:103850001E188317001C332C1F08840083132018A4
:1038600083170010392C1F08840083132018831736
:10387000001416301D07840083131E1883170008D8
:103880000139031DC32C09301D07F8001E08FA007A
:103890000318FA0A78089F007A08A0000A301D076A
:1038A000840083131E1883170008A1001F088400DA
:1038B000831320188317210880000A301D07F800A1
:1038C0001E08FA000318FA0A78089F007A08A00078
:1038D0000B301D07840083131E1883170008A100F6
:1038E0001F088400831320188317210880000B30E1
:1038F0001D07840083131E188317800113301D07D2
:10390000840083131E1883176330800014301D0752
:10391000840083131E1883173B3080000F301D076F
:10392000F8001E08FA000318FA0A78089F007A08BF
:10393000A0000E301D07840083131E188317000893
:10394000A1001F088400831320188317210880001A
:103950000E301D07F8001E08FA000318FA0A78084E
:103960009F007A08A0000D301D07840083131E18E5
:1039700083170008A1001F088400831320188317F1
:1039800021088000582D16301D07840083131E184F
:10399000831700080139013C031D582D0130D50063
:1039A000D600D700D8000A128A1103139E230A16E4
:1039B0008A150B3003171D07F8001E08FA000318BC
:1039C000FA0A78089F007A08A0000A301D078400D0
:1039D00083131E1883170008A1001F088400831397
:1039E00020188317210880000A301D07F8001E08E0
:1039F000FA000318FA0A78089F007A08A000093034
:103A00001D07840083131E1883170008A1001F08D8
:103A100084008313201883172108800009301D07B4
:103A2000840083131E188317800113301D07840040
:103A300083131E188317800114301D07840083131D
:103A40001E188317633080000D301D07F8001E0814
:103A5000FA000318FA0A78089F007A08A0000E30CE
:103A60001D07840083131E1883170008A1001F0878
:103A70008400831320188317210880000E301D074F
:103A8000F8001E08FA000318FA0A78089F007A085E
:103A9000A0000F301D07840083131E188317000831
:103AA000A1001F08840083132018831721088000B9
:103AB00003133E1A712E831606148312061C712EF0
:103AC00003179E013F309D0016301D0784008313AD
:103AD0001E18831700080139031DC12D1F301D0753
:103AE000840083131E18831700089F0009301D07E8
:103AF000840083131E1883170008A00003130B080B
:103B0000F7008B1303171F088D0020088C00831605
:103B10008C130C1555308D00AA308D008C148C1828
:103B20008F2D0C117708831203138B042030031799
:103B30001D07840083131E18831700089F000A3096
:103B40001D07840083131E1883170008A0000313A9
:103B50000B08F7008B1303171F088D0020088C003B
:103B600083168C130C1555308D00AA308D008C14E3
:103B70008C18B82D0C117708831203138B041D2E9B
:103B8000031716301D07840083131E1883170008BF
:103B90000139013C031D1E2E1F301D0784008313B5
:103BA0001E18831700089F000A301D078400831326
:103BB0001E1883170008A00003130B08F7008B13CF
:103BC00003171F088D0020088C0083168C130C151A
:103BD00055308D00AA308D008C148C18ED2D0C11F1
:103BE0007708831203138B04203003171D0784000A
:103BF00083131E18831700089F000B301D078400D5
:103C000083131E1883170008A00003130B08F70086
:103C10008B1303171F088D0020088C0083168C134C
:103C20000C1555308D00AA308D008C148C18162E72
:103C30000C117708831203138B0403179E013F3086
:103C40009D001C301D07840083131E188317000875
:103C50009F0016301D07840083131E188317A001D0
:103C60000018A00A03130B08F7008B1303171F0893
:103C70008D0020088C0083168C130C1555308D0098
:103C8000AA308D008C148C18432E0C1177088312E7
:103C900003138B0401300317D500D600D700D800DA
:103CA0000A128A1103139E230A168A150A128A1110
:103CB000EE270A168A150317CF013F30CE000A12ED
:103CC0008A110313E9250A168A1503179E013F304E
:103CD0009D0009309F000A128A110313CD270A168E
:103CE0008A152D2F3E1C7D2E03179E013F309D000F
:103CF0000A12031394240A16902E03179D019E01A5
:103D00009F01A00137309F000130B7001D30B60081
:103D10000430B8000A128A11031386270A168A157E
:103D20008316861483128618E82E8316861483124F
:103D30008618E82E03179E013F309D0019301D079D
:103D4000F8001E08FA000318FA0A78089F007A089B
:103D5000A00019301D07840083131E18831701303B
:103D60000007A2008316A8000A30A9000A128A11CF
:103D7000831203133D200A168A1577080317A10042
:103D80001F0884008313201883172108800019302E
:103D90001D07840083131E18831700080A128A1156
:103DA000031323200A168A1503179F000313950097
:103DB00003179E013F309D000A12031394240A1634
:103DC000643003179E000A12031360230A16952E0F
:103DD0003E1A092F831606148312061C092F570852
:103DE000083C031D082F03179E013F309D000A1257
:103DF0000313D8240A1603179E013F309D00053097
:103E00009F000A128A110313CD270A168A15092F5B
:103E1000E10A6108013C03182D2FE10103179E01FF
:103E20003F309D000313570803179F000A128A11A1
:103E30000313CD270A168A1503179E013F309D00F4
:103E40009F010A12031373200A1603179E013F30C5
:103E50009D000A120313D8240A16831686148312AF
:103E6000BE118618BE158316061483123E1206185C
:103E70003E164030B5001F30B6008A150A12052ED6
:103E80000030B5001830B6008A150A12052E080059
:103E90000A148A140A1582070A284F28F029D62BFB
:023EA000722E80
:04400E00822FFF3FBF
:00000001FF
;PIC16F886
;CRC=6CC0  CREATED="10-Nov-17 11:32"
