:100000000D308A00802D00000A108A100A11820724
:10001000F6346034D534F1346334B334B734E03477
:10002000F734F33401340834E734963497348734A2
:1000300067343734963475342534763417340434C1
:100040006434C33435340A108A100A11820722340A
:10005000003429340034303400343734003483160B
:1000600003172C08F8012B02031839282B08F70076
:100070004528F7010830AD00AB0DF70D2C087702CD
:100080000318F700F80DAD0B3C288312031308008A
:100090000830F80000008711A0112008831687009F
:1000A000000083120317EF0D03130712031C5E28D1
:1000B0002016200883168700622883122012200849
:1000C0008316870000008312A0152008831687007E
:1000D0008312871D6928F80B4A2800008711A01198
:1000E000200883168700000083122016200883163C
:1000F0008700000000008312A015200883168700E7
:100100008312871D8128F8010000071A78148711CF
:10011000A0112008831687008312071220122008DE
:1001200083168700831208000317EE0103132016BD
:1001300020088316870000008312A015200883166C
:100140008700000083120712201220088316870000
:10015000000083128711A011200883168700D03079
:1001600083120317EF000313482003176D08EF00F5
:1001700003134820201620088316870000008312EE
:10018000A01520088316870000008312871DC6284B
:10019000071220122008831687000000831287119F
:1001A000A011200883168700D13083120317EF00B7
:1001B00003134820F70108308316031790007708CF
:1001C0009100831203132016200883168700000075
:1001D0008312A0152008831687008312871DEE283E
:1001E000071A0314071E0310F80D0000A0112008C1
:1001F000831687008312871183160317900BE1285B
:100200008312031320162008831687000000831230
:1002100007128316031711080319152983120313F4
:10022000201220088316870003170000831203138F
:10023000A0152008831687008312871D1D29000042
:100240008711A0112008831687000000831207126F
:100250002012200883168700780883120317EE0007
:100260000313201220088316870000008312A015B4
:100270002008831687008312871D3C29000040292F
:100280000000201620088316870000008312031741
:100290006E08F8000313080003176D080F39831662
:1002A000900083126D08F039F700F70E0F30F70554
:1002B000770883169200120893000A309400F70121
:1002C000F801130803101418F707F70CF80C94182A
:1002D000F707F70CF80C1419F707F70CF80C94193A
:1002E000F707F70CF80C141AF707F70CF80C941A28
:1002F000F707F70CF80C141BF707F70CF80C941B16
:10030000F707F70CF80C78081007F80083120313AE
:100310000800203083160317B200AE01AF01B00110
:10032000B1012908FA002808F9002708F800260872
:10033000F7000310771CAA292A08AE072B08031818
:100340002B0FAF072C0803182C0FB0072D0803182C
:100350002D0FB107B10CB00CAF0CAE0CFA0CF90CB0
:10036000F80CF70CB20B99298312031308008316BB
:100370000317120884008313131883170008A301BE
:10038000A201A101A000A5010408A4002510831B5F
:1003900025142308A9002208A8002108A700200886
:1003A000A600AD01AC010E30AB001030AA008312E4
:1003B0000313892183160317240884008313251847
:1003C00083177A08970079089600780895007708CF
:1003D0009400013012078400831313188317000858
:1003E000A301A201A101A000A5010408A4002510F9
:1003F000831B25142308A9002208A8002108A700B0
:100400002008A600AD01AC01AB013C30AA0083126C
:1004100003138921831603172408840083132518E6
:1004200083177A089B0079089A0078089900770862
:10043000980018081407A0001508A100190803184F
:10044000190FA1071608A2001A0803181A0FA2070D
:100450001708A3001B0803181B0FA307023012077D
:100460008400831313188317000820079C002108B9
:100470009D000030031801309D0722089E000030C7
:10048000031801309E0723089F0000300318013035
:100490009F071C08F7001D08F8001E08F9001F0838
:1004A000FA008312031308008318592AAA30840023
:1004B000831783160317250829068039AF00A51F67
:1004C0006C2AA209A309A409A509A20A0319A30A6F
:1004D0000319A40A0319A50AA91F792AA609A709BD
:1004E000A809A909A60A0319A70A0319A80A031942
:1004F000A90AF701F801F901FA01AA01AB01AC015F
:10050000AD0129082804270426040319B72A20303E
:10051000AE000310A20DA30DA40DA50DAA0DAB0DE9
:10052000AC0DAD0D29082D02031DA02A28082C02B0
:10053000031DA02A27082B02031DA02A26082A0231
:10054000031CB12A2608AA022708031C270FAB02A6
:100550002808031C280FAC022908031C290FAD0230
:100560000314F70DF80DF90DFA0DAE0B892AAF1F24
:10057000C42AF709F809F909FA09F70A0319F80A68
:100580000319F90A0319FA0A2A088000840A2B08B9
:100590008000840A2C088000840A2D0880008312C1
:1005A0000313080003175408F8005508FA007808E8
:1005B000D6007A08D7005708D9005608D800053069
:1005C0005807F8005908FA000318FA0A7808DA0000
:1005D0007A08DB00E701E801E901ED01031394204B
:1005E00078080317E9006908ED0003134C21780827
:1005F0000317E9000130ED00031394207808031776
:10060000E8006808ED0003134C2178080317E800A0
:100610000230ED000313942078083F390317E700F8
:100620006708ED0003134C2178080317E7006708FB
:10063000831690008312680883169100831269085C
:100640008316920010089300110894001208950078
:100650009330F8000130F90078088400831379188A
:10066000831700088312E200840A0008E300840A6A
:100670000008E400840A0008E500840A0008E60097
:100680006230F8000130F9007908FA007808DC00DF
:100690007A08DD000530F8005C08840083135D18DB
:1006A00083170008F7005A08840083135B18831728
:1006B00077088000DA0A0319DB0ADC0A0319DD0A6D
:1006C000F80B4C2B5908DB005808DA0005305A07A4
:1006D000F8005B08FA000318FA0A780883169000FD
:1006E0007A08910093001008920083120313B72137
:1006F0007A080317DF007908DE007808DD00770844
:10070000DC000A305A07F8005B08FA000318FA0AFE
:100710007808831690007A089100930010089200E0
:1007200083120313B7217A080317E3007908E20064
:100730007808E1007708E0005C086002E4006108E6
:10074000E5005D08031C5D0FE5026208E6005E0837
:10075000031C5E0FE6026308E7005F08031C5F0FDF
:10076000E702E71FB82BF701F801F901FA01C02BE6
:100770006408F7006508F8006608F9006708FA00E1
:100780007A08E7007908E6007808E5007708E400D1
:10079000831067088316A500831266088316A400D9
:1007A000831265088316A300831264088316A200CF
:1007B000A901A8010E30A7001030A6008312031370
:1007C00054227A080317EB007908EA007808E90058
:1007D0007708E80083149030840083176708831635
:1007E000A500831266088316A40083126508831689
:1007F000A300831264088316A200A901A8010E3089
:10080000A7001030A6008312031354228316031787
:10081000130897001208960011089500100894001C
:100820009901040898001910831B191483101308E8
:10083000A5001208A4001108A3001008A200A90135
:10084000A801A7013C30A60083120313542283168B
:100850000317180884008313191883177A08831262
:10086000EF007908EE007808ED007708EC00023020
:100870005A07F8005B08FA000318FA0A780883168A
:1008800090007A0891009301040892001310831BD2
:10089000131483149430840083178312670883161B
:1008A000A500831266088316A400831265088316C8
:1008B000A300831264088316A200A901A8010E30C8
:1008C000A7001030A60083120313542283160317C7
:1008D0001408F7001508F8001608F9001708FA00C0
:1008E0001208840083131318831717089B00160837
:1008F0009A0015089900140898009D0104089C00AE
:100900001D10831B1D1483149E3084008317170849
:10091000A5001608A4001508A3001408A200A90148
:10092000A801A7013C30A6008312031354228316AA
:1009300003171C08840083131D18831710088400F4
:100940008313111883171E08800083125A0884002D
:1009500083135B1883176808800001305A078400EE
:1009600083135B1883176C088000031308000317B8
:1009700064088316AB000A30AC00831203132F20E7
:10098000780EF700F030F7057708F0390317E50027
:1009900064088316AB000A30AC00831203132F20C7
:1009A00077080F3903176504F800031308002016B1
:1009B00020088316870000008312A01520088316E4
:1009C0008700000083120712201220088316870078
:1009D000000083128711A011200883168700D030F1
:1009E00083120317EF000313482003176508EF0075
:1009F0000313482003176608EF0003134820201252
:100A000020088316870000008312A0152008831693
:100A100087008312871D0A2D00000E2D000020166E
:100A2000200883168700000083120800031763085C
:100A3000E4000313B72478080317E400E501640811
:100A4000E6000313D72403176208E4000313B72456
:100A500078080317E4000130E5006408E60003139A
:100A6000D72403176108E4000313B72478083F393B
:100A70000317E4000230E5006408E6000313D724FE
:100A8000080003175408F8005508FA007808D60043
:100A90007A08D7005708D9005608D80005305807FB
:100AA000F8005908FA000318FA0A7808DA007A08F8
:100AB000DB005B08DD005A08DC005C08840083135F
:100AC0005D1883170008DE0001305C078400831383
:100AD0005D1883170008DF0002305C078400831371
:100AE0005D1883170008E0005E08E1005F08E2007F
:100AF0006008E300031316250800F801F901F70167
:100B0000FA0103174E08031D882D4D080319A22D65
:100B10001030CF000310CB0DCC0DF70DFA0D4E08A1
:100B20007A02031D952D4D087702031C9E2D4D085A
:100B3000F702031CFA034E08FA020314F80DF90D2C
:100B4000CF0B8A2D0313080003174708CC00460873
:100B5000CB004808CD00CE01CE014D084E0203184F
:100B6000BA2D4E084B07840083134C18831780015D
:100B7000CE0AAD2DC901C408031DC12DC508031936
:100B8000E52D4508CC004408CB00CE010A30CD004D
:100B900003137D2577080317CA0049084607840018
:100BA0008313471883174A088000C90A4508CC00F8
:100BB0004408CB00CE010A30CD0003137D2579080F
:100BC0000317C5007808C400BB2D031308000317E2
:100BD0003908840083133A1883170008C200BB0841
:100BE0000319192E03303907840083133A18831729
:100BF00000080139013C031D192E390884008313B4
:100C00003A1883178008031D082E0C30C200192ED5
:100C10003908840083133A18831700080C3C031822
:100C2000192E3908840083133A1883170C300002F8
:100C3000C200C5014208C4000130C7003C30C600F4
:100C40000230C8000313A4250130031739078400BC
:100C500083133A1883170008C300C5014308C40072
:100C60000130C7003E30C6000230C8000313A4257F
:100C7000023003173907840083133A1883170008DA
:100C8000C300C5014308C4000130C7004030C6009E
:100C90000230C8000313A4253C30F8000130F900ED
:100CA000080001300317B800B9018316031385113A
:100CB0008312851183168510831285100317B901DD
:100CC0003708390203188E2E39083507840083133C
:100CD000361883170008BA000130B8003808083CFD
:100CE000031C8C2E3A18782E031305107A2E031746
:100CF0000313051483160510031083120317BA0C8F
:100D000083160313851183128515831685118312AB
:100D100085110317B80A6E2EB90A602E83160313C5
:100D200085108312851483168510831285100800A0
:100D30000317B4080319D12E3208B6003108B500E4
:100D40003308B700B801B801370838020318D02EAD
:100D500038083507F8003608FA000318FA0A780848
:100D6000B9007A08BA0038083507840083133618AA
:100D70008317000803130420F800031739088400C0
:100D800083133A18831778088000380835078400E1
:100D9000831336188317000808388000B80AA42E79
:100DA000FC2E3208B6003108B5003308B700B80190
:100DB000B801370838020318FC2E38083507F80048
:100DC0003608FA000318FA0A7808B9007A08BA0057
:100DD0003808350784008313361883170008031377
:100DE0000420F80003173908840083133A18831786
:100DF00078088000B80AD92E3208B6003108B5004C
:100E00003308B700031351260800193003171F07D2
:100E1000840083132018831700080139013C031D47
:100E2000772F1F08F8002008FA007808A2007A0837
:100E3000A3002308A5002208A4002108A600A701FA
:100E4000A801A901AA012408F8002508FA007808D9
:100E5000B1007A08B200BA003108B900BB0103132F
:100E6000E7257908FA0078080317B1007A08B2007C
:100E70000130B4002B30B3000630F8003108840094
:100E80008313321883170008F70033088400831394
:100E90003418831777088000B30A0319B40AB10A1B
:100EA0000319B20AF80B3E2F2D08A7002E08A80040
:100EB0002B08A9002C08AA00A6080319692F0730DF
:100EC0002407840083132518831700080139A6001E
:100ED0006B2F0130A6000130B2002730B100043082
:100EE000B3002608B40003139826D42F0317193033
:100EF0001F07840083132018831700080139031D7E
:100F0000D52F1F08F8002008FA007808A2007A08F8
:100F1000A3002308A5002208A400A601A701A80198
:100F2000A9012408F8002508FA007808B0007A081A
:100F3000B100BA003008B900BB010313E7257908F6
:100F4000FA0078080317B0007A08B1000130B30046
:100F50002A30B2000630F8003008840083133118BC
:100F600083170008F70032088400831333188317AF
:100F700077088000B20A0319B30AB00A0319B10A4C
:100F8000F80BAC2F2E08A6002F08A7002C08A800ED
:100F90002D08A9000130B2002630B1000430B300A2
:100FA0000130B40003139826031703130800031736
:100FB000E101E201E301031316250800203084005B
:100FC000831700080319F12F0630F800F701F70B1B
:100FD000E72FF80BE62F7B30F700F70BED2F800B98
:040FE000E42F0800F2
:101000001C3003171F078400831320188317000860
:10101000A1001A301F0784008313201883170008CB
:10102000A20003130B08F7008B13031721088D0090
:1010300022088C0083168C130C1555308D00AA30B5
:101040008D008C148C1822280C117708831203133E
:101050008B041D3003171F07840083132018831788
:101060000008A1001B301F0784008313201883177A
:101070000008A20003130B08F7008B1303172108C5
:101080008D0022088C0083168C130C1555308D00B2
:10109000AA308D008C148C184B280C117708831201
:1010A00003138B0408005908F63E0318F42B0A3E7C
:1010B000F72B83168611831286150317A601A50147
:1010C000A8010130A700AA010230A900AC01033039
:1010D000AB00AE010430AD00B0010530AF00B2018D
:1010E0000630B100B4010730B3002508D10027084D
:1010F000D2002908D30029088D0083168C130C1404
:1011000083120C080139F8004E1078184E14250887
:101110008D0083168C130C1483120C08D50055080F
:101120008316AB000330AC008A11831203132F2007
:101130008A1577080317CF0027088D0083168C13B4
:101140000C1483120C08D50055088316AB0003302D
:10115000AC008A11831203132F208A157708031716
:10116000D000D008031DB928CF08031DB9280230CC
:10117000D00000304E180130013A03130319C4287F
:10118000013A03195C29F22963300317E2003B306E
:10119000E3002C08E5002B08E4002E08E7002D08EA
:1011A000E6003008E9002F08E8003208EB003108BB
:1011B000EA003408ED003308EC0064088D00831663
:1011C0008C130C1483120C08EE0001306207EF0040
:1011D0006E088316AB0083126F088316AC008A1169
:1011E000831203132F208A157708831603179A009A
:1011F000831266088D0083168C130C1483120C085E
:10120000EE0001306307EF006E088316AB00831217
:101210006F088316AC008A11831203132F208A15DE
:101220007708831603179B009C01831262088316BC
:101230009F00831263088316A0003B30A100831235
:1012400064088316A500831266088316A40083121F
:1012500068088316A60083126A088316A700831203
:101260006C088316A8009030F8000130F900790866
:10127000FA0078088312DC007A08DD000130DF0014
:101280003530DE001930F8005C08840083135D18E7
:1012900083170008F7005E08840083135F18831724
:1012A00077088000DE0A0319DF0ADC0A0319DD0A69
:1012B000F80B44290313F22963300317E2002C08CA
:1012C000E4002B08E3002E08E6002D08E5003008B6
:1012D000E8002F08E7003208EA003108E900340886
:1012E000EC003308EB0083169F018312620883161B
:1012F000A0003B30A1009A01831263088D00831681
:101300008C130C1483120C08ED0001306207EE0000
:101310006D088316AB0083126E088316AC008A1129
:10132000831203132F208A157708831603179B0057
:10133000831265088D0083168C130C1483120C081D
:10134000ED000130831621078312EE006D0883162D
:10135000AB0083126E088316AC008A11831203134C
:101360002F208A157708831603179C0083126308C1
:101370008316A400831265088316A30083126708EE
:101380008316A600831269088316A70083126B08D0
:101390008316A8009030F8000130F9007908FA00AF
:1013A00078088312DC007A08DD000130DF00353078
:1013B000DE001930F8005C08840083135D18831781
:1013C0000008F7005E08840083135F18831777080E
:1013D0008000DE0A0319DF0ADC0A0319DD0AF80BB4
:1013E000DB2903130317CF08031D092A0130D50099
:1013F0003530D4008A110313D2228A150130031725
:10140000D5003530D4008A11031341258A15112ADD
:1014100003170130D5003530D4008A110313D222CE
:101420008A153530F8000130F9007908FA0078089B
:1014300003179F007A08A000A2013F30A1001F30CF
:10144000F8001F0884008313201883170008F70092
:101450002108840083132218831777088000A10ACB
:101460000319A20A9F0A0319A00AF80B212AA00156
:101470003F309F00A1018A11031305278A15F42B21
:10148000831686148312861C822ABE19822A0317A9
:10149000A0013F309F001A301F07840083132018DB
:1014A00083170008A1001A301F07F8002008FA006F
:1014B0000318FA0A7808A2007A08A3001B301F0755
:1014C00084008313201883170008A40022088400D6
:1014D000831323188317240880001B301F07840000
:1014E00083132018831721088000A0013F309F003C
:1014F000031300200317D5013F30D4008A110313D2
:1015000041258A15BE18872ABE140430D900F42B51
:101510000317D5013F30D4008A110313D2228A1554
:101520000317A0013F309F000130A1008A1103136F
:1015300005278A15BE189F2ABE140430D9008316C9
:1015400086148312861C632BBE19632B0317A0011C
:101550003F309F001B301F07F8002008FA000318D7
:10156000FA0A7808A1007A08A2001A301F0784003E
:101570008313201883170008A30021088400831315
:1015800022188317230880001A301F078400831352
:10159000201883178001A0013F309F001F08F8002A
:1015A0002008FA007808A1007A08A2002208A40006
:1015B0002108A300163023078400831324188317FF
:1015C0000008A5000530230784008313241883171F
:1015D0000008A60003130B08F7008B130317250858
:1015E0008D0026088C0083168C130C1555308D0049
:1015F000AA308D008C148C18FB2A0C1177088312EA
:1016000003138B0417300317230784008313241854
:1016100083170008A50006302307840083132418CD
:1016200083170008A60003130B08F7008B1303179A
:1016300025088D0026088C0083168C130C15553058
:101640008D00AA308D008C148C18242B0C11770877
:10165000831203138B0418300317230784008313AA
:10166000241883170008A50007302307840083137C
:10167000241883170008A60003130B08F7008B1328
:10168000031725088D0026088C0083168C130C1573
:1016900055308D00AA308D008C148C184D2B0C11F8
:1016A0007708831203138B040317A0013F309F00B8
:1016B000031300200317A0013F309F00A1018A11EE
:1016C000031305278A150317A0013F309F001F0849
:1016D000F8002008FA007808A1007A08A200220881
:1016E000A4002108A3002308F8002408FA007808C1
:1016F000A5007A08A6002608A8002508A700270844
:1017000084008313281883178008031D992B013048
:10171000270784008313281883178008031D992B3B
:1017200002302707840083132818831780080319C1
:101730009B2B00309C2B0130F80078087808F808C3
:101740000319A62B01300313D90003170313F42B3D
:10175000F42B8A11D7278A1503179F01A001A10135
:10176000A20101309F000930A0000130A100A200B9
:10177000B6001F30B5000430B7008A11031351269C
:101780008A15083003179F00FA30A0008A1103134E
:10179000DE278A1503179F0BC42B09300313D900CA
:1017A0000530DE008A11D7278A150317D5013F308F
:1017B000D4008A110313D2228A150317A0013F30E7
:1017C0009F00A1018A11031305278A15A913F42B81
:1017D000831686148312861CF42B83160614831238
:1017E000061CF42B5E08D9008A110A1603280A1475
:1017F0008A140A11FE3E03188A0A8200402AA82B86
:10180000882A5928A92BF42BF42BF42BF42BE82B42
:10181000193003171F07840083132018831700084B
:101820000139013C031D702C1F08F8002008FA0044
:101830007808A1007A08A2002208A4002108A300C9
:10184000A501A601A701A8010A302307F800240872
:10185000FA000318FA0A7808AF007A08B000BA0054
:101860002F08B900BB018A110313E7258A157908EF
:10187000FA0078080317AF007A08B0000130B20010
:101880002930B1000630F8002F0884008313301887
:1018900083170008F7003108840083133218831778
:1018A00077088000B10A0319B20AAF0A0319B00A17
:1018B000F80B442C2B08A5002C08A6002908A7002B
:1018C0002A08A8000130B2002530B1000430B3006E
:1018D0000130B4008A11031398268A15D42C0317FB
:1018E00019301F078400831320188317000801395B
:1018F000031DD52C1F08F8002008FA007808A10065
:101900007A08A2002208A4002108A300A501A601CC
:10191000A701A8010A302307F8002408FA000318D9
:10192000FA0A7808AF007A08B000BA002F08B900A8
:10193000BB018A110313E7258A157908FA00780894
:101940000317AF007A08B0000130B2002930B100AF
:101950000630F8002F08840083133018831700081E
:10196000F70031088400831332188317770880004A
:10197000B10A0319B20AAF0A0319B00AF80BAA2C6C
:101980002D08A5002E08A6002B08A7002C08A800EB
:101990000130B2002530B1000430B3000130B40092
:1019A0008A11031398268A150317031308000B30B6
:1019B00003172307F8002408FA000318FA0A780826
:1019C000A5007A08A6000B3023078400831324188F
:1019D00083170008A70010302307840083132418FE
:1019E000831700082702031DF72C0030FF2C0B3053
:1019F0002307840083132418831701300007A700EE
:101A000025088400831326188317270880000313F2
:101A100008008316861483128618102DE20A122DF0
:101A2000E201BE146208133C0318182DBE10E20137
:101A30001F30A7000D30A8008A150A120E2E09309B
:101A4000A7000D30A8008A150A120E2E0800831672
:101A50000614831206182E2DE30A302DE3013E15DD
:101A600063080C3C0318362D3E11E3013D30AE00F7
:101A70000D30AF008A150A120E2E2730AE000D3041
:101A8000AF008A150A120E2E08000130BE064E3035
:101A9000BC000D30BD008A150A120E2E4530BC0068
:101AA0000D30BD008A150A120E2E08000030F80015
:101AB00006389200FF30831692008312201120080E
:101AC00083168700831207110E30970083169B013F
:101AD0009C0101309D0002308312E400FA300317AC
:101AE000A0008A110313DE278A15E40B6E2DFF3048
:101AF000831695008113950083128A150A129F2D73
:101B000003081F398300FF30A0003E14BE143E15A9
:101B1000BE153E16DF01E201E30183160317090833
:101B2000C039890003131F129F1200300317880069
:101B3000831287018801890183130313562D033013
:101B4000D900A201A4010530A300A601A501093016
:101B5000A7000D30A800A901AB010530AA00AD0116
:101B60000130AC002730AE000D30AF00B001B20143
:101B70000130B100B401B3010030B5001030B6003F
:101B8000B701B9011430B800BB010230BA004530CA
:101B9000BC000D30BD00A10183160108C039073813
:101BA00081003D30831281000B110310210DF700DD
:101BB0008A1123208A15F900013077078A11232022
:101BC0008A15FA007908840083137A1883170008AD
:101BD000F900840A0008F700840A0008F800840A63
:101BE000800A0008FA00031DF82D840A800A840385
:101BF000840A00087802031D102E77087A02031D5C
:101C0000102E84038001840A8001840AF91B102E9F
:101C1000840A00088A0084030008820083120313E8
:101C2000A10A04302102031DD52DA10101080B1DBD
:0E1C30001B2E8316D12D162EFF30A10063004F
:102000000A128A1553280A168A1105305902FC3E15
:102010000318322C043E4D2C0317A0013F309F00C3
:10202000A1010A12031305270A16831686148312C8
:10203000861C5028BE1950280317A0013F309F006E
:102040000230A1001B301F07F8002008FA00031817
:10205000FA0A7808A2007A08A3001A301F07840041
:102060008313201883170008A40022088400831318
:1020700023188317240880001A301F078400831355
:102080002018831721088000A0013F309F000A120A
:102090008A15031300200A168A110A12D7270A1676
:1020A0003E1957283E150630D900B713A917322C10
:1020B0003E1C65280317A0013F309F000A128A15B5
:1020C000031308240A168A1140290317A0013F3080
:1020D0009F0019301F0784008313201883170008FE
:1020E0000139013C031DD6281F08F8002008FA001A
:1020F0007808A1007A08A2002208A4002108A30001
:10210000A501A601A701A8010A302307F8002408A9
:10211000FA000318FA0A7808AF007A08B000BA008B
:102120002F08B900BB010A120313E7250A16790824
:10213000FA0078080317AF007A08B0000130B20047
:102140002930B1000630F8002F08840083133018BE
:1021500083170008F70031088400831332188317AF
:1021600077088000B10A0319B20AAF0A0319B00A4E
:10217000F80BA4282B080A12031304200A16F800EF
:102180000317A5002C080A12031304200A160838A6
:102190000317A6000130B6002530B5000430B700A3
:1021A0000A12031351260A164029031719301F0774
:1021B000840083132018831700080139031D412967
:1021C0001F08F8002008FA007808A1007A08A20089
:1021D0002208A4002108A300A501A601A701A801C7
:1021E0000A302307F8002408FA000318FA0A7808CE
:1021F000AF007A08B000BA002F08B900BB010A127C
:102200000313E7250A167908FA0078080317AF00C8
:102210007A08B0000130B2002930B1000630F80071
:102220002F0884008313301883170008F700310843
:10223000840083133218831777088000B10A0319CA
:10224000B20AAF0A0319B00AF80B10292D080A12B6
:10225000031304200A16F8000317A5002E080A121B
:10226000031304200A1608380317A6000130B6002D
:102270002530B5000430B7000A12031351260A16A0
:10228000031783160313861483128618CA2983162C
:10229000861483128618CA290317A0013F309F00B5
:1022A00019301F0784008313201883170008013991
:1022B000013C031D97291F08F8002008FA00780840
:1022C000A1007A08A2002208A4002108A3000A3075
:1022D0002307F8002408FA000318FA0A7808A50072
:1022E0007A08A6000A302307840083132418831772
:1022F0000008A7000F3023078400831324188317D6
:1023000000082702031D862900308E290A30230782
:10231000840083132418831701300007A7002508C1
:10232000840083132618831727088000B3291930E7
:102330001F07840083132018831700080139031D29
:10234000B3291F08F8002008FA007808A100200827
:10235000A200A4002108A3000A128A150313D7249F
:102360000A168A110317A0013F309F000A128A152E
:10237000031308240A168A11023003179F009630AF
:10238000A0000A120313DE270A1603179F0BBF29AA
:10239000031347293E1AD1298316061483120618FF
:1023A000DF0A5F08013C0318D829DF010730D90094
:1023B000322C3E1CE6290317A0013F309F000A1271
:1023C0008A15031308240A168A11C52A0317A001C7
:1023D0003F309F0019301F07840083132018831794
:1023E00000080139013C031D592A1F08F800200884
:1023F000FA007808A1007A08A2002208A4002108A7
:10240000A300A501A601A701A8010A302307F8002F
:102410002408FA000318FA0A7808AF007A08B00016
:10242000BA002F08B900BB010A120313E7250A16E8
:102430007908FA0078080317AF007A08B000013075
:10244000B2002930B1000630F8002F088400831351
:10245000301883170008F7003108840083133218FE
:10246000831777088000B10A0319B20AAF0A03196B
:10247000B00AF80B252A0830A60029080A1203130F
:1024800004200A16F8000317A7002A080A120313EB
:1024900004200A16F8000317A8000130B600253002
:1024A000B5000430B7000A12031351260A16C52AD4
:1024B000031719301F07840083132018831700089F
:1024C0000139031DC62A1F08F8002008FA00780801
:1024D000A1007A08A2002208A4002108A300A501F7
:1024E000A601A701A8010A302307F8002408FA0072
:1024F0000318FA0A7808AF007A08B000BA002F086B
:10250000B900BB010A120313E7250A167908FA007D
:1025100078080317AF007A08B0000130B200293004
:10252000B1000630F8002F08840083133018831799
:102530000008F700310884008313321883177708E6
:102540008000B10A0319B20AAF0A0319B00AF80BE6
:10255000932A0830A6002B080A12031304200A1637
:10256000F8000317A7002C080A12031304200A1608
:10257000F8000317A8000130B6002530B50004307C
:10258000B7000A12031351260A1603178316031302
:10259000861483128618512B83168614831286188C
:1025A000512B0317A0013F309F0019301F078400F3
:1025B00083132018831700080139013C031DF32AF7
:1025C0001F08F8002008FA001F08A1002008A20038
:1025D000A4001F08A3000A128A150313D7240A16A1
:1025E0008A11392B031719301F0784008313201811
:1025F000831700080139031D382B1F08F800200835
:10260000FA007808A1007A08A2002208A400210894
:10261000A3000C302307F8002408FA000318FA0A74
:102620007808A5007A08A6000C30230784008313DD
:10263000241883170008A700113023078400831390
:102640002418831700082702031D282B0030302B85
:102650000C302307840083132418831701300007EC
:10266000A7002508840083132618831727088000F5
:1026700003130317A0013F309F000A128A150313AA
:1026800008240A168A11023003179F009630A00012
:102690000A120313DE270A1603179F0B462B031398
:1026A000CC2A3E1A5A2B831606148312061C5A2B68
:1026B0000830D900322C0317A0013F309F00A10140
:1026C000A201A301A40119301F078400831320185D
:1026D000831700080139013C031D762B2530A1002A
:1026E0002D30A2006730A300A400872B19301F07EC
:1026F000840083132018831700080139031D872BDA
:10270000B330A100BB30A2002530A300A4000130EB
:10271000B6002130B5000430B7000A120313512669
:102720000A16831686148312861C292CBE19292C9E
:102730000317A0013F309F0019301F078400831347
:102740002018831700080139013C031DE32B0C30CE
:102750001F07F8002008FA000318FA0A7808A100F9
:102760007A08A2000B301F078400831320188317F8
:102770000008A3002108840083132218831723086C
:1027800080000B301F07F8002008FA000318FA0A2F
:102790007808A1007A08A2000A301F07840083137A
:1027A000201883170008A30021088400831322182F
:1027B00083172308800019301F0784008313201813
:1027C00083170010282C19301F078400831320184A
:1027D000831700080139031D282C0A301F07F80051
:1027E0002008FA000318FA0A7808A1007A08A20063
:1027F0000B301F0784008313201883170008A300E1
:1028000021088400831322188317230880000B30CB
:102810001F07F8002008FA000318FA0A7808A10038
:102820007A08A2000C301F07840083132018831736
:102830000008A300210884008313221883172308AB
:10284000800019301F078400831320188317001499
:1028500003133E1A322C831606148312061C322CE4
:102860000530D900831686148312BE118618BE1552
:102870008316061483123E1206183E164530B50024
:102880001430B6008A150A120E2E0030B500103032
:10289000B6008A150A120E2E08000A108A100A15B0
:0A28A00082070C285828D9295B2B69
:04400E00822FFF3FBF
:00000001FF
;PIC16F886
;CRC=C19D  CREATED="08-Nov-17 16:15"
