:1000000009308A00E62900000A108A100A118207C6
:10001000F6346034D534F1346334B334B734E03477
:10002000F734F33401340834E734963497348734A2
:1000300067343734963475342534763417340434C1
:100040006434C33435340A108A100A11820722340A
:10005000003429340034303400343734003483160B
:1000600003173508F8013402031839283408F7005B
:100070004528F7010830B600B40DF70D35087702B2
:100080000318F700F80DB60B3C2883120313080081
:100090000830F80000008711A0112008831687009F
:1000A00000000317970D831203130712031C5E2829
:1000B0002016200883168700622883122012200849
:1000C0008316870000008312A0152008831687007E
:1000D0008312871D6928F80B4A2800008711A01198
:1000E000200883168700000083122016200883163C
:1000F0008700000000008312A015200883168700E7
:100100008312871D8128F8010000071A78148711CF
:10011000A0112008831687008312071220122008DE
:100120008316870083120800831603179601831233
:100130000313201620088316870000008312A015E1
:10014000200883168700000083120712201220085F
:1001500083168700000083128711A01120088316E0
:100160008700D030031797008312031348208316AB
:100170000317150897008312031348202016200840
:100180008316870000008312A015200883168700BD
:1001900000008312871DCA28071220122008831628
:1001A0008700000083128711A011200883168700A2
:1001B000D13003179700831203134820F70108304A
:1001C00083160317980077089900831203132016EB
:1001D00020088316870000008312A01520088316CC
:1001E00087008312871DF228071A0314071E0310C5
:1001F000F80D0000A01120088316870083128711D4
:1002000083160317980BE528831203132016200882
:10021000831687000000831207128316031719083C
:10022000031919298312031320122008831687004B
:100230000317000083120313A015200883168700FC
:100240008312871D212900008711A0112008831621
:1002500087000000831207122012200883168700EF
:1002600078080317960083120313201220088316C0
:10027000870000008312A0152008831687008312D0
:10028000871D4029000044290000201620088316FD
:100290008700000003171608F800831203130800F4
:1002A0008316031715080F3996001508F039F70063
:1002B000F70E0F30F70577089800180899000A30F4
:1002C0009A00F701F801190803101A18F707F70C3C
:1002D000F80C9A18F707F70CF80C1A19F707F70C2F
:1002E000F80C9A19F707F70CF80C1A1AF707F70C1D
:1002F000F80C9A1AF707F70CF80C1A1BF707F70C0B
:10030000F80C9A1BF707F70CF80C78081607F8009A
:10031000831203130800203083160317BA00B601B6
:10032000B701B801B9013108FA003008F9002F0807
:10033000F8002E08F7000310771CAC293208B60726
:1003400033080318330FB70734080318340FB807FE
:1003500035080318350FB907B90CB80CB70CB60C33
:10036000FA0CF90CF80CF70CBA0B9B298312031347
:100370000800831603171A08840083131B188317B9
:100380000008AB01AA01A901A800AD010408AC0056
:100390002D10831B2D142B08B1002A08B00029084A
:1003A000AF002808AE00B501B4010E30B300103024
:1003B000B200831203138B21831603172C088400C9
:1003C00083132D1883177A089F0079089E007808F8
:1003D0009D0077089C0001301A07840083131B18C6
:1003E00083170008AB01AA01A901A800AD01040808
:1003F000AC002D10831B2D142B08B1002A08B0006F
:100400002908AF002808AE00B501B401B3013C30A3
:10041000B200831203138B21831603172C08840068
:1004200083132D1883177A08A3007908A20078088F
:10043000A1007708A00020081C07A8001D08A9003B
:1004400021080318210FA9071E08AA002208031873
:10045000220FAA071F08AB0023080318230FAB07BE
:1004600002301A07840083131B188317000828071B
:10047000A4002908A500003003180130A5072A08A8
:10048000A600003003180130A6072B08A700003093
:1004900003180130A7072408F7002508F8002608EC
:1004A000F9002708FA0083120313080083185B2A57
:1004B000B23084008317831603172D083106803964
:1004C000B700AD1F6E2AAA09AB09AC09AD09AA0A8B
:1004D0000319AB0A0319AC0A0319AD0AB11F7B2A31
:1004E000AE09AF09B009B109AE0A0319AF0A031981
:1004F000B00A0319B10AF701F801F901FA01B201D2
:10050000B301B401B501310830042F042E040319DE
:10051000B92A2030B6000310AA0DAB0DAC0DAD0DFD
:10052000B20DB30DB40DB50D31083502031DA22A6D
:1005300030083402031DA22A2F083302031DA22A09
:100540002E083202031CB32A2E08B2022F08031C05
:100550002F0FB3023008031C300FB4023108031C04
:10056000310FB5020314F70DF80DF90DFA0DB60BA6
:100570008B2AB71FC62AF709F809F909FA09F70AF9
:100580000319F80A0319F90A0319FA0A3208800054
:10059000840A33088000840A34088000840A3508FD
:1005A000800083120313080003175B08F8005C083F
:1005B000FA007808DD007A08DE005E08E0005D08D9
:1005C000DF0006305F07F8006008FA000318FA0A37
:1005D0007808E1007A08E200EF01831690019101AA
:1005E0009501831203139420780883160317910052
:1005F00011089500831203135021780883160317FE
:10060000910001309500831203139420780883161B
:1006100003179000100895008312031350217808E7
:100620008316031790000230950083120313942061
:1006300078083F390317EF006F088316950083127F
:100640000313502178080317EF006F0883169800F2
:100650001008990011089A0018089B0019089C00BE
:100660001A089D009B30F8000130F9007908FA0063
:10067000780892007A089300013095006930940060
:100680000630F8001208840083131318831700083B
:10069000F700140884008313151883177708800067
:1006A000940A0319950A920A0319930AF80B422B2C
:1006B0006930F8000130F9007908FA0078088312EF
:1006C000E3007A08E4000630F8006308840083132E
:1006D000641883170008F700610884008313621808
:1006E000831777088000E10A0319E20AE30A031975
:1006F000E40AF80B652B6008E2005F08E1000630B1
:100700006107F8006208FA000318FA0A78088316ED
:1007100098007A0899009B0018089A008312031326
:10072000B9217A080317E6007908E5007808E400A3
:100730007708E3000C306107F8006208FA0003183C
:10074000FA0A7808831698007A0899009B0018081E
:100750009A0083120313B9217A080317EA00790873
:10076000E9007808E8007708E70063086702EB0013
:100770006808EC006408031C640FEC026908ED00D3
:100780006508031C650FED026A08EE006608031C8D
:10079000660FEE02EE1FD12BF701F801F901FA0105
:1007A000D92B6B08F7006C08F8006D08F9006E088B
:1007B000FA007A08EE007908ED007808EC00770876
:1007C000EB0083106E088316AD0083126D0883164C
:1007D000AC0083126C088316AB0083126B0883167F
:1007E000AA00B101B0010E30AF001030AE0083128C
:1007F000031356227A088316031793007908920090
:10080000780891007708900083149830840083174B
:1008100083126E088316AD0083126D088316AC0038
:1008200083126C088316AB0083126B088316AA0030
:10083000B101B0010E30AF001030AE0083120313CF
:100840005622831603171B089F001A089E001908DA
:100850009D0018089C00A1010408A0002110831B22
:10086000211483101B08AD001A08AC001908AB0056
:100870001808AA00B101B001AF013C30AE008312EC
:1008800003135622831603172008840083132118AC
:1008900083177A08970079089600780895007708FA
:1008A0009400023083126107F8006208FA0003180E
:1008B000FA0A7808831698007A0899009B010408C0
:1008C0009A001B10831B1B1483149C308400831715
:1008D00083126E088316AD0083126D088316AC0078
:1008E00083126C088316AB0083126B088316AA0070
:1008F000B101B0010E30AF001030AE00831203130F
:100900005622831603171C08F7001D08F8001E085E
:10091000F9001F08FA001A08840083131B188317B4
:100920001F08A3001E08A2001D08A1001C08A000AB
:10093000A5010408A4002510831B25148314A630E8
:10094000840083171F08AD001E08AC001D08AB0013
:100950001C08AA00B101B001AF013C30AE00831207
:1009600003135622831603172408840083132518C3
:10097000831718088400831319188317260880002A
:10098000831261088400831362188317831610088A
:10099000800001308312610784008313621883177B
:1009A00083161408800083120313080003176B08D2
:1009B0008316B4000A30B500831203132F20780E7B
:1009C000F700F030F7057708F0390317EC006B08F3
:1009D0008316B4000A30B500831203132F20770862
:1009E0000F3903176C04F8000313080020162008C1
:1009F0008316870000008312A01520088316870045
:100A000000008312071220122008831687000000BE
:100A100083128711A011200883168700D030031796
:100A2000970083120313482003176C08831697005E
:100A300083120313482003176D088316970083124F
:100A40000313482020122008831687000000831219
:100A5000A0152008831687008312871D2D2D000006
:100A6000312D000020162008831687000000831215
:100A7000080003176A08EB000313D624780803174D
:100A8000EB00EC016B08ED000313F6240317690873
:100A9000EB000313D62478080317EB000130EC00B9
:100AA0006B08ED000313F62403176808EB0003132B
:100AB000D62478083F390317EB000230EC006B08AE
:100AC000ED000313F624080003175B08F8005C0828
:100AD000FA007808DD007A08DE005E08E0005D08B4
:100AE000DF0006305F07F8006008FA000318FA0A12
:100AF0007808E1007A08E2006208E4006108E30097
:100B0000630884008313641883170008E50001302C
:100B1000630784008313641883170008E60002301B
:100B2000630784008313641883170008E7006508CF
:100B3000E8006608E9006708EA00031339250800A1
:100B4000F801F901F701FA0103175208031DAB2D53
:100B500051080319C52D1030D3000310CF0DD00D4F
:100B6000F70DFA0D52087A02031DB82D51087702CD
:100B7000031CC12D5108F702031CFA035208FA02A4
:100B80000314F80DF90DD30BAD2D03130800031753
:100B90004B08D0004A08CF004C08D100D201D20146
:100BA000510852020318DD2D52084F0784008313A9
:100BB000501883178001D20AD02DCD01C808031D1B
:100BC000E42DC9080319082E4908D0004808CF00B1
:100BD000D2010A30D1000313A02577080317CE00F5
:100BE0004D084A07840083134B1883174E08800072
:100BF000CD0A4908D0004808CF00D2010A30D10000
:100C00000313A02579080317C9007808C800DE2D52
:100C10000313080003173D08840083133E1883174D
:100C20000008C600BF0803193C2E03303D078400AE
:100C300083133E18831700080139013C031D3C2E25
:100C40003D08840083133E1883178008031D2B2E54
:100C50000C30C6003C2E3D08840083133E188317D9
:100C600000080C3C03183C2E3D08840083133E18FA
:100C700083170C300002C600C9014608C8000130C5
:100C8000CB004030CA000230CC000313C72501302E
:100C900003173D07840083133E1883170008C7001D
:100CA000C9014708C8000130CB004230CA000230F9
:100CB000CC000313C725023003173D0784008313BC
:100CC0003E1883170008C700C9014708C800013053
:100CD000CB004430CA000230CC000313C72540309B
:100CE000F8000130F900080001300317BC00BD0115
:100CF00083160313851183128511831685108312C1
:100D000085100317BD013B083D020318B12E3D08B5
:100D10003907840083133A1883170008BE00013096
:100D2000BC003C08083C031CAF2E3E189B2E03134E
:100D300005109D2E031703130514831605100310C9
:100D400083120317BE0C83160313851183128515B6
:100D500083168511831285110317BC0A912EBD0AD3
:100D6000832E831603138510831285148316851032
:100D70008312851008000317B8080319F42E3608EB
:100D8000BA003508B9003708BB00BC01BC013B08FC
:100D90003C020318F32E3C083907F8003A08FA0021
:100DA0000318FA0A7808BD007A08BE003C08390723
:100DB000840083133A188317000803130420F800F3
:100DC00003173D08840083133E18831778088000BA
:100DD0003C083907840083133A1883170008083841
:100DE0008000BC0AC72E1F2F3608BA003508B9008C
:100DF0003708BB00BC01BC013B083C0203181F2F95
:100E00003C083907F8003A08FA000318FA0A78088B
:100E1000BD007A08BE003C083907840083133A18E5
:100E20008317000803130420F80003173D0884000B
:100E300083133E18831778088000BC0AFC2E3608FE
:100E4000BA003508B9003708BB0003137426080040
:100E50001C3003172307840083132418831700080A
:100E60000139013C031D9A2F2308F8002408FA00D9
:100E70007808A6007A08A7002708A9002608A80075
:100E80002508AA00AB01AC01AD01AE012808F800AD
:100E90002908FA007808B5007A08B600BE003508BF
:100EA000BD00BF0103130A267908FA00780803176A
:100EB000B5007A08B6000130B8002F30B700063010
:100EC000F800350884008313361883170008F700EC
:100ED0003708840083133818831777088000B70A0F
:100EE0000319B80AB50A0319B60AF80B612F3108BD
:100EF000AB003208AC002F08AD003008AE00AA08E5
:100F000003198C2F083028078400831329188317AE
:100F100000080139AA008E2F0130AA000130B60066
:100F20002B30B5000430B7002A08B8000313BB26E5
:100F3000F72F03171C30230784008313241883170B
:100F400000080139031DF82F2308F8002408FA00CF
:100F50007808A6007A08A7002708A9002608A80094
:100F6000AA01AB01AC01AD012808F8002908FA007C
:100F70007808B4007A08B500BE003408BD00BF018F
:100F800003130A267908FA0078080317B4007A08D0
:100F9000B5000130B7002E30B6000630F800340836
:100FA00084008313351883170008F700360884007F
:100FB00083133718831777088000B60A0319B70A16
:100FC000B40A0319B50AF80BCF2F3208AA00330868
:100FD000AB003008AC003108AD000130B6002A305B
:100FE000B5000430B7000130B8000313BB26031767
:040FF00003130800DF
:101000001F30031723078400831324188317000855
:10101000A5001D30230784008313241883170008BC
:10102000A60003130B08F7008B13031725088D0088
:1010300026088C0083168C130C1555308D00AA30B1
:101040008D008C148C1822280C117708831203133E
:101050008B0420300317230784008313241883177D
:101060000008A5001E30230784008313241883176B
:101070000008A60003130B08F7008B1303172508BD
:101080008D0026088C0083168C130C1555308D00AE
:10109000AA308D008C148C184B280C117708831201
:1010A00003138B0408000317E801E901EA018A1120
:1010B000031339258A15080024308400831700089B
:1010C00003196F280630F800F701F70B6528F80BB5
:1010D00064287B30F700F70B6B28800B6228080030
:1010E0001C30031723078400831324188317000878
:1010F0000139013C031DD8282308F8002408FA0010
:101100007808A5007A08A6002608A8002508A700E8
:10111000A901AA01AB01AC010C302707F80028088F
:10112000FA000318FA0A7808B3007A08B400BE007F
:101130003308BD00BF018A1103130A268A157908F6
:10114000FA0078080317B3007A08B4000130B6003B
:101150002D30B5000630F8003308840083133418AE
:1011600083170008F70035088400831336188317A7
:1011700077088000B50A0319B60AB30A0319B40A3E
:10118000F80BAC282F08A9003008AA002D08AB00E6
:101190002E08AC000130B6002930B5000430B7008D
:1011A0000130B8008A110313BB268A153C290317A6
:1011B0001C30230784008313241883170008013987
:1011C000031D3D292308F8002408FA007808A5002B
:1011D0007A08A6002608A8002508A700A901AA01E8
:1011E000AB01AC010C302707F8002808FA000318FF
:1011F000FA0A7808B3007A08B400BE003308BD00CC
:10120000BF018A1103130A268A157908FA007808A3
:101210000317B3007A08B4000130B6002D30B500D2
:101220000630F8003308840083133418831700084D
:10123000F700350884008313361883177708800079
:10124000B50A0319B60AB30A0319B40AF80B12292E
:101250003108A9003208AA002F08AB003008AC0002
:101260000130B6002930B5000430B7000130B800B5
:101270008A110313BB268A150317031308000D30C8
:1012800003172707F8002808FA000318FA0A780855
:10129000A9007A08AA000D302707840083132818B4
:1012A00083170008AB001330270784008313281826
:1012B000831700082B02031D5F29003067290D30BA
:1012C0002707840083132818831701300007AB0019
:1012D0002908840083132A1883172B08800003131E
:1012E000080083168614831286187829E30A7A295F
:1012F000E301BE146308133C03188029BE10E30108
:101300008730A7000930A8008A150A12742A7130A4
:10131000A7000930A8008A150A12742A080083164B
:101320000614831206189629E40A9829E4013E154A
:1013300064080C3C03189E293E11E401A530AE0060
:101340000930AF008A150A12742A8F30AE000930B6
:10135000AF008A150A12742A08000130BE06B630A2
:10136000BC000930BD008A150A12742AAD30BC00D9
:101370000930BD008A150A12742A08000030F800EE
:1013800006389200FF308316920083122011200845
:1013900083168700831207110E30970083169B0176
:1013A0009C0101309D0002308312E500FA300317E2
:1013B000A40003135C20E50BD629FF3083169500AB
:1013C0008113950083128A150A12052A03081F3912
:1013D0008300FF30A0003E14BE143E15BE153E161D
:1013E000E201E301E401831603170908C03989000B
:1013F00003131F129F120030031788008312870106
:101400008801890183130313BE290330DC00A20184
:10141000A4010530A300A601A5017130A700093081
:10142000A800A901AB010530AA00AD010130AC0054
:101430008F30AE000930AF00B001B2010130B10011
:10144000B401B3010030B5001030B600B701B901E6
:101450001430B800BB010230BA00AD30BC00093016
:10146000BD00A10183160108C039073881003D3055
:10147000831281000B110310210DF7008A11232024
:101480008A15F900013077078A1123208A15FA009E
:101490007908840083137A1883170008F900840AF6
:1014A0000008F700840A0008F800840A800A00088F
:1014B000FA00031D5E2A840A800A8403840A000855
:1014C0007802031D762A77087A02031D762A8403A0
:1014D0008001840A8001840AF91B762A840A0008A4
:1014E0008A0084030008820083120313A10A0430D7
:1014F0002102031D3B2AA10101080B1D812A83162D
:0A150000372A7C2AFF30A1006300A7
:102000005C08F63E0318052F0A3E202F0317AA018D
:10201000A901AC010130AB00AE010230AD00B0014E
:102020000330AF00B2010430B100B4010530B30099
:10203000B6010630B500B8010730B7002908D8004E
:102040002B08D9002D08DA002D088D0083168C137B
:102050000C1483120C080139F80055107818551427
:1020600029088D0083168C130C1483120C08DC00D5
:102070005C088316B4000330B5000A128312031300
:102080002F200A1677080317D6002B088D00831619
:102090008C130C1483120C08DC005C088316B4004B
:1020A0000330B5000A12831203132F200A16770893
:1020B0000317D700D708031D6228D608031D62281E
:1020C0000230D700003055180130013A03130319CC
:1020D0006D28013A03190B299F2963300317E90082
:1020E0003B30EA003008EC002F08EB003208EE002D
:1020F0003108ED00340883169100831233088316EB
:1021000090008312360883169300831235088316D5
:1021100092008312380883169500831237088316BD
:10212000940083126B088D0083168C130C14831299
:102130000C088316B2000130831269078316B300BE
:102140003208B4003308B5000A12831203132F209B
:102150000A16770883160317A20083126D088D00F4
:1021600083168C130C1483120C088316B2000130F2
:1021700083126A078316B3003208B4003308B5002F
:102180000A12831203132F200A16770883160317E7
:10219000A300A401831269088316A80083126A08A9
:1021A0008316A9003B30AA0083126B088316AE0089
:1021B00083126D088316AD001008AF001208B0003E
:1021C0001408B1009630F8000130F9007908FA00DF
:1021D00078088312E3007A08E4000130E600393021
:1021E000E5001C30F800630884008313641883172B
:1021F0000008F700650884008313661883177708C2
:102200008000E50A0319E60AE30A0319E40AF80B59
:10221000F32803139F2963300317E9003008EB000C
:102220002F08EA003208ED003108EC003408EF0016
:102230003308EE00360883169100831235088316A2
:102240009000831238088316930083123708831690
:102250009200A601831269088316A7003B30A800EC
:10226000A00183126A088D0083168C130C1483124C
:102270000C088316B0000130831269078316B10081
:102280003008B4003108B5000A12831203132F205E
:102290000A16770883160317A10083126C088D00B5
:1022A00083168C130C1483120C088316B0000130B3
:1022B0002807B1003008B4003108B5000A128312B3
:1022C00003132F200A16770883160317A200831220
:1022D0006A088316AB0083126C088316AA00831267
:1022E0006E088316AD001008AE001208AF009430DF
:1022F000F8000130F9007908FA0078088312E30049
:102300007A08E4000130E6003930E5001C30F800BE
:10231000630884008313641883170008F7006508B6
:10232000840083136618831777088000E50A031971
:10233000E60AE30A0319E40AF80B882903130317D2
:10234000D608031DB6290130DC003930DB000A1243
:102350000313D4220A1601300317DC003930DB00E6
:102360000A12031364250A16BE2903170130DC0084
:102370003930DB000A120313D4220A163930F80070
:102380000130F9007908FA0078080317A3007A08E9
:10239000A400A6013F30A5002230F80023088400E5
:1023A0008313241883170008F7002508840083137B
:1023B0002618831777088000A50A0319A60AA30A1E
:1023C0000319A40AF80BCE29A4013F30A300A501EC
:1023D0000A12031328270A16052F83168614831260
:1023E000861C332ABE19332A0317A4013F30A300E9
:1023F0001D30230784008313241883170008A500C9
:102400001D302307F8002408FA000318FA0A780898
:10241000A6007A08A7001E3023078400831324181F
:1024200083170008A8002608840083132718831741
:10243000280880001E302307840083132418831784
:1024400025088000A4013F30A3000A128A15031357
:1024500000200A168A110317DC013F30DB000A1244
:10246000031364250A16BE18382ABE140430DC0093
:10247000052F0317DC013F30DB000A120313D422BF
:102480000A160317A4013F30A3000130A5000A1269
:10249000031328270A16BE18502ABE140430DC0085
:1024A000831686148312861C182BBE19182B03174B
:1024B000A4013F30A3001E302307F8002408FA00CF
:1024C0000318FA0A7808A5007A08A6001D30230729
:1024D00084008313241883170008A70025088400AC
:1024E000831326188317270880001D3023078400D4
:1024F0008313241883178001A4013F30A30023080D
:10250000F8002408FA007808A5007A08A600260832
:10251000A8002508A700193027078400831328186E
:1025200083170008A90006302707840083132818A2
:1025300083170008AA0003130B08F7008B13031777
:1025400029088D002A088C0083168C130C15553031
:102550008D00AA308D008C148C18AC2A0C117708D1
:10256000831203138B041A30031727078400831385
:10257000281883170008A900073027078400831351
:10258000281883170008AA0003130B08F7008B1301
:10259000031729088D002A088C0083168C130C154C
:1025A00055308D00AA308D008C148C18D52A0C1152
:1025B0007708831203138B041B300317270784004B
:1025C0008313281883170008A90008302707840000
:1025D0008313281883170008AA0003130B08F700B9
:1025E0008B13031729088D002A088C0083168C137F
:1025F0000C1555308D00AA308D008C148C18FE2AD5
:102600000C117708831203138B040317A4013F30C6
:10261000A3000A128A15031300200A168A11031751
:10262000A4013F30A300A5010A12031328270A16AC
:102630000317A4013F30A3002308F8002408FA0080
:102640007808A5007A08A6002608A8002508A70093
:102650002708F8002808FA007808A9007A08AA00D4
:102660002A08AC002908AB002B08840083132C181F
:1026700083178008031D4E2B01302B078400831322
:102680002C1883178008031D4E2B02302B07840063
:1026900083132C18831780080319502B0030512BFB
:1026A0000130F80078087808F80803195B2B01302E
:1026B0000313DC0003170313052F052F0A128A15D5
:1026C00053200A168A110317A301A401A501A6012C
:1026D0000130A3000930A4000130A500A600BA0013
:1026E0002330B9000430BB000A12031374260A1603
:1026F00008300317A300FA30A4000A128A15031346
:102700005C200A168A110317A30B7B2B09300313D5
:10271000DC000530E1000A128A1553200A168A11DE
:102720000317DC013F30DB000A120313D4220A1620
:102730000317A4013F30A300A5010A1203132827A1
:102740000A16A913052F831686148312861CAF2B35
:10275000831606148312061CAF2B6108DC00052FBC
:102760000317A4013F30A300A5010A120313282771
:102770000A16831686148312861CF62BBE19F62BB6
:102780000317A4013F30A3000230A5001E30230729
:10279000F8002408FA000318FA0A7808A6007A0854
:1027A000A7001D3023078400831324188317000813
:1027B000A8002608840083132718831728088000A0
:1027C0001D302307840083132418831725088000F5
:1027D000A4013F30A3000A128A15031300200A1631
:1027E0008A110A128A1553200A168A113E19FD2BE6
:1027F0003E150630DC00B713A917052F3E1C0B2C25
:102800000317A4013F30A3000A128A150313702096
:102810000A168A11E62C0317A4013F30A3001C30CE
:102820002307840083132418831700080139013C0F
:10283000031D7C2C2308F8002408FA007808A50062
:102840007A08A6002608A8002508A700A901AA0161
:10285000AB01AC010C302707F8002808FA00031878
:10286000FA0A7808B3007A08B400BE003308BD0045
:10287000BF010A1203130A260A167908FA0078081B
:102880000317B3007A08B4000130B6002D30B5004C
:102890000630F800330884008313341883170008C7
:1028A000F7003508840083133618831777088000F3
:1028B000B50A0319B60AB30A0319B40AF80B4A2C6D
:1028C0002F080A12031304200A16F8000317A900A0
:1028D00030080A12031304200A1608380317AA0046
:1028E0000130BA002930B9000430BB000A120313CA
:1028F00074260A16E62C03171C3023078400831362
:102900002418831700080139031DE72C2308F80059
:102910002408FA007808A5007A08A6002608A8006E
:102920002508A700A901AA01AB01AC010C302707BB
:10293000F8002808FA000318FA0A7808B3007A08A1
:10294000B400BE003308BD00BF010A1203130A26FB
:102950000A167908FA0078080317B3007A08B40059
:102960000130B6002D30B5000630F8003308840081
:102970008313341883170008F70035088400831385
:102980003618831777088000B50A0319B60AB30A08
:102990000319B40AF80BB62C31080A1203130420E9
:1029A0000A16F8000317A90032080A1203130420BC
:1029B0000A1608380317AA000130BA002930B900F6
:1029C0000430BB000A12031374260A160317831679
:1029D0000313861483128618722D831686148312AD
:1029E0008618722D0317A4013F30A3001C30230763
:1029F000840083132418831700080139013C031D48
:102A00003D2D2308F8002408FA007808A5007A086C
:102A1000A6002608A8002508A7000C302707F80004
:102A20002808FA000318FA0A7808A9007A08AA0008
:102A30000C30270784008313281883170008AB0085
:102A400012302707840083132818831700082B02ED
:102A5000031D2C2D0030342D0C30270784008313E8
:102A60002818831701300007AB002908840083135E
:102A70002A1883172B088000592D1C302307840047
:102A800083132418831700080139031D592D2308C7
:102A9000F8002408FA007808A5002408A600A80079
:102AA0002508A7000A128A1503133F210A168A1166
:102AB0000317A4013F30A3000A128A1503137020E4
:102AC0000A168A1102300317A3009630A4000A12D6
:102AD0008A1503135C200A168A110317A30B652DB0
:102AE0000313ED2C3E1A792D831606148312061853
:102AF000E20A6208013C0318802DE2010730DC0085
:102B0000052F3E1C8E2D0317A4013F30A3000A128F
:102B10008A15031370200A168A116D2E0317A4015B
:102B20003F30A3001C30230784008313241883172D
:102B300000080139013C031D012E2308F800240878
:102B4000FA007808A5007A08A6002608A80025083B
:102B5000A700A901AA01AB01AC010C302707F800BE
:102B60002808FA000318FA0A7808B3007A08B400B3
:102B7000BE003308BD00BF010A1203130A260A165D
:102B80007908FA0078080317B3007A08B400013016
:102B9000B6002D30B5000630F800330884008313EA
:102BA000341883170008F70035088400831336189B
:102BB000831777088000B50A0319B60AB30A031908
:102BC000B40AF80BCD2D0830AA002D080A12031301
:102BD00004200A16F8000317AB002E080A1203138C
:102BE00004200A16F8000317AC000130BA0029309F
:102BF000B9000430BB000A12031374260A166D2EA6
:102C000003171C302307840083132418831700083C
:102C10000139031D6E2E2308F8002408FA007808F5
:102C2000A5007A08A6002608A8002508A700A90183
:102C3000AA01AB01AC010C302707F8002808FA0004
:102C40000318FA0A7808B3007A08B400BE00330803
:102C5000BD00BF010A1203130A260A167908FA00FA
:102C600078080317B3007A08B4000130B6002D309D
:102C7000B5000630F8003308840083133418831736
:102C80000008F70035088400831336188317770887
:102C90008000B50A0319B60AB30A0319B40AF80B7F
:102CA0003B2E0830AA002F080A12031304200A162C
:102CB000F8000317AB0030080A12031304200A16A9
:102CC000F8000317AC000130BA002930B900043015
:102CD000BB000A12031374260A1603178316031384
:102CE000861483128618FB2E831686148312861888
:102CF000FB2E0317A4013F30A3001C3023078400E0
:102D000083132418831700080139013C031D9B2EEF
:102D10002308F8002408FA002308A5002408A600C8
:102D2000A8002308A7000A128A1503133F210A16D8
:102D30008A11E12E03171C30230784008313241803
:102D4000831700080139031DE02E2308F80024082A
:102D5000FA007808A5007A08A6002608A800250829
:102D6000A7000E302707F8002808FA000318FA0A0F
:102D70007808A9007A08AA000E3027078400831378
:102D8000281883170008AB0014302707840083132A
:102D90002818831700082B02031DD02E0030D82ED0
:102DA0000E3027078400831328188317013000078B
:102DB000AB002908840083132A1883172B0880008E
:102DC00003130317A4013F30A3000A128A1503134B
:102DD00070200A168A1102300317A3009630A4004F
:102DE0000A128A1503135C200A168A110317A30B13
:102DF000EE2E0313742E3E1A042F8316061483122C
:102E0000061C042F0830DC00052F8316861483125D
:102E1000BE118618BE158316061483123E120618BC
:102E20003E161830B5001730B6008A150A12742AFB
:102E30000030B5001030B6008A150A12742A080056
:102E40000A148A140A158207ED295D2B392A0628EF
:0C2E50005E2BB02BFE2B812D052FA32B39
:04400E00822FFF3FBF
:00000001FF
;PIC16F886
;CRC=67BE  CREATED="08-Nov-17 14:26"
