:1000000017308A005D2F00000A108A100A1182073B
:10001000F6346034D534F1346334B334B734E03477
:10002000F734F33401340834E734963497348734A2
:1000300067343734963475342534763417340434C1
:100040006434C33435340A108A100A1182070A3422
:1000500022343A3452346A3482349A34B234CA3450
:10006000FF340A108A100A1182072234003429341E
:100070000034303400343734003483160317290831
:10008000F8012802031847282808F7005328F70129
:100090000830AA00A80DF70D290877020318F70009
:1000A000F80DAA0B4A28831203130800F701F80180
:1000B00083160317260803102718F707F70CF80C08
:1000C000A718F707F70CF80C2719F707F70CF80C27
:1000D000A719F707F70CF80C271AF707F70CF80C15
:1000E000A71AF707F70CF80C271BF707F70CF80C03
:1000F000A71BF707F70CF80C83120313080003176C
:1001000056088316A8000A30A900831203133D2065
:10011000780EF700F030F7057708F0390317D700AD
:1001200056088316A8000A30A900831203133D2045
:1001300077080F3903175704F80003130800083035
:10014000F80000008711A011200883168700000026
:1001500083120317DA0D03130712031CB5282016A8
:10016000200883168700B9288312201220088316DE
:10017000870000008312A0152008831687008312D1
:10018000871DC028F80BA12800008711A0112008A6
:10019000831687000000831220162008831687002C
:1001A000000000008312A015200883168700831228
:1001B000871DD828F8010000071A78148711A011AC
:1001C0002008831687008312071220122008831646
:1001D000870083120800201620088316870000007D
:1001E0008312A015200883168700000083120712CF
:1001F0002012200883168700000083128711A011A7
:10020000200883168700D03083120317DA00031307
:100210009F2003175708DA0003139F20031758087D
:10022000DA0003139F2020122008831687000000A5
:100230008312A0152008831687008312871D1E29AC
:1002400000002229000020162008831687000000E5
:100250008312080003175508D60003137F2078087F
:100260000317D600D7015608D8000313EB20031755
:100270005408D60003137F2078080317D6000130F6
:10028000D7005608D8000313EB2003175308D600F5
:1002900003137F2078083F390317D6000230D700B8
:1002A0005608D8000313EB20080003174608F8008F
:1002B0004708FA007808C8007A08C9004908CB0046
:1002C0004808CA0004304A07F8004B08FA0003182F
:1002D000FA0A7808CC007A08CD004D08CF004C0807
:1002E000CE0001304E07840083134F188317000897
:1002F000D00002304E07840083134F188317000884
:10030000D10003304E07840083134F188317000871
:10031000D2005008D3005108D4005208D50003136E
:100320002A210800203083160317B200AE01AF0166
:10033000B001B1012908FA002808F9002708F800DF
:100340002608F7000310771CB3292A08AE072B08EC
:1003500003182B0FAF072C0803182C0FB0072D081C
:1003600003182D0FB107B10CB00CAF0CAE0CFA0C8A
:10037000F90CF80CF70CB20BA22983120313080036
:100380000130831603171207840083131318831791
:100390000008A301A201A101A000A5010408A40076
:1003A0002510831B25142308A9002208A800210872
:1003B000A7002008A600AD01AC010E30AB00103044
:1003C000AA008312031392218316031724088400C2
:1003D0008313251883177A08970079089600780800
:1003E00095007708940002301207840083131318D5
:1003F00083170008A301A201A101A000A501040820
:10040000A4002510831B25142308A9002208A80096
:100410002108A7002008A600AD01AC01AB013C30CB
:10042000AA00831203139221831603172408840061
:100430008313251883177A089B0079089A00780897
:1004400099007708980018081407A0001508A10063
:1004500019080318190FA1071608A2001A08031893
:100460001A0FA2071708A3001B0803181B0FA307E6
:100470000330120784008313131883170008200722
:100480009C0021089D000030031801309D072208C0
:100490009E000030031801309E0723089F000030A3
:1004A000031801309F071C08F7001D08F8001E08FC
:1004B000F9001F08FA008312031308008318632A47
:1004C000AA3084008317831603172508290680396C
:1004D000AF00A51F762AA209A309A409A509A20AAB
:1004E0000319A30A0319A40A0319A50AA91F832A39
:1004F000A609A709A809A909A60A0319A70A0319A1
:10050000A80A0319A90AF701F801F901FA01AA01D9
:10051000AB01AC01AD012908280427042604031906
:10052000C12A2030AE000310A20DA30DA40DA50D0D
:10053000AA0DAB0DAC0DAD0D29082D02031DAA2A85
:1005400028082C02031DAA2A27082B02031DAA2A09
:1005500026082A02031CBB2A2608AA022708031C15
:10056000270FAB022808031C280FAC022908031C24
:10057000290FAD020314F70DF80DF90DFA0DAE0BAE
:10058000932AAF1FCE2AF709F809F909FA09F70AE1
:100590000319F80A0319F90A0319FA0A2A0880004C
:1005A000840A2B088000840A2C088000840A2D0805
:1005B0008000831203130800043003174C07F8006F
:1005C0004D08FA000318FA0A7808831690007A0892
:1005D000910093001008920083120313C0217A083F
:1005E0000317D1007908D0007808CF007708CE0033
:1005F00008304C07F8004D08FA000318FA0A78088A
:10060000831690007A0891009300100892008312DC
:100610000313C0217A080317D5007908D40078089D
:10062000D3007708D2004E085202D6005308D700F4
:100630004F08031C4F0FD7025408D8005008031C62
:10064000500FD8025508D9005108031C510FD90288
:10065000D91F2F2BF701F801F901FA01372B5608A2
:10066000F7005708F8005808F9005908FA007A0806
:10067000D9007908D8007808D7007708D600831009
:1006800059088316A500831258088316A400831204
:1006900057088316A300831256088316A200A901E7
:1006A000A8010E30A7001030A600831203135E22AB
:1006B0007A080317DD007908DC007808DB0077088A
:1006C000DA00831490308400831759088316A5003C
:1006D000831258088316A400831257088316A300B8
:1006E000831256088316A200A901A8010E30A700A4
:1006F0001030A600831203135E228316031713081B
:1007000097001208960011089500100894009901AE
:10071000040898001910831B191483101308A500EE
:100720001208A4001108A3001008A200A901A80142
:10073000A7013C30A600831203135E228316031721
:10074000180884008313191883177A088312E100AC
:100750007908E0007808DF007708DE0003304C07F6
:10076000F8004D08FA000318FA0A7808831690007A
:100770007A0891009301040892001310831B13144C
:100780008314943084008317831259088316A500BC
:10079000831258088316A400831257088316A300F7
:1007A000831256088316A200A901A8010E30A700E3
:1007B0001030A600831203135E2283160317140859
:1007C000F7001508F8001608F9001708FA001208D3
:1007D000840083131318831717089B0016089A00C8
:1007E00015089900140898009D0104089C001D102C
:1007F000831B1D1483149E30840083171708A500E3
:100800001608A4001508A3001408A200A901A80155
:10081000A7013C30A600831203135E228316031740
:100820001C08840083131D18831710088400831389
:10083000111883171E088000013083124C078400B2
:1008400083134D1883175A08800002304C07840028
:1008500083134D1883175E088000031308000317E5
:10086000D901031320162008831687000000831285
:10087000A01520088316870000008312071220129B
:10088000200883168700000083128711A01120081A
:1008900083168700D03083120317DA0003139F20DA
:1008A00003175808DA0003139F2020162008831628
:1008B000870000008312A01520088316870000001F
:1008C0008312871D612C07122012200883168700CF
:1008D000000083128711A011200883168700D130F1
:1008E00083120317DA0003139F20F7010830031760
:1008F000DB007708DC00031320162008831687002E
:1009000000008312A0152008831687008312871D1C
:10091000872C071A0314071E0310F80D0000A011FE
:10092000200883168700831287110317DB0B7B2CAB
:100930000313201620088316870000008312071275
:1009400003175C080319AB2C03132012200883162D
:1009500087008312031700000313A01520088316D5
:1009600087008312871DB22C00008711A011200878
:1009700083168700000083120712201220088316B6
:100980008700780883120317D90003132012200868
:100990008316870000008312A015200883168700A5
:1009A0008312871DD12C0000D52C000020162008B2
:1009B000831687000000831203175908F8000313F9
:1009C0000800031758080F39D9005808F039F70004
:1009D000F70E0F30F7057708DB008316A6000A3004
:1009E000A700831203135620780803175907F8004D
:1009F000031308000317D201D301D401D801031354
:100A00002F2478080317D4005408D8000313E124D6
:100A100078080317D4000130D80003132F24780876
:100A20000317D3005308D8000313E12478080317F1
:100A3000D3000230D80003132F2478083F3903175E
:100A4000D2005208D8000313E12478080317D2001B
:100A50005208D5005308D6005408D7005508D900CD
:100A60005608DA005708DB005808F7005908F80064
:100A70005A08F9005B08FA007A08D1007908D0001A
:100A80007808CF007708CE004E08F7004F08F8002E
:100A90005008F9005108FA0003130800031746082C
:100AA000F8004708FA007808C8007A08C900490821
:100AB000CB004808CA0004304A07F8004B08FA0087
:100AC0000318FA0A7808CC007A08CD000313FA2438
:100AD00003174C08840083134D1883177708800090
:100AE000840A78088000840A79088000840A7A08D9
:100AF00080004B08CD004A08CC000313DC2208001C
:100B0000F801F901F701FA0103174708031D8B2DBE
:100B100046080319A52D1030C8000310C40DC50DDB
:100B2000F70DFA0D47087A02031D982D4608770243
:100B3000031CA12D4608F702031CFA034708FA021A
:100B40000314F80DF90DC80B8D2D031308000317BE
:100B50004008C5003F08C4004108C600C701C701DE
:100B6000460847020318BD2D470844078400831335
:100B7000451883178001C70AB02DC201BD08031DA7
:100B8000C42DBE080319E82D3E08C5003D08C40069
:100B9000C7010A30C6000313802577080317C30076
:100BA00042083F07840083134018831743088000DE
:100BB000C20A3E08C5003D08C400C7010A30C6008D
:100BC0000313802579080317BE007808BD00BE2DE9
:100BD000031308000130031732078400831333180E
:100BE00083170008BB00B40803191F2E32088400C5
:100BF00083133318831700080139013C031D1F2E8E
:100C00000130320784008313331883178008031DD3
:100C10000C2E0C30BB001F2E0130320784008313D2
:100C20003318831700080C3C03181F2E01303207BD
:100C300084008313331883170C300002BB00BE01FD
:100C40003B08BD000130C0003530BF000230C1009C
:100C50000313A725023003173207840083133318C8
:100C600083170008BC00BE013C08BD000130C00075
:100C70003730BF000230C1000313A725033003172C
:100C8000320784008313331883170008BC00BE01A9
:100C90003C08BD000130C0003930BF000230C10047
:100CA0000313A7253530F8000130F90008000130A2
:100CB0000317B300B4018316031385118312851142
:100CC00083168510831285100317B401320834028D
:100CD0000318942E340830078400831331188317C7
:100CE0000008B5000130B3003308083C031C922E05
:100CF00035187E2E03130510802E031703130514D9
:100D000083160510031083120317B50C8316031303
:100D1000851183128515831685118312851103179A
:100D2000B30A742EB40A662E831603138510831239
:100D30008514831685108312851008000317AF08E9
:100D40000319D72E2D08B1002C08B0002E08B200D0
:100D5000B301B301320833020318D62E330830072B
:100D6000F8003108FA000318FA0A7808B4007A0883
:100D7000B500330830078400831331188317000847
:100D800003130420F8000317340884008313351874
:100D900083177808800033083007840083133118E4
:100DA0008317000808388000B30AAA2E022F2D08E6
:100DB000B1002C08B0002E08B200B301B301320814
:100DC00033020318022F33083007F8003108FA0005
:100DD0000318FA0A7808B4007A08B5003308300717
:100DE0008400831331188317000803130420F800CC
:100DF000031734088400831335188317780880009C
:100E0000B30ADF2E2D08B1002C08B0002E08B20066
:100E10000313572608001A3003171707840083139B
:100E200018188317000899001730170784008313D8
:100E30001818831700089A0003130B08F7008B1388
:100E4000031719088D001A088C0083168C130C15D3
:100E500055308D00AA308D008C148C182D2F0C115C
:100E60007708831203138B041B30031717078400C2
:100E70008313181883170008990018301707840087
:100E800083131818831700089A0003130B08F70040
:100E90008B13031719088D001A088C0083168C1306
:100EA0000C1555308D00AA308D008C148C18562FDF
:100EB0000C117708831203138B04080018300317F2
:100EC0001707F8001808FA000318FA0A78089A00B9
:100ED0007A089B00173017078400831318188317AC
:100EE00000089C001A08840083131B1883171C0831
:100EF0008000173017078400831318188317190808
:100F0000800003130800183003171707F8001808AB
:100F1000FA000318FA0A780899007A089A0017303C
:100F20001707840083131818831700089B001908FB
:100F3000840083131A1883171B08800017301707C3
:100F400084008313181883178001031308001830D6
:100F50008400831700080319BA2F0630F800F70140
:100F6000F70BB02FF80BAF2F7B30F700F70BB62F36
:100F7000800BAD2F08001E30031717078400831362
:100F80001818831700089900163017078400831378
:100F9000181883179A0180189A0A03130B08F70090
:100FA0008B13031719088D001A088C0083168C13F5
:100FB0000C1555308D00AA308D008C148C18DE2F46
:100FC0000C117708831203138B0408000317D30155
:100FD000D401D50103132A2108000130BE06F630E2
:100FE000BC000730BD008A110A16EB2FED30BC00A3
:0C0FF0000730BD008A110A16EB2F080024
:101000001630031717078400831318188317000876
:10101000F700770C0139013C031DEE281630170745
:10102000840083131818831700080139013C031D3D
:10103000772819089A009B019C019D019E018A1145
:101040000313FA248A157A080317A8007908A70061
:101050007808A6007708A5000130B3002530B2005B
:10106000B4018A110313EA258A157908FA00780871
:101070000317A9007A08AA000130AC001F30AB00AA
:101080000630F8002908840083132A188317000803
:10109000F7002B08840083132C188317770880002F
:1010A000AB0A0319AC0AA90A0319AA0AF80B4228C9
:1010B00021089B0022089C001F089D0020089E001C
:1010C0009A0803196728280801399A00692801300D
:1010D0009A000130AD001B30AC000430AE001A089D
:1010E000AF008A1103139E268A15EC2803171630C9
:1010F0001707840083131818831700080139031D8C
:10110000ED289A019B019C019D018A110313FA2489
:101110008A157A080317A7007908A6007808A500A1
:101120007708A40025088316A6003C30A7008A1182
:101130008312031356208A15780803172607A9007F
:101140008316A8006430A9008A11831203133D207E
:101150008A1577080317A6000130B3002430B200C7
:10116000B4018A110313EA258A157908FA00780870
:101170000317A8007A08A9000130AB001E30AA00AE
:101180000630F80028088400831329188317000804
:10119000F7002A08840083132B1883177708800030
:1011A000AA0A0319AB0AA80A0319A90AF80BC2284C
:1011B00022089A0023089B0020089C0021089D001B
:1011C0000130AD001A30AC000430AE000130AF0089
:1011D0008A1103139E268A150317F4291630170760
:1011E00084008313181883170008F700770C01395F
:1011F000031DF4291630170784008313181883176A
:1012000000080139013C031D6B2917089A001808D2
:101210009B001B089D001A089C0019089E009F0156
:10122000A001A101A2011C08F8001D08FA0078081D
:10123000A9007A08AA00B3002908B200B4018A11F3
:101240000313EA258A157908FA0078080317A9001C
:101250007A08AA000130AC002330AB000630F80059
:101260002908840083132A1883170008F7002B0825
:10127000840083132C18831777088000AB0A0319A6
:10128000AC0AA90A0319AA0AF80B302925089F00FD
:101290002608A0002308A1002408A2009E08031924
:1012A0005B2907301C07840083131D18831700086F
:1012B00001399E005D2901309E000130AD001F30D4
:1012C000AC000430AE001E08AF008A1103139E2646
:1012D0008A15F3290317163017078400831318188B
:1012E000831700080139031DF42917089A0018080C
:1012F0009B001B089D001A089C009E019F01A001F5
:10130000A1011C08840083131D1883170008F7002F
:10131000840A0008F800840A0008F900840A00081A
:10132000FA007708A8007808A9007908AA007A08C6
:10133000AB0029088316A6003C30A7008A1183124F
:10134000031356208A15780803172A07AD00831661
:10135000A8006430A9008A11831203133D208A1566
:1013600077080317AA000130B3002830B200B40197
:101370008A110313EA258A157908FA0078080317F9
:10138000AC007A08AD000130AF002230AE0006306C
:10139000F8002C08840083132D1883170008F70029
:1013A0002E08840083132F18831777088000AE0A55
:1013B0000319AF0AAC0A0319AD0AF80BC9292608AC
:1013C0009E0027089F002408A0002508A1000130E6
:1013D000AD001E30AC000430AE000130AF008A1109
:1013E00003139E268A150317031308000317170813
:1013F000990018089A001A089C0019089B001030E0
:101400001B07840083131C18831700089D000530F8
:101410001B07840083131C18831700089E00031306
:101420000B08F7008B1303171D088D001E088C0096
:1014300083168C130C1555308D00AA308D008C143A
:101440008C18202A0C117708831203138B04113097
:1014500003171B07840083131C18831700089D00C3
:1014600006301B07840083131C18831700089E0096
:1014700003130B08F7008B1303171D088D001E08BC
:101480008C0083168C130C1555308D00AA308D00FE
:101490008C148C18492A0C117708831203138B04BF
:1014A000123003171B07840083131C1883170008CE
:1014B0009D0007301B07840083131C188317000846
:1014C0009E0003130B08F7008B1303171D088D00F4
:1014D0001E088C0083168C130C1555308D00AA3015
:1014E0008D008C148C18722A0C1177088312031348
:1014F0008B0408005608F53E0318DE2E0B3EE12E45
:1015000003179D0101309E0002309F000330A000B0
:101510000430A1000530A2000630A3000730A4006B
:101520000830A5000930A6001D08C1001E08C20031
:101530001F08C3002508C4002608C5001F088D0029
:1015400083168C130C1483120C080139F8003D101B
:1015500078183D141D088D0083168C130C1483120B
:101560000C08C70047088316A8000330A9008A1199
:10157000831203133D208A1577080317BE001E0847
:101580008D0083168C130C1483120C08C7004708B7
:101590008316A8000330A9008A11831203133D208B
:1015A0008A1577080317BF0025088D0083168C1352
:1015B0000C1483120C08C70047088316A8000A30D1
:1015C000A9008A11831203133D208A157708031797
:1015D000C00026088D0083168C130C1483120C088F
:1015E0000139F800BD107818BD14BF08031DFD2A8D
:1015F000BE08031DFD2A0230BF0000303D18013037
:10160000013A03130319082B013A0319E52BCE2CD9
:1016100063300317D0003B30D100D3012008D20043
:10162000D5012108D400D7012208D600D90123080A
:10163000D800DB012408DA00520883169F008312C9
:10164000540883169E00831256088316A000831246
:1016500058088316A10083125A088316A200831229
:1016600052088D0083168C130C1483120C08DC00B6
:1016700001305007DD005C088316A80083125D0866
:101680008316A9008A11831203133D208A15770857
:10169000831603179900831254088D0083168C1348
:1016A0000C1483120C08DC0001305107DD005C08CB
:1016B0008316A80083125D088316A9008A1183127D
:1016C00003133D208A157708831603179A009B01A0
:1016D000831250088316A300831251088316A400B6
:1016E0003B30A500831256088D0083168C130C1412
:1016F00083120C08DD005D088316A8006430A90081
:101700008A11831203133D208A1577088316031765
:101710009500831258088D0083168C130C148312C5
:101720000C08DC0001305107DD005C088316A800BE
:1017300083125D088316A9008A11831203133D20CA
:101740008A15770883160317960083125A088D00AE
:1017500083168C130C1483120C08DD005D088316AD
:10176000A8003C30A9008A11831203133D208A157A
:1017700077088316031797009030F8000130F900BE
:101780007908FA0078088312CA007A08CB00013081
:10179000CD002730CC001630F8004A0884008313AF
:1017A0004B1883170008F7004C08840083134D186A
:1017B000831777088000CC0A0319CD0ACA0A0319D7
:1017C000CB0AF80BCD2B0313CE2C63300317D000BC
:1017D000D2012008D100D4012108D300D60122086B
:1017E000D500D8012308D700DA012408D900510810
:1017F00083169E008312530883169D00831255089A
:101800008316A000831257088316A100831259087B
:101810008316A200A301831250088316A4003B3054
:10182000A5009901831251088D0083168C130C14A6
:1018300083120C08DB0001305007DC005B088316C4
:10184000A80083125C088316A9008A11831203136F
:101850003D208A157708831603179A0083125308D0
:101860008D0083168C130C1483120C08DB000130DE
:10187000831625078312DC005B088316A8008312F9
:101880005C088316A9008A11831203133D208A1570
:101890007708831603179B00831255088D00831663
:1018A0008C130C1483120C080139831695008312D3
:1018B00057088D0083168C130C1483120C08DB0060
:1018C00001305007DC005B088316A80083125C0817
:1018D0008316A9008A11831203133D208A15770805
:1018E0008316031796001508A6003C30A7008A113E
:1018F0008312031356208A157808831603171607D8
:101900008312DC008316A8006430A9008A118312B8
:1019100003133D208A157708831603179600831258
:1019200059088D0083168C130C1483120C08DC00EC
:101930005C088316A8003C30A9008A1183120313A7
:101940003D208A1577088316031797009030F8001A
:101950000130F9007908FA0078088312CA007A0881
:10196000CB000130CD002730CC001630F8004A08FB
:10197000840083134B1883170008F7004C08840079
:1019800083134D18831777088000CC0A0319CD0AFA
:10199000CA0A0319CB0AF80BB72C03130317BE08A6
:1019A000031DE52C0130C7002730C6008A11031340
:1019B00055218A1501300317CD002730CC008A113C
:1019C0000313DC228A15ED2C03170130C7002730E2
:1019D000C6008A1103134E258A152730F8000130FE
:1019E000F9007908FA007808031797007A08980038
:1019F0009A013F3099001F30F800170884008313C4
:101A0000181883170008F7001908840083131A18A0
:101A1000831777088000990A03199A0A970A03190D
:101A2000980AF80BFD2C98013F3097009901031399
:101A30000020DE2E831686148312861C5E2DBE19AE
:101A40005E2D031798013F30970017301707840069
:101A50008313181883170008990017301707F80028
:101A60001808FA000318FA0A78089A007A089B0006
:101A700018301707840083131818831700089C0078
:101A80001A08840083131B1883171C088000183061
:101A9000170784008313181883171908800098010A
:101AA0003F3097008A1103130B278A150317C701CC
:101AB0003F30C6008A11031355218A15BE186B2DBD
:101AC000BE14031798013F309700043099008A1123
:101AD00003135E278A15DE2E0317C7013F30C600A9
:101AE0008A1103134E258A15031798013F3097007A
:101AF0000130990003130020BE18892DBE1403176E
:101B000098013F309700043099008A1103135E2733
:101B10008A15831686148312861CAD2DBE19AD2D31
:101B2000031798013F3097008A11031383278A1502
:101B3000031798013F3097000313F621031798010C
:101B40003F3097008A1103130B278A15031798015A
:101B50003F309700990103130020031798013F308D
:101B600097001708F8001808FA00780899007A0812
:101B70009A001A089C0019089B001B08F8001C0812
:101B8000FA0078089D007A089E001E08A0001D0833
:101B90009F0001301F0784008313201883178008DB
:101BA000031DE42D02301F078400831320188317C0
:101BB0008008031DE42D03301F07840083132018C1
:101BC000831780080319E62D0030E72D0130F80057
:101BD00078087808F8080319382E98013F309700E4
:101BE000013099008A1103135E278A15A01220087C
:101BF0008316870083128716C830031798008A114E
:101C00000313A7278A15A0122008831687008312C2
:101C100087126430031798008A110313A7278A15C7
:101C2000A01220088316870083128716C830031776
:101C300098008A110313A7278A15A012200883167B
:101C4000870083128712D514031798013F3097003D
:101C50008A110313BB278A158A11E6278A150317F1
:101C6000C7013F30C6008A1103134E258A1503179A
:101C70000313DE2E0317C7013F30C6008A1103137A
:101C80004E258A15031798013F30970001309900BF
:101C900003130020831686148312861C6E2EBE1931
:101CA0006E2E031798013F3097008A110313832784
:101CB0008A15031798013F3097000313F621031785
:101CC00098013F3097008A1103130B278A150317D9
:101CD00098013F309700990103130020BE187B2E16
:101CE000BE14031798013F309700043099008A1101
:101CF00003135E278A15DE2ED510031798013F3097
:101D000097008A110313BB278A158A11E6278A15C3
:101D100003179701980199019A0101309700093042
:101D20009800013099009A00B1001730B0000430DB
:101D3000B2008A11031357268A150830031797003B
:101D4000FA3098008A110313A7278A150317970BF7
:101D5000A02E98013F3097000A3099008A11031392
:101D60005E278A150530DE008A11E6278A150317DB
:101D7000C7013F30C6008A1103134E258A15031789
:101D800098013F309700990103130020A913DE2E1C
:101D9000831686148312861CDE2E83160614831285
:101DA000061CDE2E031798013F30970003135E08D0
:101DB000031799008A1103135E278A158A110A16E0
:101DC00047280A108A140A1582071A2D3A2E6C2DFC
:101DD000802A7C2EDE2EDE2EDE2EDE2EDE2EC82E7D
:101DE0001630031717078400831318188317000889
:101DF0000139013C031D582F1708F8001808FA0094
:101E0000780899007A089A001A089C0019089B0023
:101E10009D019E019F01A00108301B07F8001C08CE
:101E2000FA000318FA0A7808A7007A08A800B30095
:101E30002708B200B4018A110313EA258A1579082C
:101E4000FA0078080317A7007A08A8000130AA0052
:101E50002130A9000630F8002708840083132818D1
:101E600083170008F7002908840083132A188317B2
:101E700077088000A90A0319AA0AA70A0319A80A61
:101E8000F80B2C2F23089D0024089E0021089F009A
:101E90002208A0000130AD001D30AC000430AE00BF
:101EA0000130AF008A1103139E268A15BC2F031739
:101EB0001630170784008313181883170008013998
:101EC000031DBD2F1708F8001808FA0078089900BC
:101ED0007A089A001A089C0019089B009D019E012F
:101EE0009F01A00108301B07F8001C08FA00031826
:101EF000FA0A7808A7007A08A800B3002708B200F9
:101F0000B4018A110313EA258A157908FA007808C2
:101F10000317A7007A08A8000130AA002130A90001
:101F20000630F80027088400831328188317000858
:101F3000F7002908840083132A1883177708800084
:101F4000A90A0319AA0AA70A0319A80AF80B922FCB
:101F500025089D0026089E0023089F002408A00055
:101F60000130AD001D30AC000430AE000130AF00D8
:101F70008A1103139E268A150317031308000A30DB
:101F800003171B07F8001C08FA000318FA0A780860
:101F90009D007A089E000A301B07840083131C18DA
:101FA000831700089F0014301B07840083131C183C
:101FB000831700081F02031DDF2F0030E72F0A30B0
:101FC0001B07840083131C188317013000079F0030
:101FD0001D08840083131E1883171F088000031335
:021FE0000800F7
:10200000031799019A019B019C011930170784005D
:10201000831318188317013000079E008316A80049
:102020000A30A9000A12831203133D200A1677080A
:102030000A1204200A16F80003179900193017072E
:102040008400831318188317013000079E0083163D
:10205000A8000A30A9000A12831203133D200A16B1
:1020600078080A1204200A16083803179A00373035
:102070009B000130B1001930B0000430B2000A12E8
:10208000031357260A1608000A128A157A2A0A1616
:102090008A1105305602FB3E0318D32E053EEE2E64
:1020A000031798013F30970099010A128A1503130C
:1020B00000200A168A11831686148312861C77283C
:1020C000BE197728031798013F3097000230990016
:1020D0000A1203135E270A16031798013F30970070
:1020E0000A1203130B270A160A12E6270A163E19CC
:1020F00086283E15031798013F3097000630990057
:102100000A1203135E270A16B713A917D32E3E1C13
:102110009428031798013F3097000A128A15031379
:10212000F0260A168A116F29031798013F3097008D
:102130001630170784008313181883170008013915
:10214000013C031D05291708F8001808FA00780853
:1021500099007A089A001A089C0019089B009D01B2
:102160009E019F01A00108301B07F8001C08FA001F
:102170000318FA0A7808A7007A08A800B30027080D
:10218000B200B4010A120313EA250A167908FA000C
:1021900078080317A7007A08A8000130AA002130A8
:1021A000A9000630F8002708840083132818831735
:1021B0000008F7002908840083132A18831777087A
:1021C0008000A90A0319AA0AA70A0319A80AF80B8A
:1021D000D32823080A12031304200A16F800031751
:1021E0009D0024080A12031304200A160838031756
:1021F0009E000130B1001D30B0000430B2000A1260
:10220000031357260A166F29031716301707840081
:1022100083131818831700080139031D7029170844
:10222000F8001808FA00780899007A089A001A0845
:102230009C0019089B009D019E019F01A001083090
:102240001B07F8001C08FA000318FA0A7808A70010
:102250007A08A800B3002708B200B4010A120313D9
:10226000EA250A167908FA0078080317A7007A0801
:10227000A8000130AA002130A9000630F800270884
:1022800084008313281883170008F70029088400A6
:1022900083132A18831777088000A90A0319AA0A4A
:1022A000A70A0319A80AF80B3F2925080A120313E5
:1022B00004200A16F80003179D0026080A120313CB
:1022C00004200A16083803179E000130B1001D30A3
:1022D000B0000430B2000A12031357260A1603177F
:1022E00083160313861483128618F929831686141D
:1022F00083128618F929031798013F30970016308A
:102300001707840083131818831700080139013C4C
:10231000031DC6291708F8001808FA007808990064
:102320007A089A001A089C0019089B0009301B07BC
:10233000F8001C08FA000318FA0A78089D007A08C9
:102340009E0009301B07840083131C1883170008A4
:102350009F0013301B07840083131C188317000889
:102360001F02031DB5290030BD2909301B07840059
:1023700083131C188317013000079F001D08840079
:1023800083131E1883171F088000E22916301707D1
:10239000840083131818831700080139031DE229EC
:1023A0001708F8001808FA007808990018089A0029
:1023B0009C0019089B000A128A150313BF270A16EE
:1023C0008A11031798013F3097000A128A150313E8
:1023D000F0260A168A1102300317970096309800EB
:1023E0000A120313A7270A160317970BEE290313E4
:1023F00076293E1A102A831606148312061C102A08
:102400005708053C031D062ADF0A102A0317980106
:102410003F309700073099000A1203135E270A160F
:102420005F08013C03181F2ADF01031798013F30A2
:102430009700073099000A1203135E270A16D32E5D
:102440003E1C2D2A031798013F3097000A128A1567
:102450000313F0260A168A110C2B031798013F303C
:102460009700163017078400831318188317000885
:102470000139013C031DA02A1708F8001808FA00CA
:10248000780899007A089A001A089C0019089B009D
:102490009D019E019F01A00108301B07F8001C0848
:1024A000FA000318FA0A7808A7007A08A800B3000F
:1024B0002708B200B4010A120313EA250A167908A4
:1024C000FA0078080317A7007A08A8000130AA00CC
:1024D0002130A9000630F80027088400831328184B
:1024E00083170008F7002908840083132A1883172C
:1024F00077088000A90A0319AA0AA70A0319A80ADB
:10250000F80B6C2A08309E0021080A1203130420DD
:102510000A16F80003179F0022080A12031304206A
:102520000A16F8000317A0000130B1001D30B000FA
:102530000430B2000A12031357260A160C2B031795
:102540001630170784008313181883170008013901
:10255000031D0D2B1708F8001808FA0078089900D9
:102560007A089A001A089C0019089B009D019E0198
:102570009F01A00108301B07F8001C08FA0003188F
:10258000FA0A7808A7007A08A800B3002708B20062
:10259000B4010A120313EA250A167908FA0078082A
:1025A0000317A7007A08A8000130AA002130A9006B
:1025B0000630F800270884008313281883170008C2
:1025C000F7002908840083132A18831777088000EE
:1025D000A90A0319AA0AA70A0319A80AF80BDA2AF2
:1025E00008309E0023080A12031304200A16F8007C
:1025F00003179F0024080A12031304200A16F80088
:102600000317A0000130B1001D30B0000430B2004B
:102610000A12031357260A16031783160313861488
:1026200083128618982B8316861483128618982B8B
:10263000031798013F309700163017078400831363
:102640001818831700080139013C031D3A2B17089D
:10265000F8001808FA001708990018089A009C005A
:1026600017089B000A128A150313BF270A168A113E
:10267000802B03171630170784008313181883174D
:1026800000080139031D7F2B1708F8001808FA000D
:10269000780899007A089A001A089C0019089B008B
:1026A0000B301B07F8001C08FA000318FA0A780818
:1026B0009D007A089E000B301B07840083131C18B2
:1026C000831700089F0015301B07840083131C1814
:1026D000831700081F02031D6F2B0030772B0B3070
:1026E0001B07840083131C188317013000079F0009
:1026F0001D08840083131E1883171F08800003130E
:10270000031798013F3097000A128A150313F02629
:102710000A168A11023003179700963098000A12A1
:102720000313A7270A160317970B8D2B0313132BDD
:102730003E1AFD2B831606148312061CFD2B03176D
:1027400098013F309700163017078400831318183C
:10275000831700080139013C031DC62B09301707F8
:1027600084008313181883178008031DC22B0A30B6
:10277000170784008313181883178008031DC22BC2
:102780000030C32B0130F800E62BE62B163017077C
:10279000840083131818831700080139031DE62BE2
:1027A0000A30170784008313181883178008031D45
:1027B000E42B0B3017078400831318188317800845
:1027C000031DE42B0030E52B0130F800F808031955
:1027D000F42B98013F309700083099000A12031338
:1027E0005E270A16FD2B031798013F30970006302D
:1027F00099000A1203135E270A16D32E03179801B5
:102800003F30970099019A019B019C0116301707F0
:10281000840083131818831700080139013C031D35
:10282000192C253099002D309A0067309B009C00B0
:102830002A2C1630170784008313181883170008F2
:102840000139031D2A2CB3309900BB309A00253082
:102850009B009C000130B1001930B0000430B20080
:102860000A12031357260A16831686148312861C2F
:102870000B2DBE190B2D031798013F309700163012
:102880001707F8001808FA000318FA0A78089900E0
:102890007A089A00163017078400831318188317D4
:1028A000001C592C1908840083131A188317001070
:1028B0005F2C1908840083131A188317001416302C
:1028C0001707840083131818831700080139013C87
:1028D000031DB62C09301707F8001808FA00031872
:1028E000FA0A780899007A089A000A3017078400D3
:1028F00083131818831700089B001908840083139A
:102900001A1883171B0880000A301707F8001808E8
:10291000FA000318FA0A780899007A089A000B302E
:102920001707840083131818831700089B001908E1
:10293000840083131A1883171B0880000B301707B5
:10294000840083131818831780011330170784003D
:10295000831318188317633080001430170784001E
:102960008313181883173B3080000A2D1630170781
:10297000840083131818831700080139031D0A2DDA
:102980000B301707F8001808FA000318FA0A78083D
:1029900099007A089A000A301707840083131818E0
:1029A000831700089B001908840083131A188317E3
:1029B0001B0880000A301707F8001808FA000318EF
:1029C000FA0A780899007A089A00093017078400F3
:1029D00083131818831700089B00190884008313B9
:1029E0001A1883171B088000093017078400831307
:1029F00018188317800113301707840083131818E1
:102A00008317800114301707840083131818831765
:102A10006330800003133E1A4D2E83160614831272
:102A2000061C4D2E031798013F30970016301707EC
:102A3000840083131818831700080139013C031D13
:102A4000782D01309A00173099000F301907840053
:102A500083131A18831700089B0009301907840094
:102A600083131A18831700089C0003130B08F70040
:102A70008B1303171B088D001C088C0083168C1306
:102A80000C1555308D00AA308D008C148C18462DF5
:102A90000C117708831203138B040E3003171907E8
:102AA000840083131A18831700089B000A30190743
:102AB000840083131A18831700089C0003130B0863
:102AC000F7008B1303171B088D001C088C0083165E
:102AD0008C130C1555308D00AA308D008C148C1879
:102AE0006F2D0C117708831203138B04DF2D03174E
:102AF000163017078400831318188317000801394C
:102B0000031DE02D1708F8001808FA00780899004E
:102B10007A089A001A089C0019089B000E301B07BF
:102B2000840083131C18831700089D000A301B07BC
:102B3000840083131C18831700089E0003130B08DE
:102B4000F7008B1303171D088D001E088C008316D9
:102B50008C130C1555308D00AA308D008C148C18F8
:102B6000AF2D0C117708831203138B040D3003175C
:102B70001B07840083131C18831700089D000B306B
:102B80001B07840083131C18831700089E0003137F
:102B90000B08F7008B1303171D088D001E088C000F
:102BA00083168C130C1555308D00AA308D008C14B3
:102BB0008C18D82D0C117708831203138B0403177C
:102BC00098013F3097001C301707840083131818B2
:102BD000831700089900163017078400831318180C
:102BE00083179A0100189A0A03130B08F7008B1336
:102BF000031719088D001A088C0083168C130C1506
:102C000055308D00AA308D008C148C18052E0C11B7
:102C10007708831203138B04031798013F30970042
:102C20001D301707840083131818831700089900B4
:102C300019301707840083131818831700089A00A7
:102C400003130B08F7008B13031719088D001A08DC
:102C50008C0083168C130C1555308D00AA308D0016
:102C60008C148C18312E0C117708831203138B04EB
:102C70000A12E6270A160317C7013F30C6000A12D8
:102C800003134E250A16031798013F3097000930A9
:102C900099000A1203135E270A16D32E3E1C572EE4
:102CA000031798013F30970003130020682E031785
:102CB0009701980199019A01373099000130B100CC
:102CC0001730B0000430B2000A12031357260A1658
:102CD0008316861483128618C02E831686148312D8
:102CE0008618C02E031798013F3097001930170738
:102CF000F8001808FA000318FA0A780899007A0808
:102D00009A001930170784008313181883170130AD
:102D100000079C008316A8000A30A9000A1283123B
:102D200003133D200A16770803179B001908840037
:102D300083131A1883171B088000193017078400A3
:102D400083131818831700080A12031323200A1686
:102D50000317990003139500031798013F3097005C
:102D600003130020023003179700963098000A12D0
:102D70000313A7270A160317970BB52E03136D2EFF
:102D80003E1AD32E831606148312061CD32E031765
:102D900098013F309700053099000A1203135E270F
:102DA0000A16A913B717831686148312BE11861844
:102DB000BE158316061483123E1206183E16E63020
:102DC000B5001630B6008A110A16EB2F4430B50054
:102DD0001030B6008A110A16EB2F08000A108A1468
:102DE0000A15820750288728202AFE2B4E2E83168C
:102DF000861483128618FE2EE00A002FE001BE140E
:102E00006008133C0318062FBE10E0010D30A70028
:102E10001730A8008A110A16EB2FF730A7001630DA
:102E2000A8008A110A16EB2F0800831606148312D5
:102E300006181C2FE10A1E2FE1013E1561080C3C0B
:102E40000318242F3E11E1012B30AE001730AF00E4
:102E50008A110A16EB2F1530AE001730AF008A1119
:102E60000A16EB2F08000030F80006389200FF30F9
:102E70008316920083122011200883168700831284
:102E800007110E30970083169B019C0101309D00B5
:102E900002308312E200FA30031798000A1203137B
:102EA000A7270A16E20B4B2FFF30831695008113DC
:102EB000950083128A110A167C2F03081F3983009C
:102EC000FF30A0003E14BE143E15BE153E16DF01B5
:102ED000E001E101831603170908C03989000313D3
:102EE0001F129F1200300317880083128701880188
:102EF000890183130313332F0330D600A201A401E9
:102F00000530A300A601A501F730A7001630A800E0
:102F1000A901AB010530AA00AD010130AC001530AC
:102F2000AE001730AF00B001B2010130B100B40102
:102F3000B3014430B5001030B600B701B901143008
:102F4000B800BB010230BA00ED30BC000730BD0054
:102F5000A10183160108C039073881003D30831272
:102F600081000B110310210DF7000A1231200A16FF
:102F7000F900013077070A1231200A16FA007908A1
:102F8000840083137A1883170008F900840A000864
:102F9000F700840A0008F800840A800A0008FA0092
:102FA000031DD52F840A800A8403840A000878024E
:102FB000031DED2F77087A02031DED2F8403800196
:102FC000840A8001840AF91BED2F840A00088A0014
:102FD00084030008820083120313A10A0430210233
:102FE000031DB22FA10101080B1DF82F8316AE2F70
:082FF000F32FFF30A100630084
:04400E00822FFF3FBF
:00000001FF
;PIC16F886
;CRC=9B74  CREATED="09-Nov-17 11:46"
