:100000000A308A00352A00000A108A100A11820775
:10001000F6346034D534F1346334B334B734E03477
:10002000F734F3340134E734753417340434873447
:1000300064349634C33435343534973408340A1074
:100040008A100A11820722340034293400343034F3
:10005000003437340034831603174408F801430290
:10006000031835284308F7004128F7010830C50078
:10007000C30DF70D440877020318F700F80DC50B00
:100080003828831203130800031741088316C3009E
:100090000A30C400831203132B20780EF700F030CF
:1000A000F7057708F0390317C20041088316C3002B
:1000B0000A30C400831203132B2077080F3903176B
:1000C0004204F800031308000830F800000087110C
:1000D000A011200883168700000083120317CD0D9E
:1000E00003130712031C7A282016200883168700A2
:1000F0007E288312201220088316870000008312B6
:10010000A0152008831687008312871D8528F80B09
:10011000662800008711A0112008831687000000C0
:100120008312201620088316870000000000831227
:10013000A0152008831687008312871D9D28F801CB
:100140000000071A78148711A01120088316870071
:1001500083120712201220088316870083120800DA
:10016000201620088316870000008312A01520089F
:1001700083168700000083120712201220088316BE
:100180008700000083128711A011200883168700C2
:10019000D03083120317CD000313642003174208E5
:1001A000CD000313642003174308CD00031364201C
:1001B000201220088316870000008312A015200853
:1001C000831687008312871DE3280000E7280000BC
:1001D00020162008831687000000831208000317EA
:1001E0004008C1000313442078080317C100C2016E
:1001F0004108C3000313B02003173F08C1000313D5
:10020000442078080317C1000130C2004108C30030
:100210000313B02003173E08C100031344207808DD
:100220003F390317C1000230C2004108C300031365
:10023000B02008000317CC010313201620088316F2
:10024000870000008312A015200883168700000095
:1002500083120712201220088316870000008312E1
:100260008711A011200883168700D030831203174E
:10027000CD000313642003174B08CD000313642043
:10028000201620088316870000008312A01520087E
:100290008316870000008312871D4C290712201245
:1002A000200883168700000083128711A011200800
:1002B00083168700D13083120317CD000313642007
:1002C000F70108300317CE007708CF00031320167C
:1002D00020088316870000008312A01520088316CB
:1002E00087008312871D7229071A0314071E031043
:1002F000F80D0000A01120088316870083128711D3
:100300000317CE0B662903132016200883168700D7
:1003100000008312071203174F08031996290313CD
:10032000201220088316870083120317000003138E
:10033000A0152008831687008312871D9D290000C1
:100340008711A0112008831687000000831207126E
:100350002012200883168700780883120317CC0028
:100360000313201220088316870000008312A015B3
:100370002008831687008312871DBC290000C0292E
:100380000000201620088316870000008312031740
:100390004C08F8000313080003174B080F39CC0072
:1003A0004B08F039F700F70E0F30F7057708CE004D
:1003B0004E08CF000A30D000F701F8014F080310B3
:1003C0005018F707F70CF80CD018F707F70CF80CD3
:1003D0005019F707F70CF80CD019F707F70CF80CC1
:1003E000501AF707F70CF80CD01AF707F70CF80CAF
:1003F000501BF707F70CF80CD01BF707F70CF80C9D
:1004000078084C07F8000313080020300317EF00AA
:10041000EB01EC01ED01EE016608FA006508F90058
:100420006408F8006308F7000310771C252A6708A2
:10043000EB0768080318680FEC0769080318690FD1
:10044000ED076A0803186A0FEE07EE0CED0CEC0CD2
:10045000EB0CFA0CF90CF80CF70CEF0B142A031345
:10046000080003174F0884008313501883170008EF
:10047000E001DF01DE01DD00E2010408E1006210BD
:10048000831B62146008E6005F08E5005E08E40074
:100490005D08E300EA01E9010E30E8001030E700F2
:1004A000031305220317610884008313621883175E
:1004B0007A08D4007908D3007808D2007708D100F0
:1004C00001304F0784008313501883170008E001A0
:1004D000DF01DE01DD00E2010408E1006210831BA0
:1004E00062146008E6005F08E5005E08E4005D084D
:1004F000E300EA01E901E8013C30E70003130522CB
:100500000317610884008313621883177A08D800E0
:100510007908D7007808D6007708D5005508510724
:10052000DD005208DE0056080318560FDE07530898
:10053000DF0057080318570FDF075408E00058087A
:100540000318580FE00702304F0784008313501838
:10055000831700085D07D9005E08DA000030031831
:100560000130DA075F08DB00003003180130DB07D9
:100570006008DC00003003180130DC075908F70080
:100580005A08F8005B08F9005C08FA000313080039
:100590008318CD2A67308400831703176208660624
:1005A0008039EC00E21FDF2ADF09E009E109E209F6
:1005B000DF0A0319E00A0319E10A0319E20AE61F38
:1005C000EC2AE309E409E509E609E30A0319E40A68
:1005D0000319E50A0319E60AF701F801F901FA011E
:1005E000E701E801E901EA016608650464046304BF
:1005F00003192A2B2030EB000310DF0DE00DE10D75
:10060000E20DE70DE80DE90DEA0D66086A02031D2B
:10061000132B65086902031D132B64086802031D70
:10062000132B63086702031C242B6308E70264088A
:10063000031C640FE8026508031C650FE9026608E5
:10064000031C660FEA020314F70DF80DF90DFA0DFD
:10065000EB0BFC2AEC1F372BF709F809F909FA090B
:10066000F70A0319F80A0319F90A0319FA0A6708BD
:100670008000840A68088000840A69088000840A6F
:100680006A0880000313080003173108F8003208D5
:10069000FA007808B3007A08B4003408B6003308CA
:1006A000B50006303507F8003608FA000318FA0AD4
:1006B0007808B7007A08B800C501C601C701CB01A8
:1006C00003131A2178080317C7004708CB00031348
:1006D000CC2178080317C7000130CB0003131A217F
:1006E00078080317C6004608CB000313CC2178080E
:1006F0000317C6000230CB0003131A2178083F39D4
:100700000317C5004508CB000313CC217808031755
:10071000C5004508CE004608CF004708D0004E0867
:10072000D1004F08D2005008D3005130F8000130FA
:10073000F9007908FA007808C8007A08C900013081
:10074000CB003F30CA000630F8004808840083130D
:10075000491883170008F7004A08840083134B18D0
:10076000831777088000CA0A0319CB0AC80A03193D
:10077000C90AF80BA52B3F30F8000130F9007908C1
:10078000FA007808B9007A08BA000630F80039088B
:10079000840083133A1883170008F7003708840091
:1007A00083133818831777088000B70A0319B80A2B
:1007B000B90A0319BA0AF80BC72B3608B80035086E
:1007C000B70006303707F8003808FA000318FA0AAD
:1007D0007808CD007A08CE00D0004D08CF00031372
:1007E00031227A080317BC007908BB007808BA00E8
:1007F0007708B9000C303707F8003808FA000318FA
:10080000FA0A7808CD007A08CE00D0004D08CF0053
:10081000031331227A080317C0007908BF00780853
:10082000BE007708BD0039083D02C1003E08C20085
:100830003A08031C3A0FC2023F08C3003B08031CDE
:100840003B0FC3024008C4003C08031C3C0FC40219
:10085000C41F2F2CF701F801F901FA01372C4108C8
:10086000F7004208F8004308F9004408FA007A0843
:10087000C4007908C3007808C2007708C10083105B
:100880004408E2004308E1004208E0004108DF00BC
:10089000E601E5010E30E4001030E3000313C82246
:1008A0007A080317C8007908C7007808C6007708D7
:1008B000C50083144D30840083174408E2004308C8
:1008C000E1004208E0004108DF00E601E5010E30EA
:1008D000E4001030E3000313C82203175008D400CB
:1008E0004F08D3004E08D2004D08D100D6010408AD
:1008F000D5005610831B561483105008E2004F0891
:10090000E1004E08E0004D08DF00E601E501E401EA
:100910003C30E3000313C8220317550884008313F7
:10092000561883177A08CC007908CB007808CA00DB
:100930007708C90002303707F8003808FA000318B2
:10094000FA0A7808CD007A08CE00D0010408CF005A
:100950005010831B501483145130840083174408B3
:10096000E2004308E1004208E0004108DF00E60140
:10097000E5010E30E4001030E3000313C822031732
:100980005108F7005208F8005308F9005408FA001B
:100990004F0884008313501883175408D800530855
:1009A000D7005208D6005108D500DA010408D90052
:1009B0005A10831B5A1483145B3084008317540825
:1009C000E2005308E1005208E0005108DF00E601B0
:1009D000E501E4013C30E3000313C8220317590882
:1009E000840083135A1883174D08840083134E180C
:1009F00083175B0880003708840083133818831737
:100A000045088000013037078400831338188317A6
:100A10004908800003130800F801F901F701FA0101
:100A200003175F08031D172D5E080319312D1030C1
:100A3000E0000310DC0DDD0DF70DFA0D5F087A0202
:100A4000031D242D5E087702031C2D2D5E08F7027E
:100A5000031CFA035F08FA020314F80DF90DE00B0A
:100A6000192D0313080003175808DD005708DC0090
:100A70005908DE00DF01DF015E085F020318492D1F
:100A80005F085C07840083135D1883178001DF0A09
:100A90003C2DDA01D508031D502DD6080319742DFD
:100AA0005608DD005508DC00DF010A30DE000313C4
:100AB0000C2577080317DB005A08570784008313B7
:100AC000581883175B088000DA0A5608DD005508BD
:100AD000DC00DF010A30DE0003130C257908031760
:100AE000D6007808D5004A2D0313080003174A08DA
:100AF000840083134B1883170008D300CC08031914
:100B0000A82D03304A07840083134B18831700086D
:100B10000139013C031DA82D4A08840083134B189A
:100B200083178008031D972D0C30D300A82D4A0889
:100B3000840083134B18831700080C3C0318A82D5E
:100B40004A08840083134B1883170C300002D3002B
:100B5000D6015308D5000130D8004D30D7000230FF
:100B6000D90003133325013003174A078400831388
:100B70004B1883170008D400D6015408D500013063
:100B8000D8004F30D7000230D9000313332502308C
:100B900003174A07840083134B1883170008D400F7
:100BA000D6015408D5000130D8005130D7000230AA
:100BB000D900031333254D30F8000130F900080047
:100BC00001300317C900CA0183160313851183126C
:100BD000851183168510831285100317CA014808F2
:100BE0004A0203181D2E4A0846078400831347183B
:100BF00083170008CB000130C9004908083C031CDA
:100C00001B2E4B18072E03130510092E0317031371
:100C1000051483160510031083120317CB0C8316DB
:100C2000031385118312851583168511831285118F
:100C30000317C90AFD2DCA0AEF2D83160313851069
:100C400083128514831685108312851008000317FC
:100C5000C5080319602E4308C7004208C6004408AF
:100C6000C800C901C9014808490203185F2E490894
:100C70004607F8004708FA000318FA0A7808CA007D
:100C80007A08CB0049084607840083134718831766
:100C9000000803130420F80003174A088400831394
:100CA0004B1883177808800049084607840083138F
:100CB00047188317000808388000C90A332E8B2E86
:100CC0004308C7004208C6004408C800C901C9015A
:100CD0004808490203188B2E49084607F8004708C0
:100CE000FA000318FA0A7808CA007A08CB00490803
:100CF0004607840083134718831700080313042052
:100D0000F80003174A08840083134B1883177808E8
:100D10008000C90A682E4308C7004208C60044087C
:100D2000C8000313E02508002930031731078400A9
:100D300083133218831700080139013C031D072F64
:100D40003108F8003208FA007808B3007A08B400D5
:100D50003408B6003308B5000130B700B801B90156
:100D6000BA01BB013508F8003608FA007808C2005D
:100D70007A08C300CB004208CA00CC0103137625D1
:100D80007908FA0078080317C2007A08C300013016
:100D9000C5003C30C4000630F800420884008313CC
:100DA000431883170008F70044088400831345188C
:100DB000831777088000C40A0319C50AC20A0319F9
:100DC000C30AF80BCD2E3E08B8003F08B9003C0816
:100DD000BA003D08BB00B7080319F92E08303507E3
:100DE0008400831336188317001CF82E0130B700D7
:100DF000FB2E0130B7000130C3003830C200043090
:100E0000C4003708C50003132726642F03172930B1
:100E10003107840083133218831700080139031D3A
:100E2000652F3108F8003208FA007808B3007A0814
:100E3000B4003408B6003308B500B701B801B901F1
:100E4000BA013508F8003608FA007808C1007A08B7
:100E5000C200CB004108CA00CC01031376257908F3
:100E6000FA0078080317C1007A08C2000130C400F4
:100E70003B30C3000630F800410884008313421859
:100E800083170008F700430884008313441883176E
:100E900077088000C30A0319C40AC10A0319C20AE9
:100EA000F80B3C2F3F08B7004008B8003D08B900D8
:100EB0003E08BA000130C3003730C2000430C4001D
:100EC0000130C500031327260317031308008316F8
:100ED0008614831286186E2FEE0A712FEE010130F0
:100EE000BF006E08133C0318772FBF01EE017E3060
:100EF000A7000730A8008A150A12CD2A6730A7007C
:100F00000730A8008A150A12CD2A08008316061495
:100F1000831206188D2FEF0A902FEF010130C000C9
:100F20006F080C3C0318962FC001EF019D30AE00F6
:100F30000730AF008A150A12CD2A8630AE0007307E
:100F4000AF008A150A12CD2A08000130BE06AE3065
:100F5000BC000730BD008A150A12CD2AA530BC009E
:100F60000730BD008A150A12CD2A08000030F800AB
:100F700006389200FF308316920083122011200859
:100F800083168700831207110E30970083169B018A
:100F90009C0101309D000230F000FA3083120317EB
:100FA000B20032308400831700080319E42F0630A2
:100FB000F800F701F70BDA2FF80BD92F7B30F70089
:100FC000F70BE02F800BD72FF00BE72FEA2F8316BC
:100FD0000313CD2FFF308316031395008113950063
:080FE00083128A150A12562A39
:101000006B08F63E03180C2A0A3E272A0330031702
:10101000E1000530E9000C30EA00EC01EB01EE01E3
:101020000130ED00831691010230900093010330EE
:1010300092009501043094009701053096008312C8
:101040006B088D0083168C130C1483120C08831606
:10105000C1000130831269078316C2004108C30032
:101060004208C4008A11831203132B208A157708C3
:1010700083160317A40083126D088D0083168C134A
:101080000C1483120C088316C100013083126A0706
:101090008316C2004108C3004208C4008A118312AB
:1010A00003132B208A15770883160317A500A601C2
:1010B000831269088316B00083126A088316B10090
:1010C0003B30B2001108B4001008B30083126C0862
:1010D0008316BA0083126B088316B90083126E0858
:1010E0008316B80083126D088316B7001308BC007E
:1010F0001208BB001508BE001408BD001708C00088
:101100001608BF009830F8000130F9007908FA009D
:1011100078088312E3007A08E4000130E6003730F3
:10112000E5002930F80063088400831364188317EE
:101130000008F70065088400831366188317770892
:101140008000E50A0319E60AE30A0319E40AF80B2A
:1011500093283730F8000130F9007908FA00780850
:10116000B1007A08B200B4014130B3002C30F8006D
:10117000310884008313321883170008F7003308FE
:10118000840083133418831777088000B30A031987
:10119000B40AB10A0319B20AF80BB82803130C2ACF
:1011A000831686148312861C1929BE1819296C0807
:1011B000EB000317B2014130B1003108F8003208EA
:1011C000FA007808B3007A08B4003408B60033088F
:1011D000B50006303507F8003608FA000318FA0A99
:1011E0007808B7007A08B8003808BA003708B9009C
:1011F0003908840083133A1883170008BB000130B4
:101200003907840083133A1883170008BC000230A2
:101210003907840083133A1883170008BD003B0880
:10122000BE003C08BF003D08C0008A110313EF2038
:101230008A15BF08031D20290130BF000430EB00D0
:101240000C2A0317B2014130B1008A110313442361
:101250008A150317B2014130B1008A110313942695
:101260008A15BF08031D38290130BF000430EB0088
:10127000831686148312861C4129BE184129013029
:10128000EB000317B2014130B1003108F800320819
:10129000FA007808B3007A08B4003408B6003308BE
:1012A000B5003508F8003608FA007808B7007A0863
:1012B000B8003808BA003708B90039088400831329
:1012C0003A1883178008031D7729013039078400F5
:1012D00083133A1883178008031D772902303907D2
:1012E000840083133A188317800803197929003082
:1012F0007A290130F80078087808F8080319842959
:1013000002300313EB00031703130C2A0C2A0317F4
:10131000BE01BF01C0018A110313EF208A15031714
:10132000B101B201B301B4010130B1000930B20022
:101330000130B300B400C7003130C6000430C8002B
:101340008A110313E0258A1508300317B100FA301B
:10135000B20032308400831700080319BC2906301C
:10136000F800F701F70BB229F80BB1297B30F70031
:10137000F70BB829800BAF29B10BA729093003134C
:10138000EB000530ED000317BE01BF01C0018A115B
:101390000313EF208A150317B2014130B1008A11FF
:1013A000031344238A150317B2014130B1008A1197
:1013B000031394268A15A9130C2A83168614831204
:1013C000861CE929831606148312061CE9296D0878
:1013D000EB000C2A0317B2014130B1008A1103134C
:1013E00094268A15831686148312861C032ABE1837
:1013F000032A0330EB000317BE01BF01C0018A11AD
:101400000313EF208A15C008031D0C2A0130C00009
:101410000830EB00B713A917831686148312BE1089
:101420008618BE148316061483123E1106183E1544
:101430001F30B5000A30B6008A150A12CD2A0030D6
:10144000B5000830B6008A150A12CD2A08000A1025
:101450008A140A1182070628D0288629212987297B
:10146000EA290C2A0C2A0C2ADD2903081F398300DB
:10147000FF30A0003E140130BF00C000BE143E1576
:10148000EE01EF01831603170908C0398900031321
:101490001F129F12003003178800831287018801F2
:1014A000890183130313ED018A11B62F8A150317DF
:1014B000BE01BF01C0018A110313EF208A15EB01A1
:1014C000A201A4010530A300A601A5016730A70071
:1014D0000730A800A901AB010530AA00AD01013019
:1014E000AC008630AE000730AF00B001B201013071
:1014F000B100B401B3010030B5000830B600B70147
:10150000B9010A30B800BB010230BA00A530BC00F6
:101510000730BD00A10183160108C03907388100DA
:101520003D30831281000B110310210DF7008A1149
:101530001F208A15F900013077078A111F208A15AC
:10154000FA007908840083137A1883170008F900D9
:10155000840A0008F700840A0008F800840A800A58
:101560000008FA00031DB72A840A800A8403840A4B
:1015700000087802031DCF2A77087A02031DCF2ABC
:1015800084038001840A8001840AF91BCF2A840A1B
:1015900000088A0084030008820083120313A10A52
:1015A00004302102031D942AA10101080B1DDA2A2F
:0C15B0008316902AD52AFF30A1006300AA
:04400E00822FFF3FBF
:00000001FF
;PIC16F886
;CRC=73B1  CREATED="07-Nov-17 16:48"
